{
  "contractName": "ValistOrganization",
  "abi": [
    {
      "inputs": [
        {
          "internalType": "address",
          "name": "_owner",
          "type": "address"
        },
        {
          "internalType": "string",
          "name": "_meta",
          "type": "string"
        }
      ],
      "stateMutability": "nonpayable",
      "type": "constructor"
    },
    {
      "anonymous": false,
      "inputs": [
        {
          "indexed": true,
          "internalType": "bytes32",
          "name": "role",
          "type": "bytes32"
        },
        {
          "indexed": true,
          "internalType": "bytes32",
          "name": "previousAdminRole",
          "type": "bytes32"
        },
        {
          "indexed": true,
          "internalType": "bytes32",
          "name": "newAdminRole",
          "type": "bytes32"
        }
      ],
      "name": "RoleAdminChanged",
      "type": "event"
    },
    {
      "anonymous": false,
      "inputs": [
        {
          "indexed": true,
          "internalType": "bytes32",
          "name": "role",
          "type": "bytes32"
        },
        {
          "indexed": true,
          "internalType": "address",
          "name": "account",
          "type": "address"
        },
        {
          "indexed": true,
          "internalType": "address",
          "name": "sender",
          "type": "address"
        }
      ],
      "name": "RoleGranted",
      "type": "event"
    },
    {
      "anonymous": false,
      "inputs": [
        {
          "indexed": true,
          "internalType": "bytes32",
          "name": "role",
          "type": "bytes32"
        },
        {
          "indexed": true,
          "internalType": "address",
          "name": "account",
          "type": "address"
        },
        {
          "indexed": true,
          "internalType": "address",
          "name": "sender",
          "type": "address"
        }
      ],
      "name": "RoleRevoked",
      "type": "event"
    },
    {
      "inputs": [],
      "name": "DEFAULT_ADMIN_ROLE",
      "outputs": [
        {
          "internalType": "bytes32",
          "name": "",
          "type": "bytes32"
        }
      ],
      "stateMutability": "view",
      "type": "function"
    },
    {
      "inputs": [],
      "name": "active",
      "outputs": [
        {
          "internalType": "bool",
          "name": "",
          "type": "bool"
        }
      ],
      "stateMutability": "view",
      "type": "function"
    },
    {
      "inputs": [
        {
          "internalType": "bytes32",
          "name": "role",
          "type": "bytes32"
        }
      ],
      "name": "getRoleAdmin",
      "outputs": [
        {
          "internalType": "bytes32",
          "name": "",
          "type": "bytes32"
        }
      ],
      "stateMutability": "view",
      "type": "function"
    },
    {
      "inputs": [
        {
          "internalType": "bytes32",
          "name": "role",
          "type": "bytes32"
        },
        {
          "internalType": "uint256",
          "name": "index",
          "type": "uint256"
        }
      ],
      "name": "getRoleMember",
      "outputs": [
        {
          "internalType": "address",
          "name": "",
          "type": "address"
        }
      ],
      "stateMutability": "view",
      "type": "function"
    },
    {
      "inputs": [
        {
          "internalType": "bytes32",
          "name": "role",
          "type": "bytes32"
        }
      ],
      "name": "getRoleMemberCount",
      "outputs": [
        {
          "internalType": "uint256",
          "name": "",
          "type": "uint256"
        }
      ],
      "stateMutability": "view",
      "type": "function"
    },
    {
      "inputs": [
        {
          "internalType": "bytes32",
          "name": "role",
          "type": "bytes32"
        },
        {
          "internalType": "address",
          "name": "account",
          "type": "address"
        }
      ],
      "name": "grantRole",
      "outputs": [],
      "stateMutability": "nonpayable",
      "type": "function"
    },
    {
      "inputs": [
        {
          "internalType": "bytes32",
          "name": "role",
          "type": "bytes32"
        },
        {
          "internalType": "address",
          "name": "account",
          "type": "address"
        }
      ],
      "name": "hasRole",
      "outputs": [
        {
          "internalType": "bool",
          "name": "",
          "type": "bool"
        }
      ],
      "stateMutability": "view",
      "type": "function"
    },
    {
      "inputs": [],
      "name": "meta",
      "outputs": [
        {
          "internalType": "string",
          "name": "",
          "type": "string"
        }
      ],
      "stateMutability": "view",
      "type": "function"
    },
    {
      "inputs": [
        {
          "internalType": "bytes32",
          "name": "role",
          "type": "bytes32"
        },
        {
          "internalType": "address",
          "name": "account",
          "type": "address"
        }
      ],
      "name": "renounceRole",
      "outputs": [],
      "stateMutability": "nonpayable",
      "type": "function"
    },
    {
      "inputs": [
        {
          "internalType": "string",
          "name": "",
          "type": "string"
        }
      ],
      "name": "repos",
      "outputs": [
        {
          "internalType": "contract ValistRepository",
          "name": "",
          "type": "address"
        }
      ],
      "stateMutability": "view",
      "type": "function"
    },
    {
      "inputs": [
        {
          "internalType": "bytes32",
          "name": "role",
          "type": "bytes32"
        },
        {
          "internalType": "address",
          "name": "account",
          "type": "address"
        }
      ],
      "name": "revokeRole",
      "outputs": [],
      "stateMutability": "nonpayable",
      "type": "function"
    },
    {
      "inputs": [
        {
          "internalType": "string",
          "name": "_repoName",
          "type": "string"
        }
      ],
      "name": "getRepositoryAddress",
      "outputs": [
        {
          "internalType": "address",
          "name": "",
          "type": "address"
        }
      ],
      "stateMutability": "view",
      "type": "function"
    },
    {
      "inputs": [
        {
          "internalType": "string",
          "name": "_repoName",
          "type": "string"
        },
        {
          "internalType": "string",
          "name": "_meta",
          "type": "string"
        },
        {
          "internalType": "address",
          "name": "_owner",
          "type": "address"
        }
      ],
      "name": "createRepository",
      "outputs": [
        {
          "internalType": "address",
          "name": "",
          "type": "address"
        }
      ],
      "stateMutability": "nonpayable",
      "type": "function"
    },
    {
      "inputs": [
        {
          "internalType": "string",
          "name": "_meta",
          "type": "string"
        }
      ],
      "name": "updateOrgMeta",
      "outputs": [
        {
          "internalType": "string",
          "name": "",
          "type": "string"
        }
      ],
      "stateMutability": "nonpayable",
      "type": "function"
    }
  ],
  "bytecode": "0x60806040523480156200001157600080fd5b506040516200324938038062003249833981810160405260408110156200003757600080fd5b8101908080519060200190929190805160405193929190846401000000008211156200006257600080fd5b838201915060208201858111156200007957600080fd5b82518660018202830111640100000000821117156200009757600080fd5b8083526020830192505050908051906020019080838360005b83811015620000cd578082015181840152602081019050620000b0565b50505050905090810190601f168015620000fb5780820380516001836020036101000a031916815260200191505b506040525050506200014960405180807f4f52475f4f574e45525f524f4c45000000000000000000000000000000000000815250600e0190506040518091039020836200018460201b60201c565b60018060006101000a81548160ff02191690831515021790555080600290805190602001906200017b9291906200031a565b505050620003c9565b6200019682826200019a60201b60201c565b5050565b620001c8816000808581526020019081526020016000206000016200023d60201b6200136d1790919060201c565b156200023957620001de6200027560201b60201c565b73ffffffffffffffffffffffffffffffffffffffff168173ffffffffffffffffffffffffffffffffffffffff16837f2f8788117e7eff1d82e926ec794901d17c78024a50270940304540a733656f0d60405160405180910390a45b5050565b60006200026d836000018373ffffffffffffffffffffffffffffffffffffffff1660001b6200027d60201b60201c565b905092915050565b600033905090565b6000620002918383620002f760201b60201c565b620002ec578260000182908060018154018082558091505060019003906000526020600020016000909190919091505582600001805490508360010160008481526020019081526020016000208190555060019050620002f1565b600090505b92915050565b600080836001016000848152602001908152602001600020541415905092915050565b828054600181600116156101000203166002900490600052602060002090601f016020900481019282601f106200035d57805160ff19168380011785556200038e565b828001600101855582156200038e579182015b828111156200038d57825182559160200191906001019062000370565b5b5090506200039d9190620003a1565b5090565b620003c691905b80821115620003c2576000816000905550600101620003a8565b5090565b90565b612e7080620003d96000396000f3fe60806040523480156200001157600080fd5b5060043610620001005760003560e01c806391d148541162000099578063c885044e116200006f578063c885044e14620006d1578063ca15c8731462000759578063d547741f146200079e578063ecc492a014620007ef5762000100565b806391d148541462000547578063936c3a0314620005b0578063a217fddf14620006b15762000100565b80632f2ff15d11620000db5780632f2ff15d146200026f57806336568abe14620002c05780633c17348a14620003115780639010d07c14620004cc5762000100565b806302fb0c5e146200010557806312c5ad761462000129578063248a9ca3146200022a575b600080fd5b6200010f6200092c565b604051808215151515815260200191505060405180910390f35b620001e8600480360360208110156200014157600080fd5b81019080803590602001906401000000008111156200015f57600080fd5b8201836020820111156200017257600080fd5b803590602001918460018302840111640100000000831117156200019557600080fd5b91908080601f016020809104026020016040519081016040528093929190818152602001838380828437600081840152601f19601f8201169050808301925050505050505091929192905050506200093f565b604051808273ffffffffffffffffffffffffffffffffffffffff1673ffffffffffffffffffffffffffffffffffffffff16815260200191505060405180910390f35b62000259600480360360208110156200024257600080fd5b8101908080359060200190929190505050620009d4565b6040518082815260200191505060405180910390f35b620002be600480360360408110156200028757600080fd5b8101908080359060200190929190803573ffffffffffffffffffffffffffffffffffffffff169060200190929190505050620009f3565b005b6200030f60048036036040811015620002d857600080fd5b8101908080359060200190929190803573ffffffffffffffffffffffffffffffffffffffff16906020019092919050505062000a84565b005b6200048a600480360360608110156200032957600080fd5b81019080803590602001906401000000008111156200034757600080fd5b8201836020820111156200035a57600080fd5b803590602001918460018302840111640100000000831117156200037d57600080fd5b91908080601f016020809104026020016040519081016040528093929190818152602001838380828437600081840152601f19601f82011690508083019250505050505050919291929080359060200190640100000000811115620003e157600080fd5b820183602082011115620003f457600080fd5b803590602001918460018302840111640100000000831117156200041757600080fd5b91908080601f016020809104026020016040519081016040528093929190818152602001838380828437600081840152601f19601f820116905080830192505050505050509192919290803573ffffffffffffffffffffffffffffffffffffffff16906020019092919050505062000b23565b604051808273ffffffffffffffffffffffffffffffffffffffff1673ffffffffffffffffffffffffffffffffffffffff16815260200191505060405180910390f35b6200050560048036036040811015620004e457600080fd5b81019080803590602001909291908035906020019092919050505062000ebe565b604051808273ffffffffffffffffffffffffffffffffffffffff1673ffffffffffffffffffffffffffffffffffffffff16815260200191505060405180910390f35b62000596600480360360408110156200055f57600080fd5b8101908080359060200190929190803573ffffffffffffffffffffffffffffffffffffffff16906020019092919050505062000ef1565b604051808215151515815260200191505060405180910390f35b6200066f60048036036020811015620005c857600080fd5b8101908080359060200190640100000000811115620005e657600080fd5b820183602082011115620005f957600080fd5b803590602001918460018302840111640100000000831117156200061c57600080fd5b91908080601f016020809104026020016040519081016040528093929190818152602001838380828437600081840152601f19601f82011690508083019250505050505050919291929050505062000f24565b604051808273ffffffffffffffffffffffffffffffffffffffff1673ffffffffffffffffffffffffffffffffffffffff16815260200191505060405180910390f35b620006bb62000f6d565b6040518082815260200191505060405180910390f35b620006db62000f74565b6040518080602001828103825283818151815260200191508051906020019080838360005b838110156200071d57808201518184015260208101905062000700565b50505050905090810190601f1680156200074b5780820380516001836020036101000a031916815260200191505b509250505060405180910390f35b62000788600480360360208110156200077157600080fd5b810190808035906020019092919050505062001016565b6040518082815260200191505060405180910390f35b620007ed60048036036040811015620007b657600080fd5b8101908080359060200190929190803573ffffffffffffffffffffffffffffffffffffffff1690602001909291905050506200103e565b005b620008ae600480360360208110156200080757600080fd5b81019080803590602001906401000000008111156200082557600080fd5b8201836020820111156200083857600080fd5b803590602001918460018302840111640100000000831117156200085b57600080fd5b91908080601f016020809104026020016040519081016040528093929190818152602001838380828437600081840152601f19601f820116905080830192505050505050509192919290505050620010cf565b6040518080602001828103825283818151815260200191508051906020019080838360005b83811015620008f0578082015181840152602081019050620008d3565b50505050905090810190601f1680156200091e5780820380516001836020036101000a031916815260200191505b509250505060405180910390f35b600160009054906101000a900460ff1681565b60006003826040518082805190602001908083835b6020831062000979578051825260208201915060208101905060208303925062000954565b6001836020036101000a038019825116818451168082178552505050505050905001915050908152602001604051809103902060009054906101000a900473ffffffffffffffffffffffffffffffffffffffff169050919050565b6000806000838152602001908152602001600020600201549050919050565b62000a1d6000808481526020019081526020016000206002015462000a17620011d0565b62000ef1565b62000a74576040517f08c379a000000000000000000000000000000000000000000000000000000000815260040180806020018281038252602f81526020018062002d76602f913960400191505060405180910390fd5b62000a808282620011d8565b5050565b62000a8e620011d0565b73ffffffffffffffffffffffffffffffffffffffff168173ffffffffffffffffffffffffffffffffffffffff161462000b13576040517f08c379a000000000000000000000000000000000000000000000000000000000815260040180806020018281038252602f81526020018062002e0c602f913960400191505060405180910390fd5b62000b1f828262001270565b5050565b60008015156003856040518082805190602001908083835b6020831062000b60578051825260208201915060208101905060208303925062000b3b565b6001836020036101000a038019825116818451168082178552505050505050905001915050908152602001604051809103902060009054906101000a900473ffffffffffffffffffffffffffffffffffffffff1673ffffffffffffffffffffffffffffffffffffffff166302fb0c5e6040518163ffffffff1660e01b815260040160206040518083038186803b15801562000bfa57600080fd5b505afa15801562000c0f573d6000803e3d6000fd5b505050506040513d602081101562000c2657600080fd5b810190808051906020019092919050505015151462000cad576040517f08c379a000000000000000000000000000000000000000000000000000000000815260040180806020018281038252601a8152602001807f5265706f7369746f727920616c7265616479206578697374732100000000000081525060200191505060405180910390fd5b818360405162000cbd90620015ec565b808373ffffffffffffffffffffffffffffffffffffffff1673ffffffffffffffffffffffffffffffffffffffff16815260200180602001828103825283818151815260200191508051906020019080838360005b8381101562000d2e57808201518184015260208101905062000d11565b50505050905090810190601f16801562000d5c5780820380516001836020036101000a031916815260200191505b509350505050604051809103906000f08015801562000d7f573d6000803e3d6000fd5b506003856040518082805190602001908083835b6020831062000db8578051825260208201915060208101905060208303925062000d93565b6001836020036101000a038019825116818451168082178552505050505050905001915050908152602001604051809103902060006101000a81548173ffffffffffffffffffffffffffffffffffffffff021916908373ffffffffffffffffffffffffffffffffffffffff1602179055506003846040518082805190602001908083835b6020831062000e61578051825260208201915060208101905060208303925062000e3c565b6001836020036101000a038019825116818451168082178552505050505050905001915050908152602001604051809103902060009054906101000a900473ffffffffffffffffffffffffffffffffffffffff1690509392505050565b600062000ee9826000808681526020019081526020016000206000016200130890919063ffffffff16565b905092915050565b600062000f1c826000808681526020019081526020016000206000016200132490919063ffffffff16565b905092915050565b6003818051602081018201805184825260208301602085012081835280955050505050506000915054906101000a900473ffffffffffffffffffffffffffffffffffffffff1681565b6000801b81565b60028054600181600116156101000203166002900480601f0160208091040260200160405190810160405280929190818152602001828054600181600116156101000203166002900480156200100e5780601f1062000fe2576101008083540402835291602001916200100e565b820191906000526020600020905b81548152906001019060200180831162000ff057829003601f168201915b505050505081565b60006200103760008084815260200190815260200160002060000162001356565b9050919050565b620010686000808481526020019081526020016000206002015462001062620011d0565b62000ef1565b620010bf576040517f08c379a000000000000000000000000000000000000000000000000000000000815260040180806020018281038252603081526020018062002ddc6030913960400191505060405180910390fd5b620010cb828262001270565b5050565b60606200111260405180807f4f52475f4f574e45525f524f4c45000000000000000000000000000000000000815250600e01905060405180910390203362000ef1565b806200115b57506200115a60405180807f4f52475f41444d494e5f524f4c45000000000000000000000000000000000000815250600e01905060405180910390203362000ef1565b5b620011b2576040517f08c379a000000000000000000000000000000000000000000000000000000000815260040180806020018281038252603781526020018062002da56037913960400191505060405180910390fd5b8160029080519060200190620011ca929190620015fa565b50919050565b600033905090565b62001201816000808581526020019081526020016000206000016200136d90919063ffffffff16565b156200126c5762001211620011d0565b73ffffffffffffffffffffffffffffffffffffffff168173ffffffffffffffffffffffffffffffffffffffff16837f2f8788117e7eff1d82e926ec794901d17c78024a50270940304540a733656f0d60405160405180910390a45b5050565b62001299816000808581526020019081526020016000206000016200139f90919063ffffffff16565b156200130457620012a9620011d0565b73ffffffffffffffffffffffffffffffffffffffff168173ffffffffffffffffffffffffffffffffffffffff16837ff6391f5c32d9c69d2a47ea670b442974b53935d1edc7fd64eb21e047a839171b60405160405180910390a45b5050565b6000620013198360000183620013d1565b60001c905092915050565b60006200134e836000018373ffffffffffffffffffffffffffffffffffffffff1660001b62001457565b905092915050565b600062001366826000016200147a565b9050919050565b600062001397836000018373ffffffffffffffffffffffffffffffffffffffff1660001b6200148b565b905092915050565b6000620013c9836000018373ffffffffffffffffffffffffffffffffffffffff1660001b620014ff565b905092915050565b60008183600001805490501162001434576040517f08c379a000000000000000000000000000000000000000000000000000000000815260040180806020018281038252602281526020018062002d546022913960400191505060405180910390fd5b8260000182815481106200144457fe5b9060005260206000200154905092915050565b600080836001016000848152602001908152602001600020541415905092915050565b600081600001805490509050919050565b600062001499838362001457565b620014f4578260000182908060018154018082558091505060019003906000526020600020016000909190919091505582600001805490508360010160008481526020019081526020016000208190555060019050620014f9565b600090505b92915050565b60008083600101600084815260200190815260200160002054905060008114620015e057600060018203905060006001866000018054905003905060008660000182815481106200154c57fe5b90600052602060002001549050808760000184815481106200156a57fe5b9060005260206000200181905550600183018760010160008381526020019081526020016000208190555086600001805480620015a357fe5b60019003818190600052602060002001600090559055866001016000878152602001908152602001600020600090556001945050505050620015e6565b60009150505b92915050565b6116aa80620016aa83390190565b828054600181600116156101000203166002900490600052602060002090601f016020900481019282601f106200163d57805160ff19168380011785556200166e565b828001600101855582156200166e579182015b828111156200166d57825182559160200191906001019062001650565b5b5090506200167d919062001681565b5090565b620016a691905b80821115620016a257600081600090555060010162001688565b5090565b9056fe60806040523480156200001157600080fd5b50604051620016aa380380620016aa833981810160405260408110156200003757600080fd5b8101908080519060200190929190805160405193929190846401000000008211156200006257600080fd5b838201915060208201858111156200007957600080fd5b82518660018202830111640100000000821117156200009757600080fd5b8083526020830192505050908051906020019080838360005b83811015620000cd578082015181840152602081019050620000b0565b50505050905090810190601f168015620000fb5780820380516001836020036101000a031916815260200191505b506040525050506200014960405180807f5245504f5f4f574e45525f524f4c450000000000000000000000000000000000815250600f0190506040518091039020836200018460201b60201c565b60018060006101000a81548160ff02191690831515021790555080600290805190602001906200017b9291906200031a565b505050620003c9565b6200019682826200019a60201b60201c565b5050565b620001c8816000808581526020019081526020016000206000016200023d60201b62000ea21790919060201c565b156200023957620001de6200027560201b60201c565b73ffffffffffffffffffffffffffffffffffffffff168173ffffffffffffffffffffffffffffffffffffffff16837f2f8788117e7eff1d82e926ec794901d17c78024a50270940304540a733656f0d60405160405180910390a45b5050565b60006200026d836000018373ffffffffffffffffffffffffffffffffffffffff1660001b6200027d60201b60201c565b905092915050565b600033905090565b6000620002918383620002f760201b60201c565b620002ec578260000182908060018154018082558091505060019003906000526020600020016000909190919091505582600001805490508360010160008481526020019081526020016000208190555060019050620002f1565b600090505b92915050565b600080836001016000848152602001908152602001600020541415905092915050565b828054600181600116156101000203166002900490600052602060002090601f016020900481019282601f106200035d57805160ff19168380011785556200038e565b828001600101855582156200038e579182015b828111156200038d57825182559160200191906001019062000370565b5b5090506200039d9190620003a1565b5090565b620003c691905b80821115620003c2576000816000905550600101620003a8565b5090565b90565b6112d180620003d96000396000f3fe608060405234801561001057600080fd5b50600436106100ea5760003560e01c80639010d07c1161008c578063b6a9f40f11610066578063b6a9f40f14610549578063c885044e146105f0578063ca15c87314610673578063d547741f146106b5576100ea565b80639010d07c1461044d57806391d14854146104c5578063a217fddf1461052b576100ea565b80632f2ff15d116100c85780632f2ff15d146101fa57806336568abe14610248578063729aaabb146102965780637be0ca5e146103ca576100ea565b806302fb0c5e146100ef5780631620680514610111578063248a9ca3146101b8575b600080fd5b6100f7610703565b604051808215151515815260200191505060405180910390f35b61013d6004803603602081101561012757600080fd5b8101908080359060200190929190505050610716565b6040518080602001828103825283818151815260200191508051906020019080838360005b8381101561017d578082015181840152602081019050610162565b50505050905090810190601f1680156101aa5780820380516001836020036101000a031916815260200191505b509250505060405180910390f35b6101e4600480360360208110156101ce57600080fd5b81019080803590602001909291905050506107cf565b6040518082815260200191505060405180910390f35b6102466004803603604081101561021057600080fd5b8101908080359060200190929190803573ffffffffffffffffffffffffffffffffffffffff1690602001909291905050506107ee565b005b6102946004803603604081101561025e57600080fd5b8101908080359060200190929190803573ffffffffffffffffffffffffffffffffffffffff169060200190929190505050610877565b005b61034f600480360360208110156102ac57600080fd5b81019080803590602001906401000000008111156102c957600080fd5b8201836020820111156102db57600080fd5b803590602001918460018302840111640100000000831117156102fd57600080fd5b91908080601f016020809104026020016040519081016040528093929190818152602001838380828437600081840152601f19601f820116905080830192505050505050509192919290505050610910565b6040518080602001828103825283818151815260200191508051906020019080838360005b8381101561038f578082015181840152602081019050610374565b50505050905090810190601f1680156103bc5780820380516001836020036101000a031916815260200191505b509250505060405180910390f35b6103d2610a08565b6040518080602001828103825283818151815260200191508051906020019080838360005b838110156104125780820151818401526020810190506103f7565b50505050905090810190601f16801561043f5780820380516001836020036101000a031916815260200191505b509250505060405180910390f35b6104836004803603604081101561046357600080fd5b810190808035906020019092919080359060200190929190505050610aa6565b604051808273ffffffffffffffffffffffffffffffffffffffff1673ffffffffffffffffffffffffffffffffffffffff16815260200191505060405180910390f35b610511600480360360408110156104db57600080fd5b8101908080359060200190929190803573ffffffffffffffffffffffffffffffffffffffff169060200190929190505050610ad7565b604051808215151515815260200191505060405180910390f35b610533610b08565b6040518082815260200191505060405180910390f35b6105756004803603602081101561055f57600080fd5b8101908080359060200190929190505050610b0f565b6040518080602001828103825283818151815260200191508051906020019080838360005b838110156105b557808201518184015260208101905061059a565b50505050905090810190601f1680156105e25780820380516001836020036101000a031916815260200191505b509250505060405180910390f35b6105f8610bc8565b6040518080602001828103825283818151815260200191508051906020019080838360005b8381101561063857808201518184015260208101905061061d565b50505050905090810190601f1680156106655780820380516001836020036101000a031916815260200191505b509250505060405180910390f35b61069f6004803603602081101561068957600080fd5b8101908080359060200190929190505050610c66565b6040518082815260200191505060405180910390f35b610701600480360360408110156106cb57600080fd5b8101908080359060200190929190803573ffffffffffffffffffffffffffffffffffffffff169060200190929190505050610c8c565b005b600160009054906101000a900460ff1681565b6004818154811061072357fe5b906000526020600020016000915090508054600181600116156101000203166002900480601f0160208091040260200160405190810160405280929190818152602001828054600181600116156101000203166002900480156107c75780601f1061079c576101008083540402835291602001916107c7565b820191906000526020600020905b8154815290600101906020018083116107aa57829003601f168201915b505050505081565b6000806000838152602001908152602001600020600201549050919050565b6108146000808481526020019081526020016000206002015461080f610d15565b610ad7565b610869576040517f08c379a000000000000000000000000000000000000000000000000000000000815260040180806020018281038252602f8152602001806111d9602f913960400191505060405180910390fd5b6108738282610d1d565b5050565b61087f610d15565b73ffffffffffffffffffffffffffffffffffffffff168173ffffffffffffffffffffffffffffffffffffffff1614610902576040517f08c379a000000000000000000000000000000000000000000000000000000000815260040180806020018281038252602f81526020018061126d602f913960400191505060405180910390fd5b61090c8282610db0565b5050565b606061095160405180807f5245504f5f4f574e45525f524f4c450000000000000000000000000000000000815250600f019050604051809103902033610ad7565b80610997575061099660405180807f5245504f5f41444d494e5f524f4c450000000000000000000000000000000000815250600f019050604051809103902033610ad7565b5b6109ec576040517f08c379a00000000000000000000000000000000000000000000000000000000081526004018080602001828103825260358152602001806112386035913960400191505060405180910390fd5b8160029080519060200190610a02929190611111565b50919050565b60038054600181600116156101000203166002900480601f016020809104026020016040519081016040528092919081815260200182805460018160011615610100020316600290048015610a9e5780601f10610a7357610100808354040283529160200191610a9e565b820191906000526020600020905b815481529060010190602001808311610a8157829003601f168201915b505050505081565b6000610acf82600080868152602001908152602001600020600001610e4390919063ffffffff16565b905092915050565b6000610b0082600080868152602001908152602001600020600001610e5d90919063ffffffff16565b905092915050565b6000801b81565b60058181548110610b1c57fe5b906000526020600020016000915090508054600181600116156101000203166002900480601f016020809104026020016040519081016040528092919081815260200182805460018160011615610100020316600290048015610bc05780601f10610b9557610100808354040283529160200191610bc0565b820191906000526020600020905b815481529060010190602001808311610ba357829003601f168201915b505050505081565b60028054600181600116156101000203166002900480601f016020809104026020016040519081016040528092919081815260200182805460018160011615610100020316600290048015610c5e5780601f10610c3357610100808354040283529160200191610c5e565b820191906000526020600020905b815481529060010190602001808311610c4157829003601f168201915b505050505081565b6000610c85600080848152602001908152602001600020600001610e8d565b9050919050565b610cb260008084815260200190815260200160002060020154610cad610d15565b610ad7565b610d07576040517f08c379a00000000000000000000000000000000000000000000000000000000081526004018080602001828103825260308152602001806112086030913960400191505060405180910390fd5b610d118282610db0565b5050565b600033905090565b610d4481600080858152602001908152602001600020600001610ea290919063ffffffff16565b15610dac57610d51610d15565b73ffffffffffffffffffffffffffffffffffffffff168173ffffffffffffffffffffffffffffffffffffffff16837f2f8788117e7eff1d82e926ec794901d17c78024a50270940304540a733656f0d60405160405180910390a45b5050565b610dd781600080858152602001908152602001600020600001610ed290919063ffffffff16565b15610e3f57610de4610d15565b73ffffffffffffffffffffffffffffffffffffffff168173ffffffffffffffffffffffffffffffffffffffff16837ff6391f5c32d9c69d2a47ea670b442974b53935d1edc7fd64eb21e047a839171b60405160405180910390a45b5050565b6000610e528360000183610f02565b60001c905092915050565b6000610e85836000018373ffffffffffffffffffffffffffffffffffffffff1660001b610f85565b905092915050565b6000610e9b82600001610fa8565b9050919050565b6000610eca836000018373ffffffffffffffffffffffffffffffffffffffff1660001b610fb9565b905092915050565b6000610efa836000018373ffffffffffffffffffffffffffffffffffffffff1660001b611029565b905092915050565b600081836000018054905011610f63576040517f08c379a00000000000000000000000000000000000000000000000000000000081526004018080602001828103825260228152602001806111b76022913960400191505060405180910390fd5b826000018281548110610f7257fe5b9060005260206000200154905092915050565b600080836001016000848152602001908152602001600020541415905092915050565b600081600001805490509050919050565b6000610fc58383610f85565b61101e578260000182908060018154018082558091505060019003906000526020600020016000909190919091505582600001805490508360010160008481526020019081526020016000208190555060019050611023565b600090505b92915050565b60008083600101600084815260200190815260200160002054905060008114611105576000600182039050600060018660000180549050039050600086600001828154811061107457fe5b906000526020600020015490508087600001848154811061109157fe5b90600052602060002001819055506001830187600101600083815260200190815260200160002081905550866000018054806110c957fe5b6001900381819060005260206000200160009055905586600101600087815260200190815260200160002060009055600194505050505061110b565b60009150505b92915050565b828054600181600116156101000203166002900490600052602060002090601f016020900481019282601f1061115257805160ff1916838001178555611180565b82800160010185558215611180579182015b8281111561117f578251825591602001919060010190611164565b5b50905061118d9190611191565b5090565b6111b391905b808211156111af576000816000905550600101611197565b5090565b9056fe456e756d657261626c655365743a20696e646578206f7574206f6620626f756e6473416363657373436f6e74726f6c3a2073656e646572206d75737420626520616e2061646d696e20746f206772616e74416363657373436f6e74726f6c3a2073656e646572206d75737420626520616e2061646d696e20746f207265766f6b65596f7520646f206e6f742068617665207065726d697373696f6e20746f206d6f646966792074686973207265706f7369746f727921416363657373436f6e74726f6c3a2063616e206f6e6c792072656e6f756e636520726f6c657320666f722073656c66a2646970667358221220b0c66404a949dc23f23001a17888290a8d3375a1c00d4b6518cde6ff6ff4b02464736f6c63430006020033456e756d657261626c655365743a20696e646578206f7574206f6620626f756e6473416363657373436f6e74726f6c3a2073656e646572206d75737420626520616e2061646d696e20746f206772616e74596f7520646f206e6f742068617665207065726d697373696f6e20746f206d6f646966792074686973206f7267616e697a6174696f6e21416363657373436f6e74726f6c3a2073656e646572206d75737420626520616e2061646d696e20746f207265766f6b65416363657373436f6e74726f6c3a2063616e206f6e6c792072656e6f756e636520726f6c657320666f722073656c66a264697066735822122013296043f0caee5b4fd77ef40d949321bccb1f9f75219ac580b2de6c33c00dc364736f6c63430006020033",
  "source": "// SPDX-License-Identifier: MIT\npragma solidity >=0.4.21 <0.7.0;\n\nimport \"@openzeppelin/contracts/access/AccessControl.sol\";\nimport \"./ValistRepository.sol\";\n\ncontract ValistOrganization is AccessControl {\n    bytes32 constant ORG_OWNER = keccak256(\"ORG_OWNER_ROLE\");\n    bytes32 constant ORG_ADMIN = keccak256(\"ORG_ADMIN_ROLE\");\n\n    bool public active;\n    string public meta; // org metadata (full name, image, description, etc)\n\n    mapping(string => ValistRepository) public repos;\n\n    constructor(address _owner, string memory _meta) public {\n        _setupRole(ORG_OWNER, _owner);\n        active = true;\n        meta = _meta;\n    }\n\n    function getRepositoryAddress(string memory _repoName) public view returns(address) {\n        return address(repos[_repoName]);\n    }\n\n    function createRepository(string memory _repoName, string memory _meta, address _owner) public returns(address) {\n        require(repos[_repoName].active() == false, \"Repository already exists!\");\n        repos[_repoName] = new ValistRepository(_owner, _meta);\n        return address(repos[_repoName]);\n    }\n\n    function updateOrgMeta(string memory _meta) public returns (string memory) {\n        require(hasRole(ORG_OWNER, msg.sender) || hasRole(ORG_ADMIN, msg.sender), \"You do not have permission to modify this organization!\");\n        meta = _meta;\n    }\n\n}\n",
  "sourcePath": "/Users/alec/Workspace/valist/eth/contracts/ValistOrganization.sol",
  "compiler": {
    "name": "solc",
    "version": "0.6.2+commit.bacdbe57.Emscripten.clang"
  },
  "schemaVersion": "3.2.3",
  "updatedAt": "2020-07-30T19:21:34.127Z",
  "devdoc": {
    "methods": {
      "getRoleAdmin(bytes32)": {
        "details": "Returns the admin role that controls `role`. See {grantRole} and {revokeRole}.     * To change a role's admin, use {_setRoleAdmin}."
      },
      "getRoleMember(bytes32,uint256)": {
        "details": "Returns one of the accounts that have `role`. `index` must be a value between 0 and {getRoleMemberCount}, non-inclusive.     * Role bearers are not sorted in any particular way, and their ordering may change at any point.     * WARNING: When using {getRoleMember} and {getRoleMemberCount}, make sure you perform all queries on the same block. See the following https://forum.openzeppelin.com/t/iterating-over-elements-on-enumerableset-in-openzeppelin-contracts/2296[forum post] for more information."
      },
      "getRoleMemberCount(bytes32)": {
        "details": "Returns the number of accounts that have `role`. Can be used together with {getRoleMember} to enumerate all bearers of a role."
      },
      "grantRole(bytes32,address)": {
        "details": "Grants `role` to `account`.     * If `account` had not been already granted `role`, emits a {RoleGranted} event.     * Requirements:     * - the caller must have ``role``'s admin role."
      },
      "hasRole(bytes32,address)": {
        "details": "Returns `true` if `account` has been granted `role`."
      },
      "renounceRole(bytes32,address)": {
        "details": "Revokes `role` from the calling account.     * Roles are often managed via {grantRole} and {revokeRole}: this function's purpose is to provide a mechanism for accounts to lose their privileges if they are compromised (such as when a trusted device is misplaced).     * If the calling account had been granted `role`, emits a {RoleRevoked} event.     * Requirements:     * - the caller must be `account`."
      },
      "revokeRole(bytes32,address)": {
        "details": "Revokes `role` from `account`.     * If `account` had been granted `role`, emits a {RoleRevoked} event.     * Requirements:     * - the caller must have ``role``'s admin role."
      }
    }
  },
  "userdoc": {
    "methods": {}
  }
}