{
  "contractName": "Valist",
  "abi": [
    {
      "anonymous": false,
      "inputs": [
        {
          "indexed": true,
          "internalType": "bytes32",
          "name": "role",
          "type": "bytes32"
        },
        {
          "indexed": true,
          "internalType": "bytes32",
          "name": "previousAdminRole",
          "type": "bytes32"
        },
        {
          "indexed": true,
          "internalType": "bytes32",
          "name": "newAdminRole",
          "type": "bytes32"
        }
      ],
      "name": "RoleAdminChanged",
      "type": "event"
    },
    {
      "anonymous": false,
      "inputs": [
        {
          "indexed": true,
          "internalType": "bytes32",
          "name": "role",
          "type": "bytes32"
        },
        {
          "indexed": true,
          "internalType": "address",
          "name": "account",
          "type": "address"
        },
        {
          "indexed": true,
          "internalType": "address",
          "name": "sender",
          "type": "address"
        }
      ],
      "name": "RoleGranted",
      "type": "event"
    },
    {
      "anonymous": false,
      "inputs": [
        {
          "indexed": true,
          "internalType": "bytes32",
          "name": "role",
          "type": "bytes32"
        },
        {
          "indexed": true,
          "internalType": "address",
          "name": "account",
          "type": "address"
        },
        {
          "indexed": true,
          "internalType": "address",
          "name": "sender",
          "type": "address"
        }
      ],
      "name": "RoleRevoked",
      "type": "event"
    },
    {
      "anonymous": false,
      "inputs": [
        {
          "indexed": false,
          "internalType": "string",
          "name": "orgName",
          "type": "string"
        },
        {
          "indexed": false,
          "internalType": "string",
          "name": "repoName",
          "type": "string"
        },
        {
          "indexed": false,
          "internalType": "string",
          "name": "meta",
          "type": "string"
        },
        {
          "indexed": false,
          "internalType": "string",
          "name": "changelog",
          "type": "string"
        },
        {
          "indexed": false,
          "internalType": "string",
          "name": "release",
          "type": "string"
        }
      ],
      "name": "Update",
      "type": "event"
    },
    {
      "inputs": [],
      "name": "DEFAULT_ADMIN_ROLE",
      "outputs": [
        {
          "internalType": "bytes32",
          "name": "",
          "type": "bytes32"
        }
      ],
      "stateMutability": "view",
      "type": "function",
      "constant": true
    },
    {
      "inputs": [
        {
          "internalType": "bytes32",
          "name": "role",
          "type": "bytes32"
        }
      ],
      "name": "getRoleAdmin",
      "outputs": [
        {
          "internalType": "bytes32",
          "name": "",
          "type": "bytes32"
        }
      ],
      "stateMutability": "view",
      "type": "function",
      "constant": true
    },
    {
      "inputs": [
        {
          "internalType": "bytes32",
          "name": "role",
          "type": "bytes32"
        },
        {
          "internalType": "uint256",
          "name": "index",
          "type": "uint256"
        }
      ],
      "name": "getRoleMember",
      "outputs": [
        {
          "internalType": "address",
          "name": "",
          "type": "address"
        }
      ],
      "stateMutability": "view",
      "type": "function",
      "constant": true
    },
    {
      "inputs": [
        {
          "internalType": "bytes32",
          "name": "role",
          "type": "bytes32"
        }
      ],
      "name": "getRoleMemberCount",
      "outputs": [
        {
          "internalType": "uint256",
          "name": "",
          "type": "uint256"
        }
      ],
      "stateMutability": "view",
      "type": "function",
      "constant": true
    },
    {
      "inputs": [
        {
          "internalType": "bytes32",
          "name": "role",
          "type": "bytes32"
        },
        {
          "internalType": "address",
          "name": "account",
          "type": "address"
        }
      ],
      "name": "grantRole",
      "outputs": [],
      "stateMutability": "nonpayable",
      "type": "function"
    },
    {
      "inputs": [
        {
          "internalType": "bytes32",
          "name": "role",
          "type": "bytes32"
        },
        {
          "internalType": "address",
          "name": "account",
          "type": "address"
        }
      ],
      "name": "hasRole",
      "outputs": [
        {
          "internalType": "bool",
          "name": "",
          "type": "bool"
        }
      ],
      "stateMutability": "view",
      "type": "function",
      "constant": true
    },
    {
      "inputs": [
        {
          "internalType": "string",
          "name": "",
          "type": "string"
        }
      ],
      "name": "orgs",
      "outputs": [
        {
          "internalType": "string",
          "name": "meta",
          "type": "string"
        },
        {
          "internalType": "bool",
          "name": "active",
          "type": "bool"
        }
      ],
      "stateMutability": "view",
      "type": "function",
      "constant": true
    },
    {
      "inputs": [
        {
          "internalType": "bytes32",
          "name": "role",
          "type": "bytes32"
        },
        {
          "internalType": "address",
          "name": "account",
          "type": "address"
        }
      ],
      "name": "renounceRole",
      "outputs": [],
      "stateMutability": "nonpayable",
      "type": "function"
    },
    {
      "inputs": [
        {
          "internalType": "bytes32",
          "name": "role",
          "type": "bytes32"
        },
        {
          "internalType": "address",
          "name": "account",
          "type": "address"
        }
      ],
      "name": "revokeRole",
      "outputs": [],
      "stateMutability": "nonpayable",
      "type": "function"
    },
    {
      "inputs": [
        {
          "internalType": "string",
          "name": "orgName",
          "type": "string"
        },
        {
          "internalType": "string",
          "name": "repoName",
          "type": "string"
        }
      ],
      "name": "getRepositoryMetaByOrganization",
      "outputs": [
        {
          "internalType": "string",
          "name": "meta",
          "type": "string"
        }
      ],
      "stateMutability": "view",
      "type": "function",
      "constant": true
    },
    {
      "inputs": [
        {
          "internalType": "string",
          "name": "orgName",
          "type": "string"
        },
        {
          "internalType": "string",
          "name": "repoName",
          "type": "string"
        }
      ],
      "name": "getRepositoryLatestReleaseByOrganization",
      "outputs": [
        {
          "internalType": "string",
          "name": "meta",
          "type": "string"
        }
      ],
      "stateMutability": "view",
      "type": "function",
      "constant": true
    },
    {
      "inputs": [
        {
          "internalType": "string",
          "name": "orgName",
          "type": "string"
        },
        {
          "internalType": "string",
          "name": "meta",
          "type": "string"
        }
      ],
      "name": "createOrganization",
      "outputs": [],
      "stateMutability": "nonpayable",
      "type": "function"
    },
    {
      "inputs": [
        {
          "internalType": "string",
          "name": "orgName",
          "type": "string"
        },
        {
          "internalType": "string",
          "name": "repoName",
          "type": "string"
        },
        {
          "internalType": "string",
          "name": "meta",
          "type": "string"
        }
      ],
      "name": "createRepository",
      "outputs": [],
      "stateMutability": "nonpayable",
      "type": "function"
    }
  ],
  "bytecode": "0x608060405234801561001057600080fd5b50611d54806100206000396000f3fe608060405234801561001057600080fd5b50600436106100cf5760003560e01c80634899daa91161008c578063a217fddf11610066578063a217fddf1461094e578063a411ef201461096c578063ca15c87314610abe578063d547741f14610b00576100cf565b80634899daa9146106a55780639010d07c1461087057806391d14854146108e8576100cf565b8063067816ea146100d4578063248a9ca3146102135780632b90801a146102555780632f2ff15d1461042057806336568abe1461046e5780633c733e6f146104bc575b600080fd5b61018d600480360360208110156100ea57600080fd5b810190808035906020019064010000000081111561010757600080fd5b82018360208201111561011957600080fd5b8035906020019184600183028401116401000000008311171561013b57600080fd5b91908080601f016020809104026020016040519081016040528093929190818152602001838380828437600081840152601f19601f820116905080830192505050505050509192919290505050610b4e565b604051808060200183151515158152602001828103825284818151815260200191508051906020019080838360005b838110156101d75780820151818401526020810190506101bc565b50505050905090810190601f1680156102045780820380516001836020036101000a031916815260200191505b50935050505060405180910390f35b61023f6004803603602081101561022957600080fd5b8101908080359060200190929190505050610c2d565b6040518082815260200191505060405180910390f35b6103a56004803603604081101561026b57600080fd5b810190808035906020019064010000000081111561028857600080fd5b82018360208201111561029a57600080fd5b803590602001918460018302840111640100000000831117156102bc57600080fd5b91908080601f016020809104026020016040519081016040528093929190818152602001838380828437600081840152601f19601f8201169050808301925050505050505091929192908035906020019064010000000081111561031f57600080fd5b82018360208201111561033157600080fd5b8035906020019184600183028401116401000000008311171561035357600080fd5b91908080601f016020809104026020016040519081016040528093929190818152602001838380828437600081840152601f19601f820116905080830192505050505050509192919290505050610c4c565b6040518080602001828103825283818151815260200191508051906020019080838360005b838110156103e55780820151818401526020810190506103ca565b50505050905090810190601f1680156104125780820380516001836020036101000a031916815260200191505b509250505060405180910390f35b61046c6004803603604081101561043657600080fd5b8101908080359060200190929190803573ffffffffffffffffffffffffffffffffffffffff169060200190929190505050610dc5565b005b6104ba6004803603604081101561048457600080fd5b8101908080359060200190929190803573ffffffffffffffffffffffffffffffffffffffff169060200190929190505050610e4e565b005b6106a3600480360360608110156104d257600080fd5b81019080803590602001906401000000008111156104ef57600080fd5b82018360208201111561050157600080fd5b8035906020019184600183028401116401000000008311171561052357600080fd5b91908080601f016020809104026020016040519081016040528093929190818152602001838380828437600081840152601f19601f8201169050808301925050505050505091929192908035906020019064010000000081111561058657600080fd5b82018360208201111561059857600080fd5b803590602001918460018302840111640100000000831117156105ba57600080fd5b91908080601f016020809104026020016040519081016040528093929190818152602001838380828437600081840152601f19601f8201169050808301925050505050505091929192908035906020019064010000000081111561061d57600080fd5b82018360208201111561062f57600080fd5b8035906020019184600183028401116401000000008311171561065157600080fd5b91908080601f016020809104026020016040519081016040528093929190818152602001838380828437600081840152601f19601f820116905080830192505050505050509192919290505050610ee7565b005b6107f5600480360360408110156106bb57600080fd5b81019080803590602001906401000000008111156106d857600080fd5b8201836020820111156106ea57600080fd5b8035906020019184600183028401116401000000008311171561070c57600080fd5b91908080601f016020809104026020016040519081016040528093929190818152602001838380828437600081840152601f19601f8201169050808301925050505050505091929192908035906020019064010000000081111561076f57600080fd5b82018360208201111561078157600080fd5b803590602001918460018302840111640100000000831117156107a357600080fd5b91908080601f016020809104026020016040519081016040528093929190818152602001838380828437600081840152601f19601f8201169050808301925050505050505091929192905050506112b1565b6040518080602001828103825283818151815260200191508051906020019080838360005b8381101561083557808201518184015260208101905061081a565b50505050905090810190601f1680156108625780820380516001836020036101000a031916815260200191505b509250505060405180910390f35b6108a66004803603604081101561088657600080fd5b81019080803590602001909291908035906020019092919050505061142a565b604051808273ffffffffffffffffffffffffffffffffffffffff1673ffffffffffffffffffffffffffffffffffffffff16815260200191505060405180910390f35b610934600480360360408110156108fe57600080fd5b8101908080359060200190929190803573ffffffffffffffffffffffffffffffffffffffff16906020019092919050505061145b565b604051808215151515815260200191505060405180910390f35b61095661148c565b6040518082815260200191505060405180910390f35b610abc6004803603604081101561098257600080fd5b810190808035906020019064010000000081111561099f57600080fd5b8201836020820111156109b157600080fd5b803590602001918460018302840111640100000000831117156109d357600080fd5b91908080601f016020809104026020016040519081016040528093929190818152602001838380828437600081840152601f19601f82011690508083019250505050505050919291929080359060200190640100000000811115610a3657600080fd5b820183602082011115610a4857600080fd5b80359060200191846001830284011164010000000083111715610a6a57600080fd5b91908080601f016020809104026020016040519081016040528093929190818152602001838380828437600081840152601f19601f820116905080830192505050505050509192919290505050611493565b005b610aea60048036036020811015610ad457600080fd5b810190808035906020019092919050505061171e565b6040518082815260200191505060405180910390f35b610b4c60048036036040811015610b1657600080fd5b8101908080359060200190929190803573ffffffffffffffffffffffffffffffffffffffff169060200190929190505050611744565b005b600181805160208101820180518482526020830160208501208183528095505050505050600091509050806002018054600181600116156101000203166002900480601f016020809104026020016040519081016040528092919081815260200182805460018160011615610100020316600290048015610c105780601f10610be557610100808354040283529160200191610c10565b820191906000526020600020905b815481529060010190602001808311610bf357829003601f168201915b5050505050908060030160009054906101000a900460ff16905082565b6000806000838152602001908152602001600020600201549050919050565b60606001836040518082805190602001908083835b60208310610c845780518252602082019150602081019050602083039250610c61565b6001836020036101000a0380198251168184511680821785525050505050509050019150509081526020016040518091039020600101826040518082805190602001908083835b60208310610cee5780518252602082019150602081019050602083039250610ccb565b6001836020036101000a03801982511681845116808217855250505050505090500191505090815260200160405180910390206003018054600181600116156101000203166002900480601f016020809104026020016040519081016040528092919081815260200182805460018160011615610100020316600290048015610db85780601f10610d8d57610100808354040283529160200191610db8565b820191906000526020600020905b815481529060010190602001808311610d9b57829003601f168201915b5050505050905092915050565b610deb60008084815260200190815260200160002060020154610de66117cd565b61145b565b610e40576040517f08c379a000000000000000000000000000000000000000000000000000000000815260040180806020018281038252602f815260200180611c91602f913960400191505060405180910390fd5b610e4a82826117d5565b5050565b610e566117cd565b73ffffffffffffffffffffffffffffffffffffffff168173ffffffffffffffffffffffffffffffffffffffff1614610ed9576040517f08c379a000000000000000000000000000000000000000000000000000000000815260040180806020018281038252602f815260200180611cf0602f913960400191505060405180910390fd5b610ee38282611868565b5050565b600015156001846040518082805190602001908083835b60208310610f215780518252602082019150602081019050602083039250610efe565b6001836020036101000a0380198251168184511680821785525050505050509050019150509081526020016040518091039020600101836040518082805190602001908083835b60208310610f8b5780518252602082019150602081019050602083039250610f68565b6001836020036101000a038019825116818451168082178552505050505050905001915050908152602001604051809103902060050160009054906101000a900460ff16151514611044576040517f08c379a000000000000000000000000000000000000000000000000000000000815260040180806020018281038252601a8152602001807f5265706f7369746f727920616c7265616479206578697374732100000000000081525060200191505060405180910390fd5b806001846040518082805190602001908083835b6020831061107b5780518252602082019150602081019050602083039250611058565b6001836020036101000a0380198251168184511680821785525050505050509050019150509081526020016040518091039020600101836040518082805190602001908083835b602083106110e557805182526020820191506020810190506020830392506110c2565b6001836020036101000a0380198251168184511680821785525050505050509050019150509081526020016040518091039020600301908051906020019061112e929190611bc9565b506001836040518082805190602001908083835b602083106111655780518252602082019150602081019050602083039250611142565b6001836020036101000a0380198251168184511680821785525050505050509050019150509081526020016040518091039020600101826040518082805190602001908083835b602083106111cf57805182526020820191506020810190506020830392506111ac565b6001836020036101000a0380198251168184511680821785525050505050509050019150509081526020016040518091039020600001600060405180807f5245504f5f4f574e45525f524f4c450000000000000000000000000000000000815250600f01905060405180910390208152602001908152602001600020339080600181540180825580915050600190039060005260206000200160009091909190916101000a81548173ffffffffffffffffffffffffffffffffffffffff021916908373ffffffffffffffffffffffffffffffffffffffff160217905550505050565b60606001836040518082805190602001908083835b602083106112e957805182526020820191506020810190506020830392506112c6565b6001836020036101000a0380198251168184511680821785525050505050509050019150509081526020016040518091039020600101826040518082805190602001908083835b602083106113535780518252602082019150602081019050602083039250611330565b6001836020036101000a03801982511681845116808217855250505050505090500191505090815260200160405180910390206004018054600181600116156101000203166002900480601f01602080910402602001604051908101604052809291908181526020018280546001816001161561010002031660029004801561141d5780601f106113f25761010080835404028352916020019161141d565b820191906000526020600020905b81548152906001019060200180831161140057829003601f168201915b5050505050905092915050565b6000611453826000808681526020019081526020016000206000016118fb90919063ffffffff16565b905092915050565b60006114848260008086815260200190815260200160002060000161191590919063ffffffff16565b905092915050565b6000801b81565b600015156001836040518082805190602001908083835b602083106114cd57805182526020820191506020810190506020830392506114aa565b6001836020036101000a038019825116818451168082178552505050505050905001915050908152602001604051809103902060030160009054906101000a900460ff16151514611586576040517f08c379a000000000000000000000000000000000000000000000000000000000815260040180806020018281038252601c8152602001807f4f7267616e697a6174696f6e20616c726561647920657869737473210000000081525060200191505060405180910390fd5b806001836040518082805190602001908083835b602083106115bd578051825260208201915060208101905060208303925061159a565b6001836020036101000a03801982511681845116808217855250505050505090500191505090815260200160405180910390206002019080519060200190611606929190611bc9565b506001826040518082805190602001908083835b6020831061163d578051825260208201915060208101905060208303925061161a565b6001836020036101000a0380198251168184511680821785525050505050509050019150509081526020016040518091039020600001600060405180807f4f52475f4f574e45525f524f4c45000000000000000000000000000000000000815250600e01905060405180910390208152602001908152602001600020339080600181540180825580915050600190039060005260206000200160009091909190916101000a81548173ffffffffffffffffffffffffffffffffffffffff021916908373ffffffffffffffffffffffffffffffffffffffff1602179055505050565b600061173d600080848152602001908152602001600020600001611945565b9050919050565b61176a600080848152602001908152602001600020600201546117656117cd565b61145b565b6117bf576040517f08c379a0000000000000000000000000000000000000000000000000000000008152600401808060200182810382526030815260200180611cc06030913960400191505060405180910390fd5b6117c98282611868565b5050565b600033905090565b6117fc8160008085815260200190815260200160002060000161195a90919063ffffffff16565b15611864576118096117cd565b73ffffffffffffffffffffffffffffffffffffffff168173ffffffffffffffffffffffffffffffffffffffff16837f2f8788117e7eff1d82e926ec794901d17c78024a50270940304540a733656f0d60405160405180910390a45b5050565b61188f8160008085815260200190815260200160002060000161198a90919063ffffffff16565b156118f75761189c6117cd565b73ffffffffffffffffffffffffffffffffffffffff168173ffffffffffffffffffffffffffffffffffffffff16837ff6391f5c32d9c69d2a47ea670b442974b53935d1edc7fd64eb21e047a839171b60405160405180910390a45b5050565b600061190a83600001836119ba565b60001c905092915050565b600061193d836000018373ffffffffffffffffffffffffffffffffffffffff1660001b611a3d565b905092915050565b600061195382600001611a60565b9050919050565b6000611982836000018373ffffffffffffffffffffffffffffffffffffffff1660001b611a71565b905092915050565b60006119b2836000018373ffffffffffffffffffffffffffffffffffffffff1660001b611ae1565b905092915050565b600081836000018054905011611a1b576040517f08c379a0000000000000000000000000000000000000000000000000000000008152600401808060200182810382526022815260200180611c6f6022913960400191505060405180910390fd5b826000018281548110611a2a57fe5b9060005260206000200154905092915050565b600080836001016000848152602001908152602001600020541415905092915050565b600081600001805490509050919050565b6000611a7d8383611a3d565b611ad6578260000182908060018154018082558091505060019003906000526020600020016000909190919091505582600001805490508360010160008481526020019081526020016000208190555060019050611adb565b600090505b92915050565b60008083600101600084815260200190815260200160002054905060008114611bbd5760006001820390506000600186600001805490500390506000866000018281548110611b2c57fe5b9060005260206000200154905080876000018481548110611b4957fe5b9060005260206000200181905550600183018760010160008381526020019081526020016000208190555086600001805480611b8157fe5b60019003818190600052602060002001600090559055866001016000878152602001908152602001600020600090556001945050505050611bc3565b60009150505b92915050565b828054600181600116156101000203166002900490600052602060002090601f016020900481019282601f10611c0a57805160ff1916838001178555611c38565b82800160010185558215611c38579182015b82811115611c37578251825591602001919060010190611c1c565b5b509050611c459190611c49565b5090565b611c6b91905b80821115611c67576000816000905550600101611c4f565b5090565b9056fe456e756d657261626c655365743a20696e646578206f7574206f6620626f756e6473416363657373436f6e74726f6c3a2073656e646572206d75737420626520616e2061646d696e20746f206772616e74416363657373436f6e74726f6c3a2073656e646572206d75737420626520616e2061646d696e20746f207265766f6b65416363657373436f6e74726f6c3a2063616e206f6e6c792072656e6f756e636520726f6c657320666f722073656c66a26469706673582212201baa35c397cab05eff5b2c5c7a51a71d8385c4d32d6009623250ab1657fabbcb64736f6c63430006020033",
  "source": "// SPDX-License-Identifier: MIT\npragma solidity >=0.4.21 <0.7.0;\n\nimport \"@openzeppelin/contracts/access/AccessControl.sol\";\n\ncontract Valist is AccessControl {\n\n    bytes32 constant REPO_OWNER = keccak256(\"REPO_OWNER_ROLE\");\n    bytes32 constant ORG_OWNER = keccak256(\"ORG_OWNER_ROLE\");\n\n    bytes32 constant REPO_ADMIN = keccak256(\"REPO_ADMIN_ROLE\");\n    bytes32 constant ORG_ADMIN = keccak256(\"ORG_ADMIN_ROLE\");\n\n    bytes32 constant APP_DEV = keccak256(\"APP_DEV_ROLE\");\n\n    struct Repository {\n        mapping(bytes32 => address[]) usersByRole;\n        string[] changelog; // list of IPFS uris for any changelogs (also emitted as an event during update)\n        string[] releases; // list of previous release ipfs hashes\n        string meta; // ipfs URI for metadata (image, description, etc)\n        string latest; // latest release hash (should be the latest push to releases array)\n        bool active;\n    }\n\n    struct Organization {\n        mapping(bytes32 => address[]) usersByRole;\n        mapping(string => Repository) repos;\n        string meta; // org metadata (full name, image, description, etc)\n        bool active;\n    }\n\n    event Update(string orgName, string repoName, string meta, string changelog, string release);\n\n    // [valist.io]/[organization]/[repository]\n\n    // map an organization handle to an Organization struct\n    mapping(string => Organization) public orgs;\n\n    function getRepositoryMetaByOrganization(string memory orgName, string memory repoName) public view returns(string memory meta) {\n        return orgs[orgName].repos[repoName].meta;\n    }\n\n    function getRepositoryLatestReleaseByOrganization(string memory orgName, string memory repoName) public view returns(string memory meta) {\n        return orgs[orgName].repos[repoName].latest;\n    }\n\n    function createOrganization(string memory orgName, string memory meta) public {\n        require(orgs[orgName].active == false, \"Organization already exists!\");\n        orgs[orgName].meta = meta;\n        orgs[orgName].usersByRole[ORG_OWNER].push(msg.sender); // add user to org owner role\n    }\n\n    function createRepository(string memory orgName, string memory repoName, string memory meta) public {\n        require(orgs[orgName].repos[repoName].active == false, \"Repository already exists!\");\n        // @TODO require that user is of admin or owner role\n        // (and likely change the way we store the roles, since OZ uses roles globally, when we need them per-org and per-repo)\n        orgs[orgName].repos[repoName].meta = meta;\n        orgs[orgName].repos[repoName].usersByRole[REPO_OWNER].push(msg.sender);\n    }\n\n}\n",
  "sourcePath": "/Users/alec/Workspace/valist/eth/contracts/ValistOld.sol",
  "compiler": {
    "name": "solc",
    "version": "0.6.2+commit.bacdbe57.Emscripten.clang"
  },
  "schemaVersion": "3.2.3",
  "updatedAt": "2020-07-30T19:23:29.142Z",
  "networkType": "ethereum",
  "devdoc": {
    "methods": {
      "getRoleAdmin(bytes32)": {
        "details": "Returns the admin role that controls `role`. See {grantRole} and {revokeRole}.     * To change a role's admin, use {_setRoleAdmin}."
      },
      "getRoleMember(bytes32,uint256)": {
        "details": "Returns one of the accounts that have `role`. `index` must be a value between 0 and {getRoleMemberCount}, non-inclusive.     * Role bearers are not sorted in any particular way, and their ordering may change at any point.     * WARNING: When using {getRoleMember} and {getRoleMemberCount}, make sure you perform all queries on the same block. See the following https://forum.openzeppelin.com/t/iterating-over-elements-on-enumerableset-in-openzeppelin-contracts/2296[forum post] for more information."
      },
      "getRoleMemberCount(bytes32)": {
        "details": "Returns the number of accounts that have `role`. Can be used together with {getRoleMember} to enumerate all bearers of a role."
      },
      "grantRole(bytes32,address)": {
        "details": "Grants `role` to `account`.     * If `account` had not been already granted `role`, emits a {RoleGranted} event.     * Requirements:     * - the caller must have ``role``'s admin role."
      },
      "hasRole(bytes32,address)": {
        "details": "Returns `true` if `account` has been granted `role`."
      },
      "renounceRole(bytes32,address)": {
        "details": "Revokes `role` from the calling account.     * Roles are often managed via {grantRole} and {revokeRole}: this function's purpose is to provide a mechanism for accounts to lose their privileges if they are compromised (such as when a trusted device is misplaced).     * If the calling account had been granted `role`, emits a {RoleRevoked} event.     * Requirements:     * - the caller must be `account`."
      },
      "revokeRole(bytes32,address)": {
        "details": "Revokes `role` from `account`.     * If `account` had been granted `role`, emits a {RoleRevoked} event.     * Requirements:     * - the caller must have ``role``'s admin role."
      }
    }
  },
  "userdoc": {
    "methods": {}
  }
}