{
  "contractName": "ValistOrganization",
  "abi": [
    {
      "inputs": [
        {
          "internalType": "address",
          "name": "_owner",
          "type": "address"
        },
        {
          "internalType": "string",
          "name": "_meta",
          "type": "string"
        }
      ],
      "stateMutability": "nonpayable",
      "type": "constructor"
    },
    {
      "anonymous": false,
      "inputs": [
        {
          "indexed": true,
          "internalType": "bytes32",
          "name": "role",
          "type": "bytes32"
        },
        {
          "indexed": true,
          "internalType": "bytes32",
          "name": "previousAdminRole",
          "type": "bytes32"
        },
        {
          "indexed": true,
          "internalType": "bytes32",
          "name": "newAdminRole",
          "type": "bytes32"
        }
      ],
      "name": "RoleAdminChanged",
      "type": "event"
    },
    {
      "anonymous": false,
      "inputs": [
        {
          "indexed": true,
          "internalType": "bytes32",
          "name": "role",
          "type": "bytes32"
        },
        {
          "indexed": true,
          "internalType": "address",
          "name": "account",
          "type": "address"
        },
        {
          "indexed": true,
          "internalType": "address",
          "name": "sender",
          "type": "address"
        }
      ],
      "name": "RoleGranted",
      "type": "event"
    },
    {
      "anonymous": false,
      "inputs": [
        {
          "indexed": true,
          "internalType": "bytes32",
          "name": "role",
          "type": "bytes32"
        },
        {
          "indexed": true,
          "internalType": "address",
          "name": "account",
          "type": "address"
        },
        {
          "indexed": true,
          "internalType": "address",
          "name": "sender",
          "type": "address"
        }
      ],
      "name": "RoleRevoked",
      "type": "event"
    },
    {
      "inputs": [],
      "name": "DEFAULT_ADMIN_ROLE",
      "outputs": [
        {
          "internalType": "bytes32",
          "name": "",
          "type": "bytes32"
        }
      ],
      "stateMutability": "view",
      "type": "function"
    },
    {
      "inputs": [
        {
          "internalType": "bytes32",
          "name": "role",
          "type": "bytes32"
        }
      ],
      "name": "getRoleAdmin",
      "outputs": [
        {
          "internalType": "bytes32",
          "name": "",
          "type": "bytes32"
        }
      ],
      "stateMutability": "view",
      "type": "function"
    },
    {
      "inputs": [
        {
          "internalType": "bytes32",
          "name": "role",
          "type": "bytes32"
        },
        {
          "internalType": "uint256",
          "name": "index",
          "type": "uint256"
        }
      ],
      "name": "getRoleMember",
      "outputs": [
        {
          "internalType": "address",
          "name": "",
          "type": "address"
        }
      ],
      "stateMutability": "view",
      "type": "function"
    },
    {
      "inputs": [
        {
          "internalType": "bytes32",
          "name": "role",
          "type": "bytes32"
        }
      ],
      "name": "getRoleMemberCount",
      "outputs": [
        {
          "internalType": "uint256",
          "name": "",
          "type": "uint256"
        }
      ],
      "stateMutability": "view",
      "type": "function"
    },
    {
      "inputs": [
        {
          "internalType": "bytes32",
          "name": "role",
          "type": "bytes32"
        },
        {
          "internalType": "address",
          "name": "account",
          "type": "address"
        }
      ],
      "name": "grantRole",
      "outputs": [],
      "stateMutability": "nonpayable",
      "type": "function"
    },
    {
      "inputs": [
        {
          "internalType": "bytes32",
          "name": "role",
          "type": "bytes32"
        },
        {
          "internalType": "address",
          "name": "account",
          "type": "address"
        }
      ],
      "name": "hasRole",
      "outputs": [
        {
          "internalType": "bool",
          "name": "",
          "type": "bool"
        }
      ],
      "stateMutability": "view",
      "type": "function"
    },
    {
      "inputs": [],
      "name": "meta",
      "outputs": [
        {
          "internalType": "string",
          "name": "",
          "type": "string"
        }
      ],
      "stateMutability": "view",
      "type": "function"
    },
    {
      "inputs": [
        {
          "internalType": "bytes32",
          "name": "role",
          "type": "bytes32"
        },
        {
          "internalType": "address",
          "name": "account",
          "type": "address"
        }
      ],
      "name": "renounceRole",
      "outputs": [],
      "stateMutability": "nonpayable",
      "type": "function"
    },
    {
      "inputs": [
        {
          "internalType": "string",
          "name": "",
          "type": "string"
        }
      ],
      "name": "repos",
      "outputs": [
        {
          "internalType": "contract ValistRepository",
          "name": "",
          "type": "address"
        }
      ],
      "stateMutability": "view",
      "type": "function"
    },
    {
      "inputs": [
        {
          "internalType": "bytes32",
          "name": "role",
          "type": "bytes32"
        },
        {
          "internalType": "address",
          "name": "account",
          "type": "address"
        }
      ],
      "name": "revokeRole",
      "outputs": [],
      "stateMutability": "nonpayable",
      "type": "function"
    },
    {
      "inputs": [
        {
          "internalType": "string",
          "name": "_repoName",
          "type": "string"
        }
      ],
      "name": "getRepositoryAddress",
      "outputs": [
        {
          "internalType": "address",
          "name": "",
          "type": "address"
        }
      ],
      "stateMutability": "view",
      "type": "function"
    },
    {
      "inputs": [
        {
          "internalType": "string",
          "name": "_repoName",
          "type": "string"
        },
        {
          "internalType": "string",
          "name": "_meta",
          "type": "string"
        },
        {
          "internalType": "address",
          "name": "_owner",
          "type": "address"
        }
      ],
      "name": "createRepository",
      "outputs": [
        {
          "internalType": "address",
          "name": "",
          "type": "address"
        }
      ],
      "stateMutability": "nonpayable",
      "type": "function"
    },
    {
      "inputs": [
        {
          "internalType": "string",
          "name": "_meta",
          "type": "string"
        }
      ],
      "name": "updateOrgMeta",
      "outputs": [
        {
          "internalType": "string",
          "name": "",
          "type": "string"
        }
      ],
      "stateMutability": "nonpayable",
      "type": "function"
    }
  ],
  "bytecode": "0x60806040523480156200001157600080fd5b506040516200311538038062003115833981810160405260408110156200003757600080fd5b8101908080519060200190929190805160405193929190846401000000008211156200006257600080fd5b838201915060208201858111156200007957600080fd5b82518660018202830111640100000000821117156200009757600080fd5b8083526020830192505050908051906020019080838360005b83811015620000cd578082015181840152602081019050620000b0565b50505050905090810190601f168015620000fb5780820380516001836020036101000a031916815260200191505b506040525050506200014960405180807f4f52475f4f574e45525f524f4c45000000000000000000000000000000000000815250600e0190506040518091039020836200016a60201b60201c565b80600190805190602001906200016192919062000300565b505050620003af565b6200017c82826200018060201b60201c565b5050565b620001ae816000808581526020019081526020016000206000016200022360201b620012bd1790919060201c565b156200021f57620001c46200025b60201b60201c565b73ffffffffffffffffffffffffffffffffffffffff168173ffffffffffffffffffffffffffffffffffffffff16837f2f8788117e7eff1d82e926ec794901d17c78024a50270940304540a733656f0d60405160405180910390a45b5050565b600062000253836000018373ffffffffffffffffffffffffffffffffffffffff1660001b6200026360201b60201c565b905092915050565b600033905090565b6000620002778383620002dd60201b60201c565b620002d2578260000182908060018154018082558091505060019003906000526020600020016000909190919091505582600001805490508360010160008481526020019081526020016000208190555060019050620002d7565b600090505b92915050565b600080836001016000848152602001908152602001600020541415905092915050565b828054600181600116156101000203166002900490600052602060002090601f016020900481019282601f106200034357805160ff191683800117855562000374565b8280016001018555821562000374579182015b828111156200037357825182559160200191906001019062000356565b5b50905062000383919062000387565b5090565b620003ac91905b80821115620003a85760008160009055506001016200038e565b5090565b90565b612d5680620003bf6000396000f3fe60806040523480156200001157600080fd5b5060043610620000e25760003560e01c806391d148541162000099578063c885044e116200006f578063c885044e146200068f578063ca15c8731462000717578063d547741f146200075c578063ecc492a014620007ad57620000e2565b806391d148541462000505578063936c3a03146200056e578063a217fddf146200066f57620000e2565b806312c5ad7614620000e7578063248a9ca314620001e85780632f2ff15d146200022d57806336568abe146200027e5780633c17348a14620002cf5780639010d07c146200048a575b600080fd5b620001a660048036036020811015620000ff57600080fd5b81019080803590602001906401000000008111156200011d57600080fd5b8201836020820111156200013057600080fd5b803590602001918460018302840111640100000000831117156200015357600080fd5b91908080601f016020809104026020016040519081016040528093929190818152602001838380828437600081840152601f19601f820116905080830192505050505050509192919290505050620008ea565b604051808273ffffffffffffffffffffffffffffffffffffffff1673ffffffffffffffffffffffffffffffffffffffff16815260200191505060405180910390f35b62000217600480360360208110156200020057600080fd5b81019080803590602001909291905050506200097f565b6040518082815260200191505060405180910390f35b6200027c600480360360408110156200024557600080fd5b8101908080359060200190929190803573ffffffffffffffffffffffffffffffffffffffff1690602001909291905050506200099e565b005b620002cd600480360360408110156200029657600080fd5b8101908080359060200190929190803573ffffffffffffffffffffffffffffffffffffffff16906020019092919050505062000a2f565b005b6200044860048036036060811015620002e757600080fd5b81019080803590602001906401000000008111156200030557600080fd5b8201836020820111156200031857600080fd5b803590602001918460018302840111640100000000831117156200033b57600080fd5b91908080601f016020809104026020016040519081016040528093929190818152602001838380828437600081840152601f19601f820116905080830192505050505050509192919290803590602001906401000000008111156200039f57600080fd5b820183602082011115620003b257600080fd5b80359060200191846001830284011164010000000083111715620003d557600080fd5b91908080601f016020809104026020016040519081016040528093929190818152602001838380828437600081840152601f19601f820116905080830192505050505050509192919290803573ffffffffffffffffffffffffffffffffffffffff16906020019092919050505062000ace565b604051808273ffffffffffffffffffffffffffffffffffffffff1673ffffffffffffffffffffffffffffffffffffffff16815260200191505060405180910390f35b620004c360048036036040811015620004a257600080fd5b81019080803590602001909291908035906020019092919050505062000e0e565b604051808273ffffffffffffffffffffffffffffffffffffffff1673ffffffffffffffffffffffffffffffffffffffff16815260200191505060405180910390f35b62000554600480360360408110156200051d57600080fd5b8101908080359060200190929190803573ffffffffffffffffffffffffffffffffffffffff16906020019092919050505062000e41565b604051808215151515815260200191505060405180910390f35b6200062d600480360360208110156200058657600080fd5b8101908080359060200190640100000000811115620005a457600080fd5b820183602082011115620005b757600080fd5b80359060200191846001830284011164010000000083111715620005da57600080fd5b91908080601f016020809104026020016040519081016040528093929190818152602001838380828437600081840152601f19601f82011690508083019250505050505050919291929050505062000e74565b604051808273ffffffffffffffffffffffffffffffffffffffff1673ffffffffffffffffffffffffffffffffffffffff16815260200191505060405180910390f35b6200067962000ebd565b6040518082815260200191505060405180910390f35b6200069962000ec4565b6040518080602001828103825283818151815260200191508051906020019080838360005b83811015620006db578082015181840152602081019050620006be565b50505050905090810190601f168015620007095780820380516001836020036101000a031916815260200191505b509250505060405180910390f35b62000746600480360360208110156200072f57600080fd5b810190808035906020019092919050505062000f66565b6040518082815260200191505060405180910390f35b620007ab600480360360408110156200077457600080fd5b8101908080359060200190929190803573ffffffffffffffffffffffffffffffffffffffff16906020019092919050505062000f8e565b005b6200086c60048036036020811015620007c557600080fd5b8101908080359060200190640100000000811115620007e357600080fd5b820183602082011115620007f657600080fd5b803590602001918460018302840111640100000000831117156200081957600080fd5b91908080601f016020809104026020016040519081016040528093929190818152602001838380828437600081840152601f19601f8201169050808301925050505050505091929192905050506200101f565b6040518080602001828103825283818151815260200191508051906020019080838360005b83811015620008ae57808201518184015260208101905062000891565b50505050905090810190601f168015620008dc5780820380516001836020036101000a031916815260200191505b509250505060405180910390f35b60006002826040518082805190602001908083835b60208310620009245780518252602082019150602081019050602083039250620008ff565b6001836020036101000a038019825116818451168082178552505050505050905001915050908152602001604051809103902060009054906101000a900473ffffffffffffffffffffffffffffffffffffffff169050919050565b6000806000838152602001908152602001600020600201549050919050565b620009c860008084815260200190815260200160002060020154620009c262001120565b62000e41565b62000a1f576040517f08c379a000000000000000000000000000000000000000000000000000000000815260040180806020018281038252602f81526020018062002c5c602f913960400191505060405180910390fd5b62000a2b828262001128565b5050565b62000a3962001120565b73ffffffffffffffffffffffffffffffffffffffff168173ffffffffffffffffffffffffffffffffffffffff161462000abe576040517f08c379a000000000000000000000000000000000000000000000000000000000815260040180806020018281038252602f81526020018062002cf2602f913960400191505060405180910390fd5b62000aca8282620011c0565b5050565b60008073ffffffffffffffffffffffffffffffffffffffff166002856040518082805190602001908083835b6020831062000b1f578051825260208201915060208101905060208303925062000afa565b6001836020036101000a038019825116818451168082178552505050505050905001915050908152602001604051809103902060009054906101000a900473ffffffffffffffffffffffffffffffffffffffff1673ffffffffffffffffffffffffffffffffffffffff161462000bfd576040517f08c379a000000000000000000000000000000000000000000000000000000000815260040180806020018281038252601a8152602001807f5265706f7369746f727920616c7265616479206578697374732100000000000081525060200191505060405180910390fd5b818360405162000c0d906200153c565b808373ffffffffffffffffffffffffffffffffffffffff1673ffffffffffffffffffffffffffffffffffffffff16815260200180602001828103825283818151815260200191508051906020019080838360005b8381101562000c7e57808201518184015260208101905062000c61565b50505050905090810190601f16801562000cac5780820380516001836020036101000a031916815260200191505b509350505050604051809103906000f08015801562000ccf573d6000803e3d6000fd5b506002856040518082805190602001908083835b6020831062000d08578051825260208201915060208101905060208303925062000ce3565b6001836020036101000a038019825116818451168082178552505050505050905001915050908152602001604051809103902060006101000a81548173ffffffffffffffffffffffffffffffffffffffff021916908373ffffffffffffffffffffffffffffffffffffffff1602179055506002846040518082805190602001908083835b6020831062000db1578051825260208201915060208101905060208303925062000d8c565b6001836020036101000a038019825116818451168082178552505050505050905001915050908152602001604051809103902060009054906101000a900473ffffffffffffffffffffffffffffffffffffffff1690509392505050565b600062000e39826000808681526020019081526020016000206000016200125890919063ffffffff16565b905092915050565b600062000e6c826000808681526020019081526020016000206000016200127490919063ffffffff16565b905092915050565b6002818051602081018201805184825260208301602085012081835280955050505050506000915054906101000a900473ffffffffffffffffffffffffffffffffffffffff1681565b6000801b81565b60018054600181600116156101000203166002900480601f01602080910402602001604051908101604052809291908181526020018280546001816001161561010002031660029004801562000f5e5780601f1062000f325761010080835404028352916020019162000f5e565b820191906000526020600020905b81548152906001019060200180831162000f4057829003601f168201915b505050505081565b600062000f87600080848152602001908152602001600020600001620012a6565b9050919050565b62000fb86000808481526020019081526020016000206002015462000fb262001120565b62000e41565b6200100f576040517f08c379a000000000000000000000000000000000000000000000000000000000815260040180806020018281038252603081526020018062002cc26030913960400191505060405180910390fd5b6200101b8282620011c0565b5050565b60606200106260405180807f4f52475f4f574e45525f524f4c45000000000000000000000000000000000000815250600e01905060405180910390203362000e41565b80620010ab5750620010aa60405180807f4f52475f41444d494e5f524f4c45000000000000000000000000000000000000815250600e01905060405180910390203362000e41565b5b62001102576040517f08c379a000000000000000000000000000000000000000000000000000000000815260040180806020018281038252603781526020018062002c8b6037913960400191505060405180910390fd5b81600190805190602001906200111a9291906200154a565b50919050565b600033905090565b6200115181600080858152602001908152602001600020600001620012bd90919063ffffffff16565b15620011bc576200116162001120565b73ffffffffffffffffffffffffffffffffffffffff168173ffffffffffffffffffffffffffffffffffffffff16837f2f8788117e7eff1d82e926ec794901d17c78024a50270940304540a733656f0d60405160405180910390a45b5050565b620011e981600080858152602001908152602001600020600001620012ef90919063ffffffff16565b156200125457620011f962001120565b73ffffffffffffffffffffffffffffffffffffffff168173ffffffffffffffffffffffffffffffffffffffff16837ff6391f5c32d9c69d2a47ea670b442974b53935d1edc7fd64eb21e047a839171b60405160405180910390a45b5050565b600062001269836000018362001321565b60001c905092915050565b60006200129e836000018373ffffffffffffffffffffffffffffffffffffffff1660001b620013a7565b905092915050565b6000620012b682600001620013ca565b9050919050565b6000620012e7836000018373ffffffffffffffffffffffffffffffffffffffff1660001b620013db565b905092915050565b600062001319836000018373ffffffffffffffffffffffffffffffffffffffff1660001b6200144f565b905092915050565b60008183600001805490501162001384576040517f08c379a000000000000000000000000000000000000000000000000000000000815260040180806020018281038252602281526020018062002c3a6022913960400191505060405180910390fd5b8260000182815481106200139457fe5b9060005260206000200154905092915050565b600080836001016000848152602001908152602001600020541415905092915050565b600081600001805490509050919050565b6000620013e98383620013a7565b6200144457826000018290806001815401808255809150506001900390600052602060002001600090919091909150558260000180549050836001016000848152602001908152602001600020819055506001905062001449565b600090505b92915050565b600080836001016000848152602001908152602001600020549050600081146200153057600060018203905060006001866000018054905003905060008660000182815481106200149c57fe5b9060005260206000200154905080876000018481548110620014ba57fe5b9060005260206000200181905550600183018760010160008381526020019081526020016000208190555086600001805480620014f357fe5b6001900381819060005260206000200160009055905586600101600087815260200190815260200160002060009055600194505050505062001536565b60009150505b92915050565b61164080620015fa83390190565b828054600181600116156101000203166002900490600052602060002090601f016020900481019282601f106200158d57805160ff1916838001178555620015be565b82800160010185558215620015be579182015b82811115620015bd578251825591602001919060010190620015a0565b5b509050620015cd9190620015d1565b5090565b620015f691905b80821115620015f2576000816000905550600101620015d8565b5090565b9056fe60806040523480156200001157600080fd5b506040516200164038038062001640833981810160405260408110156200003757600080fd5b8101908080519060200190929190805160405193929190846401000000008211156200006257600080fd5b838201915060208201858111156200007957600080fd5b82518660018202830111640100000000821117156200009757600080fd5b8083526020830192505050908051906020019080838360005b83811015620000cd578082015181840152602081019050620000b0565b50505050905090810190601f168015620000fb5780820380516001836020036101000a031916815260200191505b506040525050506200014960405180807f5245504f5f4f574e45525f524f4c450000000000000000000000000000000000815250600f0190506040518091039020836200016a60201b60201c565b80600190805190602001906200016192919062000300565b505050620003af565b6200017c82826200018060201b60201c565b5050565b620001ae816000808581526020019081526020016000206000016200022360201b62000e521790919060201c565b156200021f57620001c46200025b60201b60201c565b73ffffffffffffffffffffffffffffffffffffffff168173ffffffffffffffffffffffffffffffffffffffff16837f2f8788117e7eff1d82e926ec794901d17c78024a50270940304540a733656f0d60405160405180910390a45b5050565b600062000253836000018373ffffffffffffffffffffffffffffffffffffffff1660001b6200026360201b60201c565b905092915050565b600033905090565b6000620002778383620002dd60201b60201c565b620002d2578260000182908060018154018082558091505060019003906000526020600020016000909190919091505582600001805490508360010160008481526020019081526020016000208190555060019050620002d7565b600090505b92915050565b600080836001016000848152602001908152602001600020541415905092915050565b828054600181600116156101000203166002900490600052602060002090601f016020900481019282601f106200034357805160ff191683800117855562000374565b8280016001018555821562000374579182015b828111156200037357825182559160200191906001019062000356565b5b50905062000383919062000387565b5090565b620003ac91905b80821115620003a85760008160009055506001016200038e565b5090565b90565b61128180620003bf6000396000f3fe608060405234801561001057600080fd5b50600436106100cf5760003560e01c80639010d07c1161008c578063b6a9f40f11610066578063b6a9f40f1461050c578063c885044e146105b3578063ca15c87314610636578063d547741f14610678576100cf565b80639010d07c1461041057806391d1485414610488578063a217fddf146104ee576100cf565b806316206805146100d4578063248a9ca31461017b5780632f2ff15d146101bd57806336568abe1461020b578063729aaabb146102595780637be0ca5e1461038d575b600080fd5b610100600480360360208110156100ea57600080fd5b81019080803590602001909291905050506106c6565b6040518080602001828103825283818151815260200191508051906020019080838360005b83811015610140578082015181840152602081019050610125565b50505050905090810190601f16801561016d5780820380516001836020036101000a031916815260200191505b509250505060405180910390f35b6101a76004803603602081101561019157600080fd5b810190808035906020019092919050505061077f565b6040518082815260200191505060405180910390f35b610209600480360360408110156101d357600080fd5b8101908080359060200190929190803573ffffffffffffffffffffffffffffffffffffffff16906020019092919050505061079e565b005b6102576004803603604081101561022157600080fd5b8101908080359060200190929190803573ffffffffffffffffffffffffffffffffffffffff169060200190929190505050610827565b005b6103126004803603602081101561026f57600080fd5b810190808035906020019064010000000081111561028c57600080fd5b82018360208201111561029e57600080fd5b803590602001918460018302840111640100000000831117156102c057600080fd5b91908080601f016020809104026020016040519081016040528093929190818152602001838380828437600081840152601f19601f8201169050808301925050505050505091929192905050506108c0565b6040518080602001828103825283818151815260200191508051906020019080838360005b83811015610352578082015181840152602081019050610337565b50505050905090810190601f16801561037f5780820380516001836020036101000a031916815260200191505b509250505060405180910390f35b6103956109b8565b6040518080602001828103825283818151815260200191508051906020019080838360005b838110156103d55780820151818401526020810190506103ba565b50505050905090810190601f1680156104025780820380516001836020036101000a031916815260200191505b509250505060405180910390f35b6104466004803603604081101561042657600080fd5b810190808035906020019092919080359060200190929190505050610a56565b604051808273ffffffffffffffffffffffffffffffffffffffff1673ffffffffffffffffffffffffffffffffffffffff16815260200191505060405180910390f35b6104d46004803603604081101561049e57600080fd5b8101908080359060200190929190803573ffffffffffffffffffffffffffffffffffffffff169060200190929190505050610a87565b604051808215151515815260200191505060405180910390f35b6104f6610ab8565b6040518082815260200191505060405180910390f35b6105386004803603602081101561052257600080fd5b8101908080359060200190929190505050610abf565b6040518080602001828103825283818151815260200191508051906020019080838360005b8381101561057857808201518184015260208101905061055d565b50505050905090810190601f1680156105a55780820380516001836020036101000a031916815260200191505b509250505060405180910390f35b6105bb610b78565b6040518080602001828103825283818151815260200191508051906020019080838360005b838110156105fb5780820151818401526020810190506105e0565b50505050905090810190601f1680156106285780820380516001836020036101000a031916815260200191505b509250505060405180910390f35b6106626004803603602081101561064c57600080fd5b8101908080359060200190929190505050610c16565b6040518082815260200191505060405180910390f35b6106c46004803603604081101561068e57600080fd5b8101908080359060200190929190803573ffffffffffffffffffffffffffffffffffffffff169060200190929190505050610c3c565b005b600381815481106106d357fe5b906000526020600020016000915090508054600181600116156101000203166002900480601f0160208091040260200160405190810160405280929190818152602001828054600181600116156101000203166002900480156107775780601f1061074c57610100808354040283529160200191610777565b820191906000526020600020905b81548152906001019060200180831161075a57829003601f168201915b505050505081565b6000806000838152602001908152602001600020600201549050919050565b6107c4600080848152602001908152602001600020600201546107bf610cc5565b610a87565b610819576040517f08c379a000000000000000000000000000000000000000000000000000000000815260040180806020018281038252602f815260200180611189602f913960400191505060405180910390fd5b6108238282610ccd565b5050565b61082f610cc5565b73ffffffffffffffffffffffffffffffffffffffff168173ffffffffffffffffffffffffffffffffffffffff16146108b2576040517f08c379a000000000000000000000000000000000000000000000000000000000815260040180806020018281038252602f81526020018061121d602f913960400191505060405180910390fd5b6108bc8282610d60565b5050565b606061090160405180807f5245504f5f4f574e45525f524f4c450000000000000000000000000000000000815250600f019050604051809103902033610a87565b80610947575061094660405180807f5245504f5f41444d494e5f524f4c450000000000000000000000000000000000815250600f019050604051809103902033610a87565b5b61099c576040517f08c379a00000000000000000000000000000000000000000000000000000000081526004018080602001828103825260358152602001806111e86035913960400191505060405180910390fd5b81600190805190602001906109b29291906110c1565b50919050565b60028054600181600116156101000203166002900480601f016020809104026020016040519081016040528092919081815260200182805460018160011615610100020316600290048015610a4e5780601f10610a2357610100808354040283529160200191610a4e565b820191906000526020600020905b815481529060010190602001808311610a3157829003601f168201915b505050505081565b6000610a7f82600080868152602001908152602001600020600001610df390919063ffffffff16565b905092915050565b6000610ab082600080868152602001908152602001600020600001610e0d90919063ffffffff16565b905092915050565b6000801b81565b60048181548110610acc57fe5b906000526020600020016000915090508054600181600116156101000203166002900480601f016020809104026020016040519081016040528092919081815260200182805460018160011615610100020316600290048015610b705780601f10610b4557610100808354040283529160200191610b70565b820191906000526020600020905b815481529060010190602001808311610b5357829003601f168201915b505050505081565b60018054600181600116156101000203166002900480601f016020809104026020016040519081016040528092919081815260200182805460018160011615610100020316600290048015610c0e5780601f10610be357610100808354040283529160200191610c0e565b820191906000526020600020905b815481529060010190602001808311610bf157829003601f168201915b505050505081565b6000610c35600080848152602001908152602001600020600001610e3d565b9050919050565b610c6260008084815260200190815260200160002060020154610c5d610cc5565b610a87565b610cb7576040517f08c379a00000000000000000000000000000000000000000000000000000000081526004018080602001828103825260308152602001806111b86030913960400191505060405180910390fd5b610cc18282610d60565b5050565b600033905090565b610cf481600080858152602001908152602001600020600001610e5290919063ffffffff16565b15610d5c57610d01610cc5565b73ffffffffffffffffffffffffffffffffffffffff168173ffffffffffffffffffffffffffffffffffffffff16837f2f8788117e7eff1d82e926ec794901d17c78024a50270940304540a733656f0d60405160405180910390a45b5050565b610d8781600080858152602001908152602001600020600001610e8290919063ffffffff16565b15610def57610d94610cc5565b73ffffffffffffffffffffffffffffffffffffffff168173ffffffffffffffffffffffffffffffffffffffff16837ff6391f5c32d9c69d2a47ea670b442974b53935d1edc7fd64eb21e047a839171b60405160405180910390a45b5050565b6000610e028360000183610eb2565b60001c905092915050565b6000610e35836000018373ffffffffffffffffffffffffffffffffffffffff1660001b610f35565b905092915050565b6000610e4b82600001610f58565b9050919050565b6000610e7a836000018373ffffffffffffffffffffffffffffffffffffffff1660001b610f69565b905092915050565b6000610eaa836000018373ffffffffffffffffffffffffffffffffffffffff1660001b610fd9565b905092915050565b600081836000018054905011610f13576040517f08c379a00000000000000000000000000000000000000000000000000000000081526004018080602001828103825260228152602001806111676022913960400191505060405180910390fd5b826000018281548110610f2257fe5b9060005260206000200154905092915050565b600080836001016000848152602001908152602001600020541415905092915050565b600081600001805490509050919050565b6000610f758383610f35565b610fce578260000182908060018154018082558091505060019003906000526020600020016000909190919091505582600001805490508360010160008481526020019081526020016000208190555060019050610fd3565b600090505b92915050565b600080836001016000848152602001908152602001600020549050600081146110b5576000600182039050600060018660000180549050039050600086600001828154811061102457fe5b906000526020600020015490508087600001848154811061104157fe5b906000526020600020018190555060018301876001016000838152602001908152602001600020819055508660000180548061107957fe5b600190038181906000526020600020016000905590558660010160008781526020019081526020016000206000905560019450505050506110bb565b60009150505b92915050565b828054600181600116156101000203166002900490600052602060002090601f016020900481019282601f1061110257805160ff1916838001178555611130565b82800160010185558215611130579182015b8281111561112f578251825591602001919060010190611114565b5b50905061113d9190611141565b5090565b61116391905b8082111561115f576000816000905550600101611147565b5090565b9056fe456e756d657261626c655365743a20696e646578206f7574206f6620626f756e6473416363657373436f6e74726f6c3a2073656e646572206d75737420626520616e2061646d696e20746f206772616e74416363657373436f6e74726f6c3a2073656e646572206d75737420626520616e2061646d696e20746f207265766f6b65596f7520646f206e6f742068617665207065726d697373696f6e20746f206d6f646966792074686973207265706f7369746f727921416363657373436f6e74726f6c3a2063616e206f6e6c792072656e6f756e636520726f6c657320666f722073656c66a2646970667358221220c3e624c657d3a160b9926e69bb3a38ae67caee8d14c7028a768abbe33458d79064736f6c63430006020033456e756d657261626c655365743a20696e646578206f7574206f6620626f756e6473416363657373436f6e74726f6c3a2073656e646572206d75737420626520616e2061646d696e20746f206772616e74596f7520646f206e6f742068617665207065726d697373696f6e20746f206d6f646966792074686973206f7267616e697a6174696f6e21416363657373436f6e74726f6c3a2073656e646572206d75737420626520616e2061646d696e20746f207265766f6b65416363657373436f6e74726f6c3a2063616e206f6e6c792072656e6f756e636520726f6c657320666f722073656c66a26469706673582212202386b042650401e82463139c7c66a2bc9a4a43af8f2323e85dbba590eac0c94264736f6c63430006020033",
  "source": "// SPDX-License-Identifier: MIT\npragma solidity >=0.4.21 <0.7.0;\n\nimport \"@openzeppelin/contracts/access/AccessControl.sol\";\nimport \"./ValistRepository.sol\";\n\ncontract ValistOrganization is AccessControl {\n    bytes32 constant ORG_OWNER = keccak256(\"ORG_OWNER_ROLE\");\n    bytes32 constant ORG_ADMIN = keccak256(\"ORG_ADMIN_ROLE\");\n\n    string public meta; // org metadata (full name, image, description, etc)\n\n    mapping(string => ValistRepository) public repos;\n\n    constructor(address _owner, string memory _meta) public {\n        _setupRole(ORG_OWNER, _owner);\n        meta = _meta;\n    }\n\n    function getRepositoryAddress(string memory _repoName) public view returns(address) {\n        return address(repos[_repoName]);\n    }\n\n    function createRepository(string memory _repoName, string memory _meta, address _owner) public returns(address) {\n        require(address(repos[_repoName]) == address(0), \"Repository already exists!\");\n        repos[_repoName] = new ValistRepository(_owner, _meta);\n        return address(repos[_repoName]);\n    }\n\n    function updateOrgMeta(string memory _meta) public returns (string memory) {\n        require(hasRole(ORG_OWNER, msg.sender) || hasRole(ORG_ADMIN, msg.sender), \"You do not have permission to modify this organization!\");\n        meta = _meta;\n    }\n\n}\n",
  "sourcePath": "/Users/alec/Workspace/valist/eth/contracts/ValistOrganization.sol",
  "compiler": {
    "name": "solc",
    "version": "0.6.2+commit.bacdbe57.Emscripten.clang"
  },
  "schemaVersion": "3.2.3",
  "updatedAt": "2020-07-30T20:37:54.998Z",
  "devdoc": {
    "methods": {
      "getRoleAdmin(bytes32)": {
        "details": "Returns the admin role that controls `role`. See {grantRole} and {revokeRole}.     * To change a role's admin, use {_setRoleAdmin}."
      },
      "getRoleMember(bytes32,uint256)": {
        "details": "Returns one of the accounts that have `role`. `index` must be a value between 0 and {getRoleMemberCount}, non-inclusive.     * Role bearers are not sorted in any particular way, and their ordering may change at any point.     * WARNING: When using {getRoleMember} and {getRoleMemberCount}, make sure you perform all queries on the same block. See the following https://forum.openzeppelin.com/t/iterating-over-elements-on-enumerableset-in-openzeppelin-contracts/2296[forum post] for more information."
      },
      "getRoleMemberCount(bytes32)": {
        "details": "Returns the number of accounts that have `role`. Can be used together with {getRoleMember} to enumerate all bearers of a role."
      },
      "grantRole(bytes32,address)": {
        "details": "Grants `role` to `account`.     * If `account` had not been already granted `role`, emits a {RoleGranted} event.     * Requirements:     * - the caller must have ``role``'s admin role."
      },
      "hasRole(bytes32,address)": {
        "details": "Returns `true` if `account` has been granted `role`."
      },
      "renounceRole(bytes32,address)": {
        "details": "Revokes `role` from the calling account.     * Roles are often managed via {grantRole} and {revokeRole}: this function's purpose is to provide a mechanism for accounts to lose their privileges if they are compromised (such as when a trusted device is misplaced).     * If the calling account had been granted `role`, emits a {RoleRevoked} event.     * Requirements:     * - the caller must be `account`."
      },
      "revokeRole(bytes32,address)": {
        "details": "Revokes `role` from `account`.     * If `account` had been granted `role`, emits a {RoleRevoked} event.     * Requirements:     * - the caller must have ``role``'s admin role."
      }
    }
  },
  "userdoc": {
    "methods": {}
  }
}