{
  "contractName": "ValistOrganization",
  "abi": [
    {
      "inputs": [
        {
          "internalType": "string",
          "name": "meta",
          "type": "string"
        },
        {
          "internalType": "address",
          "name": "owner",
          "type": "address"
        }
      ],
      "stateMutability": "nonpayable",
      "type": "constructor"
    },
    {
      "anonymous": false,
      "inputs": [
        {
          "indexed": true,
          "internalType": "bytes32",
          "name": "role",
          "type": "bytes32"
        },
        {
          "indexed": true,
          "internalType": "bytes32",
          "name": "previousAdminRole",
          "type": "bytes32"
        },
        {
          "indexed": true,
          "internalType": "bytes32",
          "name": "newAdminRole",
          "type": "bytes32"
        }
      ],
      "name": "RoleAdminChanged",
      "type": "event"
    },
    {
      "anonymous": false,
      "inputs": [
        {
          "indexed": true,
          "internalType": "bytes32",
          "name": "role",
          "type": "bytes32"
        },
        {
          "indexed": true,
          "internalType": "address",
          "name": "account",
          "type": "address"
        },
        {
          "indexed": true,
          "internalType": "address",
          "name": "sender",
          "type": "address"
        }
      ],
      "name": "RoleGranted",
      "type": "event"
    },
    {
      "anonymous": false,
      "inputs": [
        {
          "indexed": true,
          "internalType": "bytes32",
          "name": "role",
          "type": "bytes32"
        },
        {
          "indexed": true,
          "internalType": "address",
          "name": "account",
          "type": "address"
        },
        {
          "indexed": true,
          "internalType": "address",
          "name": "sender",
          "type": "address"
        }
      ],
      "name": "RoleRevoked",
      "type": "event"
    },
    {
      "inputs": [],
      "name": "DEFAULT_ADMIN_ROLE",
      "outputs": [
        {
          "internalType": "bytes32",
          "name": "",
          "type": "bytes32"
        }
      ],
      "stateMutability": "view",
      "type": "function"
    },
    {
      "inputs": [
        {
          "internalType": "bytes32",
          "name": "role",
          "type": "bytes32"
        }
      ],
      "name": "getRoleAdmin",
      "outputs": [
        {
          "internalType": "bytes32",
          "name": "",
          "type": "bytes32"
        }
      ],
      "stateMutability": "view",
      "type": "function"
    },
    {
      "inputs": [
        {
          "internalType": "bytes32",
          "name": "role",
          "type": "bytes32"
        },
        {
          "internalType": "uint256",
          "name": "index",
          "type": "uint256"
        }
      ],
      "name": "getRoleMember",
      "outputs": [
        {
          "internalType": "address",
          "name": "",
          "type": "address"
        }
      ],
      "stateMutability": "view",
      "type": "function"
    },
    {
      "inputs": [
        {
          "internalType": "bytes32",
          "name": "role",
          "type": "bytes32"
        }
      ],
      "name": "getRoleMemberCount",
      "outputs": [
        {
          "internalType": "uint256",
          "name": "",
          "type": "uint256"
        }
      ],
      "stateMutability": "view",
      "type": "function"
    },
    {
      "inputs": [
        {
          "internalType": "bytes32",
          "name": "role",
          "type": "bytes32"
        },
        {
          "internalType": "address",
          "name": "account",
          "type": "address"
        }
      ],
      "name": "grantRole",
      "outputs": [],
      "stateMutability": "nonpayable",
      "type": "function"
    },
    {
      "inputs": [
        {
          "internalType": "bytes32",
          "name": "role",
          "type": "bytes32"
        },
        {
          "internalType": "address",
          "name": "account",
          "type": "address"
        }
      ],
      "name": "hasRole",
      "outputs": [
        {
          "internalType": "bool",
          "name": "",
          "type": "bool"
        }
      ],
      "stateMutability": "view",
      "type": "function"
    },
    {
      "inputs": [],
      "name": "org",
      "outputs": [
        {
          "internalType": "string",
          "name": "meta",
          "type": "string"
        },
        {
          "internalType": "bool",
          "name": "active",
          "type": "bool"
        }
      ],
      "stateMutability": "view",
      "type": "function"
    },
    {
      "inputs": [
        {
          "internalType": "bytes32",
          "name": "role",
          "type": "bytes32"
        },
        {
          "internalType": "address",
          "name": "account",
          "type": "address"
        }
      ],
      "name": "renounceRole",
      "outputs": [],
      "stateMutability": "nonpayable",
      "type": "function"
    },
    {
      "inputs": [
        {
          "internalType": "bytes32",
          "name": "role",
          "type": "bytes32"
        },
        {
          "internalType": "address",
          "name": "account",
          "type": "address"
        }
      ],
      "name": "revokeRole",
      "outputs": [],
      "stateMutability": "nonpayable",
      "type": "function"
    },
    {
      "inputs": [],
      "name": "isActive",
      "outputs": [
        {
          "internalType": "bool",
          "name": "",
          "type": "bool"
        }
      ],
      "stateMutability": "view",
      "type": "function"
    },
    {
      "inputs": [
        {
          "internalType": "string",
          "name": "repoName",
          "type": "string"
        },
        {
          "internalType": "string",
          "name": "meta",
          "type": "string"
        },
        {
          "internalType": "address",
          "name": "owner",
          "type": "address"
        }
      ],
      "name": "createRepository",
      "outputs": [
        {
          "internalType": "address",
          "name": "",
          "type": "address"
        }
      ],
      "stateMutability": "nonpayable",
      "type": "function"
    },
    {
      "inputs": [
        {
          "internalType": "string",
          "name": "repoName",
          "type": "string"
        }
      ],
      "name": "getRepositoryAddress",
      "outputs": [
        {
          "internalType": "address",
          "name": "",
          "type": "address"
        }
      ],
      "stateMutability": "view",
      "type": "function"
    },
    {
      "inputs": [
        {
          "internalType": "string",
          "name": "repoName",
          "type": "string"
        }
      ],
      "name": "getRepository",
      "outputs": [
        {
          "internalType": "contract ValistRepository",
          "name": "",
          "type": "address"
        }
      ],
      "stateMutability": "view",
      "type": "function"
    },
    {
      "inputs": [
        {
          "internalType": "string",
          "name": "meta",
          "type": "string"
        }
      ],
      "name": "updateMetadata",
      "outputs": [],
      "stateMutability": "nonpayable",
      "type": "function"
    }
  ],
  "bytecode": "0x60806040523480156200001157600080fd5b5060405162002eca38038062002eca833981810160405260408110156200003757600080fd5b81019080805160405193929190846401000000008211156200005857600080fd5b838201915060208201858111156200006f57600080fd5b82518660018202830111640100000000821117156200008d57600080fd5b8083526020830192505050908051906020019080838360005b83811015620000c3578082015181840152602081019050620000a6565b50505050905090810190601f168015620000f15780820380516001836020036101000a031916815260200191505b50604052602001805190602001909291905050506200014c60405180807f4f52475f4f574e45525f524f4c45000000000000000000000000000000000000815250600e0190506040518091039020826200018c60201b60201c565b816001800190805190602001906200016692919062000322565b5060018060020160006101000a81548160ff0219169083151502179055505050620003d1565b6200019e8282620001a260201b60201c565b5050565b620001d0816000808581526020019081526020016000206000016200024560201b620013751790919060201c565b156200024157620001e66200027d60201b60201c565b73ffffffffffffffffffffffffffffffffffffffff168173ffffffffffffffffffffffffffffffffffffffff16837f2f8788117e7eff1d82e926ec794901d17c78024a50270940304540a733656f0d60405160405180910390a45b5050565b600062000275836000018373ffffffffffffffffffffffffffffffffffffffff1660001b6200028560201b60201c565b905092915050565b600033905090565b6000620002998383620002ff60201b60201c565b620002f4578260000182908060018154018082558091505060019003906000526020600020016000909190919091505582600001805490508360010160008481526020019081526020016000208190555060019050620002f9565b600090505b92915050565b600080836001016000848152602001908152602001600020541415905092915050565b828054600181600116156101000203166002900490600052602060002090601f016020900481019282601f106200036557805160ff191683800117855562000396565b8280016001018555821562000396579182015b828111156200039557825182559160200191906001019062000378565b5b509050620003a59190620003a9565b5090565b620003ce91905b80821115620003ca576000816000905550600101620003b0565b5090565b90565b612ae980620003e16000396000f3fe60806040523480156200001157600080fd5b5060043610620001005760003560e01c80639010d07c1162000099578063a217fddf116200006f578063a217fddf1462000772578063ca15c8731462000792578063cc1e2cb014620007d7578063d547741f146200086a5762000100565b80639010d07c14620005cd578063918b5be1146200064857806391d1485414620007095762000100565b8063248a9ca311620000db578063248a9ca3146200032b5780632f2ff15d146200037057806336568abe14620003c15780633c17348a14620004125762000100565b806312c5ad76146200010557806322dd1a1e146200020657806322f3e2d41462000307575b600080fd5b620001c4600480360360208110156200011d57600080fd5b81019080803590602001906401000000008111156200013b57600080fd5b8201836020820111156200014e57600080fd5b803590602001918460018302840111640100000000831117156200017157600080fd5b91908080601f016020809104026020016040519081016040528093929190818152602001838380828437600081840152601f19601f820116905080830192505050505050509192919290505050620008bb565b604051808273ffffffffffffffffffffffffffffffffffffffff1673ffffffffffffffffffffffffffffffffffffffff16815260200191505060405180910390f35b620002c5600480360360208110156200021e57600080fd5b81019080803590602001906401000000008111156200023c57600080fd5b8201836020820111156200024f57600080fd5b803590602001918460018302840111640100000000831117156200027257600080fd5b91908080601f016020809104026020016040519081016040528093929190818152602001838380828437600081840152601f19601f82011690508083019250505050505050919291929050505062000953565b604051808273ffffffffffffffffffffffffffffffffffffffff1673ffffffffffffffffffffffffffffffffffffffff16815260200191505060405180910390f35b62000311620009eb565b604051808215151515815260200191505060405180910390f35b6200035a600480360360208110156200034357600080fd5b810190808035906020019092919050505062000a05565b6040518082815260200191505060405180910390f35b620003bf600480360360408110156200038857600080fd5b8101908080359060200190929190803573ffffffffffffffffffffffffffffffffffffffff16906020019092919050505062000a24565b005b6200041060048036036040811015620003d957600080fd5b8101908080359060200190929190803573ffffffffffffffffffffffffffffffffffffffff16906020019092919050505062000ab5565b005b6200058b600480360360608110156200042a57600080fd5b81019080803590602001906401000000008111156200044857600080fd5b8201836020820111156200045b57600080fd5b803590602001918460018302840111640100000000831117156200047e57600080fd5b91908080601f016020809104026020016040519081016040528093929190818152602001838380828437600081840152601f19601f82011690508083019250505050505050919291929080359060200190640100000000811115620004e257600080fd5b820183602082011115620004f557600080fd5b803590602001918460018302840111640100000000831117156200051857600080fd5b91908080601f016020809104026020016040519081016040528093929190818152602001838380828437600081840152601f19601f820116905080830192505050505050509192919290803573ffffffffffffffffffffffffffffffffffffffff16906020019092919050505062000b54565b604051808273ffffffffffffffffffffffffffffffffffffffff1673ffffffffffffffffffffffffffffffffffffffff16815260200191505060405180910390f35b6200060660048036036040811015620005e557600080fd5b81019080803590602001909291908035906020019092919050505062000ef8565b604051808273ffffffffffffffffffffffffffffffffffffffff1673ffffffffffffffffffffffffffffffffffffffff16815260200191505060405180910390f35b62000707600480360360208110156200066057600080fd5b81019080803590602001906401000000008111156200067e57600080fd5b8201836020820111156200069157600080fd5b80359060200191846001830284011164010000000083111715620006b457600080fd5b91908080601f016020809104026020016040519081016040528093929190818152602001838380828437600081840152601f19601f82011690508083019250505050505050919291929050505062000f2b565b005b62000758600480360360408110156200072157600080fd5b8101908080359060200190929190803573ffffffffffffffffffffffffffffffffffffffff1690602001909291905050506200102a565b604051808215151515815260200191505060405180910390f35b6200077c6200105d565b6040518082815260200191505060405180910390f35b620007c160048036036020811015620007aa57600080fd5b810190808035906020019092919050505062001064565b6040518082815260200191505060405180910390f35b620007e16200108c565b604051808060200183151515158152602001828103825284818151815260200191508051906020019080838360005b838110156200082d57808201518184015260208101905062000810565b50505050905090810190601f1680156200085b5780820380516001836020036101000a031916815260200191505b50935050505060405180910390f35b620008b9600480360360408110156200088257600080fd5b8101908080359060200190929190803573ffffffffffffffffffffffffffffffffffffffff16906020019092919050505062001147565b005b60006001600001826040518082805190602001908083835b60208310620008f85780518252602082019150602081019050602083039250620008d3565b6001836020036101000a038019825116818451168082178552505050505050905001915050908152602001604051809103902060009054906101000a900473ffffffffffffffffffffffffffffffffffffffff169050919050565b60006001600001826040518082805190602001908083835b602083106200099057805182526020820191506020810190506020830392506200096b565b6001836020036101000a038019825116818451168082178552505050505050905001915050908152602001604051809103902060009054906101000a900473ffffffffffffffffffffffffffffffffffffffff169050919050565b6000600160020160009054906101000a900460ff16905090565b6000806000838152602001908152602001600020600201549050919050565b62000a4e6000808481526020019081526020016000206002015462000a48620011d8565b6200102a565b62000aa5576040517f08c379a000000000000000000000000000000000000000000000000000000000815260040180806020018281038252602f815260200180620029ef602f913960400191505060405180910390fd5b62000ab18282620011e0565b5050565b62000abf620011d8565b73ffffffffffffffffffffffffffffffffffffffff168173ffffffffffffffffffffffffffffffffffffffff161462000b44576040517f08c379a000000000000000000000000000000000000000000000000000000000815260040180806020018281038252602f81526020018062002a85602f913960400191505060405180910390fd5b62000b50828262001278565b5050565b60008015156001600001856040518082805190602001908083835b6020831062000b94578051825260208201915060208101905060208303925062000b6f565b6001836020036101000a038019825116818451168082178552505050505050905001915050908152602001604051809103902060009054906101000a900473ffffffffffffffffffffffffffffffffffffffff1673ffffffffffffffffffffffffffffffffffffffff166322f3e2d46040518163ffffffff1660e01b815260040160206040518083038186803b15801562000c2e57600080fd5b505afa15801562000c43573d6000803e3d6000fd5b505050506040513d602081101562000c5a57600080fd5b810190808051906020019092919050505015151462000ce1576040517f08c379a000000000000000000000000000000000000000000000000000000000815260040180806020018281038252601a8152602001807f5265706f7369746f727920616c7265616479206578697374732100000000000081525060200191505060405180910390fd5b828260405162000cf190620015f4565b80806020018373ffffffffffffffffffffffffffffffffffffffff1673ffffffffffffffffffffffffffffffffffffffff168152602001828103825284818151815260200191508051906020019080838360005b8381101562000d6257808201518184015260208101905062000d45565b50505050905090810190601f16801562000d905780820380516001836020036101000a031916815260200191505b509350505050604051809103906000f08015801562000db3573d6000803e3d6000fd5b506001600001856040518082805190602001908083835b6020831062000def578051825260208201915060208101905060208303925062000dca565b6001836020036101000a038019825116818451168082178552505050505050905001915050908152602001604051809103902060006101000a81548173ffffffffffffffffffffffffffffffffffffffff021916908373ffffffffffffffffffffffffffffffffffffffff1602179055506001600001846040518082805190602001908083835b6020831062000e9b578051825260208201915060208101905060208303925062000e76565b6001836020036101000a038019825116818451168082178552505050505050905001915050908152602001604051809103902060009054906101000a900473ffffffffffffffffffffffffffffffffffffffff1690509392505050565b600062000f23826000808681526020019081526020016000206000016200131090919063ffffffff16565b905092915050565b62000f6c60405180807f4f52475f4f574e45525f524f4c45000000000000000000000000000000000000815250600e0190506040518091039020336200102a565b8062000fb5575062000fb460405180807f4f52475f41444d494e5f524f4c45000000000000000000000000000000000000815250600e0190506040518091039020336200102a565b5b6200100c576040517f08c379a000000000000000000000000000000000000000000000000000000000815260040180806020018281038252603781526020018062002a1e6037913960400191505060405180910390fd5b806001800190805190602001906200102692919062001602565b5050565b600062001055826000808681526020019081526020016000206000016200132c90919063ffffffff16565b905092915050565b6000801b81565b6000620010856000808481526020019081526020016000206000016200135e565b9050919050565b6001806001018054600181600116156101000203166002900480601f0160208091040260200160405190810160405280929190818152602001828054600181600116156101000203166002900480156200112a5780601f10620010fe576101008083540402835291602001916200112a565b820191906000526020600020905b8154815290600101906020018083116200110c57829003601f168201915b5050505050908060020160009054906101000a900460ff16905082565b62001171600080848152602001908152602001600020600201546200116b620011d8565b6200102a565b620011c8576040517f08c379a000000000000000000000000000000000000000000000000000000000815260040180806020018281038252603081526020018062002a556030913960400191505060405180910390fd5b620011d4828262001278565b5050565b600033905090565b62001209816000808581526020019081526020016000206000016200137590919063ffffffff16565b15620012745762001219620011d8565b73ffffffffffffffffffffffffffffffffffffffff168173ffffffffffffffffffffffffffffffffffffffff16837f2f8788117e7eff1d82e926ec794901d17c78024a50270940304540a733656f0d60405160405180910390a45b5050565b620012a181600080858152602001908152602001600020600001620013a790919063ffffffff16565b156200130c57620012b1620011d8565b73ffffffffffffffffffffffffffffffffffffffff168173ffffffffffffffffffffffffffffffffffffffff16837ff6391f5c32d9c69d2a47ea670b442974b53935d1edc7fd64eb21e047a839171b60405160405180910390a45b5050565b6000620013218360000183620013d9565b60001c905092915050565b600062001356836000018373ffffffffffffffffffffffffffffffffffffffff1660001b6200145f565b905092915050565b60006200136e8260000162001482565b9050919050565b60006200139f836000018373ffffffffffffffffffffffffffffffffffffffff1660001b62001493565b905092915050565b6000620013d1836000018373ffffffffffffffffffffffffffffffffffffffff1660001b62001507565b905092915050565b6000818360000180549050116200143c576040517f08c379a0000000000000000000000000000000000000000000000000000000008152600401808060200182810382526022815260200180620029cd6022913960400191505060405180910390fd5b8260000182815481106200144c57fe5b9060005260206000200154905092915050565b600080836001016000848152602001908152602001600020541415905092915050565b600081600001805490509050919050565b6000620014a183836200145f565b620014fc57826000018290806001815401808255809150506001900390600052602060002001600090919091909150558260000180549050836001016000848152602001908152602001600020819055506001905062001501565b600090505b92915050565b60008083600101600084815260200190815260200160002054905060008114620015e857600060018203905060006001866000018054905003905060008660000182815481106200155457fe5b90600052602060002001549050808760000184815481106200157257fe5b9060005260206000200181905550600183018760010160008381526020019081526020016000208190555086600001805480620015ab57fe5b60019003818190600052602060002001600090559055866001016000878152602001908152602001600020600090556001945050505050620015ee565b60009150505b92915050565b61131b80620016b283390190565b828054600181600116156101000203166002900490600052602060002090601f016020900481019282601f106200164557805160ff191683800117855562001676565b8280016001018555821562001676579182015b828111156200167557825182559160200191906001019062001658565b5b50905062001685919062001689565b5090565b620016ae91905b80821115620016aa57600081600090555060010162001690565b5090565b9056fe60806040523480156200001157600080fd5b506040516200131b3803806200131b833981810160405260408110156200003757600080fd5b81019080805160405193929190846401000000008211156200005857600080fd5b838201915060208201858111156200006f57600080fd5b82518660018202830111640100000000821117156200008d57600080fd5b8083526020830192505050908051906020019080838360005b83811015620000c3578082015181840152602081019050620000a6565b50505050905090810190601f168015620000f15780820380516001836020036101000a031916815260200191505b50604052602001805190602001909291905050506200014c60405180807f5245504f5f4f574e45525f524f4c450000000000000000000000000000000000815250600f0190506040518091039020826200018d60201b60201c565b81600160020190805190602001906200016792919062000323565b5060018060040160006101000a81548160ff0219169083151502179055505050620003d2565b6200019f8282620001a360201b60201c565b5050565b620001d1816000808581526020019081526020016000206000016200024660201b62000be41790919060201c565b156200024257620001e76200027e60201b60201c565b73ffffffffffffffffffffffffffffffffffffffff168173ffffffffffffffffffffffffffffffffffffffff16837f2f8788117e7eff1d82e926ec794901d17c78024a50270940304540a733656f0d60405160405180910390a45b5050565b600062000276836000018373ffffffffffffffffffffffffffffffffffffffff1660001b6200028660201b60201c565b905092915050565b600033905090565b60006200029a83836200030060201b60201c565b620002f5578260000182908060018154018082558091505060019003906000526020600020016000909190919091505582600001805490508360010160008481526020019081526020016000208190555060019050620002fa565b600090505b92915050565b600080836001016000848152602001908152602001600020541415905092915050565b828054600181600116156101000203166002900490600052602060002090601f016020900481019282601f106200036657805160ff191683800117855562000397565b8280016001018555821562000397579182015b828111156200039657825182559160200191906001019062000379565b5b509050620003a69190620003aa565b5090565b620003cf91905b80821115620003cb576000816000905550600101620003b1565b5090565b90565b610f3980620003e26000396000f3fe608060405234801561001057600080fd5b50600436106100b45760003560e01c806391d148541161007157806391d148541461032b578063a217fddf14610391578063a79af2ce146103af578063ca15c87314610432578063d547741f14610474578063eac1c7fb146104c2576100b4565b806322f3e2d4146100b9578063248a9ca3146100db5780632f2ff15d1461011d57806336568abe1461016b57806356ff3122146101b95780639010d07c146102b3575b600080fd5b6100c1610545565b604051808215151515815260200191505060405180910390f35b610107600480360360208110156100f157600080fd5b810190808035906020019092919050505061055f565b6040518082815260200191505060405180910390f35b6101696004803603604081101561013357600080fd5b8101908080359060200190929190803573ffffffffffffffffffffffffffffffffffffffff16906020019092919050505061057e565b005b6101b76004803603604081101561018157600080fd5b8101908080359060200190929190803573ffffffffffffffffffffffffffffffffffffffff169060200190929190505050610607565b005b6101c16106a0565b60405180806020018060200184151515158152602001838103835286818151815260200191508051906020019080838360005b8381101561020f5780820151818401526020810190506101f4565b50505050905090810190601f16801561023c5780820380516001836020036101000a031916815260200191505b50838103825285818151815260200191508051906020019080838360005b8381101561027557808201518184015260208101905061025a565b50505050905090810190601f1680156102a25780820380516001836020036101000a031916815260200191505b509550505050505060405180910390f35b6102e9600480360360408110156102c957600080fd5b8101908080359060200190929190803590602001909291905050506107f5565b604051808273ffffffffffffffffffffffffffffffffffffffff1673ffffffffffffffffffffffffffffffffffffffff16815260200191505060405180910390f35b6103776004803603604081101561034157600080fd5b8101908080359060200190929190803573ffffffffffffffffffffffffffffffffffffffff169060200190929190505050610826565b604051808215151515815260200191505060405180910390f35b610399610857565b6040518082815260200191505060405180910390f35b6103b761085e565b6040518080602001828103825283818151815260200191508051906020019080838360005b838110156103f75780820151818401526020810190506103dc565b50505050905090810190601f1680156104245780820380516001836020036101000a031916815260200191505b509250505060405180910390f35b61045e6004803603602081101561044857600080fd5b8101908080359060200190929190505050610903565b6040518082815260200191505060405180910390f35b6104c06004803603604081101561048a57600080fd5b8101908080359060200190929190803573ffffffffffffffffffffffffffffffffffffffff169060200190929190505050610929565b005b6104ca6109b2565b6040518080602001828103825283818151815260200191508051906020019080838360005b8381101561050a5780820151818401526020810190506104ef565b50505050905090810190601f1680156105375780820380516001836020036101000a031916815260200191505b509250505060405180910390f35b6000600160040160009054906101000a900460ff16905090565b6000806000838152602001908152602001600020600201549050919050565b6105a46000808481526020019081526020016000206002015461059f610a57565b610826565b6105f9576040517f08c379a000000000000000000000000000000000000000000000000000000000815260040180806020018281038252602f815260200180610e76602f913960400191505060405180910390fd5b6106038282610a5f565b5050565b61060f610a57565b73ffffffffffffffffffffffffffffffffffffffff168173ffffffffffffffffffffffffffffffffffffffff1614610692576040517f08c379a000000000000000000000000000000000000000000000000000000000815260040180806020018281038252602f815260200180610ed5602f913960400191505060405180910390fd5b61069c8282610af2565b5050565b6001806002018054600181600116156101000203166002900480601f01602080910402602001604051908101604052809291908181526020018280546001816001161561010002031660029004801561073a5780601f1061070f5761010080835404028352916020019161073a565b820191906000526020600020905b81548152906001019060200180831161071d57829003601f168201915b505050505090806003018054600181600116156101000203166002900480601f0160208091040260200160405190810160405280929190818152602001828054600181600116156101000203166002900480156107d85780601f106107ad576101008083540402835291602001916107d8565b820191906000526020600020905b8154815290600101906020018083116107bb57829003601f168201915b5050505050908060040160009054906101000a900460ff16905083565b600061081e82600080868152602001908152602001600020600001610b8590919063ffffffff16565b905092915050565b600061084f82600080868152602001908152602001600020600001610b9f90919063ffffffff16565b905092915050565b6000801b81565b606060016002018054600181600116156101000203166002900480601f0160208091040260200160405190810160405280929190818152602001828054600181600116156101000203166002900480156108f95780601f106108ce576101008083540402835291602001916108f9565b820191906000526020600020905b8154815290600101906020018083116108dc57829003601f168201915b5050505050905090565b6000610922600080848152602001908152602001600020600001610bcf565b9050919050565b61094f6000808481526020019081526020016000206002015461094a610a57565b610826565b6109a4576040517f08c379a0000000000000000000000000000000000000000000000000000000008152600401808060200182810382526030815260200180610ea56030913960400191505060405180910390fd5b6109ae8282610af2565b5050565b606060016003018054600181600116156101000203166002900480601f016020809104026020016040519081016040528092919081815260200182805460018160011615610100020316600290048015610a4d5780601f10610a2257610100808354040283529160200191610a4d565b820191906000526020600020905b815481529060010190602001808311610a3057829003601f168201915b5050505050905090565b600033905090565b610a8681600080858152602001908152602001600020600001610be490919063ffffffff16565b15610aee57610a93610a57565b73ffffffffffffffffffffffffffffffffffffffff168173ffffffffffffffffffffffffffffffffffffffff16837f2f8788117e7eff1d82e926ec794901d17c78024a50270940304540a733656f0d60405160405180910390a45b5050565b610b1981600080858152602001908152602001600020600001610c1490919063ffffffff16565b15610b8157610b26610a57565b73ffffffffffffffffffffffffffffffffffffffff168173ffffffffffffffffffffffffffffffffffffffff16837ff6391f5c32d9c69d2a47ea670b442974b53935d1edc7fd64eb21e047a839171b60405160405180910390a45b5050565b6000610b948360000183610c44565b60001c905092915050565b6000610bc7836000018373ffffffffffffffffffffffffffffffffffffffff1660001b610cc7565b905092915050565b6000610bdd82600001610cea565b9050919050565b6000610c0c836000018373ffffffffffffffffffffffffffffffffffffffff1660001b610cfb565b905092915050565b6000610c3c836000018373ffffffffffffffffffffffffffffffffffffffff1660001b610d6b565b905092915050565b600081836000018054905011610ca5576040517f08c379a0000000000000000000000000000000000000000000000000000000008152600401808060200182810382526022815260200180610e546022913960400191505060405180910390fd5b826000018281548110610cb457fe5b9060005260206000200154905092915050565b600080836001016000848152602001908152602001600020541415905092915050565b600081600001805490509050919050565b6000610d078383610cc7565b610d60578260000182908060018154018082558091505060019003906000526020600020016000909190919091505582600001805490508360010160008481526020019081526020016000208190555060019050610d65565b600090505b92915050565b60008083600101600084815260200190815260200160002054905060008114610e475760006001820390506000600186600001805490500390506000866000018281548110610db657fe5b9060005260206000200154905080876000018481548110610dd357fe5b9060005260206000200181905550600183018760010160008381526020019081526020016000208190555086600001805480610e0b57fe5b60019003818190600052602060002001600090559055866001016000878152602001908152602001600020600090556001945050505050610e4d565b60009150505b9291505056fe456e756d657261626c655365743a20696e646578206f7574206f6620626f756e6473416363657373436f6e74726f6c3a2073656e646572206d75737420626520616e2061646d696e20746f206772616e74416363657373436f6e74726f6c3a2073656e646572206d75737420626520616e2061646d696e20746f207265766f6b65416363657373436f6e74726f6c3a2063616e206f6e6c792072656e6f756e636520726f6c657320666f722073656c66a2646970667358221220c275189f32e33df373e8d3d9636dca3739f104b15c4551c755fe37b189d447f164736f6c63430006020033456e756d657261626c655365743a20696e646578206f7574206f6620626f756e6473416363657373436f6e74726f6c3a2073656e646572206d75737420626520616e2061646d696e20746f206772616e74596f7520646f206e6f742068617665207065726d697373696f6e20746f206d6f646966792074686973206f7267616e697a6174696f6e21416363657373436f6e74726f6c3a2073656e646572206d75737420626520616e2061646d696e20746f207265766f6b65416363657373436f6e74726f6c3a2063616e206f6e6c792072656e6f756e636520726f6c657320666f722073656c66a2646970667358221220ca6ba7320b2f2de62e78be08cf9e6d649178ea79380846199b4934d08d92f73a64736f6c63430006020033",
  "source": "// SPDX-License-Identifier: MIT\npragma solidity >=0.4.21 <0.7.0;\n\nimport \"@openzeppelin/contracts/access/AccessControl.sol\";\nimport \"./ValistRepository.sol\";\n\ncontract ValistOrganization is AccessControl {\n    bytes32 constant ORG_OWNER = keccak256(\"ORG_OWNER_ROLE\");\n    bytes32 constant ORG_ADMIN = keccak256(\"ORG_ADMIN_ROLE\");\n\n    struct Organization {\n        mapping(string => ValistRepository) repos;\n        string meta; // org metadata (full name, image, description, etc)\n        bool active;\n    }\n\n    Organization public org;\n\n    constructor(string memory meta, address owner) public {\n        _setupRole(ORG_OWNER, owner);\n        org.meta = meta;\n        org.active = true;\n    }\n\n    function isActive() public view returns(bool) {\n        return org.active;\n    }\n\n    function createRepository(string memory repoName, string memory meta, address owner) public returns(address) {\n        require(org.repos[repoName].isActive() == false, \"Repository already exists!\");\n        org.repos[repoName] = new ValistRepository(meta, owner);\n        return address(org.repos[repoName]);\n    }\n\n    function getRepositoryAddress(string memory repoName) public view returns(address) {\n        return address(org.repos[repoName]);\n    }\n\n    function getRepository(string memory repoName) public view returns(ValistRepository) {\n        return org.repos[repoName];\n    }\n\n    function updateMetadata(string memory meta) public {\n        require(hasRole(ORG_OWNER, msg.sender) || hasRole(ORG_ADMIN, msg.sender), \"You do not have permission to modify this organization!\");\n        org.meta = meta;\n    }\n\n}\n",
  "sourcePath": "/Users/alec/Workspace/valist/eth/contracts/ValistOrganization.sol",
  "compiler": {
    "name": "solc",
    "version": "0.6.2+commit.bacdbe57.Emscripten.clang"
  },
  "schemaVersion": "3.2.3",
  "updatedAt": "2020-07-30T18:16:00.668Z",
  "devdoc": {
    "methods": {
      "getRoleAdmin(bytes32)": {
        "details": "Returns the admin role that controls `role`. See {grantRole} and {revokeRole}.     * To change a role's admin, use {_setRoleAdmin}."
      },
      "getRoleMember(bytes32,uint256)": {
        "details": "Returns one of the accounts that have `role`. `index` must be a value between 0 and {getRoleMemberCount}, non-inclusive.     * Role bearers are not sorted in any particular way, and their ordering may change at any point.     * WARNING: When using {getRoleMember} and {getRoleMemberCount}, make sure you perform all queries on the same block. See the following https://forum.openzeppelin.com/t/iterating-over-elements-on-enumerableset-in-openzeppelin-contracts/2296[forum post] for more information."
      },
      "getRoleMemberCount(bytes32)": {
        "details": "Returns the number of accounts that have `role`. Can be used together with {getRoleMember} to enumerate all bearers of a role."
      },
      "grantRole(bytes32,address)": {
        "details": "Grants `role` to `account`.     * If `account` had not been already granted `role`, emits a {RoleGranted} event.     * Requirements:     * - the caller must have ``role``'s admin role."
      },
      "hasRole(bytes32,address)": {
        "details": "Returns `true` if `account` has been granted `role`."
      },
      "renounceRole(bytes32,address)": {
        "details": "Revokes `role` from the calling account.     * Roles are often managed via {grantRole} and {revokeRole}: this function's purpose is to provide a mechanism for accounts to lose their privileges if they are compromised (such as when a trusted device is misplaced).     * If the calling account had been granted `role`, emits a {RoleRevoked} event.     * Requirements:     * - the caller must be `account`."
      },
      "revokeRole(bytes32,address)": {
        "details": "Revokes `role` from `account`.     * If `account` had been granted `role`, emits a {RoleRevoked} event.     * Requirements:     * - the caller must have ``role``'s admin role."
      }
    }
  },
  "userdoc": {
    "methods": {}
  }
}