{
  "contractName": "Valist",
  "abi": [
    {
      "anonymous": false,
      "inputs": [
        {
          "indexed": true,
          "internalType": "bytes32",
          "name": "role",
          "type": "bytes32"
        },
        {
          "indexed": true,
          "internalType": "bytes32",
          "name": "previousAdminRole",
          "type": "bytes32"
        },
        {
          "indexed": true,
          "internalType": "bytes32",
          "name": "newAdminRole",
          "type": "bytes32"
        }
      ],
      "name": "RoleAdminChanged",
      "type": "event"
    },
    {
      "anonymous": false,
      "inputs": [
        {
          "indexed": true,
          "internalType": "bytes32",
          "name": "role",
          "type": "bytes32"
        },
        {
          "indexed": true,
          "internalType": "address",
          "name": "account",
          "type": "address"
        },
        {
          "indexed": true,
          "internalType": "address",
          "name": "sender",
          "type": "address"
        }
      ],
      "name": "RoleGranted",
      "type": "event"
    },
    {
      "anonymous": false,
      "inputs": [
        {
          "indexed": true,
          "internalType": "bytes32",
          "name": "role",
          "type": "bytes32"
        },
        {
          "indexed": true,
          "internalType": "address",
          "name": "account",
          "type": "address"
        },
        {
          "indexed": true,
          "internalType": "address",
          "name": "sender",
          "type": "address"
        }
      ],
      "name": "RoleRevoked",
      "type": "event"
    },
    {
      "anonymous": false,
      "inputs": [
        {
          "indexed": false,
          "internalType": "string",
          "name": "orgName",
          "type": "string"
        },
        {
          "indexed": false,
          "internalType": "string",
          "name": "repoName",
          "type": "string"
        },
        {
          "indexed": false,
          "internalType": "string",
          "name": "meta",
          "type": "string"
        },
        {
          "indexed": false,
          "internalType": "string",
          "name": "changelog",
          "type": "string"
        },
        {
          "indexed": false,
          "internalType": "string",
          "name": "release",
          "type": "string"
        }
      ],
      "name": "Update",
      "type": "event"
    },
    {
      "inputs": [],
      "name": "APP_DEV",
      "outputs": [
        {
          "internalType": "bytes32",
          "name": "",
          "type": "bytes32"
        }
      ],
      "stateMutability": "view",
      "type": "function",
      "constant": true
    },
    {
      "inputs": [],
      "name": "DEFAULT_ADMIN_ROLE",
      "outputs": [
        {
          "internalType": "bytes32",
          "name": "",
          "type": "bytes32"
        }
      ],
      "stateMutability": "view",
      "type": "function",
      "constant": true
    },
    {
      "inputs": [],
      "name": "ORG_ADMIN",
      "outputs": [
        {
          "internalType": "bytes32",
          "name": "",
          "type": "bytes32"
        }
      ],
      "stateMutability": "view",
      "type": "function",
      "constant": true
    },
    {
      "inputs": [],
      "name": "ORG_OWNER",
      "outputs": [
        {
          "internalType": "bytes32",
          "name": "",
          "type": "bytes32"
        }
      ],
      "stateMutability": "view",
      "type": "function",
      "constant": true
    },
    {
      "inputs": [],
      "name": "REPO_ADMIN",
      "outputs": [
        {
          "internalType": "bytes32",
          "name": "",
          "type": "bytes32"
        }
      ],
      "stateMutability": "view",
      "type": "function",
      "constant": true
    },
    {
      "inputs": [],
      "name": "REPO_OWNER",
      "outputs": [
        {
          "internalType": "bytes32",
          "name": "",
          "type": "bytes32"
        }
      ],
      "stateMutability": "view",
      "type": "function",
      "constant": true
    },
    {
      "inputs": [
        {
          "internalType": "bytes32",
          "name": "role",
          "type": "bytes32"
        }
      ],
      "name": "getRoleAdmin",
      "outputs": [
        {
          "internalType": "bytes32",
          "name": "",
          "type": "bytes32"
        }
      ],
      "stateMutability": "view",
      "type": "function",
      "constant": true
    },
    {
      "inputs": [
        {
          "internalType": "bytes32",
          "name": "role",
          "type": "bytes32"
        },
        {
          "internalType": "uint256",
          "name": "index",
          "type": "uint256"
        }
      ],
      "name": "getRoleMember",
      "outputs": [
        {
          "internalType": "address",
          "name": "",
          "type": "address"
        }
      ],
      "stateMutability": "view",
      "type": "function",
      "constant": true
    },
    {
      "inputs": [
        {
          "internalType": "bytes32",
          "name": "role",
          "type": "bytes32"
        }
      ],
      "name": "getRoleMemberCount",
      "outputs": [
        {
          "internalType": "uint256",
          "name": "",
          "type": "uint256"
        }
      ],
      "stateMutability": "view",
      "type": "function",
      "constant": true
    },
    {
      "inputs": [
        {
          "internalType": "bytes32",
          "name": "role",
          "type": "bytes32"
        },
        {
          "internalType": "address",
          "name": "account",
          "type": "address"
        }
      ],
      "name": "grantRole",
      "outputs": [],
      "stateMutability": "nonpayable",
      "type": "function"
    },
    {
      "inputs": [
        {
          "internalType": "bytes32",
          "name": "role",
          "type": "bytes32"
        },
        {
          "internalType": "address",
          "name": "account",
          "type": "address"
        }
      ],
      "name": "hasRole",
      "outputs": [
        {
          "internalType": "bool",
          "name": "",
          "type": "bool"
        }
      ],
      "stateMutability": "view",
      "type": "function",
      "constant": true
    },
    {
      "inputs": [
        {
          "internalType": "string",
          "name": "",
          "type": "string"
        }
      ],
      "name": "orgs",
      "outputs": [
        {
          "internalType": "string",
          "name": "meta",
          "type": "string"
        }
      ],
      "stateMutability": "view",
      "type": "function",
      "constant": true
    },
    {
      "inputs": [
        {
          "internalType": "bytes32",
          "name": "role",
          "type": "bytes32"
        },
        {
          "internalType": "address",
          "name": "account",
          "type": "address"
        }
      ],
      "name": "renounceRole",
      "outputs": [],
      "stateMutability": "nonpayable",
      "type": "function"
    },
    {
      "inputs": [
        {
          "internalType": "bytes32",
          "name": "role",
          "type": "bytes32"
        },
        {
          "internalType": "address",
          "name": "account",
          "type": "address"
        }
      ],
      "name": "revokeRole",
      "outputs": [],
      "stateMutability": "nonpayable",
      "type": "function"
    },
    {
      "inputs": [
        {
          "internalType": "string",
          "name": "orgName",
          "type": "string"
        },
        {
          "internalType": "string",
          "name": "repoName",
          "type": "string"
        }
      ],
      "name": "getRepositoryMetaByOrganization",
      "outputs": [
        {
          "internalType": "string",
          "name": "meta",
          "type": "string"
        }
      ],
      "stateMutability": "view",
      "type": "function",
      "constant": true
    },
    {
      "inputs": [
        {
          "internalType": "string",
          "name": "orgName",
          "type": "string"
        },
        {
          "internalType": "string",
          "name": "repoName",
          "type": "string"
        }
      ],
      "name": "getRepositoryLatestReleaseByOrganization",
      "outputs": [
        {
          "internalType": "string",
          "name": "meta",
          "type": "string"
        }
      ],
      "stateMutability": "view",
      "type": "function",
      "constant": true
    },
    {
      "inputs": [
        {
          "internalType": "string",
          "name": "orgName",
          "type": "string"
        },
        {
          "internalType": "string",
          "name": "meta",
          "type": "string"
        }
      ],
      "name": "createOrganization",
      "outputs": [],
      "stateMutability": "nonpayable",
      "type": "function"
    },
    {
      "inputs": [
        {
          "internalType": "string",
          "name": "orgName",
          "type": "string"
        },
        {
          "internalType": "string",
          "name": "repoName",
          "type": "string"
        },
        {
          "internalType": "string",
          "name": "meta",
          "type": "string"
        }
      ],
      "name": "createRepository",
      "outputs": [],
      "stateMutability": "nonpayable",
      "type": "function"
    }
  ],
  "bytecode": "0x608060405234801561001057600080fd5b50611f38806100206000396000f3fe608060405234801561001057600080fd5b50600436106101165760003560e01c80636ff2aa74116100a2578063a289034911610071578063a289034914610a02578063a411ef2014610a20578063ca15c87314610b72578063d547741f14610bb4578063ef87e4a014610c0257610116565b80636ff2aa74146108e85780639010d07c1461090657806391d148541461097e578063a217fddf146109e457610116565b80632f2ff15d116100e95780632f2ff15d1461047a57806336568abe146104c85780633c733e6f146105165780634899daa9146106ff57806363f9ad32146108ca57610116565b8063067816ea1461011b578063084a5e2d1461024f578063248a9ca31461026d5780632b90801a146102af575b600080fd5b6101d46004803603602081101561013157600080fd5b810190808035906020019064010000000081111561014e57600080fd5b82018360208201111561016057600080fd5b8035906020019184600183028401116401000000008311171561018257600080fd5b91908080601f016020809104026020016040519081016040528093929190818152602001838380828437600081840152601f19601f820116905080830192505050505050509192919290505050610c20565b6040518080602001828103825283818151815260200191508051906020019080838360005b838110156102145780820151818401526020810190506101f9565b50505050905090810190601f1680156102415780820380516001836020036101000a031916815260200191505b509250505060405180910390f35b610257610cec565b6040518082815260200191505060405180910390f35b6102996004803603602081101561028357600080fd5b8101908080359060200190929190505050610d25565b6040518082815260200191505060405180910390f35b6103ff600480360360408110156102c557600080fd5b81019080803590602001906401000000008111156102e257600080fd5b8201836020820111156102f457600080fd5b8035906020019184600183028401116401000000008311171561031657600080fd5b91908080601f016020809104026020016040519081016040528093929190818152602001838380828437600081840152601f19601f8201169050808301925050505050505091929192908035906020019064010000000081111561037957600080fd5b82018360208201111561038b57600080fd5b803590602001918460018302840111640100000000831117156103ad57600080fd5b91908080601f016020809104026020016040519081016040528093929190818152602001838380828437600081840152601f19601f820116905080830192505050505050509192919290505050610d44565b6040518080602001828103825283818151815260200191508051906020019080838360005b8381101561043f578082015181840152602081019050610424565b50505050905090810190601f16801561046c5780820380516001836020036101000a031916815260200191505b509250505060405180910390f35b6104c66004803603604081101561049057600080fd5b8101908080359060200190929190803573ffffffffffffffffffffffffffffffffffffffff169060200190929190505050610ebd565b005b610514600480360360408110156104de57600080fd5b8101908080359060200190929190803573ffffffffffffffffffffffffffffffffffffffff169060200190929190505050610f46565b005b6106fd6004803603606081101561052c57600080fd5b810190808035906020019064010000000081111561054957600080fd5b82018360208201111561055b57600080fd5b8035906020019184600183028401116401000000008311171561057d57600080fd5b91908080601f016020809104026020016040519081016040528093929190818152602001838380828437600081840152601f19601f820116905080830192505050505050509192919290803590602001906401000000008111156105e057600080fd5b8201836020820111156105f257600080fd5b8035906020019184600183028401116401000000008311171561061457600080fd5b91908080601f016020809104026020016040519081016040528093929190818152602001838380828437600081840152601f19601f8201169050808301925050505050505091929192908035906020019064010000000081111561067757600080fd5b82018360208201111561068957600080fd5b803590602001918460018302840111640100000000831117156106ab57600080fd5b91908080601f016020809104026020016040519081016040528093929190818152602001838380828437600081840152601f19601f820116905080830192505050505050509192919290505050610fdf565b005b61084f6004803603604081101561071557600080fd5b810190808035906020019064010000000081111561073257600080fd5b82018360208201111561074457600080fd5b8035906020019184600183028401116401000000008311171561076657600080fd5b91908080601f016020809104026020016040519081016040528093929190818152602001838380828437600081840152601f19601f820116905080830192505050505050509192919290803590602001906401000000008111156107c957600080fd5b8201836020820111156107db57600080fd5b803590602001918460018302840111640100000000831117156107fd57600080fd5b91908080601f016020809104026020016040519081016040528093929190818152602001838380828437600081840152601f19601f8201169050808301925050505050505091929192905050506113ad565b6040518080602001828103825283818151815260200191508051906020019080838360005b8381101561088f578082015181840152602081019050610874565b50505050905090810190601f1680156108bc5780820380516001836020036101000a031916815260200191505b509250505060405180910390f35b6108d2611526565b6040518082815260200191505060405180910390f35b6108f061155f565b6040518082815260200191505060405180910390f35b61093c6004803603604081101561091c57600080fd5b810190808035906020019092919080359060200190929190505050611598565b604051808273ffffffffffffffffffffffffffffffffffffffff1673ffffffffffffffffffffffffffffffffffffffff16815260200191505060405180910390f35b6109ca6004803603604081101561099457600080fd5b8101908080359060200190929190803573ffffffffffffffffffffffffffffffffffffffff1690602001909291905050506115c9565b604051808215151515815260200191505060405180910390f35b6109ec6115fa565b6040518082815260200191505060405180910390f35b610a0a611601565b6040518082815260200191505060405180910390f35b610b7060048036036040811015610a3657600080fd5b8101908080359060200190640100000000811115610a5357600080fd5b820183602082011115610a6557600080fd5b80359060200191846001830284011164010000000083111715610a8757600080fd5b91908080601f016020809104026020016040519081016040528093929190818152602001838380828437600081840152601f19601f82011690508083019250505050505050919291929080359060200190640100000000811115610aea57600080fd5b820183602082011115610afc57600080fd5b80359060200191846001830284011164010000000083111715610b1e57600080fd5b91908080601f016020809104026020016040519081016040528093929190818152602001838380828437600081840152601f19601f82011690508083019250505050505050919291929050505061163a565b005b610b9e60048036036020811015610b8857600080fd5b81019080803590602001909291905050506118c9565b6040518082815260200191505060405180910390f35b610c0060048036036040811015610bca57600080fd5b8101908080359060200190929190803573ffffffffffffffffffffffffffffffffffffffff1690602001909291905050506118ef565b005b610c0a611978565b6040518082815260200191505060405180910390f35b600181805160208101820180518482526020830160208501208183528095505050505050600091509050806002018054600181600116156101000203166002900480601f016020809104026020016040519081016040528092919081815260200182805460018160011615610100020316600290048015610ce25780601f10610cb757610100808354040283529160200191610ce2565b820191906000526020600020905b815481529060010190602001808311610cc557829003601f168201915b5050505050905081565b60405180807f5245504f5f4f574e45525f524f4c450000000000000000000000000000000000815250600f019050604051809103902081565b6000806000838152602001908152602001600020600201549050919050565b60606001836040518082805190602001908083835b60208310610d7c5780518252602082019150602081019050602083039250610d59565b6001836020036101000a0380198251168184511680821785525050505050509050019150509081526020016040518091039020600101826040518082805190602001908083835b60208310610de65780518252602082019150602081019050602083039250610dc3565b6001836020036101000a03801982511681845116808217855250505050505090500191505090815260200160405180910390206003018054600181600116156101000203166002900480601f016020809104026020016040519081016040528092919081815260200182805460018160011615610100020316600290048015610eb05780601f10610e8557610100808354040283529160200191610eb0565b820191906000526020600020905b815481529060010190602001808311610e9357829003601f168201915b5050505050905092915050565b610ee360008084815260200190815260200160002060020154610ede6119b1565b6115c9565b610f38576040517f08c379a000000000000000000000000000000000000000000000000000000000815260040180806020018281038252602f815260200180611e75602f913960400191505060405180910390fd5b610f4282826119b9565b5050565b610f4e6119b1565b73ffffffffffffffffffffffffffffffffffffffff168173ffffffffffffffffffffffffffffffffffffffff1614610fd1576040517f08c379a000000000000000000000000000000000000000000000000000000000815260040180806020018281038252602f815260200180611ed4602f913960400191505060405180910390fd5b610fdb8282611a4c565b5050565b60006001846040518082805190602001908083835b602083106110175780518252602082019150602081019050602083039250610ff4565b6001836020036101000a0380198251168184511680821785525050505050509050019150509081526020016040518091039020600101836040518082805190602001908083835b60208310611081578051825260208201915060208101905060208303925061105e565b6001836020036101000a03801982511681845116808217855250505050505090500191505090815260200160405180910390206003018054600181600116156101000203166002900490501415611140576040517f08c379a000000000000000000000000000000000000000000000000000000000815260040180806020018281038252601a8152602001807f5265706f7369746f727920616c7265616479206578697374732100000000000081525060200191505060405180910390fd5b806001846040518082805190602001908083835b602083106111775780518252602082019150602081019050602083039250611154565b6001836020036101000a0380198251168184511680821785525050505050509050019150509081526020016040518091039020600101836040518082805190602001908083835b602083106111e157805182526020820191506020810190506020830392506111be565b6001836020036101000a0380198251168184511680821785525050505050509050019150509081526020016040518091039020600301908051906020019061122a929190611dad565b506001836040518082805190602001908083835b60208310611261578051825260208201915060208101905060208303925061123e565b6001836020036101000a0380198251168184511680821785525050505050509050019150509081526020016040518091039020600101826040518082805190602001908083835b602083106112cb57805182526020820191506020810190506020830392506112a8565b6001836020036101000a0380198251168184511680821785525050505050509050019150509081526020016040518091039020600001600060405180807f5245504f5f4f574e45525f524f4c450000000000000000000000000000000000815250600f01905060405180910390208152602001908152602001600020339080600181540180825580915050600190039060005260206000200160009091909190916101000a81548173ffffffffffffffffffffffffffffffffffffffff021916908373ffffffffffffffffffffffffffffffffffffffff160217905550505050565b60606001836040518082805190602001908083835b602083106113e557805182526020820191506020810190506020830392506113c2565b6001836020036101000a0380198251168184511680821785525050505050509050019150509081526020016040518091039020600101826040518082805190602001908083835b6020831061144f578051825260208201915060208101905060208303925061142c565b6001836020036101000a03801982511681845116808217855250505050505090500191505090815260200160405180910390206004018054600181600116156101000203166002900480601f0160208091040260200160405190810160405280929190818152602001828054600181600116156101000203166002900480156115195780601f106114ee57610100808354040283529160200191611519565b820191906000526020600020905b8154815290600101906020018083116114fc57829003601f168201915b5050505050905092915050565b60405180807f5245504f5f41444d494e5f524f4c450000000000000000000000000000000000815250600f019050604051809103902081565b60405180807f4f52475f4f574e45525f524f4c45000000000000000000000000000000000000815250600e019050604051809103902081565b60006115c182600080868152602001908152602001600020600001611adf90919063ffffffff16565b905092915050565b60006115f282600080868152602001908152602001600020600001611af990919063ffffffff16565b905092915050565b6000801b81565b60405180807f4f52475f41444d494e5f524f4c45000000000000000000000000000000000000815250600e019050604051809103902081565b60006001836040518082805190602001908083835b60208310611672578051825260208201915060208101905060208303925061164f565b6001836020036101000a03801982511681845116808217855250505050505090500191505090815260200160405180910390206002018054600181600116156101000203166002900490501415611731576040517f08c379a000000000000000000000000000000000000000000000000000000000815260040180806020018281038252601c8152602001807f4f7267616e697a6174696f6e20616c726561647920657869737473210000000081525060200191505060405180910390fd5b806001836040518082805190602001908083835b602083106117685780518252602082019150602081019050602083039250611745565b6001836020036101000a038019825116818451168082178552505050505050905001915050908152602001604051809103902060020190805190602001906117b1929190611dad565b506001826040518082805190602001908083835b602083106117e857805182526020820191506020810190506020830392506117c5565b6001836020036101000a0380198251168184511680821785525050505050509050019150509081526020016040518091039020600001600060405180807f4f52475f4f574e45525f524f4c45000000000000000000000000000000000000815250600e01905060405180910390208152602001908152602001600020339080600181540180825580915050600190039060005260206000200160009091909190916101000a81548173ffffffffffffffffffffffffffffffffffffffff021916908373ffffffffffffffffffffffffffffffffffffffff1602179055505050565b60006118e8600080848152602001908152602001600020600001611b29565b9050919050565b611915600080848152602001908152602001600020600201546119106119b1565b6115c9565b61196a576040517f08c379a0000000000000000000000000000000000000000000000000000000008152600401808060200182810382526030815260200180611ea46030913960400191505060405180910390fd5b6119748282611a4c565b5050565b60405180807f4150505f4445565f524f4c450000000000000000000000000000000000000000815250600c019050604051809103902081565b600033905090565b6119e081600080858152602001908152602001600020600001611b3e90919063ffffffff16565b15611a48576119ed6119b1565b73ffffffffffffffffffffffffffffffffffffffff168173ffffffffffffffffffffffffffffffffffffffff16837f2f8788117e7eff1d82e926ec794901d17c78024a50270940304540a733656f0d60405160405180910390a45b5050565b611a7381600080858152602001908152602001600020600001611b6e90919063ffffffff16565b15611adb57611a806119b1565b73ffffffffffffffffffffffffffffffffffffffff168173ffffffffffffffffffffffffffffffffffffffff16837ff6391f5c32d9c69d2a47ea670b442974b53935d1edc7fd64eb21e047a839171b60405160405180910390a45b5050565b6000611aee8360000183611b9e565b60001c905092915050565b6000611b21836000018373ffffffffffffffffffffffffffffffffffffffff1660001b611c21565b905092915050565b6000611b3782600001611c44565b9050919050565b6000611b66836000018373ffffffffffffffffffffffffffffffffffffffff1660001b611c55565b905092915050565b6000611b96836000018373ffffffffffffffffffffffffffffffffffffffff1660001b611cc5565b905092915050565b600081836000018054905011611bff576040517f08c379a0000000000000000000000000000000000000000000000000000000008152600401808060200182810382526022815260200180611e536022913960400191505060405180910390fd5b826000018281548110611c0e57fe5b9060005260206000200154905092915050565b600080836001016000848152602001908152602001600020541415905092915050565b600081600001805490509050919050565b6000611c618383611c21565b611cba578260000182908060018154018082558091505060019003906000526020600020016000909190919091505582600001805490508360010160008481526020019081526020016000208190555060019050611cbf565b600090505b92915050565b60008083600101600084815260200190815260200160002054905060008114611da15760006001820390506000600186600001805490500390506000866000018281548110611d1057fe5b9060005260206000200154905080876000018481548110611d2d57fe5b9060005260206000200181905550600183018760010160008381526020019081526020016000208190555086600001805480611d6557fe5b60019003818190600052602060002001600090559055866001016000878152602001908152602001600020600090556001945050505050611da7565b60009150505b92915050565b828054600181600116156101000203166002900490600052602060002090601f016020900481019282601f10611dee57805160ff1916838001178555611e1c565b82800160010185558215611e1c579182015b82811115611e1b578251825591602001919060010190611e00565b5b509050611e299190611e2d565b5090565b611e4f91905b80821115611e4b576000816000905550600101611e33565b5090565b9056fe456e756d657261626c655365743a20696e646578206f7574206f6620626f756e6473416363657373436f6e74726f6c3a2073656e646572206d75737420626520616e2061646d696e20746f206772616e74416363657373436f6e74726f6c3a2073656e646572206d75737420626520616e2061646d696e20746f207265766f6b65416363657373436f6e74726f6c3a2063616e206f6e6c792072656e6f756e636520726f6c657320666f722073656c66a26469706673582212205f46667932929009ea5c38d0b709083797bed8e7a53d63e72adc27f20a9ba1e164736f6c63430006020033",
  "source": "// SPDX-License-Identifier: MIT\npragma solidity >=0.4.21 <0.7.0;\n\nimport \"@openzeppelin/contracts/access/AccessControl.sol\";\n\ncontract Valist is AccessControl {\n\n    bytes32 public constant REPO_OWNER = keccak256(\"REPO_OWNER_ROLE\");\n    bytes32 public constant ORG_OWNER = keccak256(\"ORG_OWNER_ROLE\");\n\n    bytes32 public constant REPO_ADMIN = keccak256(\"REPO_ADMIN_ROLE\");\n    bytes32 public constant ORG_ADMIN = keccak256(\"ORG_ADMIN_ROLE\");\n\n    bytes32 public constant APP_DEV = keccak256(\"APP_DEV_ROLE\");\n\n    struct Repository {\n        mapping(bytes32 => address[]) usersByRole;\n        string[] changelog; // list of IPFS uris for any changelogs (also emitted as an event during update)\n        string[] releases; // list of previous release ipfs hashes\n        string meta; // ipfs URI for metadata (image, description, etc)\n        string latest; // latest release hash (should be the latest push to releases array)\n    }\n\n    struct Organization {\n        mapping(bytes32 => address[]) usersByRole;\n        mapping(string => Repository) repos;\n        string meta; // org metadata (full name, image, description, etc)\n    }\n\n    event Update(string orgName, string repoName, string meta, string changelog, string release);\n\n    // [valist.io]/[organization]/[repository]\n\n    // map an organization handle to an Organization struct\n    mapping(string => Organization) public orgs;\n\n    function getRepositoryMetaByOrganization(string memory orgName, string memory repoName) public view returns(string memory meta) {\n        return orgs[orgName].repos[repoName].meta;\n    }\n\n    function getRepositoryLatestReleaseByOrganization(string memory orgName, string memory repoName) public view returns(string memory meta) {\n        return orgs[orgName].repos[repoName].latest;\n    }\n\n    function createOrganization(string memory orgName, string memory meta) public {\n        require(bytes(orgs[orgName].meta).length != 0, \"Organization already exists!\");\n        orgs[orgName].meta = meta;\n        orgs[orgName].usersByRole[ORG_OWNER].push(msg.sender); // add user to org owner role\n    }\n\n    function createRepository(string memory orgName, string memory repoName, string memory meta) public {\n        require(bytes(orgs[orgName].repos[repoName].meta).length != 0, \"Repository already exists!\");\n        orgs[orgName].repos[repoName].meta = meta;\n        orgs[orgName].repos[repoName].usersByRole[REPO_OWNER].push(msg.sender);\n    }\n\n}\n",
  "sourcePath": "/Users/alec/Workspace/valist/eth/contracts/Valist.sol",
  "compiler": {
    "name": "solc",
    "version": "0.6.2+commit.bacdbe57.Emscripten.clang"
  },
  "schemaVersion": "3.2.3",
  "updatedAt": "2020-07-30T03:38:44.204Z",
  "networkType": "ethereum",
  "devdoc": {
    "methods": {
      "getRoleAdmin(bytes32)": {
        "details": "Returns the admin role that controls `role`. See {grantRole} and {revokeRole}.     * To change a role's admin, use {_setRoleAdmin}."
      },
      "getRoleMember(bytes32,uint256)": {
        "details": "Returns one of the accounts that have `role`. `index` must be a value between 0 and {getRoleMemberCount}, non-inclusive.     * Role bearers are not sorted in any particular way, and their ordering may change at any point.     * WARNING: When using {getRoleMember} and {getRoleMemberCount}, make sure you perform all queries on the same block. See the following https://forum.openzeppelin.com/t/iterating-over-elements-on-enumerableset-in-openzeppelin-contracts/2296[forum post] for more information."
      },
      "getRoleMemberCount(bytes32)": {
        "details": "Returns the number of accounts that have `role`. Can be used together with {getRoleMember} to enumerate all bearers of a role."
      },
      "grantRole(bytes32,address)": {
        "details": "Grants `role` to `account`.     * If `account` had not been already granted `role`, emits a {RoleGranted} event.     * Requirements:     * - the caller must have ``role``'s admin role."
      },
      "hasRole(bytes32,address)": {
        "details": "Returns `true` if `account` has been granted `role`."
      },
      "renounceRole(bytes32,address)": {
        "details": "Revokes `role` from the calling account.     * Roles are often managed via {grantRole} and {revokeRole}: this function's purpose is to provide a mechanism for accounts to lose their privileges if they are compromised (such as when a trusted device is misplaced).     * If the calling account had been granted `role`, emits a {RoleRevoked} event.     * Requirements:     * - the caller must be `account`."
      },
      "revokeRole(bytes32,address)": {
        "details": "Revokes `role` from `account`.     * If `account` had been granted `role`, emits a {RoleRevoked} event.     * Requirements:     * - the caller must have ``role``'s admin role."
      }
    }
  },
  "userdoc": {
    "methods": {}
  }
}