{
  "_format": "hh-sol-artifact-1",
  "contractName": "Valist",
  "sourceName": "contracts/Valist.sol",
  "abi": [
    {
      "inputs": [
        {
          "internalType": "address",
          "name": "metaTxForwarder",
          "type": "address"
        }
      ],
      "stateMutability": "nonpayable",
      "type": "constructor"
    },
    {
      "anonymous": false,
      "inputs": [
        {
          "indexed": true,
          "internalType": "bytes32",
          "name": "_orgID",
          "type": "bytes32"
        },
        {
          "indexed": true,
          "internalType": "string",
          "name": "_repoName",
          "type": "string"
        },
        {
          "indexed": true,
          "internalType": "address",
          "name": "_signer",
          "type": "address"
        },
        {
          "indexed": false,
          "internalType": "string",
          "name": "_metaCID",
          "type": "string"
        }
      ],
      "name": "MetaUpdate",
      "type": "event"
    },
    {
      "anonymous": false,
      "inputs": [
        {
          "indexed": true,
          "internalType": "bytes32",
          "name": "_orgID",
          "type": "bytes32"
        },
        {
          "indexed": true,
          "internalType": "string",
          "name": "_metaCIDHash",
          "type": "string"
        },
        {
          "indexed": false,
          "internalType": "string",
          "name": "_metaCID",
          "type": "string"
        }
      ],
      "name": "OrgCreated",
      "type": "event"
    },
    {
      "anonymous": false,
      "inputs": [
        {
          "indexed": true,
          "internalType": "bytes32",
          "name": "_orgID",
          "type": "bytes32"
        },
        {
          "indexed": true,
          "internalType": "string",
          "name": "_repoNameHash",
          "type": "string"
        },
        {
          "indexed": false,
          "internalType": "string",
          "name": "_repoName",
          "type": "string"
        },
        {
          "indexed": true,
          "internalType": "string",
          "name": "_metaCIDHash",
          "type": "string"
        },
        {
          "indexed": false,
          "internalType": "string",
          "name": "_metaCID",
          "type": "string"
        }
      ],
      "name": "RepoCreated",
      "type": "event"
    },
    {
      "anonymous": false,
      "inputs": [
        {
          "indexed": true,
          "internalType": "bytes32",
          "name": "_orgID",
          "type": "bytes32"
        },
        {
          "indexed": true,
          "internalType": "string",
          "name": "_repoName",
          "type": "string"
        },
        {
          "indexed": false,
          "internalType": "address",
          "name": "_signer",
          "type": "address"
        },
        {
          "indexed": false,
          "internalType": "bytes32",
          "name": "_operation",
          "type": "bytes32"
        },
        {
          "indexed": true,
          "internalType": "address",
          "name": "_key",
          "type": "address"
        },
        {
          "indexed": false,
          "internalType": "uint256",
          "name": "_sigCount",
          "type": "uint256"
        },
        {
          "indexed": false,
          "internalType": "uint256",
          "name": "_threshold",
          "type": "uint256"
        }
      ],
      "name": "VoteKeyEvent",
      "type": "event"
    },
    {
      "anonymous": false,
      "inputs": [
        {
          "indexed": true,
          "internalType": "bytes32",
          "name": "_orgID",
          "type": "bytes32"
        },
        {
          "indexed": true,
          "internalType": "string",
          "name": "_repoName",
          "type": "string"
        },
        {
          "indexed": true,
          "internalType": "string",
          "name": "_tag",
          "type": "string"
        },
        {
          "indexed": false,
          "internalType": "string",
          "name": "_releaseCID",
          "type": "string"
        },
        {
          "indexed": false,
          "internalType": "string",
          "name": "_metaCID",
          "type": "string"
        },
        {
          "indexed": false,
          "internalType": "address",
          "name": "_signer",
          "type": "address"
        },
        {
          "indexed": false,
          "internalType": "uint256",
          "name": "_sigCount",
          "type": "uint256"
        },
        {
          "indexed": false,
          "internalType": "uint256",
          "name": "_threshold",
          "type": "uint256"
        }
      ],
      "name": "VoteReleaseEvent",
      "type": "event"
    },
    {
      "anonymous": false,
      "inputs": [
        {
          "indexed": true,
          "internalType": "bytes32",
          "name": "_orgID",
          "type": "bytes32"
        },
        {
          "indexed": true,
          "internalType": "string",
          "name": "_repoName",
          "type": "string"
        },
        {
          "indexed": false,
          "internalType": "address",
          "name": "_signer",
          "type": "address"
        },
        {
          "indexed": true,
          "internalType": "uint256",
          "name": "_pendingThreshold",
          "type": "uint256"
        },
        {
          "indexed": false,
          "internalType": "uint256",
          "name": "_sigCount",
          "type": "uint256"
        },
        {
          "indexed": false,
          "internalType": "uint256",
          "name": "_threshold",
          "type": "uint256"
        }
      ],
      "name": "VoteThresholdEvent",
      "type": "event"
    },
    {
      "inputs": [
        {
          "internalType": "bytes32",
          "name": "_orgID",
          "type": "bytes32"
        },
        {
          "internalType": "string",
          "name": "_repoName",
          "type": "string"
        },
        {
          "internalType": "bytes32",
          "name": "_operation",
          "type": "bytes32"
        },
        {
          "internalType": "address",
          "name": "_key",
          "type": "address"
        },
        {
          "internalType": "uint256",
          "name": "_requestIndex",
          "type": "uint256"
        }
      ],
      "name": "clearPendingKey",
      "outputs": [],
      "stateMutability": "nonpayable",
      "type": "function"
    },
    {
      "inputs": [
        {
          "internalType": "bytes32",
          "name": "_orgID",
          "type": "bytes32"
        },
        {
          "internalType": "string",
          "name": "_repoName",
          "type": "string"
        },
        {
          "internalType": "string",
          "name": "_tag",
          "type": "string"
        },
        {
          "internalType": "string",
          "name": "_releaseCID",
          "type": "string"
        },
        {
          "internalType": "string",
          "name": "_metaCID",
          "type": "string"
        },
        {
          "internalType": "uint256",
          "name": "_requestIndex",
          "type": "uint256"
        }
      ],
      "name": "clearPendingRelease",
      "outputs": [],
      "stateMutability": "nonpayable",
      "type": "function"
    },
    {
      "inputs": [
        {
          "internalType": "bytes32",
          "name": "_orgID",
          "type": "bytes32"
        },
        {
          "internalType": "string",
          "name": "_repoName",
          "type": "string"
        },
        {
          "internalType": "uint256",
          "name": "_threshold",
          "type": "uint256"
        },
        {
          "internalType": "uint256",
          "name": "_requestIndex",
          "type": "uint256"
        }
      ],
      "name": "clearPendingThreshold",
      "outputs": [],
      "stateMutability": "nonpayable",
      "type": "function"
    },
    {
      "inputs": [
        {
          "internalType": "string",
          "name": "_orgMeta",
          "type": "string"
        }
      ],
      "name": "createOrganization",
      "outputs": [],
      "stateMutability": "nonpayable",
      "type": "function"
    },
    {
      "inputs": [
        {
          "internalType": "bytes32",
          "name": "_orgID",
          "type": "bytes32"
        },
        {
          "internalType": "string",
          "name": "_repoName",
          "type": "string"
        },
        {
          "internalType": "string",
          "name": "_repoMeta",
          "type": "string"
        }
      ],
      "name": "createRepository",
      "outputs": [],
      "stateMutability": "nonpayable",
      "type": "function"
    },
    {
      "inputs": [
        {
          "internalType": "bytes32",
          "name": "_orgID",
          "type": "bytes32"
        },
        {
          "internalType": "string",
          "name": "_repoName",
          "type": "string"
        }
      ],
      "name": "getLatestRelease",
      "outputs": [
        {
          "internalType": "string",
          "name": "",
          "type": "string"
        },
        {
          "internalType": "string",
          "name": "",
          "type": "string"
        },
        {
          "internalType": "string",
          "name": "",
          "type": "string"
        },
        {
          "internalType": "address[]",
          "name": "",
          "type": "address[]"
        }
      ],
      "stateMutability": "view",
      "type": "function"
    },
    {
      "inputs": [
        {
          "internalType": "bytes32",
          "name": "_selector",
          "type": "bytes32"
        }
      ],
      "name": "getPendingReleaseCount",
      "outputs": [
        {
          "internalType": "uint256",
          "name": "",
          "type": "uint256"
        }
      ],
      "stateMutability": "view",
      "type": "function"
    },
    {
      "inputs": [
        {
          "internalType": "bytes32",
          "name": "_selector",
          "type": "bytes32"
        }
      ],
      "name": "getPendingVotes",
      "outputs": [
        {
          "internalType": "uint256",
          "name": "",
          "type": "uint256"
        },
        {
          "internalType": "address[]",
          "name": "",
          "type": "address[]"
        }
      ],
      "stateMutability": "view",
      "type": "function"
    },
    {
      "inputs": [
        {
          "internalType": "bytes32",
          "name": "_selector",
          "type": "bytes32"
        },
        {
          "internalType": "uint256",
          "name": "_page",
          "type": "uint256"
        },
        {
          "internalType": "uint256",
          "name": "_resultsPerPage",
          "type": "uint256"
        }
      ],
      "name": "getReleaseTags",
      "outputs": [
        {
          "internalType": "string[]",
          "name": "",
          "type": "string[]"
        }
      ],
      "stateMutability": "view",
      "type": "function"
    },
    {
      "inputs": [
        {
          "internalType": "bytes32",
          "name": "_orgID",
          "type": "bytes32"
        },
        {
          "internalType": "uint256",
          "name": "_page",
          "type": "uint256"
        },
        {
          "internalType": "uint256",
          "name": "_resultsPerPage",
          "type": "uint256"
        }
      ],
      "name": "getRepoNames",
      "outputs": [
        {
          "internalType": "string[]",
          "name": "",
          "type": "string[]"
        }
      ],
      "stateMutability": "view",
      "type": "function"
    },
    {
      "inputs": [
        {
          "internalType": "bytes32",
          "name": "_selector",
          "type": "bytes32"
        }
      ],
      "name": "getRoleMembers",
      "outputs": [
        {
          "internalType": "address[]",
          "name": "",
          "type": "address[]"
        }
      ],
      "stateMutability": "view",
      "type": "function"
    },
    {
      "inputs": [
        {
          "internalType": "bytes32",
          "name": "_selector",
          "type": "bytes32"
        }
      ],
      "name": "getRoleRequestCount",
      "outputs": [
        {
          "internalType": "uint256",
          "name": "",
          "type": "uint256"
        }
      ],
      "stateMutability": "view",
      "type": "function"
    },
    {
      "inputs": [
        {
          "internalType": "bytes32",
          "name": "_selector",
          "type": "bytes32"
        }
      ],
      "name": "getThresholdRequestCount",
      "outputs": [
        {
          "internalType": "uint256",
          "name": "",
          "type": "uint256"
        }
      ],
      "stateMutability": "view",
      "type": "function"
    },
    {
      "inputs": [
        {
          "internalType": "bytes32",
          "name": "_orgID",
          "type": "bytes32"
        },
        {
          "internalType": "address",
          "name": "_address",
          "type": "address"
        }
      ],
      "name": "isOrgAdmin",
      "outputs": [
        {
          "internalType": "bool",
          "name": "",
          "type": "bool"
        }
      ],
      "stateMutability": "view",
      "type": "function"
    },
    {
      "inputs": [
        {
          "internalType": "bytes32",
          "name": "_orgID",
          "type": "bytes32"
        },
        {
          "internalType": "string",
          "name": "_repoName",
          "type": "string"
        },
        {
          "internalType": "address",
          "name": "_address",
          "type": "address"
        }
      ],
      "name": "isRepoDev",
      "outputs": [
        {
          "internalType": "bool",
          "name": "",
          "type": "bool"
        }
      ],
      "stateMutability": "view",
      "type": "function"
    },
    {
      "inputs": [
        {
          "internalType": "address",
          "name": "forwarder",
          "type": "address"
        }
      ],
      "name": "isTrustedForwarder",
      "outputs": [
        {
          "internalType": "bool",
          "name": "",
          "type": "bool"
        }
      ],
      "stateMutability": "view",
      "type": "function"
    },
    {
      "inputs": [],
      "name": "orgCount",
      "outputs": [
        {
          "internalType": "uint256",
          "name": "",
          "type": "uint256"
        }
      ],
      "stateMutability": "view",
      "type": "function"
    },
    {
      "inputs": [
        {
          "internalType": "uint256",
          "name": "",
          "type": "uint256"
        }
      ],
      "name": "orgIDs",
      "outputs": [
        {
          "internalType": "bytes32",
          "name": "",
          "type": "bytes32"
        }
      ],
      "stateMutability": "view",
      "type": "function"
    },
    {
      "inputs": [
        {
          "internalType": "bytes32",
          "name": "",
          "type": "bytes32"
        }
      ],
      "name": "orgs",
      "outputs": [
        {
          "internalType": "uint256",
          "name": "threshold",
          "type": "uint256"
        },
        {
          "internalType": "uint256",
          "name": "thresholdDate",
          "type": "uint256"
        },
        {
          "internalType": "string",
          "name": "metaCID",
          "type": "string"
        }
      ],
      "stateMutability": "view",
      "type": "function"
    },
    {
      "inputs": [
        {
          "internalType": "bytes32",
          "name": "",
          "type": "bytes32"
        },
        {
          "internalType": "uint256",
          "name": "",
          "type": "uint256"
        }
      ],
      "name": "pendingReleaseRequests",
      "outputs": [
        {
          "internalType": "string",
          "name": "tag",
          "type": "string"
        },
        {
          "internalType": "string",
          "name": "releaseCID",
          "type": "string"
        },
        {
          "internalType": "string",
          "name": "metaCID",
          "type": "string"
        }
      ],
      "stateMutability": "view",
      "type": "function"
    },
    {
      "inputs": [
        {
          "internalType": "bytes32",
          "name": "",
          "type": "bytes32"
        },
        {
          "internalType": "uint256",
          "name": "",
          "type": "uint256"
        }
      ],
      "name": "pendingRoleRequests",
      "outputs": [
        {
          "internalType": "address",
          "name": "",
          "type": "address"
        }
      ],
      "stateMutability": "view",
      "type": "function"
    },
    {
      "inputs": [
        {
          "internalType": "bytes32",
          "name": "",
          "type": "bytes32"
        },
        {
          "internalType": "uint256",
          "name": "",
          "type": "uint256"
        }
      ],
      "name": "pendingThresholdRequests",
      "outputs": [
        {
          "internalType": "uint256",
          "name": "",
          "type": "uint256"
        }
      ],
      "stateMutability": "view",
      "type": "function"
    },
    {
      "inputs": [
        {
          "internalType": "bytes32",
          "name": "",
          "type": "bytes32"
        }
      ],
      "name": "releases",
      "outputs": [
        {
          "internalType": "string",
          "name": "releaseCID",
          "type": "string"
        },
        {
          "internalType": "string",
          "name": "metaCID",
          "type": "string"
        }
      ],
      "stateMutability": "view",
      "type": "function"
    },
    {
      "inputs": [
        {
          "internalType": "bytes32",
          "name": "",
          "type": "bytes32"
        }
      ],
      "name": "repos",
      "outputs": [
        {
          "internalType": "bool",
          "name": "exists",
          "type": "bool"
        },
        {
          "internalType": "uint256",
          "name": "threshold",
          "type": "uint256"
        },
        {
          "internalType": "uint256",
          "name": "thresholdDate",
          "type": "uint256"
        },
        {
          "internalType": "string",
          "name": "metaCID",
          "type": "string"
        }
      ],
      "stateMutability": "view",
      "type": "function"
    },
    {
      "inputs": [
        {
          "internalType": "bytes32",
          "name": "",
          "type": "bytes32"
        }
      ],
      "name": "roleModifiedTimestamps",
      "outputs": [
        {
          "internalType": "uint256",
          "name": "",
          "type": "uint256"
        }
      ],
      "stateMutability": "view",
      "type": "function"
    },
    {
      "inputs": [
        {
          "internalType": "bytes32",
          "name": "_orgID",
          "type": "bytes32"
        },
        {
          "internalType": "string",
          "name": "_metaCID",
          "type": "string"
        }
      ],
      "name": "setOrgMeta",
      "outputs": [],
      "stateMutability": "nonpayable",
      "type": "function"
    },
    {
      "inputs": [
        {
          "internalType": "bytes32",
          "name": "_orgID",
          "type": "bytes32"
        },
        {
          "internalType": "string",
          "name": "_repoName",
          "type": "string"
        },
        {
          "internalType": "string",
          "name": "_metaCID",
          "type": "string"
        }
      ],
      "name": "setRepoMeta",
      "outputs": [],
      "stateMutability": "nonpayable",
      "type": "function"
    },
    {
      "inputs": [],
      "name": "versionRecipient",
      "outputs": [
        {
          "internalType": "string",
          "name": "",
          "type": "string"
        }
      ],
      "stateMutability": "view",
      "type": "function"
    },
    {
      "inputs": [
        {
          "internalType": "bytes32",
          "name": "_orgID",
          "type": "bytes32"
        },
        {
          "internalType": "string",
          "name": "_repoName",
          "type": "string"
        },
        {
          "internalType": "bytes32",
          "name": "_operation",
          "type": "bytes32"
        },
        {
          "internalType": "address",
          "name": "_key",
          "type": "address"
        }
      ],
      "name": "voteKey",
      "outputs": [],
      "stateMutability": "nonpayable",
      "type": "function"
    },
    {
      "inputs": [
        {
          "internalType": "bytes32",
          "name": "_orgID",
          "type": "bytes32"
        },
        {
          "internalType": "string",
          "name": "_repoName",
          "type": "string"
        },
        {
          "internalType": "string",
          "name": "_tag",
          "type": "string"
        },
        {
          "internalType": "string",
          "name": "_releaseCID",
          "type": "string"
        },
        {
          "internalType": "string",
          "name": "_metaCID",
          "type": "string"
        }
      ],
      "name": "voteRelease",
      "outputs": [],
      "stateMutability": "nonpayable",
      "type": "function"
    },
    {
      "inputs": [
        {
          "internalType": "bytes32",
          "name": "_orgID",
          "type": "bytes32"
        },
        {
          "internalType": "string",
          "name": "_repoName",
          "type": "string"
        },
        {
          "internalType": "uint256",
          "name": "_threshold",
          "type": "uint256"
        }
      ],
      "name": "voteThreshold",
      "outputs": [],
      "stateMutability": "nonpayable",
      "type": "function"
    }
  ],
  "bytecode": "0x60e0604052600560a0819052640322e322e360dc1b60c09081526200002891600091906200006f565b503480156200003657600080fd5b5060405162004ace38038062004ace833981016040819052620000599162000115565b60601b6001600160601b03191660805262000182565b8280546200007d9062000145565b90600052602060002090601f016020900481019282620000a15760008555620000ec565b82601f10620000bc57805160ff1916838001178555620000ec565b82800160010185558215620000ec579182015b82811115620000ec578251825591602001919060010190620000cf565b50620000fa929150620000fe565b5090565b5b80821115620000fa5760008155600101620000ff565b60006020828403121562000127578081fd5b81516001600160a01b03811681146200013e578182fd5b9392505050565b600181811c908216806200015a57607f821691505b602082108114156200017c57634e487b7160e01b600052602260045260246000fd5b50919050565b60805160601c614926620001a8600039600081816102d4015261390b01526149266000f3fe608060405234801561001057600080fd5b50600436106101e55760003560e01c8063a3e84beb1161010f578063dedc3391116100a2578063f26f3c5611610071578063f26f3c56146104eb578063f3439d56146104fe578063f491a84c14610511578063f735b3521461053257600080fd5b8063dedc339114610487578063dfec1bb01461049a578063e253f5e1146104c5578063e59dbfa4146104d857600080fd5b8063c6c2a0be116100de578063c6c2a0be14610437578063d565e8601461044a578063d81066901461046b578063d96162a11461047457600080fd5b8063a3e84beb146103cd578063a940abcb146103ef578063b93d168514610411578063c372be801461042457600080fd5b8063572b6c05116101875780638775692f116101565780638775692f1461035a5780638bf673701461036d578063924a54431461038d578063a3246ad3146103ad57600080fd5b8063572b6c05146102c45780635cd20d29146103045780636427acca14610327578063837dc4d01461033a57600080fd5b80633b0659fd116101c35780633b0659fd1461024e5780633e1bf64b1461027c57806340fd48a71461029c578063486ff0cd146102af57600080fd5b806302b2583a146101ea5780631fd522a614610216578063328d3ddf14610239575b600080fd5b6101fd6101f8366004613d93565b610545565b60405161020d949392919061446c565b60405180910390f35b610229610224366004613e1a565b6105fc565b604051901515815260200161020d565b61024c610247366004613f9b565b610703565b005b61026e61025c366004613d93565b6000908152600a602052604090205490565b60405190815260200161020d565b61026e61028a366004613d93565b60009081526009602052604090205490565b61024c6102aa366004613ecc565b610e36565b6102b761121f565b60405161020d91906145b5565b6102296102d2366004613d79565b7f00000000000000000000000000000000000000000000000000000000000000006001600160a01b0390811691161490565b610317610312366004613dd6565b6112ad565b60405161020d949392919061467b565b61024c6103353660046141f2565b6115d1565b61034d6103483660046141c7565b611803565b60405161020d919061440b565b61026e610368366004613d93565b6119ce565b61026e61037b366004613d93565b60076020526000908152604090205481565b61026e61039b366004613d93565b60009081526008602052604090205490565b6103c06103bb366004613d93565b6119ef565b60405161020d91906143f8565b6103e06103db366004613d93565b611ae3565b60405161020d9392919061475a565b6104026103fd3660046141a6565b611b8e565b60405161020d93929190614642565b61024c61041f366004614152565b611cea565b61026e6104323660046141a6565b611f78565b61024c61044536600461404c565b611fa9565b61045d610458366004613d93565b6122dc565b60405161020d929190614739565b61026e60015481565b610229610482366004613dab565b6123ea565b61024c610495366004613f32565b612452565b6104ad6104a83660046141a6565b612533565b6040516001600160a01b03909116815260200161020d565b61024c6104d3366004613dd6565b61256b565b61024c6104e6366004613f32565b612630565b61024c6104f9366004613e6e565b612826565b61034d61050c3660046141c7565b613097565b61052461051f366004613d93565b613258565b60405161020d9291906145c8565b61024c610540366004614105565b613384565b600460205260009081526040902080546001820154600283015460038401805460ff9094169492939192916105799061480e565b80601f01602080910402602001604051908101604052809291908181526020018280546105a59061480e565b80156105f25780601f106105c7576101008083540402835291602001916105f2565b820191906000526020600020905b8154815290600101906020018083116105d557829003601f168201915b5050505050905084565b8151600090156106ef5760046000858560405160200161061d929190614293565b60408051601f198184030181529181528151602092830120835290820192909252016000205460ff166106815760405162461bcd60e51b81526020600482015260076024820152664e6f207265706f60c81b60448201526064015b60405180910390fd5b600084846000805160206148b18339815191526040516020016106a6939291906142f8565b60408051601f1981840301815291815281516020928301206000818152600690935291209091506106d790846138e5565b806106e757506106e785846123ea565b9150506106fc565b6106f984836123ea565b90505b9392505050565b84846107128282610224613907565b61072e5760405162461bcd60e51b8152600401610678906146f8565b60008551116107685760405162461bcd60e51b81526020600482015260066024820152654e6f2074616760d01b6044820152606401610678565b60008451116107a95760405162461bcd60e51b815260206004820152600d60248201526c139bc81c995b19585cd950d251609a1b6044820152606401610678565b60008351116107e75760405162461bcd60e51b815260206004820152600a602482015269139bc81b595d1850d25160b21b6044820152606401610678565b60008787876040516020016107fe93929190614493565b60408051601f1981840301815291815281516020928301206000818152600590935291208054919250906108319061480e565b15905061086b5760405162461bcd60e51b8152602060048201526008602482015267151859c81d5cd95960c21b6044820152606401610678565b600088888888886040516020016108869594939291906144be565b604051602081830303815290604052805190602001209050600089896040516020016108b3929190614293565b6040516020818303038152906040528051906020012090506001600460008381526020019081526020016000206001015411610a365760008381526005602090815260409091208851610908928a0190613b86565b506000838152600560209081526040909120875161092e92600190920191890190613b86565b506000838152600560205260409020600201610948613907565b8154600180820184556000938452602080852090920180546001600160a01b0319166001600160a01b03949094169390931790925583835260048082526040842001805492830181558352918290208a516109ab939190920191908b0190613b86565b50876040516109ba919061436d565b6040518091039020896040516109d0919061436d565b60405180910390208b7f38b17387282322f8d6de03e5d4b3ff512d3bb4d3db8cc2be4611ecfb8a126c6b8a8a610a04613907565b600088815260046020526040908190206001908101549151610a2995949392906145f6565b60405180910390a4610e2a565b6000828152600b6020526040902054610b1857610a564262093a80614779565b6000838152600b6020526040902055610a87610a70613907565b6000848152600b602052604090206001019061394c565b50600081815260086020908152604080832081516060810183528c81528084018c90529182018a905280546001810182559084529282902081518051929460030290910192610adb92849290910190613b86565b506020828101518051610af49260018501920190613b86565b5060408201518051610b10916002840191602090910190613b86565b505050610d8b565b6000828152600b6020526040902054421115610b465760405162461bcd60e51b815260040161067890614718565b610b68610b51613907565b6000848152600b60205260409020600101906138e5565b15610ba25760405162461bcd60e51b815260206004820152600a602482015269155cd95c881d9bdd195960b21b6044820152606401610678565b610bad610a70613907565b5060005b6000838152600b60205260409020610bcb90600101613961565b811015610c45576000838152600b60205260409020610bf5908c908c90610224906001018561396b565b610c35576000838152600b60205260409020610c2f90610c18906001018361396b565b6000858152600b6020526040902060010190613977565b50600090505b610c3e81614849565b9050610bb1565b506000818152600460209081526040808320600190810154868552600b90935292209091610c739101613961565b10610d8b5760008381526005602090815260409091208851610c97928a0190613b86565b5060008381526005602090815260409091208751610cbd92600190920191890190613b86565b5060005b6000838152600b60205260409020610cdb90600101613961565b811015610d53576000848152600560209081526040808320868452600b909252909120600290910190610d11906001018361396b565b81546001810183556000928352602090922090910180546001600160a01b0319166001600160a01b03909216919091179055610d4c81614849565b9050610cc1565b50600081815260046020818152604083209091018054600181018255908352918190208a51610d899391909101918b0190613b86565b505b87604051610d99919061436d565b604051809103902089604051610daf919061436d565b60405180910390208b7f38b17387282322f8d6de03e5d4b3ff512d3bb4d3db8cc2be4611ecfb8a126c6b8a8a610de3613907565b6000898152600b60205260409020610dfd90600101613961565b60008981526004602052604090819020600101549051610e219594939291906145f6565b60405180910390a45b50505050505050505050565b8484610e458282610224613907565b610e615760405162461bcd60e51b8152600401610678906146f8565b600080516020614891833981519152851480610e9c57507fb85a6b22a26ce426daea6357c60a74cb0b4d36234cd7c96170cd6a64102786ff85145b610ed55760405162461bcd60e51b815260206004820152600a6024820152690496e76616c6964206f760b41b6044820152606401610678565b6000806000898988604051602001610eef939291906142b9565b604051602081830303815290604052805190602001209050600089511115610f805789896000805160206148b18339815191528a8a604051602001610f38959493929190614325565b6040516020818303038152906040528051906020012092508989604051602001610f63929190614293565b604051602081830303815290604052805190602001209150610fda565b60408051602081018c90526000805160206148d18339815191529181019190915260608082018a905288901b6001600160601b03191660808201526094016040516020818303038152906040528051906020012092508991505b6000838152600b60205260409020544210158061102157506000838152600b602052604090205461100f9062093a80906147b0565b60008281526007602052604090205410155b61103d5760405162461bcd60e51b8152600401610678906146d3565b600082815260096020526040902080546001600160a01b03891691908890811061107757634e487b7160e01b600052603260045260246000fd5b6000918252602090912001546001600160a01b0316146110c55760405162461bcd60e51b815260206004820152600960248201526857726f6e67206b657960b81b6044820152606401610678565b6000838152600b602052604081206110df90600101613961565b111561110a576000838152600b6020526040812061110491610c18916001019061396b565b506110c5565b6000838152600b60209081526040808320839055848352600990915290208054611136906001906147b0565b8154811061115457634e487b7160e01b600052603260045260246000fd5b60009182526020808320909101548483526009909152604090912080546001600160a01b03909216918890811061119b57634e487b7160e01b600052603260045260246000fd5b600091825260208083209190910180546001600160a01b0319166001600160a01b0394909416939093179092558381526009909152604090208054806111f157634e487b7160e01b600052603160045260246000fd5b600082815260209020810160001990810180546001600160a01b031916905501905550505050505050505050565b6000805461122c9061480e565b80601f01602080910402602001604051908101604052809291908181526020018280546112589061480e565b80156112a55780601f1061127a576101008083540402835291602001916112a5565b820191906000526020600020905b81548152906001019060200180831161128857829003601f168201915b505050505081565b60608060608060006004600088886040516020016112cc929190614293565b60405160208183030381529060405280519060200120815260200190815260200160002090506000600560008989856004016001876004018054905061131291906147b0565b8154811061133057634e487b7160e01b600052603260045260246000fd5b9060005260206000200160405160200161134c9392919061451d565b6040516020818303038152906040528051906020012081526020019081526020016000209050816004016001836004018054905061138a91906147b0565b815481106113a857634e487b7160e01b600052603260045260246000fd5b906000526020600020018160000182600101836002018380546113ca9061480e565b80601f01602080910402602001604051908101604052809291908181526020018280546113f69061480e565b80156114435780601f1061141857610100808354040283529160200191611443565b820191906000526020600020905b81548152906001019060200180831161142657829003601f168201915b505050505093508280546114569061480e565b80601f01602080910402602001604051908101604052809291908181526020018280546114829061480e565b80156114cf5780601f106114a4576101008083540402835291602001916114cf565b820191906000526020600020905b8154815290600101906020018083116114b257829003601f168201915b505050505092508180546114e29061480e565b80601f016020809104026020016040519081016040528092919081815260200182805461150e9061480e565b801561155b5780601f106115305761010080835404028352916020019161155b565b820191906000526020600020905b81548152906001019060200180831161153e57829003601f168201915b50505050509150808054806020026020016040519081016040528092919081815260200182805480156115b757602002820191906000526020600020905b81546001600160a01b03168152600190910190602001808311611599575b505050505090509550955095509550505092959194509250565b600081511161160f5760405162461bcd60e51b815260206004820152600a6024820152694e6f206f72674d65746160b01b6044820152606401610678565b600060016000815461162090614849565b9182905550604080516020810192909252469082015260600160408051601f1981840301815291815281516020928301206000818152600384529190912084519193506116769260029091019190850190613b86565b50600280546001810182556000919091527f405787fa12a823e0f2b7631cc41b3ba8828b3321ca811111fa75cd3aa3bb5ace018190556117176116b7613907565b60066000846000805160206148d18339815191526040516020016116e5929190918252602082015260400190565b60405160208183030381529060405280519060200120815260200190815260200160002061394c90919063ffffffff16565b5081604051611726919061436d565b6040518091039020817fc5eb86c0b2c1ce6abdc8dea996a5aa6cf196b33ee7a2c140ce4f04f2fbb3baab8460405161175e91906145b5565b60405180910390a361176e613907565b6001600160a01b03167fc5d2460186f7233c927e7db2dcc703c0e500b653ca82273b7bfad8045d85a470827fa8cea71b77054741d93ac504e0ee90fa3e815d68104468d65f9eb36924a8d5906117c2613907565b604080516001600160a01b03909216825260008051602061489183398151915260208301526000908201819052606082015260800160405180910390a45050565b60606000826118128582614791565b61181c91906147b0565b9050600061182a8486614791565b6000878152600360208190526040909120015490915081111561185c5750600085815260036020819052604090912001545b6000846001600160401b0381111561188457634e487b7160e01b600052604160045260246000fd5b6040519080825280602002602001820160405280156118b757816020015b60608152602001906001900390816118a25790505b5090505b818310156119c4576000878152600360208190526040909120018054849081106118f557634e487b7160e01b600052603260045260246000fd5b90600052602060002001805461190a9061480e565b80601f01602080910402602001604051908101604052809291908181526020018280546119369061480e565b80156119835780601f1061195857610100808354040283529160200191611983565b820191906000526020600020905b81548152906001019060200180831161196657829003601f168201915b50505050508184815181106119a857634e487b7160e01b600052603260045260246000fd5b6020026020010181905250826119bd90614849565b92506118bb565b9695505050505050565b600281815481106119de57600080fd5b600091825260209091200154905081565b600081815260066020526040812060609190611a0a90613961565b6001600160401b03811115611a2f57634e487b7160e01b600052604160045260246000fd5b604051908082528060200260200182016040528015611a58578160200160208202803683370190505b50905060005b6000848152600660205260409020611a7590613961565b811015611adc576000848152600660205260409020611a94908261396b565b828281518110611ab457634e487b7160e01b600052603260045260246000fd5b6001600160a01b0390921660209283029190910190910152611ad581614849565b9050611a5e565b5092915050565b60036020526000908152604090208054600182015460028301805492939192611b0b9061480e565b80601f0160208091040260200160405190810160405280929190818152602001828054611b379061480e565b8015611b845780601f10611b5957610100808354040283529160200191611b84565b820191906000526020600020905b815481529060010190602001808311611b6757829003601f168201915b5050505050905083565b60086020528160005260406000208181548110611baa57600080fd5b906000526020600020906003020160009150915050806000018054611bce9061480e565b80601f0160208091040260200160405190810160405280929190818152602001828054611bfa9061480e565b8015611c475780601f10611c1c57610100808354040283529160200191611c47565b820191906000526020600020905b815481529060010190602001808311611c2a57829003601f168201915b505050505090806001018054611c5c9061480e565b80601f0160208091040260200160405190810160405280929190818152602001828054611c889061480e565b8015611cd55780601f10611caa57610100808354040283529160200191611cd5565b820191906000526020600020905b815481529060010190602001808311611cb857829003601f168201915b505050505090806002018054611b0b9061480e565b8383611cf98282610224613907565b611d155760405162461bcd60e51b8152600401610678906146f8565b60008086511190506000878787604051602001611d34939291906142f8565b60405160208183030381529060405280519060200120905060008215611d84578888604051602001611d67929190614293565b604051602081830303815290604052805190602001209050611d87565b50875b6000828152600b602052604090205442101580611dd95750828015611dd957506000828152600b6020526040902054611dc49062093a80906147b0565b60008281526004602052604090206002015410155b80611e1a575082158015611e1a57506000828152600b6020526040902054611e059062093a80906147b0565b60008a81526003602052604090206001015410155b611e365760405162461bcd60e51b8152600401610678906146d3565b6000828152600b60205260408120611e5090600101613961565b1115611e92576000828152600b60205260408120611e8c91611e75916001019061396b565b6000848152600b6020526040902060010190613977565b50611e36565b6000828152600b60209081526040808320839055838352600a90915290208054611ebe906001906147b0565b81548110611edc57634e487b7160e01b600052603260045260246000fd5b9060005260206000200154600a60008381526020019081526020016000208781548110611f1957634e487b7160e01b600052603260045260246000fd5b9060005260206000200181905550600a6000828152602001908152602001600020805480611f5757634e487b7160e01b600052603160045260246000fd5b60019003818190600052602060002001600090559055505050505050505050565b600a6020528160005260406000208181548110611f9457600080fd5b90600052602060002001600091509150505481565b8585611fb88282610224613907565b611fd45760405162461bcd60e51b8152600401610678906146f8565b6000888888604051602001611feb93929190614493565b6040516020818303038152906040528051906020012090506000898989898960405160200161201e9594939291906144be565b60408051601f1981840301815291815281516020928301206000818152600b9093529120549091504210158061206c5750600082815260056020526040812080546120689061480e565b9050115b6120885760405162461bcd60e51b8152600401610678906146d3565b60008a8a60405160200161209d929190614293565b604051602081830303815290604052805190602001209050886040516020016120c6919061436d565b60408051601f19818403018152918152815160209283012060008481526008909352912080548890811061210a57634e487b7160e01b600052603260045260246000fd5b906000526020600020906003020160000160405160200161212b9190614389565b604051602081830303815290604052805190602001201461217a5760405162461bcd60e51b815260206004820152600960248201526857726f6e672074616760b81b6044820152606401610678565b60008181526008602052604090208054612196906001906147b0565b815481106121b457634e487b7160e01b600052603260045260246000fd5b90600052602060002090600302016008600083815260200190815260200160002087815481106121f457634e487b7160e01b600052603260045260246000fd5b906000526020600020906003020160008201816000019080546122169061480e565b612221929190613c0a565b5060018201816001019080546122369061480e565b612241929190613c0a565b5060028201816002019080546122569061480e565b612261929190613c0a565b505050600081815260086020526040902080548061228f57634e487b7160e01b600052603160045260246000fd5b600082815260208120600019909201916003830201906122af8282613c85565b6122bd600183016000613c85565b6122cb600283016000613c85565b505090555050505050505050505050565b6000818152600b6020526040812060609082906122fb90600101613961565b6001600160401b0381111561232057634e487b7160e01b600052604160045260246000fd5b604051908082528060200260200182016040528015612349578160200160208202803683370190505b50905060005b6000858152600b6020526040902061236990600101613961565b8110156123d3576000858152600b6020526040902061238b906001018261396b565b8282815181106123ab57634e487b7160e01b600052603260045260246000fd5b6001600160a01b03909216602092830291909101909101526123cc81614849565b905061234f565b506000938452600b60205260409093205493915050565b600080836000805160206148d1833981519152604051602001612417929190918252602082015260400190565b60408051601f19818403018152918152815160209283012060008181526006909352912090915061244890846138e5565b9150505b92915050565b8261245f81610482613907565b61247b5760405162461bcd60e51b8152600401610678906146f8565b81600460008686604051602001612493929190614293565b60405160208183030381529060405280519060200120815260200190815260200160002060030190805190602001906124cd929190613b86565b506124d6613907565b6001600160a01b0316836040516124ed919061436d565b6040518091039020857f082dfc0cda6cc25674875e2dcd882c68a8b2c80bf48e58c6a3dc2384c69859558560405161252591906145b5565b60405180910390a450505050565b6009602052816000526040600020818154811061254f57600080fd5b6000918252602090912001546001600160a01b03169150829050565b8161257881610482613907565b6125945760405162461bcd60e51b8152600401610678906146f8565b600083815260036020908152604090912083516125b992600290920191850190613b86565b506125c2613907565b6040516001600160a01b0391909116907fc5d2460186f7233c927e7db2dcc703c0e500b653ca82273b7bfad8045d85a4709085907f082dfc0cda6cc25674875e2dcd882c68a8b2c80bf48e58c6a3dc2384c6985955906126239087906145b5565b60405180910390a4505050565b8261263d81610482613907565b6126595760405162461bcd60e51b8152600401610678906146f8565b6000848460405160200161266e929190614293565b60408051601f1981840301815291815281516020928301206000818152600490935291205490915060ff16156126d45760405162461bcd60e51b815260206004820152600b60248201526a5265706f2065786973747360a81b6044820152606401610678565b60008451116127135760405162461bcd60e51b815260206004820152600b60248201526a4e6f207265706f4e616d6560a81b6044820152606401610678565b60008351116127525760405162461bcd60e51b815260206004820152600b60248201526a4e6f207265706f4d65746160a81b6044820152606401610678565b600085815260036020818152604083209091018054600181018255908352918190208651612787939190910191870190613b86565b506000818152600460209081526040909120805460ff1916600117815584516127b892600390920191860190613b86565b50826040516127c7919061436d565b6040518091039020846040516127dd919061436d565b6040518091039020867f50b56e7c402d556bc61b6fc9bba647b83c4590f2fca5a6d463450e78f3a2d44c87876040516128179291906145c8565b60405180910390a45050505050565b83836128358282610224613907565b6128515760405162461bcd60e51b8152600401610678906146f8565b60008051602061489183398151915284148061288c57507fb85a6b22a26ce426daea6357c60a74cb0b4d36234cd7c96170cd6a64102786ff84145b806128b657507fd7381cbf120651c7bcd9cff77aa8449385520247d98372358854435c90a30af484145b6128ef5760405162461bcd60e51b815260206004820152600a6024820152690496e76616c6964206f760b41b6044820152606401610678565b60008086511190506000806000808a8a89604051602001612912939291906142b9565b604051602081830303815290604052805190602001209050600085156129f1578b8b6000805160206148b18339815191528c8c604051602001612959959493929190614325565b6040516020818303038152906040528051906020012094508b8b6000805160206148b1833981519152604051602001612994939291906142f8565b6040516020818303038152906040528051906020012093508b8b6040516020016129bf929190614293565b60408051601f198184030181529181528151602092830120600081815260049093529120600101549093509050612a93565b60408051602081018e90526000805160206148d18339815191529181019190915260608082018c90528a901b6001600160601b031916608082015260940160408051601f1981840301815282825280516020918201209083018f90526000805160206148d183398151915291830191909152955060600160408051601f19818403018152918152815160209283012060008f8152600390935291205490945090505b7fb85a6b22a26ce426daea6357c60a74cb0b4d36234cd7c96170cd6a64102786ff8a1415612b0d576000848152600660205260409020612ad3908a6138e5565b612b085760405162461bcd60e51b81526020600482015260066024820152654e6f204b657960d01b6044820152606401610678565b612b5f565b6000848152600660205260409020612b25908a6138e5565b15612b5f5760405162461bcd60e51b815260206004820152600a6024820152694b65792065786973747360b01b6044820152606401610678565b7fd7381cbf120651c7bcd9cff77aa8449385520247d98372358854435c90a30af48a1415612c0057612ba6612b92613907565b6000868152600660205260409020906138e5565b612bc25760405162461bcd60e51b8152600401610678906146f8565b612be1612bcd613907565b600086815260066020526040902090613977565b506000848152600660205260409020612bfa908a61394c565b50612ff4565b60018111612c4e576000805160206148918339815191528a1415612c36576000848152600660205260409020612bfa908a61394c565b6000848152600660205260409020612bfa908a613977565b6000858152600b6020526040902054612cfb57612c6e4262093a80614779565b6000868152600b60205260409020558515612cbf5760008381526009602090815260408220805460018101825590835291200180546001600160a01b0319166001600160a01b038b16179055612d5e565b60008c81526009602090815260408220805460018101825590835291200180546001600160a01b0319166001600160a01b038b16179055612d5e565b6000858152600b602052604090205442111580612d4257506000858152600b6020526040902054612d309062093a80906147b0565b60008381526007602052604090205411155b612d5e5760405162461bcd60e51b815260040161067890614718565b612d80612d69613907565b6000878152600b602052604090206001019061394c565b5060005b6000868152600b60205260409020612d9e90600101613961565b811015612e5557868015612dd257506000868152600b60205260409020612dd0908e908e90610224906001018561396b565b155b80612e04575086158015612e0457506000868152600b60205260409020612e02908e90610482906001018461396b565b155b15612e45576000868152600b60205260409020612e3f90612e28906001018361396b565b6000888152600b6020526040902060010190613977565b50600090505b612e4e81614849565b9050612d84565b506000858152600b602052604090208190612e7290600101613961565b10612ff4576000805160206148918339815191528a1415612eab576000848152600660205260409020612ea5908a61394c565b50612fe2565b6000848152600660205260409020612ec3908a613977565b506000612f20600660008f6000805160206148d1833981519152604051602001612ef7929190918252602082015260400190565b604051602081830303815290604052805190602001208152602001908152602001600020613961565b9050868015612f5d575060008581526006602052604090208290600190612f4690613961565b612f509084614779565b612f5a91906147b0565b11155b15612f89576000848152600460205260408120600101805491612f7f836147f7565b9190505550612fe0565b86158015612fbb575060008581526006602052604090208290600190612fae90613961565b612fb891906147b0565b11155b15612fe05760008d8152600360205260408120805491612fda836147f7565b91905055505b505b60008281526007602052604090204290555b886001600160a01b03168b60405161300c919061436d565b60405180910390208d7fa8cea71b77054741d93ac504e0ee90fa3e815d68104468d65f9eb36924a8d59061303e613907565b60008a8152600b602052604090208f9061305a90600101613961565b604080516001600160a01b0390941684526020840192909252908201526060810186905260800160405180910390a4505050505050505050505050565b60606000826130a68582614791565b6130b091906147b0565b905060006130be8486614791565b600087815260046020819052604090912001549091508111156130f05750600085815260046020819052604090912001545b6000846001600160401b0381111561311857634e487b7160e01b600052604160045260246000fd5b60405190808252806020026020018201604052801561314b57816020015b60608152602001906001900390816131365790505b5090505b818310156119c45760008781526004602081905260409091200180548490811061318957634e487b7160e01b600052603260045260246000fd5b90600052602060002001805461319e9061480e565b80601f01602080910402602001604051908101604052809291908181526020018280546131ca9061480e565b80156132175780601f106131ec57610100808354040283529160200191613217565b820191906000526020600020905b8154815290600101906020018083116131fa57829003601f168201915b505050505081848151811061323c57634e487b7160e01b600052603260045260246000fd5b60200260200101819052508261325190614849565b925061314f565b6005602052600090815260409020805481906132739061480e565b80601f016020809104026020016040519081016040528092919081815260200182805461329f9061480e565b80156132ec5780601f106132c1576101008083540402835291602001916132ec565b820191906000526020600020905b8154815290600101906020018083116132cf57829003601f168201915b5050505050908060010180546133019061480e565b80601f016020809104026020016040519081016040528092919081815260200182805461332d9061480e565b801561337a5780601f1061334f5761010080835404028352916020019161337a565b820191906000526020600020905b81548152906001019060200180831161335d57829003601f168201915b5050505050905082565b82826133938282610224613907565b6133af5760405162461bcd60e51b8152600401610678906146f8565b6000808551119050600086866040516020016133cc929190614293565b6040516020818303038152906040528051906020012090506000808315613408575050600081815260046020526040902060010154819061341c565b505060008781526003602052604090205487905b8087141561345c5760405162461bcd60e51b815260206004820152600d60248201526c151a1c995cda1bdb19081cd95d609a1b6044820152606401610678565b6000898989604051602001613473939291906142f8565b6040516020818303038152906040528051906020012090506134ad613496613907565b6000838152600b60205260409020600101906138e5565b156134e75760405162461bcd60e51b815260206004820152600a602482015269155cd95c881d9bdd195960b21b6044820152606401610678565b84801561356457506001613522600660008d6000805160206148d1833981519152604051602001612ef7929190918252602082015260400190565b61354c600660008e8e6000805160206148b1833981519152604051602001612ef7939291906142f8565b6135569190614779565b61356091906147b0565b8811155b806135b45750841580156135b4575060016135a6600660008d6000805160206148d1833981519152604051602001612ef7929190918252602082015260400190565b6135b091906147b0565b8811155b6135f55760405162461bcd60e51b81526020600482015260126024820152714e6f7420656e6f756768206d656d6265727360701b6044820152606401610678565b6000818152600b602052604090205461364b576136154262093a80614779565b6000828152600b6020908152604080832093909355858252600a81529181208054600181018255908252919020018890556136fa565b6000818152600b60205260409020544211158061369d575084801561369d57506000818152600b60205260409020546136889062093a80906147b0565b60008581526004602052604090206002015411155b806136de5750841580156136de57506000818152600b60205260409020546136c99062093a80906147b0565b60008b81526003602052604090206001015411155b6136fa5760405162461bcd60e51b815260040161067890614718565b61371c613705613907565b6000838152600b602052604090206001019061394c565b5060005b6000828152600b6020526040902061373a90600101613961565b8110156137da5785801561376e57506000828152600b6020526040902061376c908c908c90610224906001018561396b565b155b806137a05750851580156137a057506000828152600b6020526040902061379e908c90610482906001018461396b565b155b156137ca576000828152600b602052604090206137c490611e75906001018361396b565b50600090505b6137d381614849565b9050613720565b506000818152600b6020526040902082906137f790600101613961565b1015801561381f57506000818152600b60205260409020889061381c90600101613961565b10155b1561386457841561384b5760008481526004602052604090206001810189905542600290910155613864565b60008a8152600360205260409020888155426001909101555b8789604051613873919061436d565b60405180910390208b7f2daad345bbc18b1fa8a7f542403081df42c546dd841a44507d53e174e761ce896138a5613907565b6000868152600b602052604090206138bf90600101613961565b604080516001600160a01b03909316835260208301919091528101879052606001610e21565b6001600160a01b038116600090815260018301602052604081205415156106fc565b60007f00000000000000000000000000000000000000000000000000000000000000006001600160a01b0316331415613947575060131936013560601c90565b503390565b60006106fc836001600160a01b03841661398c565b600061244c825490565b60006106fc83836139db565b60006106fc836001600160a01b038416613a6f565b60008181526001830160205260408120546139d35750815460018181018455600084815260208082209093018490558454848252828601909352604090209190915561244c565b50600061244c565b81546000908210613a395760405162461bcd60e51b815260206004820152602260248201527f456e756d657261626c655365743a20696e646578206f7574206f6620626f756e604482015261647360f01b6064820152608401610678565b826000018281548110613a5c57634e487b7160e01b600052603260045260246000fd5b9060005260206000200154905092915050565b60008181526001830160205260408120548015613b7c576000613a936001836147b0565b8554909150600090613aa7906001906147b0565b90506000866000018281548110613ace57634e487b7160e01b600052603260045260246000fd5b9060005260206000200154905080876000018481548110613aff57634e487b7160e01b600052603260045260246000fd5b600091825260208083209091019290925582815260018901909152604090208490558654879080613b4057634e487b7160e01b600052603160045260246000fd5b6001900381819060005260206000200160009055905586600101600087815260200190815260200160002060009055600194505050505061244c565b600091505061244c565b828054613b929061480e565b90600052602060002090601f016020900481019282613bb45760008555613bfa565b82601f10613bcd57805160ff1916838001178555613bfa565b82800160010185558215613bfa579182015b82811115613bfa578251825591602001919060010190613bdf565b50613c06929150613cc2565b5090565b828054613c169061480e565b90600052602060002090601f016020900481019282613c385760008555613bfa565b82601f10613c495780548555613bfa565b82800160010185558215613bfa57600052602060002091601f016020900482015b82811115613bfa578254825591600101919060010190613c6a565b508054613c919061480e565b6000825580601f10613ca1575050565b601f016020900490600052602060002090810190613cbf9190613cc2565b50565b5b80821115613c065760008155600101613cc3565b80356001600160a01b0381168114613cee57600080fd5b919050565b600082601f830112613d03578081fd5b81356001600160401b0380821115613d1d57613d1d61487a565b604051601f8301601f19908116603f01168101908282118183101715613d4557613d4561487a565b81604052838152866020858801011115613d5d578485fd5b8360208701602083013792830160200193909352509392505050565b600060208284031215613d8a578081fd5b6106fc82613cd7565b600060208284031215613da4578081fd5b5035919050565b60008060408385031215613dbd578081fd5b82359150613dcd60208401613cd7565b90509250929050565b60008060408385031215613de8578182fd5b8235915060208301356001600160401b03811115613e04578182fd5b613e1085828601613cf3565b9150509250929050565b600080600060608486031215613e2e578081fd5b8335925060208401356001600160401b03811115613e4a578182fd5b613e5686828701613cf3565b925050613e6560408501613cd7565b90509250925092565b60008060008060808587031215613e83578081fd5b8435935060208501356001600160401b03811115613e9f578182fd5b613eab87828801613cf3565b93505060408501359150613ec160608601613cd7565b905092959194509250565b600080600080600060a08688031215613ee3578081fd5b8535945060208601356001600160401b03811115613eff578182fd5b613f0b88828901613cf3565b94505060408601359250613f2160608701613cd7565b949793965091946080013592915050565b600080600060608486031215613f46578283fd5b8335925060208401356001600160401b0380821115613f63578384fd5b613f6f87838801613cf3565b93506040860135915080821115613f84578283fd5b50613f9186828701613cf3565b9150509250925092565b600080600080600060a08688031215613fb2578081fd5b8535945060208601356001600160401b0380821115613fcf578283fd5b613fdb89838a01613cf3565b95506040880135915080821115613ff0578283fd5b613ffc89838a01613cf3565b94506060880135915080821115614011578283fd5b61401d89838a01613cf3565b93506080880135915080821115614032578283fd5b5061403f88828901613cf3565b9150509295509295909350565b60008060008060008060c08789031215614064578081fd5b8635955060208701356001600160401b0380821115614081578283fd5b61408d8a838b01613cf3565b965060408901359150808211156140a2578283fd5b6140ae8a838b01613cf3565b955060608901359150808211156140c3578283fd5b6140cf8a838b01613cf3565b945060808901359150808211156140e4578283fd5b506140f189828a01613cf3565b92505060a087013590509295509295509295565b600080600060608486031215614119578283fd5b8335925060208401356001600160401b03811115614135578283fd5b61414186828701613cf3565b925050604084013590509250925092565b60008060008060808587031215614167578182fd5b8435935060208501356001600160401b03811115614183578283fd5b61418f87828801613cf3565b949794965050505060408301359260600135919050565b600080604083850312156141b8578182fd5b50508035926020909101359150565b6000806000606084860312156141db578081fd5b505081359360208301359350604090920135919050565b600060208284031215614203578081fd5b81356001600160401b03811115614218578182fd5b61244884828501613cf3565b6000815180845260208085019450808401835b8381101561425c5781516001600160a01b031687529582019590820190600101614237565b509495945050505050565b6000815180845261427f8160208601602086016147c7565b601f01601f19169290920160200192915050565b828152600082516142ab8160208501602087016147c7565b919091016020019392505050565b838152600083516142d18160208501602088016147c7565b60609390931b6001600160601b031916602092909301918201929092526034019392505050565b838152600083516143108160208501602088016147c7565b60209201918201929092526040019392505050565b8581526000855161433d816020850160208a016147c7565b60209201918201949094526040810192909252606090811b6001600160601b031916908201526074019392505050565b6000825161437f8184602087016147c7565b9190910192915050565b60008083546143978161480e565b600182811680156143af57600181146143c0576143ec565b60ff198416875282870194506143ec565b8786526020808720875b858110156143e35781548a8201529084019082016143ca565b50505082870194505b50929695505050505050565b6020815260006106fc6020830184614224565b6000602080830181845280855180835260408601915060408160051b8701019250838701855b8281101561445f57603f1988860301845261444d858351614267565b94509285019290850190600101614431565b5092979650505050505050565b84151581528360208201528260408201526080606082015260006119c46080830184614267565b8381526060602082015260006144ac6060830185614267565b82810360408401526119c48185614267565b85815260a0602082015260006144d760a0830187614267565b82810360408401526144e98187614267565b905082810360608401526144fd8186614267565b905082810360808401526145118185614267565b98975050505050505050565b838152600060206060818401526145376060840186614267565b838103604085015282855461454b8161480e565b80845260018281168015614566576001811461457a576145a5565b60ff198416868801526040860194506145a5565b898852868820885b8481101561459d5781548882018a0152908301908801614582565b870188019550505b50929a9950505050505050505050565b6020815260006106fc6020830184614267565b6040815260006145db6040830185614267565b82810360208401526145ed8185614267565b95945050505050565b60a08152600061460960a0830188614267565b828103602084015261461b8188614267565b6001600160a01b039690961660408401525050606081019290925260809091015292915050565b6060815260006146556060830186614267565b82810360208401526146678186614267565b905082810360408401526119c48185614267565b60808152600061468e6080830187614267565b82810360208401526146a08187614267565b905082810360408401526146b48186614267565b905082810360608401526146c88185614224565b979650505050505050565b6020808252600b908201526a139bdd08195e1c1a5c995960aa1b604082015260600190565b60208082526006908201526511195b9a595960d21b604082015260600190565b602080825260079082015266115e1c1a5c995960ca1b604082015260600190565b8281526040602082015260006147526040830184614224565b949350505050565b8381528260208201526060604082015260006145ed6060830184614267565b6000821982111561478c5761478c614864565b500190565b60008160001904831182151516156147ab576147ab614864565b500290565b6000828210156147c2576147c2614864565b500390565b60005b838110156147e25781810151838201526020016147ca565b838111156147f1576000848401525b50505050565b60008161480657614806614864565b506000190190565b600181811c9082168061482257607f821691505b6020821081141561484357634e487b7160e01b600052602260045260246000fd5b50919050565b600060001982141561485d5761485d614864565b5060010190565b634e487b7160e01b600052601160045260246000fd5b634e487b7160e01b600052604160045260246000fdfedb7bfe957d82520d83f2a439f82c0ab65bbe62c5da8b7b7aa22924c027ef518d069bf569f27d389f2c70410107860b2e82ff561283b097a89e897daa5e34b1b6123b642491709420c2370bb98c4e7de2b1bc05c5f9fd95ac4111e12683553c62a2646970667358221220310bb9358279264522f5358f552fd2b9d1c57c2c1b5c0bae6d90aa4099ecc2ee64736f6c63430008040033",
  "linkReferences": {},
  "deployedLinkReferences": {}
}