{
  "contractName": "Valist",
  "abi": [
    {
      "anonymous": false,
      "inputs": [
        {
          "indexed": false,
          "internalType": "address",
          "name": "userAddress",
          "type": "address"
        },
        {
          "indexed": false,
          "internalType": "address payable",
          "name": "relayerAddress",
          "type": "address"
        },
        {
          "indexed": false,
          "internalType": "bytes",
          "name": "functionSignature",
          "type": "bytes"
        }
      ],
      "name": "MetaTransactionExecuted",
      "type": "event"
    },
    {
      "anonymous": false,
      "inputs": [
        {
          "indexed": false,
          "internalType": "string",
          "name": "_orgName",
          "type": "string"
        },
        {
          "indexed": false,
          "internalType": "string",
          "name": "_repoName",
          "type": "string"
        },
        {
          "indexed": false,
          "internalType": "string",
          "name": "_tag",
          "type": "string"
        }
      ],
      "name": "ReleaseEvent",
      "type": "event"
    },
    {
      "inputs": [
        {
          "internalType": "address",
          "name": "userAddress",
          "type": "address"
        },
        {
          "internalType": "bytes",
          "name": "functionSignature",
          "type": "bytes"
        },
        {
          "internalType": "bytes32",
          "name": "sigR",
          "type": "bytes32"
        },
        {
          "internalType": "bytes32",
          "name": "sigS",
          "type": "bytes32"
        },
        {
          "internalType": "uint8",
          "name": "sigV",
          "type": "uint8"
        }
      ],
      "name": "executeMetaTransaction",
      "outputs": [
        {
          "internalType": "bytes",
          "name": "",
          "type": "bytes"
        }
      ],
      "stateMutability": "payable",
      "type": "function",
      "payable": true
    },
    {
      "inputs": [
        {
          "internalType": "address",
          "name": "user",
          "type": "address"
        }
      ],
      "name": "getNonce",
      "outputs": [
        {
          "internalType": "uint256",
          "name": "nonce",
          "type": "uint256"
        }
      ],
      "stateMutability": "view",
      "type": "function",
      "constant": true
    },
    {
      "inputs": [
        {
          "internalType": "uint256",
          "name": "",
          "type": "uint256"
        }
      ],
      "name": "orgNames",
      "outputs": [
        {
          "internalType": "string",
          "name": "",
          "type": "string"
        }
      ],
      "stateMutability": "view",
      "type": "function",
      "constant": true
    },
    {
      "inputs": [
        {
          "internalType": "string",
          "name": "",
          "type": "string"
        }
      ],
      "name": "orgs",
      "outputs": [
        {
          "internalType": "uint256",
          "name": "index",
          "type": "uint256"
        },
        {
          "internalType": "string",
          "name": "metaCID",
          "type": "string"
        }
      ],
      "stateMutability": "view",
      "type": "function",
      "constant": true
    },
    {
      "inputs": [
        {
          "internalType": "string",
          "name": "_orgName",
          "type": "string"
        },
        {
          "internalType": "address",
          "name": "_address",
          "type": "address"
        }
      ],
      "name": "isOrgOwner",
      "outputs": [
        {
          "internalType": "bool",
          "name": "",
          "type": "bool"
        }
      ],
      "stateMutability": "view",
      "type": "function",
      "constant": true
    },
    {
      "inputs": [
        {
          "internalType": "string",
          "name": "_orgName",
          "type": "string"
        },
        {
          "internalType": "address",
          "name": "_address",
          "type": "address"
        }
      ],
      "name": "isOrgAdmin",
      "outputs": [
        {
          "internalType": "bool",
          "name": "",
          "type": "bool"
        }
      ],
      "stateMutability": "view",
      "type": "function",
      "constant": true
    },
    {
      "inputs": [
        {
          "internalType": "string",
          "name": "_orgName",
          "type": "string"
        },
        {
          "internalType": "string",
          "name": "_repoName",
          "type": "string"
        },
        {
          "internalType": "address",
          "name": "_address",
          "type": "address"
        }
      ],
      "name": "isRepoAdmin",
      "outputs": [
        {
          "internalType": "bool",
          "name": "",
          "type": "bool"
        }
      ],
      "stateMutability": "view",
      "type": "function",
      "constant": true
    },
    {
      "inputs": [
        {
          "internalType": "string",
          "name": "_orgName",
          "type": "string"
        },
        {
          "internalType": "string",
          "name": "_repoName",
          "type": "string"
        },
        {
          "internalType": "address",
          "name": "_address",
          "type": "address"
        }
      ],
      "name": "isRepoDev",
      "outputs": [
        {
          "internalType": "bool",
          "name": "",
          "type": "bool"
        }
      ],
      "stateMutability": "view",
      "type": "function",
      "constant": true
    },
    {
      "inputs": [
        {
          "internalType": "string",
          "name": "_orgName",
          "type": "string"
        },
        {
          "internalType": "address",
          "name": "_address",
          "type": "address"
        }
      ],
      "name": "grantOrgOwner",
      "outputs": [],
      "stateMutability": "nonpayable",
      "type": "function"
    },
    {
      "inputs": [
        {
          "internalType": "string",
          "name": "_orgName",
          "type": "string"
        },
        {
          "internalType": "address",
          "name": "_address",
          "type": "address"
        }
      ],
      "name": "revokeOrgOwner",
      "outputs": [],
      "stateMutability": "nonpayable",
      "type": "function"
    },
    {
      "inputs": [
        {
          "internalType": "string",
          "name": "_orgName",
          "type": "string"
        },
        {
          "internalType": "address",
          "name": "_address",
          "type": "address"
        }
      ],
      "name": "grantOrgAdmin",
      "outputs": [],
      "stateMutability": "nonpayable",
      "type": "function"
    },
    {
      "inputs": [
        {
          "internalType": "string",
          "name": "_orgName",
          "type": "string"
        },
        {
          "internalType": "address",
          "name": "_address",
          "type": "address"
        }
      ],
      "name": "revokeOrgAdmin",
      "outputs": [],
      "stateMutability": "nonpayable",
      "type": "function"
    },
    {
      "inputs": [
        {
          "internalType": "string",
          "name": "_orgName",
          "type": "string"
        },
        {
          "internalType": "string",
          "name": "_repoName",
          "type": "string"
        },
        {
          "internalType": "address",
          "name": "_address",
          "type": "address"
        }
      ],
      "name": "grantRepoAdmin",
      "outputs": [],
      "stateMutability": "nonpayable",
      "type": "function"
    },
    {
      "inputs": [
        {
          "internalType": "string",
          "name": "_orgName",
          "type": "string"
        },
        {
          "internalType": "string",
          "name": "_repoName",
          "type": "string"
        },
        {
          "internalType": "address",
          "name": "_address",
          "type": "address"
        }
      ],
      "name": "revokeRepoAdmin",
      "outputs": [],
      "stateMutability": "nonpayable",
      "type": "function"
    },
    {
      "inputs": [
        {
          "internalType": "string",
          "name": "_orgName",
          "type": "string"
        },
        {
          "internalType": "string",
          "name": "_repoName",
          "type": "string"
        },
        {
          "internalType": "address",
          "name": "_address",
          "type": "address"
        }
      ],
      "name": "grantRepoDev",
      "outputs": [],
      "stateMutability": "nonpayable",
      "type": "function"
    },
    {
      "inputs": [
        {
          "internalType": "string",
          "name": "_orgName",
          "type": "string"
        },
        {
          "internalType": "string",
          "name": "_repoName",
          "type": "string"
        },
        {
          "internalType": "address",
          "name": "_address",
          "type": "address"
        }
      ],
      "name": "revokeRepoDev",
      "outputs": [],
      "stateMutability": "nonpayable",
      "type": "function"
    },
    {
      "inputs": [
        {
          "internalType": "string",
          "name": "_orgName",
          "type": "string"
        }
      ],
      "name": "getOrgOwners",
      "outputs": [
        {
          "internalType": "address[]",
          "name": "",
          "type": "address[]"
        }
      ],
      "stateMutability": "view",
      "type": "function",
      "constant": true
    },
    {
      "inputs": [
        {
          "internalType": "string",
          "name": "_orgName",
          "type": "string"
        }
      ],
      "name": "getOrgAdmins",
      "outputs": [
        {
          "internalType": "address[]",
          "name": "",
          "type": "address[]"
        }
      ],
      "stateMutability": "view",
      "type": "function",
      "constant": true
    },
    {
      "inputs": [
        {
          "internalType": "string",
          "name": "_orgName",
          "type": "string"
        },
        {
          "internalType": "string",
          "name": "_repoName",
          "type": "string"
        }
      ],
      "name": "getRepoAdmins",
      "outputs": [
        {
          "internalType": "address[]",
          "name": "",
          "type": "address[]"
        }
      ],
      "stateMutability": "view",
      "type": "function",
      "constant": true
    },
    {
      "inputs": [
        {
          "internalType": "string",
          "name": "_orgName",
          "type": "string"
        },
        {
          "internalType": "string",
          "name": "_repoName",
          "type": "string"
        }
      ],
      "name": "getRepoDevs",
      "outputs": [
        {
          "internalType": "address[]",
          "name": "",
          "type": "address[]"
        }
      ],
      "stateMutability": "view",
      "type": "function",
      "constant": true
    },
    {
      "inputs": [],
      "name": "getOrgCount",
      "outputs": [
        {
          "internalType": "uint256",
          "name": "",
          "type": "uint256"
        }
      ],
      "stateMutability": "view",
      "type": "function",
      "constant": true
    },
    {
      "inputs": [],
      "name": "getOrgNames",
      "outputs": [
        {
          "internalType": "string[]",
          "name": "",
          "type": "string[]"
        }
      ],
      "stateMutability": "view",
      "type": "function",
      "constant": true
    },
    {
      "inputs": [
        {
          "internalType": "string",
          "name": "_orgName",
          "type": "string"
        }
      ],
      "name": "getOrganization",
      "outputs": [
        {
          "internalType": "string",
          "name": "",
          "type": "string"
        },
        {
          "internalType": "string[]",
          "name": "",
          "type": "string[]"
        }
      ],
      "stateMutability": "view",
      "type": "function",
      "constant": true
    },
    {
      "inputs": [
        {
          "internalType": "string",
          "name": "_orgName",
          "type": "string"
        }
      ],
      "name": "getOrgMeta",
      "outputs": [
        {
          "internalType": "string",
          "name": "",
          "type": "string"
        }
      ],
      "stateMutability": "view",
      "type": "function",
      "constant": true
    },
    {
      "inputs": [
        {
          "internalType": "string",
          "name": "_orgName",
          "type": "string"
        },
        {
          "internalType": "string",
          "name": "_orgMeta",
          "type": "string"
        }
      ],
      "name": "setOrgMeta",
      "outputs": [],
      "stateMutability": "nonpayable",
      "type": "function"
    },
    {
      "inputs": [
        {
          "internalType": "string",
          "name": "_orgName",
          "type": "string"
        },
        {
          "internalType": "string",
          "name": "_orgMeta",
          "type": "string"
        }
      ],
      "name": "createOrganization",
      "outputs": [],
      "stateMutability": "nonpayable",
      "type": "function"
    },
    {
      "inputs": [
        {
          "internalType": "string",
          "name": "_orgName",
          "type": "string"
        }
      ],
      "name": "getRepoNames",
      "outputs": [
        {
          "internalType": "string[]",
          "name": "",
          "type": "string[]"
        }
      ],
      "stateMutability": "view",
      "type": "function",
      "constant": true
    },
    {
      "inputs": [
        {
          "internalType": "string",
          "name": "_orgName",
          "type": "string"
        },
        {
          "internalType": "string",
          "name": "_repoName",
          "type": "string"
        }
      ],
      "name": "getRepository",
      "outputs": [
        {
          "internalType": "string",
          "name": "",
          "type": "string"
        },
        {
          "internalType": "string[]",
          "name": "",
          "type": "string[]"
        }
      ],
      "stateMutability": "view",
      "type": "function",
      "constant": true
    },
    {
      "inputs": [
        {
          "internalType": "string",
          "name": "_orgName",
          "type": "string"
        },
        {
          "internalType": "string",
          "name": "_repoName",
          "type": "string"
        }
      ],
      "name": "getRepoMeta",
      "outputs": [
        {
          "internalType": "string",
          "name": "",
          "type": "string"
        }
      ],
      "stateMutability": "view",
      "type": "function",
      "constant": true
    },
    {
      "inputs": [
        {
          "internalType": "string",
          "name": "_orgName",
          "type": "string"
        },
        {
          "internalType": "string",
          "name": "_repoName",
          "type": "string"
        },
        {
          "internalType": "string",
          "name": "_repoMeta",
          "type": "string"
        }
      ],
      "name": "setRepoMeta",
      "outputs": [],
      "stateMutability": "nonpayable",
      "type": "function"
    },
    {
      "inputs": [
        {
          "internalType": "string",
          "name": "_orgName",
          "type": "string"
        },
        {
          "internalType": "string",
          "name": "_repoName",
          "type": "string"
        },
        {
          "internalType": "string",
          "name": "_repoMeta",
          "type": "string"
        }
      ],
      "name": "createRepository",
      "outputs": [],
      "stateMutability": "nonpayable",
      "type": "function"
    },
    {
      "inputs": [
        {
          "internalType": "string",
          "name": "_orgName",
          "type": "string"
        },
        {
          "internalType": "string",
          "name": "_repoName",
          "type": "string"
        }
      ],
      "name": "getLatestTag",
      "outputs": [
        {
          "internalType": "string",
          "name": "",
          "type": "string"
        }
      ],
      "stateMutability": "view",
      "type": "function",
      "constant": true
    },
    {
      "inputs": [
        {
          "internalType": "string",
          "name": "_orgName",
          "type": "string"
        },
        {
          "internalType": "string",
          "name": "_repoName",
          "type": "string"
        }
      ],
      "name": "getReleaseTags",
      "outputs": [
        {
          "internalType": "string[]",
          "name": "",
          "type": "string[]"
        }
      ],
      "stateMutability": "view",
      "type": "function",
      "constant": true
    },
    {
      "inputs": [
        {
          "internalType": "string",
          "name": "_orgName",
          "type": "string"
        },
        {
          "internalType": "string",
          "name": "_repoName",
          "type": "string"
        },
        {
          "internalType": "string",
          "name": "_tag",
          "type": "string"
        }
      ],
      "name": "getRelease",
      "outputs": [
        {
          "components": [
            {
              "internalType": "string",
              "name": "releaseCID",
              "type": "string"
            },
            {
              "internalType": "string",
              "name": "metaCID",
              "type": "string"
            }
          ],
          "internalType": "struct Valist.Release",
          "name": "",
          "type": "tuple"
        }
      ],
      "stateMutability": "view",
      "type": "function",
      "constant": true
    },
    {
      "inputs": [
        {
          "internalType": "string",
          "name": "_orgName",
          "type": "string"
        },
        {
          "internalType": "string",
          "name": "_repoName",
          "type": "string"
        }
      ],
      "name": "getLatestRelease",
      "outputs": [
        {
          "components": [
            {
              "internalType": "string",
              "name": "releaseCID",
              "type": "string"
            },
            {
              "internalType": "string",
              "name": "metaCID",
              "type": "string"
            }
          ],
          "internalType": "struct Valist.Release",
          "name": "",
          "type": "tuple"
        }
      ],
      "stateMutability": "view",
      "type": "function",
      "constant": true
    },
    {
      "inputs": [
        {
          "internalType": "string",
          "name": "_orgName",
          "type": "string"
        },
        {
          "internalType": "string",
          "name": "_repoName",
          "type": "string"
        },
        {
          "internalType": "string",
          "name": "_tag",
          "type": "string"
        },
        {
          "internalType": "string",
          "name": "_releaseCID",
          "type": "string"
        },
        {
          "internalType": "string",
          "name": "_metaCID",
          "type": "string"
        }
      ],
      "name": "publishRelease",
      "outputs": [],
      "stateMutability": "nonpayable",
      "type": "function"
    },
    {
      "inputs": [
        {
          "internalType": "string",
          "name": "_orgName",
          "type": "string"
        },
        {
          "internalType": "string",
          "name": "_repoName",
          "type": "string"
        }
      ],
      "name": "deleteRepository",
      "outputs": [],
      "stateMutability": "nonpayable",
      "type": "function"
    },
    {
      "inputs": [
        {
          "internalType": "string",
          "name": "_orgName",
          "type": "string"
        }
      ],
      "name": "deleteOrganization",
      "outputs": [],
      "stateMutability": "nonpayable",
      "type": "function"
    }
  ],
  "bytecode": "0x60806040523480156200001157600080fd5b506040518060400160405280600681526020016515985b1a5cdd60d21b815250604051806040016040528060018152602001600360fc1b81525060405180608001604052806052815260200162003b126052913980519060200120828051906020012082805190602001206200008c620000d960201b60201c565b6040805160208082019690965280820194909452606084019290925260808301523060a0808401919091528151808403909101815260c09092019052805191012060015550620000dd9050565b4690565b613a2580620000ed6000396000f3fe6080604052600436106102255760003560e01c80636208808811610123578063a411ef20116100ab578063d2a636d51161006f578063d2a636d5146106a7578063de4dbe59146106c7578063e37803ff146106e7578063f855f64814610707578063ff941e231461071c57610225565b8063a411ef20146105fa578063b694b70f1461061a578063b8ac0d941461063a578063c2f1fde11461065a578063c8be2de41461068757610225565b806378b218b0116100f257806378b218b01461054d5780638a5905fc1461056d5780638babebff1461058d5780639668be42146105ba5780639972a015146105da57610225565b806362088088146104cd578063683324bf146104ed5780636e9a553d1461050d57806377ac2fd91461052d57610225565b806334cb406b116101b15780634c37c6c7116101755780634c37c6c71461042d57806350215f531461044d5780635bb442411461046d5780635cdf64e81461048d57806361fe59d4146104ad57610225565b806334cb406b14610380578063375aa7e2146103a05780633a20f69b146103c05780633c733e6f146103ed578063419d315f1461040d57610225565b806316006353116101f857806316006353146102c35780631a8550c8146102f157806323d262531461031157806326883ba3146103335780632d0335ab1461036057610225565b8063067816ea1461022a5780630740432c146102615780630c53c51c14610283578063159003f1146102a3575b600080fd5b34801561023657600080fd5b5061024a6102453660046132ed565b61073c565b604051610258929190613867565b60405180910390f35b34801561026d57600080fd5b5061028161027c366004613320565b6107ee565b005b610296610291366004613261565b610878565b604051610258919061371f565b3480156102af57600080fd5b506102816102be366004613320565b610bd5565b3480156102cf57600080fd5b506102e36102de36600461336c565b610c50565b604051610258929190613732565b3480156102fd57600080fd5b5061028161030c36600461336c565b610e38565b34801561031d57600080fd5b5061032661100c565b604051610258919061385e565b34801561033f57600080fd5b5061035361034e3660046132ed565b611013565b60405161025891906136b4565b34801561036c57600080fd5b5061032661037b366004613247565b6110fa565b34801561038c57600080fd5b5061028161039b3660046133cd565b611115565b3480156103ac57600080fd5b506102e36103bb3660046132ed565b6111af565b3480156103cc57600080fd5b506103e06103db366004613320565b611357565b6040516102589190613714565b3480156103f957600080fd5b5061028161040836600461343e565b6113b4565b34801561041957600080fd5b5061029661042836600461336c565b6114e3565b34801561043957600080fd5b5061028161044836600461336c565b6115d8565b34801561045957600080fd5b5061035361046836600461336c565b611636565b34801561047957600080fd5b5061029661048836600461358e565b61173b565b34801561049957600080fd5b506103536104a83660046132ed565b6117e4565b3480156104b957600080fd5b506102966104c836600461336c565b6118c1565b3480156104d957600080fd5b506102816104e83660046133cd565b611993565b3480156104f957600080fd5b50610281610508366004613320565b611a2d565b34801561051957600080fd5b506102966105283660046132ed565b611aa8565b34801561053957600080fd5b506103e06105483660046133cd565b611b5a565b34801561055957600080fd5b506102816105683660046133cd565b611be5565b34801561057957600080fd5b506103e06105883660046133cd565b611c89565b34801561059957600080fd5b506105ad6105a836600461343e565b611d0d565b6040516102589190613825565b3480156105c657600080fd5b506102816105d536600461343e565b611eb0565b3480156105e657600080fd5b506102816105f53660046132ed565b611f2f565b34801561060657600080fd5b5061028161061536600461336c565b61204c565b34801561062657600080fd5b506102816106353660046134c2565b612166565b34801561064657600080fd5b506102816106553660046133cd565b612375565b34801561066657600080fd5b5061067a61067536600461336c565b612411565b6040516102589190613701565b34801561069357600080fd5b506103536106a236600461336c565b61252a565b3480156106b357600080fd5b5061067a6106c23660046132ed565b612626565b3480156106d357600080fd5b506102816106e2366004613320565b61271f565b3480156106f357600080fd5b506105ad61070236600461336c565b61279a565b34801561071357600080fd5b5061067a61299d565b34801561072857600080fd5b506103e0610737366004613320565b612a75565b805160208183018101805160038252928201938201939093209190925280546001808301805460408051600294831615610100026000190190921693909304601f810187900487028201870190935282815292949091908301828280156107e45780601f106107b9576101008083540402835291602001916107e4565b820191906000526020600020905b8154815290600101906020018083116107c757829003601f168201915b5050505050905082565b816107fb81610737612ad9565b6108205760405162461bcd60e51b8152600401610817906137a3565b60405180910390fd5b610872826003856040516108349190613628565b908152602001604051809103902060040160006000805160206139d08339815191528152602001908152602001600020612b3590919063ffffffff16565b50505050565b6060600061088586612b4a565b90506000356001600160e01b031990811690821614156108d65760405162461bcd60e51b815260040180806020018281038252603d815260200180613912603d913960400191505060405180910390fd5b604080516060810182526001600160a01b03891660008181526020818152908490205483528201529081018790526109118882888888612b66565b61094c5760405162461bcd60e51b815260040180806020018281038252602181526020018061398f6021913960400191505060405180910390fd5b6001600160a01b038816600090815260208190526040902054610970906001612c50565b6000808a6001600160a01b03166001600160a01b0316815260200190815260200160002081905550600080306001600160a01b0316898b6040516020018083805190602001908083835b602083106109d95780518252601f1990920191602091820191016109ba565b6001836020036101000a038019825116818451168082178552505050505050905001826001600160a01b031660601b8152601401925050506040516020818303038152906040526040518082805190602001908083835b60208310610a4f5780518252601f199092019160209182019101610a30565b6001836020036101000a0380198251168184511680821785525050505050509050019150506000604051808303816000865af19150503d8060008114610ab1576040519150601f19603f3d011682016040523d82523d6000602084013e610ab6565b606091505b509150915081610b0d576040805162461bcd60e51b815260206004820152601c60248201527f46756e6374696f6e2063616c6c206e6f74207375636365737366756c00000000604482015290519081900360640190fd5b7f5845892132946850460bff5a0083f71031bc5bf9aadcd40f1de79423eac9b10b8a338b60405180846001600160a01b03168152602001836001600160a01b0316815260200180602001828103825283818151815260200191508051906020019080838360005b83811015610b8c578181015183820152602001610b74565b50505050905090810190601f168015610bb95780820380516001836020036101000a031916815260200191505b5094505050505060405180910390a19998505050505050505050565b81610be2816103db612ad9565b610bfe5760405162461bcd60e51b8152600401610817906137a3565b61087282600385604051610c129190613628565b9081526020016040518091039020600401600060008051602061394f8339815191528152602001908152602001600020612b3590919063ffffffff16565b606080600384604051610c639190613628565b908152602001604051809103902060030183604051610c829190613628565b9081526020016040518091039020600101600385604051610ca39190613628565b908152602001604051809103902060030184604051610cc29190613628565b90815260408051602092819003830181208454600260018216156101000260001901909116819004601f8101869004860284018601909452838352019290918491830182828015610d545780601f10610d2957610100808354040283529160200191610d54565b820191906000526020600020905b815481529060010190602001808311610d3757829003601f168201915b5050505050915080805480602002602001604051908101604052809291908181526020016000905b82821015610e275760008481526020908190208301805460408051601f6002600019610100600187161502019094169390930492830185900485028101850190915281815292830182828015610e135780601f10610de857610100808354040283529160200191610e13565b820191906000526020600020905b815481529060010190602001808311610df657829003601f168201915b505050505081526020019060010190610d7c565b505050509050915091509250929050565b81610e4581610737612ad9565b610e615760405162461bcd60e51b8152600401610817906137a3565b610ec9600384604051610e749190613628565b9081526020016040518091039020600201600385604051610e959190613628565b908152602001604051809103902060030184604051610eb49190613628565b90815260405190819003602001902054612caa565b600383604051610ed99190613628565b908152602001604051809103902060030182604051610ef89190613628565b90815260408051602092819003830190206000805160206139b0833981519152600090815260049091019092528120908181610f348282612fcf565b50505050600383604051610f489190613628565b908152602001604051809103902060030182604051610f679190613628565b908152604080516020928190038301902060008051602061396f833981519152600090815260049091019092528120908181610fa38282612fcf565b50505050600383604051610fb79190613628565b908152602001604051809103902060030182604051610fd69190613628565b9081526040519081900360200190206000808255610ff76001830182612ff0565b611005600283016000613034565b5050505050565b6002545b90565b606060006003836040516110279190613628565b9081526020016040518091039020600401600060008051602061394f83398151915281526020019081526020016000209050600061106482612d29565b67ffffffffffffffff8111801561107a57600080fd5b506040519080825280602002602001820160405280156110a4578160200160208202803683370190505b50905060005b6110b383612d29565b8110156110f0576110c48382612d34565b8282815181106110d057fe5b6001600160a01b03909216602092830291909101909101526001016110aa565b509150505b919050565b6001600160a01b031660009081526020819052604090205490565b8261112281610737612ad9565b61113e5760405162461bcd60e51b8152600401610817906137a3565b611005826003866040516111529190613628565b9081526020016040518091039020600301856040516111719190613628565b908152602001604051809103902060040160006000805160206139b08339815191528152602001908152602001600020612d4090919063ffffffff16565b6060806003836040516111c29190613628565b90815260200160405180910390206001016003846040516111e39190613628565b90815260408051602092819003830181208454600260018216156101000260001901909116819004601f81018690048602840186019094528383520192909184918301828280156112755780601f1061124a57610100808354040283529160200191611275565b820191906000526020600020905b81548152906001019060200180831161125857829003601f168201915b5050505050915080805480602002602001604051908101604052809291908181526020016000905b828210156113485760008481526020908190208301805460408051601f60026000196101006001871615020190941693909304928301859004850281018501909152818152928301828280156113345780601f1061130957610100808354040283529160200191611334565b820191906000526020600020905b81548152906001019060200180831161131757829003601f168201915b50505050508152602001906001019061129d565b50505050905091509150915091565b60006113ab8260038560405161136d9190613628565b9081526020016040518091039020600401600060008051602061394f8339815191528152602001908152602001600020612d5590919063ffffffff16565b90505b92915050565b826113c181610737612ad9565b6113dd5760405162461bcd60e51b8152600401610817906137a3565b6003846040516113ed9190613628565b908152604051602091819003820190206002018054600181018255600091825290829020855161142593919092019190860190613052565b5060016003856040516114389190613628565b9081526020016040518091039020600201805490500360038560405161145e9190613628565b90815260200160405180910390206003018460405161147d9190613628565b9081526040519081900360200181209190915582906003906114a0908790613628565b9081526020016040518091039020600301846040516114bf9190613628565b90815260200160405180910390206001019080519060200190611005929190613052565b606060006003846040516114f79190613628565b9081526020016040518091039020600301836040516115169190613628565b908152602001604051809103902060020190508060018280549050038154811061153c57fe5b600091825260209182902001805460408051601f60026000196101006001871615020190941693909304928301859004850281018501909152818152928301828280156115ca5780601f1061159f576101008083540402835291602001916115ca565b820191906000526020600020905b8154815290600101906020018083116115ad57829003601f168201915b505050505091505092915050565b816115e581610737612ad9565b6116015760405162461bcd60e51b8152600401610817906137a3565b816003846040516116129190613628565b90815260200160405180910390206001019080519060200190610872929190613052565b6060600060038460405161164a9190613628565b9081526020016040518091039020600301836040516116699190613628565b908152602001604051809103902060040160006000805160206139b08339815191528152602001908152602001600020905060006116a682612d29565b67ffffffffffffffff811180156116bc57600080fd5b506040519080825280602002602001820160405280156116e6578160200160208202803683370190505b50905060005b6116f583612d29565b811015611732576117068382612d34565b82828151811061171257fe5b6001600160a01b03909216602092830291909101909101526001016116ec565b50949350505050565b6002818154811061174b57600080fd5b600091825260209182902001805460408051601f60026000196101006001871615020190941693909304928301859004850281018501909152818152935090918301828280156117dc5780601f106117b1576101008083540402835291602001916117dc565b820191906000526020600020905b8154815290600101906020018083116117bf57829003601f168201915b505050505081565b606060006003836040516117f89190613628565b908152602001604051809103902060040160006000805160206139d083398151915281526020019081526020016000209050600061183582612d29565b67ffffffffffffffff8111801561184b57600080fd5b50604051908082528060200260200182016040528015611875578160200160208202803683370190505b50905060005b61188483612d29565b8110156110f0576118958382612d34565b8282815181106118a157fe5b6001600160a01b039092166020928302919091019091015260010161187b565b60606003836040516118d39190613628565b9081526020016040518091039020600301826040516118f29190613628565b90815260408051602092819003830181206001908101805460029281161561010002600019011691909104601f810185900485028301850190935282825290929091908301828280156119865780601f1061195b57610100808354040283529160200191611986565b820191906000526020600020905b81548152906001019060200180831161196957829003601f168201915b5050505050905092915050565b826119a081610737612ad9565b6119bc5760405162461bcd60e51b8152600401610817906137a3565b611005826003866040516119d09190613628565b9081526020016040518091039020600301856040516119ef9190613628565b908152602001604051809103902060040160006000805160206139b08339815191528152602001908152602001600020612b3590919063ffffffff16565b81611a3a816103db612ad9565b611a565760405162461bcd60e51b8152600401610817906137a3565b61087282600385604051611a6a9190613628565b9081526020016040518091039020600401600060008051602061394f8339815191528152602001908152602001600020612d4090919063ffffffff16565b6060600382604051611aba9190613628565b90815260408051602092819003830181206001908101805460029281161561010002600019011691909104601f81018590048502830185019093528282529092909190830182828015611b4e5780601f10611b2357610100808354040283529160200191611b4e565b820191906000526020600020905b815481529060010190602001808311611b3157829003601f168201915b50505050509050919050565b6000611bcd82600386604051611b709190613628565b908152602001604051809103902060030185604051611b8f9190613628565b908152602001604051809103902060040160006000805160206139b08339815191528152602001908152602001600020612d5590919063ffffffff16565b80611bdd5750611bdd8483612a75565b949350505050565b8282611bf48282610548612ad9565b611c105760405162461bcd60e51b8152600401610817906137a3565b611c8183600387604051611c249190613628565b908152602001604051809103902060030186604051611c439190613628565b9081526020016040518091039020600401600060008051602061396f8339815191528152602001908152602001600020612b3590919063ffffffff16565b505050505050565b6000611cfc82600386604051611c9f9190613628565b908152602001604051809103902060030185604051611cbe9190613628565b9081526020016040518091039020600401600060008051602061396f8339815191528152602001908152602001600020612d5590919063ffffffff16565b80611bdd5750611bdd848484611b5a565b611d156130de565b600384604051611d259190613628565b908152602001604051809103902060030183604051611d449190613628565b908152602001604051809103902060030182604051611d639190613628565b9081526040805160209281900383018120805460026001821615610100026000190190911604601f8101859004909402820160609081018452928201848152919390928492918491840182828015611dfc5780601f10611dd157610100808354040283529160200191611dfc565b820191906000526020600020905b815481529060010190602001808311611ddf57829003601f168201915b50505050508152602001600182018054600181600116156101000203166002900480601f016020809104026020016040519081016040528092919081815260200182805460018160011615610100020316600290048015611e9e5780601f10611e7357610100808354040283529160200191611e9e565b820191906000526020600020905b815481529060010190602001808311611e8157829003601f168201915b50505050508152505090509392505050565b8282611ebf8282610548612ad9565b611edb5760405162461bcd60e51b8152600401610817906137a3565b82600386604051611eec9190613628565b908152602001604051809103902060030185604051611f0b9190613628565b90815260200160405180910390206001019080519060200190611c81929190613052565b80611f3c816103db612ad9565b611f585760405162461bcd60e51b8152600401610817906137a3565b611f6d6002600384604051610eb49190613628565b600382604051611f7d9190613628565b908152604080516020928190038301902060008051602061394f833981519152600090815260049091019092528120908181611fb98282612fcf565b50505050600382604051611fcd9190613628565b90815260408051602092819003830190206000805160206139d08339815191526000908152600490910190925281209081816120098282612fcf565b5050505060038260405161201d9190613628565b908152604051908190036020019020600080825561203e6001830182612ff0565b610872600283016000613034565b60038260405161205c9190613628565b90815260200160405180910390206001018054600181600116156101000203166002900490506000146120a15760405162461bcd60e51b8152600401610817906137ca565b6120bc6120ac612ad9565b600384604051610c129190613628565b50600280546001810182556000919091528251612100917f405787fa12a823e0f2b7631cc41b3ba8828b3321ca811111fa75cd3aa3bb5ace01906020850190613052565b5060016002805490500360038360405161211a9190613628565b90815260405190819003602001812091909155819060039061213d908590613628565b90815260200160405180910390206001019080519060200190612161929190613052565b505050565b84846121758282610588612ad9565b6121915760405162461bcd60e51b8152600401610817906137a3565b6003876040516121a19190613628565b9081526020016040518091039020600301866040516121c09190613628565b9081526020016040518091039020600301856040516121df9190613628565b90815260405190819003602001902054600260001961010060018416150201909116041561221f5760405162461bcd60e51b8152600401610817906137f7565b60038760405161222f9190613628565b90815260200160405180910390206003018660405161224e9190613628565b908152604051602091819003820190206002018054600181018255600091825290829020875161228693919092019190880190613052565b506040518060400160405280858152602001848152506003886040516122ac9190613628565b9081526020016040518091039020600301876040516122cb9190613628565b9081526020016040518091039020600301866040516122ea9190613628565b90815260200160405180910390206000820151816000019080519060200190612314929190613052565b50602082810151805161232d9260018501920190613052565b509050507f0a553ef242846e503b7347d47340e870bba8a2ea41209595ca0d0807d84181ee87878760405161236493929190613760565b60405180910390a150505050505050565b82826123848282610548612ad9565b6123a05760405162461bcd60e51b8152600401610817906137a3565b611c81836003876040516123b49190613628565b9081526020016040518091039020600301866040516123d39190613628565b9081526020016040518091039020600401600060008051602061396f8339815191528152602001908152602001600020612d4090919063ffffffff16565b60606003836040516124239190613628565b9081526020016040518091039020600301826040516124429190613628565b9081526020016040518091039020600201805480602002602001604051908101604052809291908181526020016000905b8282101561251e5760008481526020908190208301805460408051601f600260001961010060018716150201909416939093049283018590048502810185019091528181529283018282801561250a5780601f106124df5761010080835404028352916020019161250a565b820191906000526020600020905b8154815290600101906020018083116124ed57829003601f168201915b505050505081526020019060010190612473565b50505050905092915050565b6060600060038460405161253e9190613628565b90815260200160405180910390206003018360405161255d9190613628565b9081526020016040518091039020600401600060008051602061396f83398151915281526020019081526020016000209050600061259a82612d29565b67ffffffffffffffff811180156125b057600080fd5b506040519080825280602002602001820160405280156125da578160200160208202803683370190505b50905060005b6125e983612d29565b811015611732576125fa8382612d34565b82828151811061260657fe5b6001600160a01b03909216602092830291909101909101526001016125e0565b60606003826040516126389190613628565b9081526020016040518091039020600201805480602002602001604051908101604052809291908181526020016000905b828210156127145760008481526020908190208301805460408051601f60026000196101006001871615020190941693909304928301859004850281018501909152818152928301828280156127005780601f106126d557610100808354040283529160200191612700565b820191906000526020600020905b8154815290600101906020018083116126e357829003601f168201915b505050505081526020019060010190612669565b505050509050919050565b8161272c81610737612ad9565b6127485760405162461bcd60e51b8152600401610817906137a3565b6108728260038560405161275c9190613628565b908152602001604051809103902060040160006000805160206139d08339815191528152602001908152602001600020612d4090919063ffffffff16565b6127a26130de565b60006003846040516127b49190613628565b9081526020016040518091039020600301836040516127d39190613628565b908152602001604051809103902060020190506003846040516127f69190613628565b9081526020016040518091039020600301836040516128159190613628565b90815260200160405180910390206003018160018380549050038154811061283957fe5b906000526020600020016040516128509190613644565b9081526040805160209281900383018120805460026001821615610100026000190190911604601f81018590049094028201606090810184529282018481529193909284929184918401828280156128e95780601f106128be576101008083540402835291602001916128e9565b820191906000526020600020905b8154815290600101906020018083116128cc57829003601f168201915b50505050508152602001600182018054600181600116156101000203166002900480601f01602080910402602001604051908101604052809291908181526020018280546001816001161561010002031660029004801561298b5780601f106129605761010080835404028352916020019161298b565b820191906000526020600020905b81548152906001019060200180831161296e57829003601f168201915b50505050508152505091505092915050565b60606002805480602002602001604051908101604052809291908181526020016000905b82821015612a6c5760008481526020908190208301805460408051601f6002600019610100600187161502019094169390930492830185900485028101850190915281815292830182828015612a585780601f10612a2d57610100808354040283529160200191612a58565b820191906000526020600020905b815481529060010190602001808311612a3b57829003601f168201915b5050505050815260200190600101906129c1565b50505050905090565b6000612ac982600385604051612a8b9190613628565b908152602001604051809103902060040160006000805160206139d08339815191528152602001908152602001600020612d5590919063ffffffff16565b806113ab57506113ab8383611357565b600033301415612b3057600080368080601f0160208091040260200160405190810160405280939291908181526020018383808284376000920191909152505050503601516001600160a01b031691506110109050565b503390565b60006113ab836001600160a01b038416612d6a565b6000815160001415612b5e575060006110f5565b506020015190565b6000806001612b7c612b7788612db4565b612e37565b84878760405160008152602001604052604051808581526020018460ff1681526020018381526020018281526020019450505050506020604051602081039080840390855afa158015612bd3573d6000803e3d6000fd5b5050604051601f1901519150506001600160a01b038116612c2f576040805162461bcd60e51b8152602060048201526011602482015270496e76616c6964207369676e617475726560781b604482015290519081900360640190fd5b866001600160a01b0316816001600160a01b03161491505095945050505050565b6000828201838110156113ab576040805162461bcd60e51b815260206004820152601b60248201527f536166654d6174683a206164646974696f6e206f766572666c6f770000000000604482015290519081900360640190fd5b818181548110612cb657fe5b9060005260206000200182600184805490500381548110612cd357fe5b906000526020600020019080546001816001161561010002031660029004612cfc9291906130f8565b5081805480612d0757fe5b600190038181906000526020600020016000612d239190612ff0565b90555050565b60006113ae82612e83565b60006113ab8383612e87565b60006113ab836001600160a01b038416612eeb565b60006113ab836001600160a01b038416612fb1565b6000612d768383612fb1565b612dac575081546001818101845560008481526020808220909301849055845484825282860190935260409020919091556113ae565b5060006113ae565b60006040518060800160405280604381526020016138cf60439139805190602001208260000151836020015184604001518051906020012060405160200180858152602001848152602001836001600160a01b03168152602001828152602001945050505050604051602081830303815290604052805190602001209050919050565b6000612e41612fc9565b82604051602001808061190160f01b81525060020183815260200182815260200192505050604051602081830303815290604052805190602001209050919050565b5490565b81546000908210612ec95760405162461bcd60e51b81526004018080602001828103825260228152602001806138ad6022913960400191505060405180910390fd5b826000018281548110612ed857fe5b9060005260206000200154905092915050565b60008181526001830160205260408120548015612fa75783546000198083019190810190600090879083908110612f1e57fe5b9060005260206000200154905080876000018481548110612f3b57fe5b600091825260208083209091019290925582815260018981019092526040902090840190558654879080612f6b57fe5b600190038181906000526020600020016000905590558660010160008781526020019081526020016000206000905560019450505050506113ae565b60009150506113ae565b60009081526001919091016020526040902054151590565b60015490565b5080546000825590600052602060002090810190612fed919061317b565b50565b50805460018160011615610100020316600290046000825580601f106130165750612fed565b601f016020900490600052602060002090810190612fed919061317b565b5080546000825590600052602060002090810190612fed9190613190565b828054600181600116156101000203166002900490600052602060002090601f01602090048101928261308857600085556130ce565b82601f106130a157805160ff19168380011785556130ce565b828001600101855582156130ce579182015b828111156130ce5782518255916020019190600101906130b3565b506130da92915061317b565b5090565b604051806040016040528060608152602001606081525090565b828054600181600116156101000203166002900490600052602060002090601f01602090048101928261312e57600085556130ce565b82601f1061313f57805485556130ce565b828001600101855582156130ce57600052602060002091601f016020900482015b828111156130ce578254825591600101919060010190613160565b5b808211156130da576000815560010161317c565b808211156130da5760006131a48282612ff0565b50600101613190565b600067ffffffffffffffff808411156131c257fe5b604051601f8501601f1916810160200182811182821017156131e057fe5b6040528481529150818385018610156131f857600080fd5b8484602083013760006020868301015250509392505050565b80356001600160a01b03811681146110f557600080fd5b600082601f830112613238578081fd5b6113ab838335602085016131ad565b600060208284031215613258578081fd5b6113ab82613211565b600080600080600060a08688031215613278578081fd5b61328186613211565b9450602086013567ffffffffffffffff81111561329c578182fd5b8601601f810188136132ac578182fd5b6132bb888235602084016131ad565b9450506040860135925060608601359150608086013560ff811681146132df578182fd5b809150509295509295909350565b6000602082840312156132fe578081fd5b813567ffffffffffffffff811115613314578182fd5b611bdd84828501613228565b60008060408385031215613332578182fd5b823567ffffffffffffffff811115613348578283fd5b61335485828601613228565b92505061336360208401613211565b90509250929050565b6000806040838503121561337e578182fd5b823567ffffffffffffffff80821115613395578384fd5b6133a186838701613228565b935060208501359150808211156133b6578283fd5b506133c385828601613228565b9150509250929050565b6000806000606084860312156133e1578283fd5b833567ffffffffffffffff808211156133f8578485fd5b61340487838801613228565b94506020860135915080821115613419578384fd5b5061342686828701613228565b92505061343560408501613211565b90509250925092565b600080600060608486031215613452578283fd5b833567ffffffffffffffff80821115613469578485fd5b61347587838801613228565b9450602086013591508082111561348a578384fd5b61349687838801613228565b935060408601359150808211156134ab578283fd5b506134b886828701613228565b9150509250925092565b600080600080600060a086880312156134d9578081fd5b853567ffffffffffffffff808211156134f0578283fd5b6134fc89838a01613228565b96506020880135915080821115613511578283fd5b61351d89838a01613228565b95506040880135915080821115613532578283fd5b61353e89838a01613228565b94506060880135915080821115613553578283fd5b61355f89838a01613228565b93506080880135915080821115613574578283fd5b5061358188828901613228565b9150509295509295909350565b60006020828403121561359f578081fd5b5035919050565b60008282518085526020808601955080818302840101818601855b848110156135ef57601f198684030189526135dd8383516135fc565b988401989250908301906001016135c1565b5090979650505050505050565b60008151808452613614816020860160208601613880565b601f01601f19169290920160200192915050565b6000825161363a818460208701613880565b9190910192915050565b6000808354600180821660008114613663576001811461367a576136a9565b60ff198316865260028304607f16860193506136a9565b600283048786526020808720875b838110156136a15781548a820152908501908201613688565b505050860193505b509195945050505050565b6020808252825182820181905260009190848201906040850190845b818110156136f55783516001600160a01b0316835292840192918401916001016136d0565b50909695505050505050565b6000602082526113ab60208301846135a6565b901515815260200190565b6000602082526113ab60208301846135fc565b60006040825261374560408301856135fc565b828103602084015261375781856135a6565b95945050505050565b60006060825261377360608301866135fc565b828103602084015261378581866135fc565b9050828103604084015261379981856135fc565b9695505050505050565b6020808252600d908201526c1058d8d95cdcc811195b9a5959609a1b604082015260600190565b6020808252601390820152724f7267616e697a6174696f6e2065786973747360681b604082015260600190565b602080825260149082015273151859c81d5cd959081a5b881d1a19481c185cdd60621b604082015260600190565b60006020825282516040602084015261384160608401826135fc565b90506020840151601f1984830301604085015261375782826135fc565b90815260200190565b600083825260406020830152611bdd60408301846135fc565b60005b8381101561389b578181015183820152602001613883565b83811115610872575050600091015256fe456e756d657261626c655365743a20696e646578206f7574206f6620626f756e64734d6574615472616e73616374696f6e2875696e74323536206e6f6e63652c616464726573732066726f6d2c62797465732066756e6374696f6e5369676e61747572652966756e6374696f6e5369676e61747572652063616e206e6f74206265206f6620657865637574654d6574615472616e73616374696f6e206d6574686f64b87a5d8a0d5a23072fd4a424fbe287673c1d38009005ff09c80513903e97ad13069bf569f27d389f2c70410107860b2e82ff561283b097a89e897daa5e34b1b65369676e657220616e64207369676e617475726520646f206e6f74206d61746368ff7d2294a3c189284afb74beb7d578b566cf69863d5cb16db08773c21bea56c9123b642491709420c2370bb98c4e7de2b1bc05c5f9fd95ac4111e12683553c62a26469706673582212208a4e754780418674b47415ed7a1e3c7c2c752f2ac17d086f761f72d7fa4997e364736f6c63430007060033454950373132446f6d61696e28737472696e67206e616d652c737472696e672076657273696f6e2c75696e7432353620636861696e49642c6164647265737320766572696679696e67436f6e747261637429",
  "immutableReferences": {},
  "source": "// SPDX-License-Identifier: MIT\npragma solidity >=0.7.0;\npragma experimental ABIEncoderV2;\n\nimport \"./EIP712MetaTransaction.sol\";\nimport \"@openzeppelin/contracts/utils/EnumerableSet.sol\";\n\ncontract Valist is EIP712MetaTransaction(\"Valist\",\"0\") {\n\n    using EnumerableSet for EnumerableSet.AddressSet;\n\n    // organization level roles\n    bytes32 constant ORG_OWNER = keccak256(\"ORG_OWNER_ROLE\");\n    bytes32 constant ORG_ADMIN = keccak256(\"ORG_ADMIN_ROLE\");\n\n    // repository level roles\n    bytes32 constant REPO_ADMIN = keccak256(\"REPO_ADMIN_ROLE\");\n    bytes32 constant REPO_DEV = keccak256(\"REPO_DEV_ROLE\");\n\n    struct Organization {\n        // keep track of shortname in orgNames\n        uint index;\n\n        // organization metadata\n        string metaCID;\n\n        // list of repo names\n        string[] repoNames;\n\n        // mapping of repoName => Repository\n        mapping(string => Repository) repos;\n\n        // organization level roles\n        mapping(bytes32 => EnumerableSet.AddressSet) roles;\n    }\n\n    struct Repository {\n        // keep track of shortname in repoNames\n        uint index;\n\n        // repo metadata\n        string metaCID;\n\n        // list of release tags\n        string[] tags;\n\n        // mapping of tag => Release\n        mapping(string => Release) releases;\n\n        // repository level roles\n        mapping(bytes32 => EnumerableSet.AddressSet) roles;\n    }\n\n    struct Release {\n        // release artifact\n        string releaseCID;\n\n        // release metadata\n        string metaCID;\n    }\n\n    // list of shortnames\n    string[] public orgNames;\n\n    // orgName => Organization\n    mapping(string => Organization) public orgs;\n\n    modifier orgOwner(string memory _orgName) {\n        require(isOrgOwner(_orgName, msgSender()), \"Access Denied\");\n        _;\n    }\n\n    modifier orgAdmin(string memory _orgName) {\n        require(isOrgAdmin(_orgName, msgSender()), \"Access Denied\");\n        _;\n    }\n\n    modifier repoAdmin(string memory _orgName, string memory _repoName) {\n        require(isRepoAdmin(_orgName, _repoName, msgSender()), \"Access Denied\");\n        _;\n    }\n\n    modifier repoDev(string memory _orgName, string memory _repoName) {\n        require(isRepoDev(_orgName, _repoName, msgSender()), \"Access Denied\");\n        _;\n    }\n\n    event ReleaseEvent(string _orgName, string _repoName, string _tag);\n\n    function isOrgOwner(string memory _orgName, address _address) public view returns (bool) {\n        return orgs[_orgName].roles[ORG_OWNER].contains(_address);\n    }\n\n    function isOrgAdmin(string memory _orgName, address _address) public view returns (bool) {\n        return orgs[_orgName].roles[ORG_ADMIN].contains(_address) || isOrgOwner(_orgName, _address);\n    }\n\n    function isRepoAdmin(string memory _orgName, string memory _repoName, address _address) public view returns (bool) {\n        return orgs[_orgName].repos[_repoName].roles[REPO_ADMIN].contains(_address) || isOrgAdmin(_orgName, _address);\n    }\n\n    function isRepoDev(string memory _orgName, string memory _repoName, address _address) public view returns (bool) {\n        return orgs[_orgName].repos[_repoName].roles[REPO_DEV].contains(_address) || isRepoAdmin(_orgName, _repoName, _address);\n    }\n\n    function grantOrgOwner(string memory _orgName, address _address) public orgOwner(_orgName) {\n        orgs[_orgName].roles[ORG_OWNER].add(_address);\n    }\n\n    function revokeOrgOwner(string memory _orgName, address _address) public orgOwner(_orgName) {\n        orgs[_orgName].roles[ORG_OWNER].remove(_address);\n    }\n\n    function grantOrgAdmin(string memory _orgName, address _address) public orgAdmin(_orgName) {\n        orgs[_orgName].roles[ORG_ADMIN].add(_address);\n    }\n\n    function revokeOrgAdmin(string memory _orgName, address _address) public orgAdmin(_orgName) {\n        orgs[_orgName].roles[ORG_ADMIN].remove(_address);\n    }\n\n    function grantRepoAdmin(string memory _orgName, string memory _repoName, address _address) public orgAdmin(_orgName) {\n        orgs[_orgName].repos[_repoName].roles[REPO_ADMIN].add(_address);\n    }\n\n    function revokeRepoAdmin(string memory _orgName, string memory _repoName, address _address) public orgAdmin(_orgName) {\n        orgs[_orgName].repos[_repoName].roles[REPO_ADMIN].remove(_address);\n    }\n\n    function grantRepoDev(string memory _orgName, string memory _repoName, address _address) public repoAdmin(_orgName, _repoName) {\n        orgs[_orgName].repos[_repoName].roles[REPO_DEV].add(_address);\n    }\n\n    function revokeRepoDev(string memory _orgName, string memory _repoName, address _address) public repoAdmin(_orgName, _repoName) {\n        orgs[_orgName].repos[_repoName].roles[REPO_DEV].remove(_address);\n    }\n\n    function getOrgOwners(string memory _orgName) public view returns(address[] memory) {\n        EnumerableSet.AddressSet storage ownerSet = orgs[_orgName].roles[ORG_OWNER];\n\n        address[] memory owners = new address[](ownerSet.length());\n\n        for (uint i = 0; i < ownerSet.length(); i++) {\n            owners[i] = ownerSet.at(i);\n        }\n\n        return owners;\n    }\n\n    function getOrgAdmins(string memory _orgName) public view returns(address[] memory) {\n        EnumerableSet.AddressSet storage adminSet = orgs[_orgName].roles[ORG_ADMIN];\n\n        address[] memory admins = new address[](adminSet.length());\n\n        for (uint i = 0; i < adminSet.length(); i++) {\n            admins[i] = adminSet.at(i);\n        }\n\n        return admins;\n    }\n\n    function getRepoAdmins(string memory _orgName, string memory _repoName) public view returns(address[] memory) {\n        EnumerableSet.AddressSet storage adminSet = orgs[_orgName].repos[_repoName].roles[REPO_ADMIN];\n\n        address[] memory admins = new address[](adminSet.length());\n\n        for (uint i = 0; i < adminSet.length(); i++) {\n            admins[i] = adminSet.at(i);\n        }\n\n        return admins;\n    }\n\n    function getRepoDevs(string memory _orgName, string memory _repoName) public view returns(address[] memory) {\n        EnumerableSet.AddressSet storage devSet = orgs[_orgName].repos[_repoName].roles[REPO_DEV];\n\n        address[] memory devs = new address[](devSet.length());\n\n        for (uint i = 0; i < devSet.length(); i++) {\n            devs[i] = devSet.at(i);\n        }\n\n        return devs;\n    }\n\n    function getOrgCount() public view returns(uint) {\n        return orgNames.length;\n    }\n\n    function getOrgNames() public view returns(string[] memory) {\n        return orgNames;\n    }\n\n    function getOrganization(string memory _orgName) public view returns (string memory, string[] memory) {\n        return (orgs[_orgName].metaCID, orgs[_orgName].repoNames);\n    }\n\n    function getOrgMeta(string memory _orgName) public view returns (string memory) {\n        return orgs[_orgName].metaCID;\n    }\n\n    function setOrgMeta(string memory _orgName, string memory _orgMeta) public orgAdmin(_orgName) {\n        orgs[_orgName].metaCID = _orgMeta;\n    }\n\n    function createOrganization(string memory _orgName, string memory _orgMeta) public {\n        require(bytes(orgs[_orgName].metaCID).length == 0, \"Organization exists\");\n\n        orgs[_orgName].roles[ORG_OWNER].add(msgSender());\n\n        orgNames.push(_orgName);\n\n        orgs[_orgName].index = orgNames.length - 1;\n        orgs[_orgName].metaCID = _orgMeta;\n    }\n\n    function getRepoNames(string memory _orgName) public view returns (string[] memory) {\n        return orgs[_orgName].repoNames;\n    }\n\n    function getRepository(string memory _orgName, string memory _repoName) public view returns(string memory, string[] memory) {\n        return (orgs[_orgName].repos[_repoName].metaCID, orgs[_orgName].repos[_repoName].tags);\n    }\n\n    function getRepoMeta(string memory _orgName, string memory _repoName) public view returns (string memory) {\n        return orgs[_orgName].repos[_repoName].metaCID;\n    }\n\n    function setRepoMeta(string memory _orgName, string memory _repoName, string memory _repoMeta) public repoAdmin(_orgName, _repoName) {\n        orgs[_orgName].repos[_repoName].metaCID = _repoMeta;\n    }\n\n    function createRepository(string memory _orgName, string memory _repoName, string memory _repoMeta) public orgAdmin(_orgName) {\n        orgs[_orgName].repoNames.push(_repoName);\n\n        orgs[_orgName].repos[_repoName].index = orgs[_orgName].repoNames.length - 1;\n        orgs[_orgName].repos[_repoName].metaCID = _repoMeta;\n    }\n\n    function getLatestTag(string memory _orgName, string memory _repoName) public view returns(string memory) {\n        string[] storage tags = orgs[_orgName].repos[_repoName].tags;\n\n        return tags[tags.length - 1];\n    }\n\n    function getReleaseTags(string memory _orgName, string memory _repoName) public view returns(string[] memory) {\n        return orgs[_orgName].repos[_repoName].tags;\n    }\n\n    function getRelease(string memory _orgName, string memory _repoName, string memory _tag) public view returns(Release memory) {\n        return orgs[_orgName].repos[_repoName].releases[_tag];\n    }\n\n    function getLatestRelease(string memory _orgName, string memory _repoName) public view returns(Release memory) {\n        string[] storage tags = orgs[_orgName].repos[_repoName].tags;\n\n        return orgs[_orgName].repos[_repoName].releases[tags[tags.length - 1]];\n    }\n\n    function publishRelease(\n        string memory _orgName,\n        string memory _repoName,\n        string memory _tag,\n        string memory _releaseCID,\n        string memory _metaCID\n    ) public repoDev(_orgName, _repoName) {\n        require(bytes(orgs[_orgName].repos[_repoName].releases[_tag].releaseCID).length == 0, \"Tag used in the past\");\n\n        orgs[_orgName].repos[_repoName].tags.push(_tag);\n\n        orgs[_orgName].repos[_repoName].releases[_tag] = Release(_releaseCID, _metaCID);\n\n        emit ReleaseEvent(_orgName, _repoName, _tag);\n    }\n\n    function deleteRepository(string memory _orgName, string memory _repoName) public orgAdmin(_orgName) {\n        _deleteStringFromArray(orgs[_orgName].repoNames, orgs[_orgName].repos[_repoName].index);\n        delete orgs[_orgName].repos[_repoName].roles[REPO_ADMIN];\n        delete orgs[_orgName].repos[_repoName].roles[REPO_DEV];\n        delete orgs[_orgName].repos[_repoName];\n    }\n\n    function deleteOrganization(string memory _orgName) public orgOwner(_orgName) {\n        _deleteStringFromArray(orgNames, orgs[_orgName].index);\n        delete orgs[_orgName].roles[ORG_OWNER];\n        delete orgs[_orgName].roles[ORG_ADMIN];\n        delete orgs[_orgName];\n    }\n\n    // this function does not preserve array order, but is more gas efficient\n    function _deleteStringFromArray(string[] storage _array, uint _index) internal {\n        // copy last element to index\n        _array[_array.length - 1] = _array[_index];\n        // delete last element\n        _array.pop();\n    }\n\n}\n",
  "sourcePath": "/Users/alec/Workspace/valist/eth/contracts/Valist.sol",
  "compiler": {
    "name": "solc",
    "version": "0.7.6+commit.7338295f.Emscripten.clang"
  },
  "schemaVersion": "3.3.3",
  "updatedAt": "2020-12-31T06:03:26.614Z",
  "networkType": "ethereum",
  "devdoc": {
    "kind": "dev",
    "methods": {},
    "version": 1
  },
  "userdoc": {
    "kind": "user",
    "methods": {},
    "version": 1
  }
}