{
  "contractName": "ValistOrganization",
  "abi": [
    {
      "inputs": [
        {
          "internalType": "address",
          "name": "_admin",
          "type": "address"
        },
        {
          "internalType": "string",
          "name": "_orgMeta",
          "type": "string"
        }
      ],
      "stateMutability": "nonpayable",
      "type": "constructor"
    },
    {
      "anonymous": false,
      "inputs": [
        {
          "indexed": false,
          "internalType": "string",
          "name": "orgMeta",
          "type": "string"
        }
      ],
      "name": "MetaUpdated",
      "type": "event"
    },
    {
      "anonymous": false,
      "inputs": [
        {
          "indexed": false,
          "internalType": "string",
          "name": "repoName",
          "type": "string"
        },
        {
          "indexed": false,
          "internalType": "string",
          "name": "repoMeta",
          "type": "string"
        }
      ],
      "name": "RepositoryCreated",
      "type": "event"
    },
    {
      "anonymous": false,
      "inputs": [
        {
          "indexed": false,
          "internalType": "string",
          "name": "repoName",
          "type": "string"
        }
      ],
      "name": "RepositoryDeleted",
      "type": "event"
    },
    {
      "anonymous": false,
      "inputs": [
        {
          "indexed": true,
          "internalType": "bytes32",
          "name": "role",
          "type": "bytes32"
        },
        {
          "indexed": true,
          "internalType": "bytes32",
          "name": "previousAdminRole",
          "type": "bytes32"
        },
        {
          "indexed": true,
          "internalType": "bytes32",
          "name": "newAdminRole",
          "type": "bytes32"
        }
      ],
      "name": "RoleAdminChanged",
      "type": "event"
    },
    {
      "anonymous": false,
      "inputs": [
        {
          "indexed": true,
          "internalType": "bytes32",
          "name": "role",
          "type": "bytes32"
        },
        {
          "indexed": true,
          "internalType": "address",
          "name": "account",
          "type": "address"
        },
        {
          "indexed": true,
          "internalType": "address",
          "name": "sender",
          "type": "address"
        }
      ],
      "name": "RoleGranted",
      "type": "event"
    },
    {
      "anonymous": false,
      "inputs": [
        {
          "indexed": true,
          "internalType": "bytes32",
          "name": "role",
          "type": "bytes32"
        },
        {
          "indexed": true,
          "internalType": "address",
          "name": "account",
          "type": "address"
        },
        {
          "indexed": true,
          "internalType": "address",
          "name": "sender",
          "type": "address"
        }
      ],
      "name": "RoleRevoked",
      "type": "event"
    },
    {
      "inputs": [],
      "name": "DEFAULT_ADMIN_ROLE",
      "outputs": [
        {
          "internalType": "bytes32",
          "name": "",
          "type": "bytes32"
        }
      ],
      "stateMutability": "view",
      "type": "function"
    },
    {
      "inputs": [
        {
          "internalType": "bytes32",
          "name": "role",
          "type": "bytes32"
        }
      ],
      "name": "getRoleAdmin",
      "outputs": [
        {
          "internalType": "bytes32",
          "name": "",
          "type": "bytes32"
        }
      ],
      "stateMutability": "view",
      "type": "function"
    },
    {
      "inputs": [
        {
          "internalType": "bytes32",
          "name": "role",
          "type": "bytes32"
        },
        {
          "internalType": "uint256",
          "name": "index",
          "type": "uint256"
        }
      ],
      "name": "getRoleMember",
      "outputs": [
        {
          "internalType": "address",
          "name": "",
          "type": "address"
        }
      ],
      "stateMutability": "view",
      "type": "function"
    },
    {
      "inputs": [
        {
          "internalType": "bytes32",
          "name": "role",
          "type": "bytes32"
        }
      ],
      "name": "getRoleMemberCount",
      "outputs": [
        {
          "internalType": "uint256",
          "name": "",
          "type": "uint256"
        }
      ],
      "stateMutability": "view",
      "type": "function"
    },
    {
      "inputs": [
        {
          "internalType": "bytes32",
          "name": "role",
          "type": "bytes32"
        },
        {
          "internalType": "address",
          "name": "account",
          "type": "address"
        }
      ],
      "name": "grantRole",
      "outputs": [],
      "stateMutability": "nonpayable",
      "type": "function"
    },
    {
      "inputs": [
        {
          "internalType": "bytes32",
          "name": "role",
          "type": "bytes32"
        },
        {
          "internalType": "address",
          "name": "account",
          "type": "address"
        }
      ],
      "name": "hasRole",
      "outputs": [
        {
          "internalType": "bool",
          "name": "",
          "type": "bool"
        }
      ],
      "stateMutability": "view",
      "type": "function"
    },
    {
      "inputs": [],
      "name": "orgMeta",
      "outputs": [
        {
          "internalType": "string",
          "name": "",
          "type": "string"
        }
      ],
      "stateMutability": "view",
      "type": "function"
    },
    {
      "inputs": [
        {
          "internalType": "bytes32",
          "name": "role",
          "type": "bytes32"
        },
        {
          "internalType": "address",
          "name": "account",
          "type": "address"
        }
      ],
      "name": "renounceRole",
      "outputs": [],
      "stateMutability": "nonpayable",
      "type": "function"
    },
    {
      "inputs": [
        {
          "internalType": "string",
          "name": "",
          "type": "string"
        }
      ],
      "name": "repos",
      "outputs": [
        {
          "internalType": "contract ValistRepository",
          "name": "",
          "type": "address"
        }
      ],
      "stateMutability": "view",
      "type": "function"
    },
    {
      "inputs": [
        {
          "internalType": "bytes32",
          "name": "role",
          "type": "bytes32"
        },
        {
          "internalType": "address",
          "name": "account",
          "type": "address"
        }
      ],
      "name": "revokeRole",
      "outputs": [],
      "stateMutability": "nonpayable",
      "type": "function"
    },
    {
      "inputs": [
        {
          "internalType": "string",
          "name": "_repoName",
          "type": "string"
        },
        {
          "internalType": "string",
          "name": "_repoMeta",
          "type": "string"
        }
      ],
      "name": "createRepository",
      "outputs": [
        {
          "internalType": "address",
          "name": "",
          "type": "address"
        }
      ],
      "stateMutability": "nonpayable",
      "type": "function"
    },
    {
      "inputs": [
        {
          "internalType": "string",
          "name": "_orgMeta",
          "type": "string"
        }
      ],
      "name": "updateOrgMeta",
      "outputs": [
        {
          "internalType": "string",
          "name": "",
          "type": "string"
        }
      ],
      "stateMutability": "nonpayable",
      "type": "function"
    },
    {
      "inputs": [
        {
          "internalType": "string",
          "name": "_repoName",
          "type": "string"
        }
      ],
      "name": "deleteRepository",
      "outputs": [],
      "stateMutability": "nonpayable",
      "type": "function"
    },
    {
      "inputs": [
        {
          "internalType": "address payable",
          "name": "_admin",
          "type": "address"
        }
      ],
      "name": "_deleteOrganization",
      "outputs": [],
      "stateMutability": "nonpayable",
      "type": "function"
    }
  ],
  "bytecode": "0x60a06040523480156200001157600080fd5b506040516200417638038062004176833981810160405260408110156200003757600080fd5b8101908080519060200190929190805160405193929190846401000000008211156200006257600080fd5b838201915060208201858111156200007957600080fd5b82518660018202830111640100000000821117156200009757600080fd5b8083526020830192505050908051906020019080838360005b83811015620000cd578082015181840152602081019050620000b0565b50505050905090810190601f168015620000fb5780820380516001836020036101000a031916815260200191505b506040525050503373ffffffffffffffffffffffffffffffffffffffff1660808173ffffffffffffffffffffffffffffffffffffffff1660601b815250506200018060405180807f4f52475f41444d494e5f524f4c45000000000000000000000000000000000000815250600e0190506040518091039020836200021d60201b60201c565b620001fc60405180807f4f52475f41444d494e5f524f4c45000000000000000000000000000000000000815250600e019050604051809103902060405180807f4f52475f41444d494e5f524f4c45000000000000000000000000000000000000815250600e01905060405180910390206200023360201b60201c565b80600190805190602001906200021492919062000415565b505050620004c4565b6200022f82826200029560201b60201c565b5050565b8060008084815260200190815260200160002060020154837fbd79b86ffe0ab8e8776151514217cd7cacd52c909f66475c3af44e129f0b00ff60405160405180910390a480600080848152602001908152602001600020600201819055505050565b620002c3816000808581526020019081526020016000206000016200033860201b6200186f1790919060201c565b156200033457620002d96200037060201b60201c565b73ffffffffffffffffffffffffffffffffffffffff168173ffffffffffffffffffffffffffffffffffffffff16837f2f8788117e7eff1d82e926ec794901d17c78024a50270940304540a733656f0d60405160405180910390a45b5050565b600062000368836000018373ffffffffffffffffffffffffffffffffffffffff1660001b6200037860201b60201c565b905092915050565b600033905090565b60006200038c8383620003f260201b60201c565b620003e7578260000182908060018154018082558091505060019003906000526020600020016000909190919091505582600001805490508360010160008481526020019081526020016000208190555060019050620003ec565b600090505b92915050565b600080836001016000848152602001908152602001600020541415905092915050565b828054600181600116156101000203166002900490600052602060002090601f016020900481019282601f106200045857805160ff191683800117855562000489565b8280016001018555821562000489579182015b82811115620004885782518255916020019190600101906200046b565b5b5090506200049891906200049c565b5090565b620004c191905b80821115620004bd576000816000905550600101620004a3565b5090565b90565b60805160601c613c94620004e2600039806115c35250613c946000f3fe60806040523480156200001157600080fd5b5060043610620001005760003560e01c8063a217fddf1162000099578063ca15c873116200006f578063ca15c87314620006d5578063d547741f146200071a578063e22c35d1146200076b578063ecc492a014620007b25762000100565b8063a217fddf1462000459578063a7e033d61462000479578063c2692760146200053a5762000100565b806372fb47df11620000db57806372fb47df14620001ec5780639010d07c146200027457806391d1485414620002ef578063936c3a0314620003585762000100565b8063248a9ca314620001055780632f2ff15d146200014a57806336568abe146200019b575b600080fd5b62000134600480360360208110156200011d57600080fd5b8101908080359060200190929190505050620008ef565b6040518082815260200191505060405180910390f35b62000199600480360360408110156200016257600080fd5b8101908080359060200190929190803573ffffffffffffffffffffffffffffffffffffffff1690602001909291905050506200090e565b005b620001ea60048036036040811015620001b357600080fd5b8101908080359060200190929190803573ffffffffffffffffffffffffffffffffffffffff1690602001909291905050506200099f565b005b620001f662000a3e565b6040518080602001828103825283818151815260200191508051906020019080838360005b83811015620002385780820151818401526020810190506200021b565b50505050905090810190601f168015620002665780820380516001836020036101000a031916815260200191505b509250505060405180910390f35b620002ad600480360360408110156200028c57600080fd5b81019080803590602001909291908035906020019092919050505062000ae0565b604051808273ffffffffffffffffffffffffffffffffffffffff1673ffffffffffffffffffffffffffffffffffffffff16815260200191505060405180910390f35b6200033e600480360360408110156200030757600080fd5b8101908080359060200190929190803573ffffffffffffffffffffffffffffffffffffffff16906020019092919050505062000b13565b604051808215151515815260200191505060405180910390f35b62000417600480360360208110156200037057600080fd5b81019080803590602001906401000000008111156200038e57600080fd5b820183602082011115620003a157600080fd5b80359060200191846001830284011164010000000083111715620003c457600080fd5b91908080601f016020809104026020016040519081016040528093929190818152602001838380828437600081840152601f19601f82011690508083019250505050505050919291929050505062000b46565b604051808273ffffffffffffffffffffffffffffffffffffffff1673ffffffffffffffffffffffffffffffffffffffff16815260200191505060405180910390f35b6200046362000b8f565b6040518082815260200191505060405180910390f35b62000538600480360360208110156200049157600080fd5b8101908080359060200190640100000000811115620004af57600080fd5b820183602082011115620004c257600080fd5b80359060200191846001830284011164010000000083111715620004e557600080fd5b91908080601f016020809104026020016040519081016040528093929190818152602001838380828437600081840152601f19601f82011690508083019250505050505050919291929050505062000b96565b005b62000693600480360360408110156200055257600080fd5b81019080803590602001906401000000008111156200057057600080fd5b8201836020820111156200058357600080fd5b80359060200191846001830284011164010000000083111715620005a657600080fd5b91908080601f016020809104026020016040519081016040528093929190818152602001838380828437600081840152601f19601f820116905080830192505050505050509192919290803590602001906401000000008111156200060a57600080fd5b8201836020820111156200061d57600080fd5b803590602001918460018302840111640100000000831117156200064057600080fd5b91908080601f016020809104026020016040519081016040528093929190818152602001838380828437600081840152601f19601f82011690508083019250505050505050919291929050505062000ff3565b604051808273ffffffffffffffffffffffffffffffffffffffff1673ffffffffffffffffffffffffffffffffffffffff16815260200191505060405180910390f35b6200070460048036036020811015620006ed57600080fd5b810190808035906020019092919050505062001508565b6040518082815260200191505060405180910390f35b62000769600480360360408110156200073257600080fd5b8101908080359060200190929190803573ffffffffffffffffffffffffffffffffffffffff16906020019092919050505062001530565b005b620007b0600480360360208110156200078357600080fd5b81019080803573ffffffffffffffffffffffffffffffffffffffff169060200190929190505050620015c1565b005b6200087160048036036020811015620007ca57600080fd5b8101908080359060200190640100000000811115620007e857600080fd5b820183602082011115620007fb57600080fd5b803590602001918460018302840111640100000000831117156200081e57600080fd5b91908080601f016020809104026020016040519081016040528093929190818152602001838380828437600081840152601f19601f820116905080830192505050505050509192919290505050620016dd565b6040518080602001828103825283818151815260200191508051906020019080838360005b83811015620008b357808201518184015260208101905062000896565b50505050905090810190601f168015620008e15780820380516001836020036101000a031916815260200191505b509250505060405180910390f35b6000806000838152602001908152602001600020600201549050919050565b620009386000808481526020019081526020016000206002015462000932620018a1565b62000b13565b6200098f576040517f08c379a000000000000000000000000000000000000000000000000000000000815260040180806020018281038252602f81526020018062003b70602f913960400191505060405180910390fd5b6200099b8282620018a9565b5050565b620009a9620018a1565b73ffffffffffffffffffffffffffffffffffffffff168173ffffffffffffffffffffffffffffffffffffffff161462000a2e576040517f08c379a000000000000000000000000000000000000000000000000000000000815260040180806020018281038252602f81526020018062003c30602f913960400191505060405180910390fd5b62000a3a828262001941565b5050565b60018054600181600116156101000203166002900480601f01602080910402602001604051908101604052809291908181526020018280546001816001161561010002031660029004801562000ad85780601f1062000aac5761010080835404028352916020019162000ad8565b820191906000526020600020905b81548152906001019060200180831162000aba57829003601f168201915b505050505081565b600062000b0b82600080868152602001908152602001600020600001620019d990919063ffffffff16565b905092915050565b600062000b3e82600080868152602001908152602001600020600001620019f590919063ffffffff16565b905092915050565b6003818051602081018201805184825260208301602085012081835280955050505050506000915054906101000a900473ffffffffffffffffffffffffffffffffffffffff1681565b6000801b81565b6003816040518082805190602001908083835b6020831062000bce578051825260208201915060208101905060208303925062000ba9565b6001836020036101000a038019825116818451168082178552505050505050905001915050908152602001604051809103902060009054906101000a900473ffffffffffffffffffffffffffffffffffffffff1673ffffffffffffffffffffffffffffffffffffffff166391d1485460405180807f5245504f5f41444d494e5f524f4c450000000000000000000000000000000000815250600f0190506040518091039020336040518363ffffffff1660e01b8152600401808381526020018273ffffffffffffffffffffffffffffffffffffffff1673ffffffffffffffffffffffffffffffffffffffff1681526020019250505060206040518083038186803b15801562000cdc57600080fd5b505afa15801562000cf1573d6000803e3d6000fd5b505050506040513d602081101562000d0857600080fd5b810190808051906020019092919050505062000d8c576040517f08c379a000000000000000000000000000000000000000000000000000000000815260040180806020018281038252600d8152602001807f4163636573732044656e6965640000000000000000000000000000000000000081525060200191505060405180910390fd5b6003816040518082805190602001908083835b6020831062000dc4578051825260208201915060208101905060208303925062000d9f565b6001836020036101000a038019825116818451168082178552505050505050905001915050908152602001604051809103902060009054906101000a900473ffffffffffffffffffffffffffffffffffffffff1673ffffffffffffffffffffffffffffffffffffffff16631e19bf16336040518263ffffffff1660e01b8152600401808273ffffffffffffffffffffffffffffffffffffffff1673ffffffffffffffffffffffffffffffffffffffff168152602001915050600060405180830381600087803b15801562000e9757600080fd5b505af115801562000eac573d6000803e3d6000fd5b505050506003816040518082805190602001908083835b6020831062000ee8578051825260208201915060208101905060208303925062000ec3565b6001836020036101000a038019825116818451168082178552505050505050905001915050908152602001604051809103902060006101000a81549073ffffffffffffffffffffffffffffffffffffffff0219169055600260008154809291906001900391905055507f30727fcf226fd756bea325e38463e8c3524ed28f974e809dc1cc15a08106e704816040518080602001828103825283818151815260200191508051906020019080838360005b8381101562000fb557808201518184015260208101905062000f98565b50505050905090810190601f16801562000fe35780820380516001836020036101000a031916815260200191505b509250505060405180910390a150565b60006200103660405180807f4f52475f41444d494e5f524f4c45000000000000000000000000000000000000815250600e01905060405180910390203362000b13565b620010a9576040517f08c379a000000000000000000000000000000000000000000000000000000000815260040180806020018281038252600d8152602001807f4163636573732044656e6965640000000000000000000000000000000000000081525060200191505060405180910390fd5b600073ffffffffffffffffffffffffffffffffffffffff166003846040518082805190602001908083835b60208310620010f95780518252602082019150602081019050602083039250620010d4565b6001836020036101000a038019825116818451168082178552505050505050905001915050908152602001604051809103902060009054906101000a900473ffffffffffffffffffffffffffffffffffffffff1673ffffffffffffffffffffffffffffffffffffffff1614620011d7576040517f08c379a000000000000000000000000000000000000000000000000000000000815260040180806020018281038252600b8152602001807f5265706f2065786973747300000000000000000000000000000000000000000081525060200191505060405180910390fd5b3382604051620011e79062001c8b565b808373ffffffffffffffffffffffffffffffffffffffff1673ffffffffffffffffffffffffffffffffffffffff16815260200180602001828103825283818151815260200191508051906020019080838360005b83811015620012585780820151818401526020810190506200123b565b50505050905090810190601f168015620012865780820380516001836020036101000a031916815260200191505b509350505050604051809103906000f080158015620012a9573d6000803e3d6000fd5b506003846040518082805190602001908083835b60208310620012e25780518252602082019150602081019050602083039250620012bd565b6001836020036101000a038019825116818451168082178552505050505050905001915050908152602001604051809103902060006101000a81548173ffffffffffffffffffffffffffffffffffffffff021916908373ffffffffffffffffffffffffffffffffffffffff1602179055506002600081548092919060010191905055507f1e3d2335afa0d4fccc19647cde73df973d11ed3a3788d478dcd8e2eeffdb6f488383604051808060200180602001838103835285818151815260200191508051906020019080838360005b83811015620013ce578082015181840152602081019050620013b1565b50505050905090810190601f168015620013fc5780820380516001836020036101000a031916815260200191505b50838103825284818151815260200191508051906020019080838360005b83811015620014375780820151818401526020810190506200141a565b50505050905090810190601f168015620014655780820380516001836020036101000a031916815260200191505b5094505050505060405180910390a16003836040518082805190602001908083835b60208310620014ac578051825260208201915060208101905060208303925062001487565b6001836020036101000a038019825116818451168082178552505050505050905001915050908152602001604051809103902060009054906101000a900473ffffffffffffffffffffffffffffffffffffffff16905092915050565b60006200152960008084815260200190815260200160002060000162001a27565b9050919050565b6200155a6000808481526020019081526020016000206002015462001554620018a1565b62000b13565b620015b1576040517f08c379a000000000000000000000000000000000000000000000000000000000815260040180806020018281038252603081526020018062003b9f6030913960400191505060405180910390fd5b620015bd828262001941565b5050565b7f000000000000000000000000000000000000000000000000000000000000000073ffffffffffffffffffffffffffffffffffffffff163373ffffffffffffffffffffffffffffffffffffffff161462001667576040517f08c379a000000000000000000000000000000000000000000000000000000000815260040180806020018281038252602781526020018062003bcf6027913960400191505060405180910390fd5b600060025414620016c4576040517f08c379a000000000000000000000000000000000000000000000000000000000815260040180806020018281038252603a81526020018062003bf6603a913960400191505060405180910390fd5b8073ffffffffffffffffffffffffffffffffffffffff16ff5b60606200172060405180807f4f52475f41444d494e5f524f4c45000000000000000000000000000000000000815250600e01905060405180910390203362000b13565b62001793576040517f08c379a000000000000000000000000000000000000000000000000000000000815260040180806020018281038252600d8152602001807f4163636573732044656e6965640000000000000000000000000000000000000081525060200191505060405180910390fd5b8160019080519060200190620017ab92919062001c99565b507f49f70bb4b6ed66b9a321296a4769c9c6a4d12810a3decfe1dfd22349d1d33e89600160405180806020018281038252838181546001816001161561010002031660029004815260200191508054600181600116156101000203166002900480156200185c5780601f1062001830576101008083540402835291602001916200185c565b820191906000526020600020905b8154815290600101906020018083116200183e57829003601f168201915b50509250505060405180910390a1919050565b600062001899836000018373ffffffffffffffffffffffffffffffffffffffff1660001b62001a3e565b905092915050565b600033905090565b620018d2816000808581526020019081526020016000206000016200186f90919063ffffffff16565b156200193d57620018e2620018a1565b73ffffffffffffffffffffffffffffffffffffffff168173ffffffffffffffffffffffffffffffffffffffff16837f2f8788117e7eff1d82e926ec794901d17c78024a50270940304540a733656f0d60405160405180910390a45b5050565b6200196a8160008085815260200190815260200160002060000162001ab290919063ffffffff16565b15620019d5576200197a620018a1565b73ffffffffffffffffffffffffffffffffffffffff168173ffffffffffffffffffffffffffffffffffffffff16837ff6391f5c32d9c69d2a47ea670b442974b53935d1edc7fd64eb21e047a839171b60405160405180910390a45b5050565b6000620019ea836000018362001ae4565b60001c905092915050565b600062001a1f836000018373ffffffffffffffffffffffffffffffffffffffff1660001b62001b6a565b905092915050565b600062001a378260000162001b8d565b9050919050565b600062001a4c838362001b6a565b62001aa757826000018290806001815401808255809150506001900390600052602060002001600090919091909150558260000180549050836001016000848152602001908152602001600020819055506001905062001aac565b600090505b92915050565b600062001adc836000018373ffffffffffffffffffffffffffffffffffffffff1660001b62001b9e565b905092915050565b60008183600001805490501162001b47576040517f08c379a000000000000000000000000000000000000000000000000000000000815260040180806020018281038252602281526020018062003b4e6022913960400191505060405180910390fd5b82600001828154811062001b5757fe5b9060005260206000200154905092915050565b600080836001016000848152602001908152602001600020541415905092915050565b600081600001805490509050919050565b6000808360010160008481526020019081526020016000205490506000811462001c7f576000600182039050600060018660000180549050039050600086600001828154811062001beb57fe5b906000526020600020015490508087600001848154811062001c0957fe5b906000526020600020018190555060018301876001016000838152602001908152602001600020819055508660000180548062001c4257fe5b6001900381819060005260206000200160009055905586600101600087815260200190815260200160002060009055600194505050505062001c85565b60009150505b92915050565b611e058062001d4983390190565b828054600181600116156101000203166002900490600052602060002090601f016020900481019282601f1062001cdc57805160ff191683800117855562001d0d565b8280016001018555821562001d0d579182015b8281111562001d0c57825182559160200191906001019062001cef565b5b50905062001d1c919062001d20565b5090565b62001d4591905b8082111562001d4157600081600090555060010162001d27565b5090565b9056fe60a06040523480156200001157600080fd5b5060405162001e0538038062001e05833981810160405260408110156200003757600080fd5b8101908080519060200190929190805160405193929190846401000000008211156200006257600080fd5b838201915060208201858111156200007957600080fd5b82518660018202830111640100000000821117156200009757600080fd5b8083526020830192505050908051906020019080838360005b83811015620000cd578082015181840152602081019050620000b0565b50505050905090810190601f168015620000fb5780820380516001836020036101000a031916815260200191505b506040525050503373ffffffffffffffffffffffffffffffffffffffff1660808173ffffffffffffffffffffffffffffffffffffffff1660601b815250506200018060405180807f5245504f5f41444d494e5f524f4c450000000000000000000000000000000000815250600f0190506040518091039020836200029960201b60201c565b620001fc60405180807f5245504f5f41444d494e5f524f4c450000000000000000000000000000000000815250600f019050604051809103902060405180807f5245504f5f41444d494e5f524f4c450000000000000000000000000000000000815250600f0190506040518091039020620002af60201b60201c565b6200027860405180807f5245504f5f4445565f524f4c4500000000000000000000000000000000000000815250600d019050604051809103902060405180807f5245504f5f41444d494e5f524f4c450000000000000000000000000000000000815250600f0190506040518091039020620002af60201b60201c565b80600190805190602001906200029092919062000491565b50505062000540565b620002ab82826200031160201b60201c565b5050565b8060008084815260200190815260200160002060020154837fbd79b86ffe0ab8e8776151514217cd7cacd52c909f66475c3af44e129f0b00ff60405160405180910390a480600080848152602001908152602001600020600201819055505050565b6200033f81600080858152602001908152602001600020600001620003b460201b620012f91790919060201c565b15620003b05762000355620003ec60201b60201c565b73ffffffffffffffffffffffffffffffffffffffff168173ffffffffffffffffffffffffffffffffffffffff16837f2f8788117e7eff1d82e926ec794901d17c78024a50270940304540a733656f0d60405160405180910390a45b5050565b6000620003e4836000018373ffffffffffffffffffffffffffffffffffffffff1660001b620003f460201b60201c565b905092915050565b600033905090565b60006200040883836200046e60201b60201c565b6200046357826000018290806001815401808255809150506001900390600052602060002001600090919091909150558260000180549050836001016000848152602001908152602001600020819055506001905062000468565b600090505b92915050565b600080836001016000848152602001908152602001600020541415905092915050565b828054600181600116156101000203166002900490600052602060002090601f016020900481019282601f10620004d457805160ff191683800117855562000505565b8280016001018555821562000505579182015b8281111562000504578251825591602001919060010190620004e7565b5b50905062000514919062000518565b5090565b6200053d91905b80821115620005395760008160009055506001016200051f565b5090565b90565b60805160601c6118a76200055e600039806108d352506118a76000f3fe608060405234801561001057600080fd5b50600436106100f55760003560e01c80639010d07c11610097578063d547741f11610066578063d547741f14610594578063e3eb62b3146105e2578063f1b67280146107cb578063fd70e1eb1461084e576100f5565b80639010d07c1461045657806391d14854146104ce578063a217fddf14610534578063ca15c87314610552576100f5565b806336568abe116100d357806336568abe146101ce57806351f910661461021c578063729aaabb1461029f5780637be0ca5e146103d3576100f5565b80631e19bf16146100fa578063248a9ca31461013e5780632f2ff15d14610180575b600080fd5b61013c6004803603602081101561011057600080fd5b81019080803573ffffffffffffffffffffffffffffffffffffffff1690602001909291905050506108d1565b005b61016a6004803603602081101561015457600080fd5b810190808035906020019092919050505061098e565b6040518082815260200191505060405180910390f35b6101cc6004803603604081101561019657600080fd5b8101908080359060200190929190803573ffffffffffffffffffffffffffffffffffffffff1690602001909291905050506109ad565b005b61021a600480360360408110156101e457600080fd5b8101908080359060200190929190803573ffffffffffffffffffffffffffffffffffffffff169060200190929190505050610a36565b005b610224610acf565b6040518080602001828103825283818151815260200191508051906020019080838360005b83811015610264578082015181840152602081019050610249565b50505050905090810190601f1680156102915780820380516001836020036101000a031916815260200191505b509250505060405180910390f35b610358600480360360208110156102b557600080fd5b81019080803590602001906401000000008111156102d257600080fd5b8201836020820111156102e457600080fd5b8035906020019184600183028401116401000000008311171561030657600080fd5b91908080601f016020809104026020016040519081016040528093929190818152602001838380828437600081840152601f19601f820116905080830192505050505050509192919290505050610b6d565b6040518080602001828103825283818151815260200191508051906020019080838360005b8381101561039857808201518184015260208101905061037d565b50505050905090810190601f1680156103c55780820380516001836020036101000a031916815260200191505b509250505060405180910390f35b6103db610cf6565b6040518080602001828103825283818151815260200191508051906020019080838360005b8381101561041b578082015181840152602081019050610400565b50505050905090810190601f1680156104485780820380516001836020036101000a031916815260200191505b509250505060405180910390f35b61048c6004803603604081101561046c57600080fd5b810190808035906020019092919080359060200190929190505050610d94565b604051808273ffffffffffffffffffffffffffffffffffffffff1673ffffffffffffffffffffffffffffffffffffffff16815260200191505060405180910390f35b61051a600480360360408110156104e457600080fd5b8101908080359060200190929190803573ffffffffffffffffffffffffffffffffffffffff169060200190929190505050610dc5565b604051808215151515815260200191505060405180910390f35b61053c610df6565b6040518082815260200191505060405180910390f35b61057e6004803603602081101561056857600080fd5b8101908080359060200190929190505050610dfd565b6040518082815260200191505060405180910390f35b6105e0600480360360408110156105aa57600080fd5b8101908080359060200190929190803573ffffffffffffffffffffffffffffffffffffffff169060200190929190505050610e23565b005b6107c9600480360360608110156105f857600080fd5b810190808035906020019064010000000081111561061557600080fd5b82018360208201111561062757600080fd5b8035906020019184600183028401116401000000008311171561064957600080fd5b91908080601f016020809104026020016040519081016040528093929190818152602001838380828437600081840152601f19601f820116905080830192505050505050509192919290803590602001906401000000008111156106ac57600080fd5b8201836020820111156106be57600080fd5b803590602001918460018302840111640100000000831117156106e057600080fd5b91908080601f016020809104026020016040519081016040528093929190818152602001838380828437600081840152601f19601f8201169050808301925050505050505091929192908035906020019064010000000081111561074357600080fd5b82018360208201111561075557600080fd5b8035906020019184600183028401116401000000008311171561077757600080fd5b91908080601f016020809104026020016040519081016040528093929190818152602001838380828437600081840152601f19601f820116905080830192505050505050509192919290505050610eac565b005b6107d36111bd565b6040518080602001828103825283818151815260200191508051906020019080838360005b838110156108135780820151818401526020810190506107f8565b50505050905090810190601f1680156108405780820380516001836020036101000a031916815260200191505b509250505060405180910390f35b61085661125b565b6040518080602001828103825283818151815260200191508051906020019080838360005b8381101561089657808201518184015260208101905061087b565b50505050905090810190601f1680156108c35780820380516001836020036101000a031916815260200191505b509250505060405180910390f35b7f000000000000000000000000000000000000000000000000000000000000000073ffffffffffffffffffffffffffffffffffffffff163373ffffffffffffffffffffffffffffffffffffffff1614610975576040517f08c379a000000000000000000000000000000000000000000000000000000000815260040180806020018281038252602781526020018061181c6027913960400191505060405180910390fd5b8073ffffffffffffffffffffffffffffffffffffffff16ff5b6000806000838152602001908152602001600020600201549050919050565b6109d3600080848152602001908152602001600020600201546109ce611329565b610dc5565b610a28576040517f08c379a000000000000000000000000000000000000000000000000000000000815260040180806020018281038252602f8152602001806117bd602f913960400191505060405180910390fd5b610a328282611331565b5050565b610a3e611329565b73ffffffffffffffffffffffffffffffffffffffff168173ffffffffffffffffffffffffffffffffffffffff1614610ac1576040517f08c379a000000000000000000000000000000000000000000000000000000000815260040180806020018281038252602f815260200180611843602f913960400191505060405180910390fd5b610acb82826113c4565b5050565b60048054600181600116156101000203166002900480601f016020809104026020016040519081016040528092919081815260200182805460018160011615610100020316600290048015610b655780601f10610b3a57610100808354040283529160200191610b65565b820191906000526020600020905b815481529060010190602001808311610b4857829003601f168201915b505050505081565b6060610bae60405180807f5245504f5f41444d494e5f524f4c450000000000000000000000000000000000815250600f019050604051809103902033610dc5565b610c20576040517f08c379a000000000000000000000000000000000000000000000000000000000815260040180806020018281038252600d8152602001807f4163636573732044656e6965640000000000000000000000000000000000000081525060200191505060405180910390fd5b8160019080519060200190610c369291906116f5565b507f49f70bb4b6ed66b9a321296a4769c9c6a4d12810a3decfe1dfd22349d1d33e8960016040518080602001828103825283818154600181600116156101000203166002900481526020019150805460018160011615610100020316600290048015610ce35780601f10610cb857610100808354040283529160200191610ce3565b820191906000526020600020905b815481529060010190602001808311610cc657829003601f168201915b50509250505060405180910390a1919050565b60038054600181600116156101000203166002900480601f016020809104026020016040519081016040528092919081815260200182805460018160011615610100020316600290048015610d8c5780601f10610d6157610100808354040283529160200191610d8c565b820191906000526020600020905b815481529060010190602001808311610d6f57829003601f168201915b505050505081565b6000610dbd8260008086815260200190815260200160002060000161145790919063ffffffff16565b905092915050565b6000610dee8260008086815260200190815260200160002060000161147190919063ffffffff16565b905092915050565b6000801b81565b6000610e1c6000808481526020019081526020016000206000016114a1565b9050919050565b610e4960008084815260200190815260200160002060020154610e44611329565b610dc5565b610e9e576040517f08c379a00000000000000000000000000000000000000000000000000000000081526004018080602001828103825260308152602001806117ec6030913960400191505060405180910390fd5b610ea882826113c4565b5050565b610eeb60405180807f5245504f5f41444d494e5f524f4c450000000000000000000000000000000000815250600f019050604051809103902033610dc5565b80610f315750610f3060405180807f5245504f5f4445565f524f4c4500000000000000000000000000000000000000815250600d019050604051809103902033610dc5565b5b610fa3576040517f08c379a000000000000000000000000000000000000000000000000000000000815260040180806020018281038252600d8152602001807f4163636573732044656e6965640000000000000000000000000000000000000081525060200191505060405180910390fd5b8260049080519060200190610fb99291906116f5565b508160039080519060200190610fd09291906116f5565b508060029080519060200190610fe79291906116f5565b507f2d2d83c3dac53b62d36f5b85deddddbebad836aaf9428962b32d037f3e09e158600460036002604051808060200180602001806020018481038452878181546001816001161561010002031660029004815260200191508054600181600116156101000203166002900480156110a05780601f10611075576101008083540402835291602001916110a0565b820191906000526020600020905b81548152906001019060200180831161108357829003601f168201915b50508481038352868181546001816001161561010002031660029004815260200191508054600181600116156101000203166002900480156111235780601f106110f857610100808354040283529160200191611123565b820191906000526020600020905b81548152906001019060200180831161110657829003601f168201915b50508481038252858181546001816001161561010002031660029004815260200191508054600181600116156101000203166002900480156111a65780601f1061117b576101008083540402835291602001916111a6565b820191906000526020600020905b81548152906001019060200180831161118957829003601f168201915b5050965050505050505060405180910390a1505050565b60018054600181600116156101000203166002900480601f0160208091040260200160405190810160405280929190818152602001828054600181600116156101000203166002900480156112535780601f1061122857610100808354040283529160200191611253565b820191906000526020600020905b81548152906001019060200180831161123657829003601f168201915b505050505081565b60028054600181600116156101000203166002900480601f0160208091040260200160405190810160405280929190818152602001828054600181600116156101000203166002900480156112f15780601f106112c6576101008083540402835291602001916112f1565b820191906000526020600020905b8154815290600101906020018083116112d457829003601f168201915b505050505081565b6000611321836000018373ffffffffffffffffffffffffffffffffffffffff1660001b6114b6565b905092915050565b600033905090565b611358816000808581526020019081526020016000206000016112f990919063ffffffff16565b156113c057611365611329565b73ffffffffffffffffffffffffffffffffffffffff168173ffffffffffffffffffffffffffffffffffffffff16837f2f8788117e7eff1d82e926ec794901d17c78024a50270940304540a733656f0d60405160405180910390a45b5050565b6113eb8160008085815260200190815260200160002060000161152690919063ffffffff16565b15611453576113f8611329565b73ffffffffffffffffffffffffffffffffffffffff168173ffffffffffffffffffffffffffffffffffffffff16837ff6391f5c32d9c69d2a47ea670b442974b53935d1edc7fd64eb21e047a839171b60405160405180910390a45b5050565b60006114668360000183611556565b60001c905092915050565b6000611499836000018373ffffffffffffffffffffffffffffffffffffffff1660001b6115d9565b905092915050565b60006114af826000016115fc565b9050919050565b60006114c283836115d9565b61151b578260000182908060018154018082558091505060019003906000526020600020016000909190919091505582600001805490508360010160008481526020019081526020016000208190555060019050611520565b600090505b92915050565b600061154e836000018373ffffffffffffffffffffffffffffffffffffffff1660001b61160d565b905092915050565b6000818360000180549050116115b7576040517f08c379a000000000000000000000000000000000000000000000000000000000815260040180806020018281038252602281526020018061179b6022913960400191505060405180910390fd5b8260000182815481106115c657fe5b9060005260206000200154905092915050565b600080836001016000848152602001908152602001600020541415905092915050565b600081600001805490509050919050565b600080836001016000848152602001908152602001600020549050600081146116e9576000600182039050600060018660000180549050039050600086600001828154811061165857fe5b906000526020600020015490508087600001848154811061167557fe5b90600052602060002001819055506001830187600101600083815260200190815260200160002081905550866000018054806116ad57fe5b600190038181906000526020600020016000905590558660010160008781526020019081526020016000206000905560019450505050506116ef565b60009150505b92915050565b828054600181600116156101000203166002900490600052602060002090601f016020900481019282601f1061173657805160ff1916838001178555611764565b82800160010185558215611764579182015b82811115611763578251825591602001919060010190611748565b5b5090506117719190611775565b5090565b61179791905b8082111561179357600081600090555060010161177b565b5090565b9056fe456e756d657261626c655365743a20696e646578206f7574206f6620626f756e6473416363657373436f6e74726f6c3a2073656e646572206d75737420626520616e2061646d696e20746f206772616e74416363657373436f6e74726f6c3a2073656e646572206d75737420626520616e2061646d696e20746f207265766f6b6543616e206f6e6c792062652063616c6c65642066726f6d20706172656e7420636f6e7472616374416363657373436f6e74726f6c3a2063616e206f6e6c792072656e6f756e636520726f6c657320666f722073656c66a264697066735822122027385076b3ac7cf6b954f5ca5c19ffff66d5ddc27c6c963e1b9fe0f9e9b22f5964736f6c634300060b0033456e756d657261626c655365743a20696e646578206f7574206f6620626f756e6473416363657373436f6e74726f6c3a2073656e646572206d75737420626520616e2061646d696e20746f206772616e74416363657373436f6e74726f6c3a2073656e646572206d75737420626520616e2061646d696e20746f207265766f6b6543616e206f6e6c792062652063616c6c65642066726f6d20706172656e7420636f6e7472616374596f75206d7573742064656c65746520616c6c207265706f73206265666f72652064656c6574696e6720746865206f7267616e697a6174696f6e416363657373436f6e74726f6c3a2063616e206f6e6c792072656e6f756e636520726f6c657320666f722073656c66a26469706673582212208c6b027eb35770a7a17dbf7dc0c91db86a42a46013ce30dacba48056abeb7cb464736f6c634300060b0033",
  "immutableReferences": {
    "160": [
      {
        "length": 32,
        "start": 5571
      }
    ]
  },
  "source": "// SPDX-License-Identifier: MIT\npragma solidity >=0.4.21 <0.7.0;\n\nimport \"@openzeppelin/contracts/access/AccessControl.sol\";\nimport \"./ValistRepository.sol\";\n\ncontract ValistOrganization is AccessControl {\n\n    bytes32 constant ORG_ADMIN = keccak256(\"ORG_ADMIN_ROLE\");\n    bytes32 constant REPO_ADMIN = keccak256(\"REPO_ADMIN_ROLE\");\n\n    address immutable deployer;\n\n    string public orgMeta; // org metadata (full name, image, description, etc)\n\n    uint internal repoCount;\n\n    event MetaUpdated(string orgMeta);\n\n    event RepositoryCreated(string repoName, string repoMeta);\n\n    event RepositoryDeleted(string repoName);\n\n    mapping(string => ValistRepository) public repos;\n\n    modifier admin() {\n        require(hasRole(ORG_ADMIN, msg.sender), \"Access Denied\");\n        _;\n    }\n\n    constructor(address _admin, string memory _orgMeta) public {\n        deployer = msg.sender;\n\n        _setupRole(ORG_ADMIN, _admin);\n        _setRoleAdmin(ORG_ADMIN, ORG_ADMIN);\n\n        orgMeta = _orgMeta;\n    }\n\n    function createRepository(string memory _repoName, string memory _repoMeta) public admin returns(address) {\n        require(address(repos[_repoName]) == address(0), \"Repo exists\");\n\n        repos[_repoName] = new ValistRepository(msg.sender, _repoMeta);\n\n        repoCount++;\n\n        emit RepositoryCreated(_repoName, _repoMeta);\n\n        return address(repos[_repoName]);\n    }\n\n    function updateOrgMeta(string memory _orgMeta) public admin returns (string memory) {\n        orgMeta = _orgMeta;\n\n        emit MetaUpdated(orgMeta);\n    }\n\n    function deleteRepository(string memory _repoName) public {\n        require(repos[_repoName].hasRole(REPO_ADMIN, msg.sender), \"Access Denied\");\n\n        repos[_repoName]._deleteRepository(msg.sender); // will fail if does not exist, no need for safemath on repoCount\n\n        delete repos[_repoName];\n\n        repoCount--;\n\n        emit RepositoryDeleted(_repoName);\n    }\n\n    function _deleteOrganization(address payable _admin) external {\n        require(msg.sender == deployer, \"Can only be called from parent contract\");\n        require(repoCount == 0, \"You must delete all repos before deleting the organization\");\n\n        selfdestruct(_admin);\n    }\n\n}\n",
  "sourcePath": "/Users/zach/Development/valist/eth/contracts/ValistOrganization.sol",
  "compiler": {
    "name": "solc",
    "version": "0.6.11+commit.5ef660b1.Emscripten.clang"
  },
  "schemaVersion": "3.3.1",
  "updatedAt": "2020-11-01T02:01:42.385Z",
  "devdoc": {
    "kind": "dev",
    "methods": {
      "getRoleAdmin(bytes32)": {
        "details": "Returns the admin role that controls `role`. See {grantRole} and {revokeRole}. To change a role's admin, use {_setRoleAdmin}."
      },
      "getRoleMember(bytes32,uint256)": {
        "details": "Returns one of the accounts that have `role`. `index` must be a value between 0 and {getRoleMemberCount}, non-inclusive. Role bearers are not sorted in any particular way, and their ordering may change at any point. WARNING: When using {getRoleMember} and {getRoleMemberCount}, make sure you perform all queries on the same block. See the following https://forum.openzeppelin.com/t/iterating-over-elements-on-enumerableset-in-openzeppelin-contracts/2296[forum post] for more information."
      },
      "getRoleMemberCount(bytes32)": {
        "details": "Returns the number of accounts that have `role`. Can be used together with {getRoleMember} to enumerate all bearers of a role."
      },
      "grantRole(bytes32,address)": {
        "details": "Grants `role` to `account`. If `account` had not been already granted `role`, emits a {RoleGranted} event. Requirements: - the caller must have ``role``'s admin role."
      },
      "hasRole(bytes32,address)": {
        "details": "Returns `true` if `account` has been granted `role`."
      },
      "renounceRole(bytes32,address)": {
        "details": "Revokes `role` from the calling account. Roles are often managed via {grantRole} and {revokeRole}: this function's purpose is to provide a mechanism for accounts to lose their privileges if they are compromised (such as when a trusted device is misplaced). If the calling account had been granted `role`, emits a {RoleRevoked} event. Requirements: - the caller must be `account`."
      },
      "revokeRole(bytes32,address)": {
        "details": "Revokes `role` from `account`. If `account` had been granted `role`, emits a {RoleRevoked} event. Requirements: - the caller must have ``role``'s admin role."
      }
    },
    "version": 1
  },
  "userdoc": {
    "kind": "user",
    "methods": {},
    "version": 1
  }
}