{
    "contractName": "Valist",
    "abi": [
        {
            "anonymous": false,
            "inputs": [
                {
                    "indexed": false,
                    "internalType": "address",
                    "name": "userAddress",
                    "type": "address"
                },
                {
                    "indexed": false,
                    "internalType": "address payable",
                    "name": "relayerAddress",
                    "type": "address"
                },
                {
                    "indexed": false,
                    "internalType": "bytes",
                    "name": "functionSignature",
                    "type": "bytes"
                }
            ],
            "name": "MetaTransactionExecuted",
            "type": "event"
        },
        {
            "inputs": [
                {
                    "internalType": "address",
                    "name": "userAddress",
                    "type": "address"
                },
                {
                    "internalType": "bytes",
                    "name": "functionSignature",
                    "type": "bytes"
                },
                {
                    "internalType": "bytes32",
                    "name": "sigR",
                    "type": "bytes32"
                },
                {
                    "internalType": "bytes32",
                    "name": "sigS",
                    "type": "bytes32"
                },
                {
                    "internalType": "uint8",
                    "name": "sigV",
                    "type": "uint8"
                }
            ],
            "name": "executeMetaTransaction",
            "outputs": [
                {
                    "internalType": "bytes",
                    "name": "",
                    "type": "bytes"
                }
            ],
            "stateMutability": "payable",
            "type": "function",
            "payable": true
        },
        {
            "inputs": [
                {
                    "internalType": "address",
                    "name": "user",
                    "type": "address"
                }
            ],
            "name": "getNonce",
            "outputs": [
                {
                    "internalType": "uint256",
                    "name": "nonce",
                    "type": "uint256"
                }
            ],
            "stateMutability": "view",
            "type": "function",
            "constant": true
        },
        {
            "inputs": [
                {
                    "internalType": "uint256",
                    "name": "",
                    "type": "uint256"
                }
            ],
            "name": "orgNames",
            "outputs": [
                {
                    "internalType": "string",
                    "name": "",
                    "type": "string"
                }
            ],
            "stateMutability": "view",
            "type": "function",
            "constant": true
        },
        {
            "inputs": [
                {
                    "internalType": "string",
                    "name": "",
                    "type": "string"
                }
            ],
            "name": "orgs",
            "outputs": [
                {
                    "internalType": "uint256",
                    "name": "index",
                    "type": "uint256"
                },
                {
                    "internalType": "string",
                    "name": "metaCID",
                    "type": "string"
                }
            ],
            "stateMutability": "view",
            "type": "function",
            "constant": true
        },
        {
            "inputs": [
                {
                    "internalType": "string",
                    "name": "_orgName",
                    "type": "string"
                },
                {
                    "internalType": "address",
                    "name": "_address",
                    "type": "address"
                }
            ],
            "name": "isOrgOwner",
            "outputs": [
                {
                    "internalType": "bool",
                    "name": "",
                    "type": "bool"
                }
            ],
            "stateMutability": "view",
            "type": "function",
            "constant": true
        },
        {
            "inputs": [
                {
                    "internalType": "string",
                    "name": "_orgName",
                    "type": "string"
                },
                {
                    "internalType": "address",
                    "name": "_address",
                    "type": "address"
                }
            ],
            "name": "isOrgAdmin",
            "outputs": [
                {
                    "internalType": "bool",
                    "name": "",
                    "type": "bool"
                }
            ],
            "stateMutability": "view",
            "type": "function",
            "constant": true
        },
        {
            "inputs": [
                {
                    "internalType": "string",
                    "name": "_orgName",
                    "type": "string"
                },
                {
                    "internalType": "string",
                    "name": "_repoName",
                    "type": "string"
                },
                {
                    "internalType": "address",
                    "name": "_address",
                    "type": "address"
                }
            ],
            "name": "isRepoAdmin",
            "outputs": [
                {
                    "internalType": "bool",
                    "name": "",
                    "type": "bool"
                }
            ],
            "stateMutability": "view",
            "type": "function",
            "constant": true
        },
        {
            "inputs": [
                {
                    "internalType": "string",
                    "name": "_orgName",
                    "type": "string"
                },
                {
                    "internalType": "string",
                    "name": "_repoName",
                    "type": "string"
                },
                {
                    "internalType": "address",
                    "name": "_address",
                    "type": "address"
                }
            ],
            "name": "isRepoDev",
            "outputs": [
                {
                    "internalType": "bool",
                    "name": "",
                    "type": "bool"
                }
            ],
            "stateMutability": "view",
            "type": "function",
            "constant": true
        },
        {
            "inputs": [
                {
                    "internalType": "string",
                    "name": "_orgName",
                    "type": "string"
                },
                {
                    "internalType": "address",
                    "name": "_address",
                    "type": "address"
                }
            ],
            "name": "grantOrgOwner",
            "outputs": [],
            "stateMutability": "nonpayable",
            "type": "function"
        },
        {
            "inputs": [
                {
                    "internalType": "string",
                    "name": "_orgName",
                    "type": "string"
                },
                {
                    "internalType": "address",
                    "name": "_address",
                    "type": "address"
                }
            ],
            "name": "revokeOrgOwner",
            "outputs": [],
            "stateMutability": "nonpayable",
            "type": "function"
        },
        {
            "inputs": [
                {
                    "internalType": "string",
                    "name": "_orgName",
                    "type": "string"
                },
                {
                    "internalType": "address",
                    "name": "_address",
                    "type": "address"
                }
            ],
            "name": "grantOrgAdmin",
            "outputs": [],
            "stateMutability": "nonpayable",
            "type": "function"
        },
        {
            "inputs": [
                {
                    "internalType": "string",
                    "name": "_orgName",
                    "type": "string"
                },
                {
                    "internalType": "address",
                    "name": "_address",
                    "type": "address"
                }
            ],
            "name": "revokeOrgAdmin",
            "outputs": [],
            "stateMutability": "nonpayable",
            "type": "function"
        },
        {
            "inputs": [
                {
                    "internalType": "string",
                    "name": "_orgName",
                    "type": "string"
                },
                {
                    "internalType": "string",
                    "name": "_repoName",
                    "type": "string"
                },
                {
                    "internalType": "address",
                    "name": "_address",
                    "type": "address"
                }
            ],
            "name": "grantRepoAdmin",
            "outputs": [],
            "stateMutability": "nonpayable",
            "type": "function"
        },
        {
            "inputs": [
                {
                    "internalType": "string",
                    "name": "_orgName",
                    "type": "string"
                },
                {
                    "internalType": "string",
                    "name": "_repoName",
                    "type": "string"
                },
                {
                    "internalType": "address",
                    "name": "_address",
                    "type": "address"
                }
            ],
            "name": "revokeRepoAdmin",
            "outputs": [],
            "stateMutability": "nonpayable",
            "type": "function"
        },
        {
            "inputs": [
                {
                    "internalType": "string",
                    "name": "_orgName",
                    "type": "string"
                },
                {
                    "internalType": "string",
                    "name": "_repoName",
                    "type": "string"
                },
                {
                    "internalType": "address",
                    "name": "_address",
                    "type": "address"
                }
            ],
            "name": "grantRepoDev",
            "outputs": [],
            "stateMutability": "nonpayable",
            "type": "function"
        },
        {
            "inputs": [
                {
                    "internalType": "string",
                    "name": "_orgName",
                    "type": "string"
                },
                {
                    "internalType": "string",
                    "name": "_repoName",
                    "type": "string"
                },
                {
                    "internalType": "address",
                    "name": "_address",
                    "type": "address"
                }
            ],
            "name": "revokeRepoDev",
            "outputs": [],
            "stateMutability": "nonpayable",
            "type": "function"
        },
        {
            "inputs": [
                {
                    "internalType": "string",
                    "name": "_orgName",
                    "type": "string"
                }
            ],
            "name": "getOrgOwners",
            "outputs": [
                {
                    "internalType": "address[]",
                    "name": "",
                    "type": "address[]"
                }
            ],
            "stateMutability": "view",
            "type": "function",
            "constant": true
        },
        {
            "inputs": [
                {
                    "internalType": "string",
                    "name": "_orgName",
                    "type": "string"
                }
            ],
            "name": "getOrgAdmins",
            "outputs": [
                {
                    "internalType": "address[]",
                    "name": "",
                    "type": "address[]"
                }
            ],
            "stateMutability": "view",
            "type": "function",
            "constant": true
        },
        {
            "inputs": [
                {
                    "internalType": "string",
                    "name": "_orgName",
                    "type": "string"
                },
                {
                    "internalType": "string",
                    "name": "_repoName",
                    "type": "string"
                }
            ],
            "name": "getRepoAdmins",
            "outputs": [
                {
                    "internalType": "address[]",
                    "name": "",
                    "type": "address[]"
                }
            ],
            "stateMutability": "view",
            "type": "function",
            "constant": true
        },
        {
            "inputs": [
                {
                    "internalType": "string",
                    "name": "_orgName",
                    "type": "string"
                },
                {
                    "internalType": "string",
                    "name": "_repoName",
                    "type": "string"
                }
            ],
            "name": "getRepoDevs",
            "outputs": [
                {
                    "internalType": "address[]",
                    "name": "",
                    "type": "address[]"
                }
            ],
            "stateMutability": "view",
            "type": "function",
            "constant": true
        },
        {
            "inputs": [],
            "name": "getOrgCount",
            "outputs": [
                {
                    "internalType": "uint256",
                    "name": "",
                    "type": "uint256"
                }
            ],
            "stateMutability": "view",
            "type": "function",
            "constant": true
        },
        {
            "inputs": [],
            "name": "getOrgNames",
            "outputs": [
                {
                    "internalType": "string[]",
                    "name": "",
                    "type": "string[]"
                }
            ],
            "stateMutability": "view",
            "type": "function",
            "constant": true
        },
        {
            "inputs": [
                {
                    "internalType": "string",
                    "name": "_orgName",
                    "type": "string"
                }
            ],
            "name": "getOrganization",
            "outputs": [
                {
                    "internalType": "string",
                    "name": "",
                    "type": "string"
                },
                {
                    "internalType": "string[]",
                    "name": "",
                    "type": "string[]"
                }
            ],
            "stateMutability": "view",
            "type": "function",
            "constant": true
        },
        {
            "inputs": [
                {
                    "internalType": "string",
                    "name": "_orgName",
                    "type": "string"
                }
            ],
            "name": "getOrgMeta",
            "outputs": [
                {
                    "internalType": "string",
                    "name": "",
                    "type": "string"
                }
            ],
            "stateMutability": "view",
            "type": "function",
            "constant": true
        },
        {
            "inputs": [
                {
                    "internalType": "string",
                    "name": "_orgName",
                    "type": "string"
                },
                {
                    "internalType": "string",
                    "name": "_orgMeta",
                    "type": "string"
                }
            ],
            "name": "setOrgMeta",
            "outputs": [],
            "stateMutability": "nonpayable",
            "type": "function"
        },
        {
            "inputs": [
                {
                    "internalType": "string",
                    "name": "_orgName",
                    "type": "string"
                },
                {
                    "internalType": "string",
                    "name": "_orgMeta",
                    "type": "string"
                }
            ],
            "name": "createOrganization",
            "outputs": [],
            "stateMutability": "nonpayable",
            "type": "function"
        },
        {
            "inputs": [
                {
                    "internalType": "string",
                    "name": "_orgName",
                    "type": "string"
                }
            ],
            "name": "getRepoNames",
            "outputs": [
                {
                    "internalType": "string[]",
                    "name": "",
                    "type": "string[]"
                }
            ],
            "stateMutability": "view",
            "type": "function",
            "constant": true
        },
        {
            "inputs": [
                {
                    "internalType": "string",
                    "name": "_orgName",
                    "type": "string"
                },
                {
                    "internalType": "string",
                    "name": "_repoName",
                    "type": "string"
                }
            ],
            "name": "getRepository",
            "outputs": [
                {
                    "internalType": "string",
                    "name": "",
                    "type": "string"
                },
                {
                    "internalType": "string[]",
                    "name": "",
                    "type": "string[]"
                }
            ],
            "stateMutability": "view",
            "type": "function",
            "constant": true
        },
        {
            "inputs": [
                {
                    "internalType": "string",
                    "name": "_orgName",
                    "type": "string"
                },
                {
                    "internalType": "string",
                    "name": "_repoName",
                    "type": "string"
                }
            ],
            "name": "getRepoMeta",
            "outputs": [
                {
                    "internalType": "string",
                    "name": "",
                    "type": "string"
                }
            ],
            "stateMutability": "view",
            "type": "function",
            "constant": true
        },
        {
            "inputs": [
                {
                    "internalType": "string",
                    "name": "_orgName",
                    "type": "string"
                },
                {
                    "internalType": "string",
                    "name": "_repoName",
                    "type": "string"
                },
                {
                    "internalType": "string",
                    "name": "_repoMeta",
                    "type": "string"
                }
            ],
            "name": "setRepoMeta",
            "outputs": [],
            "stateMutability": "nonpayable",
            "type": "function"
        },
        {
            "inputs": [
                {
                    "internalType": "string",
                    "name": "_orgName",
                    "type": "string"
                },
                {
                    "internalType": "string",
                    "name": "_repoName",
                    "type": "string"
                },
                {
                    "internalType": "string",
                    "name": "_repoMeta",
                    "type": "string"
                }
            ],
            "name": "createRepository",
            "outputs": [],
            "stateMutability": "nonpayable",
            "type": "function"
        },
        {
            "inputs": [
                {
                    "internalType": "string",
                    "name": "_orgName",
                    "type": "string"
                },
                {
                    "internalType": "string",
                    "name": "_repoName",
                    "type": "string"
                }
            ],
            "name": "getLatestTag",
            "outputs": [
                {
                    "internalType": "string",
                    "name": "",
                    "type": "string"
                }
            ],
            "stateMutability": "view",
            "type": "function",
            "constant": true
        },
        {
            "inputs": [
                {
                    "internalType": "string",
                    "name": "_orgName",
                    "type": "string"
                },
                {
                    "internalType": "string",
                    "name": "_repoName",
                    "type": "string"
                }
            ],
            "name": "getReleaseTags",
            "outputs": [
                {
                    "internalType": "string[]",
                    "name": "",
                    "type": "string[]"
                }
            ],
            "stateMutability": "view",
            "type": "function",
            "constant": true
        },
        {
            "inputs": [
                {
                    "internalType": "string",
                    "name": "_orgName",
                    "type": "string"
                },
                {
                    "internalType": "string",
                    "name": "_repoName",
                    "type": "string"
                },
                {
                    "internalType": "string",
                    "name": "_tag",
                    "type": "string"
                }
            ],
            "name": "getRelease",
            "outputs": [
                {
                    "components": [
                        {
                            "internalType": "string",
                            "name": "releaseCID",
                            "type": "string"
                        },
                        {
                            "internalType": "string",
                            "name": "metaCID",
                            "type": "string"
                        }
                    ],
                    "internalType": "struct Valist.Release",
                    "name": "",
                    "type": "tuple"
                }
            ],
            "stateMutability": "view",
            "type": "function",
            "constant": true
        },
        {
            "inputs": [
                {
                    "internalType": "string",
                    "name": "_orgName",
                    "type": "string"
                },
                {
                    "internalType": "string",
                    "name": "_repoName",
                    "type": "string"
                }
            ],
            "name": "getLatestRelease",
            "outputs": [
                {
                    "components": [
                        {
                            "internalType": "string",
                            "name": "releaseCID",
                            "type": "string"
                        },
                        {
                            "internalType": "string",
                            "name": "metaCID",
                            "type": "string"
                        }
                    ],
                    "internalType": "struct Valist.Release",
                    "name": "",
                    "type": "tuple"
                }
            ],
            "stateMutability": "view",
            "type": "function",
            "constant": true
        },
        {
            "inputs": [
                {
                    "internalType": "string",
                    "name": "_orgName",
                    "type": "string"
                },
                {
                    "internalType": "string",
                    "name": "_repoName",
                    "type": "string"
                },
                {
                    "internalType": "string",
                    "name": "_tag",
                    "type": "string"
                },
                {
                    "internalType": "string",
                    "name": "_releaseCID",
                    "type": "string"
                },
                {
                    "internalType": "string",
                    "name": "_metaCID",
                    "type": "string"
                }
            ],
            "name": "publishRelease",
            "outputs": [],
            "stateMutability": "nonpayable",
            "type": "function"
        },
        {
            "inputs": [
                {
                    "internalType": "string",
                    "name": "_orgName",
                    "type": "string"
                },
                {
                    "internalType": "string",
                    "name": "_repoName",
                    "type": "string"
                }
            ],
            "name": "deleteRepository",
            "outputs": [],
            "stateMutability": "nonpayable",
            "type": "function"
        },
        {
            "inputs": [
                {
                    "internalType": "string",
                    "name": "_orgName",
                    "type": "string"
                }
            ],
            "name": "deleteOrganization",
            "outputs": [],
            "stateMutability": "nonpayable",
            "type": "function"
        }
    ],
    "bytecode": "0x60806040523480156200001157600080fd5b506040518060400160405280600681526020016515985b1a5cdd60d21b815250604051806040016040528060018152602001600360fc1b81525060405180608001604052806052815260200162003a936052913980519060200120828051906020012082805190602001206200008c620000d960201b60201c565b6040805160208082019690965280820194909452606084019290925260808301523060a0808401919091528151808403909101815260c09092019052805191012060015550620000dd9050565b4690565b6139a680620000ed6000396000f3fe6080604052600436106102255760003560e01c80636208808811610123578063a411ef20116100ab578063d2a636d51161006f578063d2a636d5146106a7578063de4dbe59146106c7578063e37803ff146106e7578063f855f64814610707578063ff941e231461071c57610225565b8063a411ef20146105fa578063b694b70f1461061a578063b8ac0d941461063a578063c2f1fde11461065a578063c8be2de41461068757610225565b806378b218b0116100f257806378b218b01461054d5780638a5905fc1461056d5780638babebff1461058d5780639668be42146105ba5780639972a015146105da57610225565b806362088088146104cd578063683324bf146104ed5780636e9a553d1461050d57806377ac2fd91461052d57610225565b806334cb406b116101b15780634c37c6c7116101755780634c37c6c71461042d57806350215f531461044d5780635bb442411461046d5780635cdf64e81461048d57806361fe59d4146104ad57610225565b806334cb406b14610380578063375aa7e2146103a05780633a20f69b146103c05780633c733e6f146103ed578063419d315f1461040d57610225565b806316006353116101f857806316006353146102c35780631a8550c8146102f157806323d262531461031157806326883ba3146103335780632d0335ab1461036057610225565b8063067816ea1461022a5780630740432c146102615780630c53c51c14610283578063159003f1146102a3575b600080fd5b34801561023657600080fd5b5061024a6102453660046132b1565b61073c565b6040516102589291906137e8565b60405180910390f35b34801561026d57600080fd5b5061028161027c3660046132e4565b6107ee565b005b610296610291366004613225565b610878565b60405161025891906136e3565b3480156102af57600080fd5b506102816102be3660046132e4565b610bd5565b3480156102cf57600080fd5b506102e36102de366004613330565b610c50565b6040516102589291906136f6565b3480156102fd57600080fd5b5061028161030c366004613330565b610e38565b34801561031d57600080fd5b5061032661100c565b60405161025891906137df565b34801561033f57600080fd5b5061035361034e3660046132b1565b611013565b6040516102589190613678565b34801561036c57600080fd5b5061032661037b36600461320b565b6110fa565b34801561038c57600080fd5b5061028161039b366004613391565b611115565b3480156103ac57600080fd5b506102e36103bb3660046132b1565b6111af565b3480156103cc57600080fd5b506103e06103db3660046132e4565b611357565b60405161025891906136d8565b3480156103f957600080fd5b50610281610408366004613402565b6113b4565b34801561041957600080fd5b50610296610428366004613330565b6114e3565b34801561043957600080fd5b50610281610448366004613330565b6115d8565b34801561045957600080fd5b50610353610468366004613330565b611636565b34801561047957600080fd5b50610296610488366004613552565b61173b565b34801561049957600080fd5b506103536104a83660046132b1565b6117e4565b3480156104b957600080fd5b506102966104c8366004613330565b6118c1565b3480156104d957600080fd5b506102816104e8366004613391565b611993565b3480156104f957600080fd5b506102816105083660046132e4565b611a2d565b34801561051957600080fd5b506102966105283660046132b1565b611aa8565b34801561053957600080fd5b506103e0610548366004613391565b611b5a565b34801561055957600080fd5b50610281610568366004613391565b611be5565b34801561057957600080fd5b506103e0610588366004613391565b611c89565b34801561059957600080fd5b506105ad6105a8366004613402565b611d0d565b60405161025891906137a6565b3480156105c657600080fd5b506102816105d5366004613402565b611eb0565b3480156105e657600080fd5b506102816105f53660046132b1565b611f2f565b34801561060657600080fd5b50610281610615366004613330565b61204c565b34801561062657600080fd5b50610281610635366004613486565b612166565b34801561064657600080fd5b50610281610655366004613391565b612339565b34801561066657600080fd5b5061067a610675366004613330565b6123d5565b60405161025891906136c5565b34801561069357600080fd5b506103536106a2366004613330565b6124ee565b3480156106b357600080fd5b5061067a6106c23660046132b1565b6125ea565b3480156106d357600080fd5b506102816106e23660046132e4565b6126e3565b3480156106f357600080fd5b506105ad610702366004613330565b61275e565b34801561071357600080fd5b5061067a612961565b34801561072857600080fd5b506103e06107373660046132e4565b612a39565b805160208183018101805160038252928201938201939093209190925280546001808301805460408051600294831615610100026000190190921693909304601f810187900487028201870190935282815292949091908301828280156107e45780601f106107b9576101008083540402835291602001916107e4565b820191906000526020600020905b8154815290600101906020018083116107c757829003601f168201915b5050505050905082565b816107fb81610737612a9d565b6108205760405162461bcd60e51b815260040161081790613724565b60405180910390fd5b6108728260038560405161083491906135ec565b908152602001604051809103902060040160006000805160206139518339815191528152602001908152602001600020612af990919063ffffffff16565b50505050565b6060600061088586612b0e565b90506000356001600160e01b031990811690821614156108d65760405162461bcd60e51b815260040180806020018281038252603d815260200180613893603d913960400191505060405180910390fd5b604080516060810182526001600160a01b03891660008181526020818152908490205483528201529081018790526109118882888888612b2a565b61094c5760405162461bcd60e51b81526004018080602001828103825260218152602001806139106021913960400191505060405180910390fd5b6001600160a01b038816600090815260208190526040902054610970906001612c14565b6000808a6001600160a01b03166001600160a01b0316815260200190815260200160002081905550600080306001600160a01b0316898b6040516020018083805190602001908083835b602083106109d95780518252601f1990920191602091820191016109ba565b6001836020036101000a038019825116818451168082178552505050505050905001826001600160a01b031660601b8152601401925050506040516020818303038152906040526040518082805190602001908083835b60208310610a4f5780518252601f199092019160209182019101610a30565b6001836020036101000a0380198251168184511680821785525050505050509050019150506000604051808303816000865af19150503d8060008114610ab1576040519150601f19603f3d011682016040523d82523d6000602084013e610ab6565b606091505b509150915081610b0d576040805162461bcd60e51b815260206004820152601c60248201527f46756e6374696f6e2063616c6c206e6f74207375636365737366756c00000000604482015290519081900360640190fd5b7f5845892132946850460bff5a0083f71031bc5bf9aadcd40f1de79423eac9b10b8a338b60405180846001600160a01b03168152602001836001600160a01b0316815260200180602001828103825283818151815260200191508051906020019080838360005b83811015610b8c578181015183820152602001610b74565b50505050905090810190601f168015610bb95780820380516001836020036101000a031916815260200191505b5094505050505060405180910390a19998505050505050505050565b81610be2816103db612a9d565b610bfe5760405162461bcd60e51b815260040161081790613724565b61087282600385604051610c1291906135ec565b908152602001604051809103902060040160006000805160206138d08339815191528152602001908152602001600020612af990919063ffffffff16565b606080600384604051610c6391906135ec565b908152602001604051809103902060030183604051610c8291906135ec565b9081526020016040518091039020600101600385604051610ca391906135ec565b908152602001604051809103902060030184604051610cc291906135ec565b90815260408051602092819003830181208454600260018216156101000260001901909116819004601f8101869004860284018601909452838352019290918491830182828015610d545780601f10610d2957610100808354040283529160200191610d54565b820191906000526020600020905b815481529060010190602001808311610d3757829003601f168201915b5050505050915080805480602002602001604051908101604052809291908181526020016000905b82821015610e275760008481526020908190208301805460408051601f6002600019610100600187161502019094169390930492830185900485028101850190915281815292830182828015610e135780601f10610de857610100808354040283529160200191610e13565b820191906000526020600020905b815481529060010190602001808311610df657829003601f168201915b505050505081526020019060010190610d7c565b505050509050915091509250929050565b81610e4581610737612a9d565b610e615760405162461bcd60e51b815260040161081790613724565b610ec9600384604051610e7491906135ec565b9081526020016040518091039020600201600385604051610e9591906135ec565b908152602001604051809103902060030184604051610eb491906135ec565b90815260405190819003602001902054612c6e565b600383604051610ed991906135ec565b908152602001604051809103902060030182604051610ef891906135ec565b9081526040805160209281900383019020600080516020613931833981519152600090815260049091019092528120908181610f348282612f93565b50505050600383604051610f4891906135ec565b908152602001604051809103902060030182604051610f6791906135ec565b90815260408051602092819003830190206000805160206138f0833981519152600090815260049091019092528120908181610fa38282612f93565b50505050600383604051610fb791906135ec565b908152602001604051809103902060030182604051610fd691906135ec565b9081526040519081900360200190206000808255610ff76001830182612fb4565b611005600283016000612ff8565b5050505050565b6002545b90565b6060600060038360405161102791906135ec565b908152602001604051809103902060040160006000805160206138d083398151915281526020019081526020016000209050600061106482612ced565b67ffffffffffffffff8111801561107a57600080fd5b506040519080825280602002602001820160405280156110a4578160200160208202803683370190505b50905060005b6110b383612ced565b8110156110f0576110c48382612cf8565b8282815181106110d057fe5b6001600160a01b03909216602092830291909101909101526001016110aa565b509150505b919050565b6001600160a01b031660009081526020819052604090205490565b8261112281610737612a9d565b61113e5760405162461bcd60e51b815260040161081790613724565b6110058260038660405161115291906135ec565b90815260200160405180910390206003018560405161117191906135ec565b908152602001604051809103902060040160006000805160206139318339815191528152602001908152602001600020612d0490919063ffffffff16565b6060806003836040516111c291906135ec565b90815260200160405180910390206001016003846040516111e391906135ec565b90815260408051602092819003830181208454600260018216156101000260001901909116819004601f81018690048602840186019094528383520192909184918301828280156112755780601f1061124a57610100808354040283529160200191611275565b820191906000526020600020905b81548152906001019060200180831161125857829003601f168201915b5050505050915080805480602002602001604051908101604052809291908181526020016000905b828210156113485760008481526020908190208301805460408051601f60026000196101006001871615020190941693909304928301859004850281018501909152818152928301828280156113345780601f1061130957610100808354040283529160200191611334565b820191906000526020600020905b81548152906001019060200180831161131757829003601f168201915b50505050508152602001906001019061129d565b50505050905091509150915091565b60006113ab8260038560405161136d91906135ec565b908152602001604051809103902060040160006000805160206138d08339815191528152602001908152602001600020612d1990919063ffffffff16565b90505b92915050565b826113c181610737612a9d565b6113dd5760405162461bcd60e51b815260040161081790613724565b6003846040516113ed91906135ec565b908152604051602091819003820190206002018054600181018255600091825290829020855161142593919092019190860190613016565b50600160038560405161143891906135ec565b9081526020016040518091039020600201805490500360038560405161145e91906135ec565b90815260200160405180910390206003018460405161147d91906135ec565b9081526040519081900360200181209190915582906003906114a09087906135ec565b9081526020016040518091039020600301846040516114bf91906135ec565b90815260200160405180910390206001019080519060200190611005929190613016565b606060006003846040516114f791906135ec565b90815260200160405180910390206003018360405161151691906135ec565b908152602001604051809103902060020190508060018280549050038154811061153c57fe5b600091825260209182902001805460408051601f60026000196101006001871615020190941693909304928301859004850281018501909152818152928301828280156115ca5780601f1061159f576101008083540402835291602001916115ca565b820191906000526020600020905b8154815290600101906020018083116115ad57829003601f168201915b505050505091505092915050565b816115e581610737612a9d565b6116015760405162461bcd60e51b815260040161081790613724565b8160038460405161161291906135ec565b90815260200160405180910390206001019080519060200190610872929190613016565b6060600060038460405161164a91906135ec565b90815260200160405180910390206003018360405161166991906135ec565b908152602001604051809103902060040160006000805160206139318339815191528152602001908152602001600020905060006116a682612ced565b67ffffffffffffffff811180156116bc57600080fd5b506040519080825280602002602001820160405280156116e6578160200160208202803683370190505b50905060005b6116f583612ced565b811015611732576117068382612cf8565b82828151811061171257fe5b6001600160a01b03909216602092830291909101909101526001016116ec565b50949350505050565b6002818154811061174b57600080fd5b600091825260209182902001805460408051601f60026000196101006001871615020190941693909304928301859004850281018501909152818152935090918301828280156117dc5780601f106117b1576101008083540402835291602001916117dc565b820191906000526020600020905b8154815290600101906020018083116117bf57829003601f168201915b505050505081565b606060006003836040516117f891906135ec565b9081526020016040518091039020600401600060008051602061395183398151915281526020019081526020016000209050600061183582612ced565b67ffffffffffffffff8111801561184b57600080fd5b50604051908082528060200260200182016040528015611875578160200160208202803683370190505b50905060005b61188483612ced565b8110156110f0576118958382612cf8565b8282815181106118a157fe5b6001600160a01b039092166020928302919091019091015260010161187b565b60606003836040516118d391906135ec565b9081526020016040518091039020600301826040516118f291906135ec565b90815260408051602092819003830181206001908101805460029281161561010002600019011691909104601f810185900485028301850190935282825290929091908301828280156119865780601f1061195b57610100808354040283529160200191611986565b820191906000526020600020905b81548152906001019060200180831161196957829003601f168201915b5050505050905092915050565b826119a081610737612a9d565b6119bc5760405162461bcd60e51b815260040161081790613724565b611005826003866040516119d091906135ec565b9081526020016040518091039020600301856040516119ef91906135ec565b908152602001604051809103902060040160006000805160206139318339815191528152602001908152602001600020612af990919063ffffffff16565b81611a3a816103db612a9d565b611a565760405162461bcd60e51b815260040161081790613724565b61087282600385604051611a6a91906135ec565b908152602001604051809103902060040160006000805160206138d08339815191528152602001908152602001600020612d0490919063ffffffff16565b6060600382604051611aba91906135ec565b90815260408051602092819003830181206001908101805460029281161561010002600019011691909104601f81018590048502830185019093528282529092909190830182828015611b4e5780601f10611b2357610100808354040283529160200191611b4e565b820191906000526020600020905b815481529060010190602001808311611b3157829003601f168201915b50505050509050919050565b6000611bcd82600386604051611b7091906135ec565b908152602001604051809103902060030185604051611b8f91906135ec565b908152602001604051809103902060040160006000805160206139318339815191528152602001908152602001600020612d1990919063ffffffff16565b80611bdd5750611bdd8483612a39565b949350505050565b8282611bf48282610548612a9d565b611c105760405162461bcd60e51b815260040161081790613724565b611c8183600387604051611c2491906135ec565b908152602001604051809103902060030186604051611c4391906135ec565b908152602001604051809103902060040160006000805160206138f08339815191528152602001908152602001600020612af990919063ffffffff16565b505050505050565b6000611cfc82600386604051611c9f91906135ec565b908152602001604051809103902060030185604051611cbe91906135ec565b908152602001604051809103902060040160006000805160206138f08339815191528152602001908152602001600020612d1990919063ffffffff16565b80611bdd5750611bdd848484611b5a565b611d156130a2565b600384604051611d2591906135ec565b908152602001604051809103902060030183604051611d4491906135ec565b908152602001604051809103902060030182604051611d6391906135ec565b9081526040805160209281900383018120805460026001821615610100026000190190911604601f8101859004909402820160609081018452928201848152919390928492918491840182828015611dfc5780601f10611dd157610100808354040283529160200191611dfc565b820191906000526020600020905b815481529060010190602001808311611ddf57829003601f168201915b50505050508152602001600182018054600181600116156101000203166002900480601f016020809104026020016040519081016040528092919081815260200182805460018160011615610100020316600290048015611e9e5780601f10611e7357610100808354040283529160200191611e9e565b820191906000526020600020905b815481529060010190602001808311611e8157829003601f168201915b50505050508152505090509392505050565b8282611ebf8282610548612a9d565b611edb5760405162461bcd60e51b815260040161081790613724565b82600386604051611eec91906135ec565b908152602001604051809103902060030185604051611f0b91906135ec565b90815260200160405180910390206001019080519060200190611c81929190613016565b80611f3c816103db612a9d565b611f585760405162461bcd60e51b815260040161081790613724565b611f6d6002600384604051610eb491906135ec565b600382604051611f7d91906135ec565b90815260408051602092819003830190206000805160206138d0833981519152600090815260049091019092528120908181611fb98282612f93565b50505050600382604051611fcd91906135ec565b90815260408051602092819003830190206000805160206139518339815191526000908152600490910190925281209081816120098282612f93565b5050505060038260405161201d91906135ec565b908152604051908190036020019020600080825561203e6001830182612fb4565b610872600283016000612ff8565b60038260405161205c91906135ec565b90815260200160405180910390206001018054600181600116156101000203166002900490506000146120a15760405162461bcd60e51b81526004016108179061374b565b6120bc6120ac612a9d565b600384604051610c1291906135ec565b50600280546001810182556000919091528251612100917f405787fa12a823e0f2b7631cc41b3ba8828b3321ca811111fa75cd3aa3bb5ace01906020850190613016565b5060016002805490500360038360405161211a91906135ec565b90815260405190819003602001812091909155819060039061213d9085906135ec565b90815260200160405180910390206001019080519060200190612161929190613016565b505050565b84846121758282610588612a9d565b6121915760405162461bcd60e51b815260040161081790613724565b6003876040516121a191906135ec565b9081526020016040518091039020600301866040516121c091906135ec565b9081526020016040518091039020600301856040516121df91906135ec565b90815260405190819003602001902054600260001961010060018416150201909116041561221f5760405162461bcd60e51b815260040161081790613778565b60038760405161222f91906135ec565b90815260200160405180910390206003018660405161224e91906135ec565b908152604051602091819003820190206002018054600181018255600091825290829020875161228693919092019190880190613016565b506040518060400160405280858152602001848152506003886040516122ac91906135ec565b9081526020016040518091039020600301876040516122cb91906135ec565b9081526020016040518091039020600301866040516122ea91906135ec565b90815260200160405180910390206000820151816000019080519060200190612314929190613016565b50602082810151805161232d9260018501920190613016565b50505050505050505050565b82826123488282610548612a9d565b6123645760405162461bcd60e51b815260040161081790613724565b611c818360038760405161237891906135ec565b90815260200160405180910390206003018660405161239791906135ec565b908152602001604051809103902060040160006000805160206138f08339815191528152602001908152602001600020612d0490919063ffffffff16565b60606003836040516123e791906135ec565b90815260200160405180910390206003018260405161240691906135ec565b9081526020016040518091039020600201805480602002602001604051908101604052809291908181526020016000905b828210156124e25760008481526020908190208301805460408051601f60026000196101006001871615020190941693909304928301859004850281018501909152818152928301828280156124ce5780601f106124a3576101008083540402835291602001916124ce565b820191906000526020600020905b8154815290600101906020018083116124b157829003601f168201915b505050505081526020019060010190612437565b50505050905092915050565b6060600060038460405161250291906135ec565b90815260200160405180910390206003018360405161252191906135ec565b908152602001604051809103902060040160006000805160206138f083398151915281526020019081526020016000209050600061255e82612ced565b67ffffffffffffffff8111801561257457600080fd5b5060405190808252806020026020018201604052801561259e578160200160208202803683370190505b50905060005b6125ad83612ced565b811015611732576125be8382612cf8565b8282815181106125ca57fe5b6001600160a01b03909216602092830291909101909101526001016125a4565b60606003826040516125fc91906135ec565b9081526020016040518091039020600201805480602002602001604051908101604052809291908181526020016000905b828210156126d85760008481526020908190208301805460408051601f60026000196101006001871615020190941693909304928301859004850281018501909152818152928301828280156126c45780601f10612699576101008083540402835291602001916126c4565b820191906000526020600020905b8154815290600101906020018083116126a757829003601f168201915b50505050508152602001906001019061262d565b505050509050919050565b816126f081610737612a9d565b61270c5760405162461bcd60e51b815260040161081790613724565b6108728260038560405161272091906135ec565b908152602001604051809103902060040160006000805160206139518339815191528152602001908152602001600020612d0490919063ffffffff16565b6127666130a2565b600060038460405161277891906135ec565b90815260200160405180910390206003018360405161279791906135ec565b908152602001604051809103902060020190506003846040516127ba91906135ec565b9081526020016040518091039020600301836040516127d991906135ec565b9081526020016040518091039020600301816001838054905003815481106127fd57fe5b906000526020600020016040516128149190613608565b9081526040805160209281900383018120805460026001821615610100026000190190911604601f81018590049094028201606090810184529282018481529193909284929184918401828280156128ad5780601f10612882576101008083540402835291602001916128ad565b820191906000526020600020905b81548152906001019060200180831161289057829003601f168201915b50505050508152602001600182018054600181600116156101000203166002900480601f01602080910402602001604051908101604052809291908181526020018280546001816001161561010002031660029004801561294f5780601f106129245761010080835404028352916020019161294f565b820191906000526020600020905b81548152906001019060200180831161293257829003601f168201915b50505050508152505091505092915050565b60606002805480602002602001604051908101604052809291908181526020016000905b82821015612a305760008481526020908190208301805460408051601f6002600019610100600187161502019094169390930492830185900485028101850190915281815292830182828015612a1c5780601f106129f157610100808354040283529160200191612a1c565b820191906000526020600020905b8154815290600101906020018083116129ff57829003601f168201915b505050505081526020019060010190612985565b50505050905090565b6000612a8d82600385604051612a4f91906135ec565b908152602001604051809103902060040160006000805160206139518339815191528152602001908152602001600020612d1990919063ffffffff16565b806113ab57506113ab8383611357565b600033301415612af457600080368080601f0160208091040260200160405190810160405280939291908181526020018383808284376000920191909152505050503601516001600160a01b031691506110109050565b503390565b60006113ab836001600160a01b038416612d2e565b6000815160001415612b22575060006110f5565b506020015190565b6000806001612b40612b3b88612d78565b612dfb565b84878760405160008152602001604052604051808581526020018460ff1681526020018381526020018281526020019450505050506020604051602081039080840390855afa158015612b97573d6000803e3d6000fd5b5050604051601f1901519150506001600160a01b038116612bf3576040805162461bcd60e51b8152602060048201526011602482015270496e76616c6964207369676e617475726560781b604482015290519081900360640190fd5b866001600160a01b0316816001600160a01b03161491505095945050505050565b6000828201838110156113ab576040805162461bcd60e51b815260206004820152601b60248201527f536166654d6174683a206164646974696f6e206f766572666c6f770000000000604482015290519081900360640190fd5b818181548110612c7a57fe5b9060005260206000200182600184805490500381548110612c9757fe5b906000526020600020019080546001816001161561010002031660029004612cc09291906130bc565b5081805480612ccb57fe5b600190038181906000526020600020016000612ce79190612fb4565b90555050565b60006113ae82612e47565b60006113ab8383612e4b565b60006113ab836001600160a01b038416612eaf565b60006113ab836001600160a01b038416612f75565b6000612d3a8383612f75565b612d70575081546001818101845560008481526020808220909301849055845484825282860190935260409020919091556113ae565b5060006113ae565b600060405180608001604052806043815260200161385060439139805190602001208260000151836020015184604001518051906020012060405160200180858152602001848152602001836001600160a01b03168152602001828152602001945050505050604051602081830303815290604052805190602001209050919050565b6000612e05612f8d565b82604051602001808061190160f01b81525060020183815260200182815260200192505050604051602081830303815290604052805190602001209050919050565b5490565b81546000908210612e8d5760405162461bcd60e51b815260040180806020018281038252602281526020018061382e6022913960400191505060405180910390fd5b826000018281548110612e9c57fe5b9060005260206000200154905092915050565b60008181526001830160205260408120548015612f6b5783546000198083019190810190600090879083908110612ee257fe5b9060005260206000200154905080876000018481548110612eff57fe5b600091825260208083209091019290925582815260018981019092526040902090840190558654879080612f2f57fe5b600190038181906000526020600020016000905590558660010160008781526020019081526020016000206000905560019450505050506113ae565b60009150506113ae565b60009081526001919091016020526040902054151590565b60015490565b5080546000825590600052602060002090810190612fb1919061313f565b50565b50805460018160011615610100020316600290046000825580601f10612fda5750612fb1565b601f016020900490600052602060002090810190612fb1919061313f565b5080546000825590600052602060002090810190612fb19190613154565b828054600181600116156101000203166002900490600052602060002090601f01602090048101928261304c5760008555613092565b82601f1061306557805160ff1916838001178555613092565b82800160010185558215613092579182015b82811115613092578251825591602001919060010190613077565b5061309e92915061313f565b5090565b604051806040016040528060608152602001606081525090565b828054600181600116156101000203166002900490600052602060002090601f0160209004810192826130f25760008555613092565b82601f106131035780548555613092565b8280016001018555821561309257600052602060002091601f016020900482015b82811115613092578254825591600101919060010190613124565b5b8082111561309e5760008155600101613140565b8082111561309e5760006131688282612fb4565b50600101613154565b600067ffffffffffffffff8084111561318657fe5b604051601f8501601f1916810160200182811182821017156131a457fe5b6040528481529150818385018610156131bc57600080fd5b8484602083013760006020868301015250509392505050565b80356001600160a01b03811681146110f557600080fd5b600082601f8301126131fc578081fd5b6113ab83833560208501613171565b60006020828403121561321c578081fd5b6113ab826131d5565b600080600080600060a0868803121561323c578081fd5b613245866131d5565b9450602086013567ffffffffffffffff811115613260578182fd5b8601601f81018813613270578182fd5b61327f88823560208401613171565b9450506040860135925060608601359150608086013560ff811681146132a3578182fd5b809150509295509295909350565b6000602082840312156132c2578081fd5b813567ffffffffffffffff8111156132d8578182fd5b611bdd848285016131ec565b600080604083850312156132f6578182fd5b823567ffffffffffffffff81111561330c578283fd5b613318858286016131ec565b925050613327602084016131d5565b90509250929050565b60008060408385031215613342578182fd5b823567ffffffffffffffff80821115613359578384fd5b613365868387016131ec565b9350602085013591508082111561337a578283fd5b50613387858286016131ec565b9150509250929050565b6000806000606084860312156133a5578283fd5b833567ffffffffffffffff808211156133bc578485fd5b6133c8878388016131ec565b945060208601359150808211156133dd578384fd5b506133ea868287016131ec565b9250506133f9604085016131d5565b90509250925092565b600080600060608486031215613416578283fd5b833567ffffffffffffffff8082111561342d578485fd5b613439878388016131ec565b9450602086013591508082111561344e578384fd5b61345a878388016131ec565b9350604086013591508082111561346f578283fd5b5061347c868287016131ec565b9150509250925092565b600080600080600060a0868803121561349d578081fd5b853567ffffffffffffffff808211156134b4578283fd5b6134c089838a016131ec565b965060208801359150808211156134d5578283fd5b6134e189838a016131ec565b955060408801359150808211156134f6578283fd5b61350289838a016131ec565b94506060880135915080821115613517578283fd5b61352389838a016131ec565b93506080880135915080821115613538578283fd5b50613545888289016131ec565b9150509295509295909350565b600060208284031215613563578081fd5b5035919050565b60008282518085526020808601955080818302840101818601855b848110156135b357601f198684030189526135a18383516135c0565b98840198925090830190600101613585565b5090979650505050505050565b600081518084526135d8816020860160208601613801565b601f01601f19169290920160200192915050565b600082516135fe818460208701613801565b9190910192915050565b6000808354600180821660008114613627576001811461363e5761366d565b60ff198316865260028304607f168601935061366d565b600283048786526020808720875b838110156136655781548a82015290850190820161364c565b505050860193505b509195945050505050565b6020808252825182820181905260009190848201906040850190845b818110156136b95783516001600160a01b031683529284019291840191600101613694565b50909695505050505050565b6000602082526113ab602083018461356a565b901515815260200190565b6000602082526113ab60208301846135c0565b60006040825261370960408301856135c0565b828103602084015261371b818561356a565b95945050505050565b6020808252600d908201526c1058d8d95cdcc811195b9a5959609a1b604082015260600190565b6020808252601390820152724f7267616e697a6174696f6e2065786973747360681b604082015260600190565b602080825260149082015273151859c81d5cd959081a5b881d1a19481c185cdd60621b604082015260600190565b6000602082528251604060208401526137c260608401826135c0565b90506020840151601f1984830301604085015261371b82826135c0565b90815260200190565b600083825260406020830152611bdd60408301846135c0565b60005b8381101561381c578181015183820152602001613804565b83811115610872575050600091015256fe456e756d657261626c655365743a20696e646578206f7574206f6620626f756e64734d6574615472616e73616374696f6e2875696e74323536206e6f6e63652c616464726573732066726f6d2c62797465732066756e6374696f6e5369676e61747572652966756e6374696f6e5369676e61747572652063616e206e6f74206265206f6620657865637574654d6574615472616e73616374696f6e206d6574686f64b87a5d8a0d5a23072fd4a424fbe287673c1d38009005ff09c80513903e97ad13069bf569f27d389f2c70410107860b2e82ff561283b097a89e897daa5e34b1b65369676e657220616e64207369676e617475726520646f206e6f74206d61746368ff7d2294a3c189284afb74beb7d578b566cf69863d5cb16db08773c21bea56c9123b642491709420c2370bb98c4e7de2b1bc05c5f9fd95ac4111e12683553c62a2646970667358221220274530fb36673083afa8ab009c9c0c9ed29168d0aedd67266052b7897272786964736f6c63430007060033454950373132446f6d61696e28737472696e67206e616d652c737472696e672076657273696f6e2c75696e7432353620636861696e49642c6164647265737320766572696679696e67436f6e747261637429",
    "immutableReferences": {},
    "source": "// SPDX-License-Identifier: MIT\npragma solidity >=0.7.0;\npragma experimental ABIEncoderV2;\n\nimport \"./EIP712MetaTransaction.sol\";\nimport \"@openzeppelin/contracts/utils/EnumerableSet.sol\";\n\ncontract Valist is EIP712MetaTransaction(\"Valist\",\"0\") {\n\n    using EnumerableSet for EnumerableSet.AddressSet;\n\n    // organization level roles\n    bytes32 constant ORG_OWNER = keccak256(\"ORG_OWNER_ROLE\");\n    bytes32 constant ORG_ADMIN = keccak256(\"ORG_ADMIN_ROLE\");\n\n    // repository level roles\n    bytes32 constant REPO_ADMIN = keccak256(\"REPO_ADMIN_ROLE\");\n    bytes32 constant REPO_DEV = keccak256(\"REPO_DEV_ROLE\");\n\n    struct Organization {\n        // keep track of shortname in orgNames\n        uint index;\n\n        // organization metadata\n        string metaCID;\n\n        // list of repo names\n        string[] repoNames;\n\n        // mapping of repoName => Repository\n        mapping(string => Repository) repos;\n\n        // organization level roles\n        mapping(bytes32 => EnumerableSet.AddressSet) roles;\n    }\n\n    struct Repository {\n        // keep track of shortname in repoNames\n        uint index;\n\n        // repo metadata\n        string metaCID;\n\n        // list of release tags\n        string[] tags;\n\n        // mapping of tag => Release\n        mapping(string => Release) releases;\n\n        // repository level roles\n        mapping(bytes32 => EnumerableSet.AddressSet) roles;\n    }\n\n    struct Release {\n        // release artifact\n        string releaseCID;\n\n        // release metadata\n        string metaCID;\n    }\n\n    // list of shortnames\n    string[] public orgNames;\n\n    // orgName => Organization\n    mapping(string => Organization) public orgs;\n\n    modifier orgOwner(string memory _orgName) {\n        require(isOrgOwner(_orgName, msgSender()), \"Access Denied\");\n        _;\n    }\n\n    modifier orgAdmin(string memory _orgName) {\n        require(isOrgAdmin(_orgName, msgSender()), \"Access Denied\");\n        _;\n    }\n\n    modifier repoAdmin(string memory _orgName, string memory _repoName) {\n        require(isRepoAdmin(_orgName, _repoName, msgSender()), \"Access Denied\");\n        _;\n    }\n\n    modifier repoDev(string memory _orgName, string memory _repoName) {\n        require(isRepoDev(_orgName, _repoName, msgSender()), \"Access Denied\");\n        _;\n    }\n\n    function isOrgOwner(string memory _orgName, address _address) public view returns (bool) {\n        return orgs[_orgName].roles[ORG_OWNER].contains(_address);\n    }\n\n    function isOrgAdmin(string memory _orgName, address _address) public view returns (bool) {\n        return orgs[_orgName].roles[ORG_ADMIN].contains(_address) || isOrgOwner(_orgName, _address);\n    }\n\n    function isRepoAdmin(string memory _orgName, string memory _repoName, address _address) public view returns (bool) {\n        return orgs[_orgName].repos[_repoName].roles[REPO_ADMIN].contains(_address) || isOrgAdmin(_orgName, _address);\n    }\n\n    function isRepoDev(string memory _orgName, string memory _repoName, address _address) public view returns (bool) {\n        return orgs[_orgName].repos[_repoName].roles[REPO_DEV].contains(_address) || isRepoAdmin(_orgName, _repoName, _address);\n    }\n\n    function grantOrgOwner(string memory _orgName, address _address) public orgOwner(_orgName) {\n        orgs[_orgName].roles[ORG_OWNER].add(_address);\n    }\n\n    function revokeOrgOwner(string memory _orgName, address _address) public orgOwner(_orgName) {\n        orgs[_orgName].roles[ORG_OWNER].remove(_address);\n    }\n\n    function grantOrgAdmin(string memory _orgName, address _address) public orgAdmin(_orgName) {\n        orgs[_orgName].roles[ORG_ADMIN].add(_address);\n    }\n\n    function revokeOrgAdmin(string memory _orgName, address _address) public orgAdmin(_orgName) {\n        orgs[_orgName].roles[ORG_ADMIN].remove(_address);\n    }\n\n    function grantRepoAdmin(string memory _orgName, string memory _repoName, address _address) public orgAdmin(_orgName) {\n        orgs[_orgName].repos[_repoName].roles[REPO_ADMIN].add(_address);\n    }\n\n    function revokeRepoAdmin(string memory _orgName, string memory _repoName, address _address) public orgAdmin(_orgName) {\n        orgs[_orgName].repos[_repoName].roles[REPO_ADMIN].remove(_address);\n    }\n\n    function grantRepoDev(string memory _orgName, string memory _repoName, address _address) public repoAdmin(_orgName, _repoName) {\n        orgs[_orgName].repos[_repoName].roles[REPO_DEV].add(_address);\n    }\n\n    function revokeRepoDev(string memory _orgName, string memory _repoName, address _address) public repoAdmin(_orgName, _repoName) {\n        orgs[_orgName].repos[_repoName].roles[REPO_DEV].remove(_address);\n    }\n\n    function getOrgOwners(string memory _orgName) public view returns(address[] memory) {\n        EnumerableSet.AddressSet storage ownerSet = orgs[_orgName].roles[ORG_OWNER];\n\n        address[] memory owners = new address[](ownerSet.length());\n\n        for (uint i = 0; i < ownerSet.length(); i++) {\n            owners[i] = ownerSet.at(i);\n        }\n\n        return owners;\n    }\n\n    function getOrgAdmins(string memory _orgName) public view returns(address[] memory) {\n        EnumerableSet.AddressSet storage adminSet = orgs[_orgName].roles[ORG_ADMIN];\n\n        address[] memory admins = new address[](adminSet.length());\n\n        for (uint i = 0; i < adminSet.length(); i++) {\n            admins[i] = adminSet.at(i);\n        }\n\n        return admins;\n    }\n\n    function getRepoAdmins(string memory _orgName, string memory _repoName) public view returns(address[] memory) {\n        EnumerableSet.AddressSet storage adminSet = orgs[_orgName].repos[_repoName].roles[REPO_ADMIN];\n\n        address[] memory admins = new address[](adminSet.length());\n\n        for (uint i = 0; i < adminSet.length(); i++) {\n            admins[i] = adminSet.at(i);\n        }\n\n        return admins;\n    }\n\n    function getRepoDevs(string memory _orgName, string memory _repoName) public view returns(address[] memory) {\n        EnumerableSet.AddressSet storage devSet = orgs[_orgName].repos[_repoName].roles[REPO_DEV];\n\n        address[] memory devs = new address[](devSet.length());\n\n        for (uint i = 0; i < devSet.length(); i++) {\n            devs[i] = devSet.at(i);\n        }\n\n        return devs;\n    }\n\n    function getOrgCount() public view returns(uint) {\n        return orgNames.length;\n    }\n\n    function getOrgNames() public view returns(string[] memory) {\n        return orgNames;\n    }\n\n    function getOrganization(string memory _orgName) public view returns (string memory, string[] memory) {\n        return (orgs[_orgName].metaCID, orgs[_orgName].repoNames);\n    }\n\n    function getOrgMeta(string memory _orgName) public view returns (string memory) {\n        return orgs[_orgName].metaCID;\n    }\n\n    function setOrgMeta(string memory _orgName, string memory _orgMeta) public orgAdmin(_orgName) {\n        orgs[_orgName].metaCID = _orgMeta;\n    }\n\n    function createOrganization(string memory _orgName, string memory _orgMeta) public {\n        require(bytes(orgs[_orgName].metaCID).length == 0, \"Organization exists\");\n\n        orgs[_orgName].roles[ORG_OWNER].add(msgSender());\n\n        orgNames.push(_orgName);\n\n        orgs[_orgName].index = orgNames.length - 1;\n        orgs[_orgName].metaCID = _orgMeta;\n    }\n\n    function getRepoNames(string memory _orgName) public view returns (string[] memory) {\n        return orgs[_orgName].repoNames;\n    }\n\n    function getRepository(string memory _orgName, string memory _repoName) public view returns(string memory, string[] memory) {\n        return (orgs[_orgName].repos[_repoName].metaCID, orgs[_orgName].repos[_repoName].tags);\n    }\n\n    function getRepoMeta(string memory _orgName, string memory _repoName) public view returns (string memory) {\n        return orgs[_orgName].repos[_repoName].metaCID;\n    }\n\n    function setRepoMeta(string memory _orgName, string memory _repoName, string memory _repoMeta) public repoAdmin(_orgName, _repoName) {\n        orgs[_orgName].repos[_repoName].metaCID = _repoMeta;\n    }\n\n    function createRepository(string memory _orgName, string memory _repoName, string memory _repoMeta) public orgAdmin(_orgName) {\n        orgs[_orgName].repoNames.push(_repoName);\n\n        orgs[_orgName].repos[_repoName].index = orgs[_orgName].repoNames.length - 1;\n        orgs[_orgName].repos[_repoName].metaCID = _repoMeta;\n    }\n\n    function getLatestTag(string memory _orgName, string memory _repoName) public view returns(string memory) {\n        string[] storage tags = orgs[_orgName].repos[_repoName].tags;\n\n        return tags[tags.length - 1];\n    }\n\n    function getReleaseTags(string memory _orgName, string memory _repoName) public view returns(string[] memory) {\n        return orgs[_orgName].repos[_repoName].tags;\n    }\n\n    function getRelease(string memory _orgName, string memory _repoName, string memory _tag) public view returns(Release memory) {\n        return orgs[_orgName].repos[_repoName].releases[_tag];\n    }\n\n    function getLatestRelease(string memory _orgName, string memory _repoName) public view returns(Release memory) {\n        string[] storage tags = orgs[_orgName].repos[_repoName].tags;\n\n        return orgs[_orgName].repos[_repoName].releases[tags[tags.length - 1]];\n    }\n\n    function publishRelease(\n        string memory _orgName,\n        string memory _repoName,\n        string memory _tag,\n        string memory _releaseCID,\n        string memory _metaCID\n    ) public repoDev(_orgName, _repoName) {\n        require(bytes(orgs[_orgName].repos[_repoName].releases[_tag].releaseCID).length == 0, \"Tag used in the past\");\n\n        orgs[_orgName].repos[_repoName].tags.push(_tag);\n\n        orgs[_orgName].repos[_repoName].releases[_tag] = Release(_releaseCID, _metaCID);\n    }\n\n    function deleteRepository(string memory _orgName, string memory _repoName) public orgAdmin(_orgName) {\n        _deleteStringFromArray(orgs[_orgName].repoNames, orgs[_orgName].repos[_repoName].index);\n        delete orgs[_orgName].repos[_repoName].roles[REPO_ADMIN];\n        delete orgs[_orgName].repos[_repoName].roles[REPO_DEV];\n        delete orgs[_orgName].repos[_repoName];\n    }\n\n    function deleteOrganization(string memory _orgName) public orgOwner(_orgName) {\n        _deleteStringFromArray(orgNames, orgs[_orgName].index);\n        delete orgs[_orgName].roles[ORG_OWNER];\n        delete orgs[_orgName].roles[ORG_ADMIN];\n        delete orgs[_orgName];\n    }\n\n    // this function does not preserve array order, but is more gas efficient\n    function _deleteStringFromArray(string[] storage _array, uint _index) internal {\n        // copy last element to index\n        _array[_array.length - 1] = _array[_index];\n        // delete last element\n        _array.pop();\n    }\n\n}\n",
    "sourcePath": "/Users/alec/Workspace/valist/eth/contracts/Valist.sol",
    "compiler": {
        "name": "solc",
        "version": "0.7.6+commit.7338295f.Emscripten.clang"
    },
    "schemaVersion": "3.3.3",
    "updatedAt": "2020-12-31T05:14:37.528Z",
    "networkType": "ethereum",
    "devdoc": {
        "kind": "dev",
        "methods": {},
        "version": 1
    },
    "userdoc": {
        "kind": "user",
        "methods": {},
        "version": 1
    }
}