{
    "contractName": "Valist",
    "abi": [
        {
            "inputs": [
                {
                    "internalType": "uint256",
                    "name": "",
                    "type": "uint256"
                }
            ],
            "name": "orgNames",
            "outputs": [
                {
                    "internalType": "string",
                    "name": "",
                    "type": "string"
                }
            ],
            "stateMutability": "view",
            "type": "function"
        },
        {
            "inputs": [
                {
                    "internalType": "string",
                    "name": "",
                    "type": "string"
                }
            ],
            "name": "orgs",
            "outputs": [
                {
                    "internalType": "uint256",
                    "name": "index",
                    "type": "uint256"
                },
                {
                    "internalType": "contract ValistOrganization",
                    "name": "org",
                    "type": "address"
                }
            ],
            "stateMutability": "view",
            "type": "function"
        },
        {
            "inputs": [],
            "name": "getOrgNames",
            "outputs": [
                {
                    "internalType": "string[]",
                    "name": "",
                    "type": "string[]"
                }
            ],
            "stateMutability": "view",
            "type": "function"
        },
        {
            "inputs": [
                {
                    "internalType": "string",
                    "name": "_orgName",
                    "type": "string"
                },
                {
                    "internalType": "string",
                    "name": "_orgMeta",
                    "type": "string"
                }
            ],
            "name": "createOrganization",
            "outputs": [
                {
                    "internalType": "address",
                    "name": "",
                    "type": "address"
                }
            ],
            "stateMutability": "nonpayable",
            "type": "function"
        },
        {
            "inputs": [
                {
                    "internalType": "string",
                    "name": "_orgName",
                    "type": "string"
                }
            ],
            "name": "deleteOrganization",
            "outputs": [],
            "stateMutability": "nonpayable",
            "type": "function"
        }
    ],
    "bytecode": "0x608060405234801561001057600080fd5b50613a16806100206000396000f3fe60806040523480156200001157600080fd5b50600436106200005e5760003560e01c8063067816ea14620000635780635bb4424114620000935780639972a01514620000b9578063a411ef2014620000d2578063f855f64814620000f8575b600080fd5b6200007a62000074366004620007ed565b62000111565b6040516200008a92919062000997565b60405180910390f35b620000aa620000a436600462000894565b6200013e565b6040516200008a9190620009ae565b620000d0620000ca366004620007ed565b620001ec565b005b620000e9620000e33660046200082c565b620003e9565b6040516200008a9190620008f9565b6200010262000568565b6040516200008a919062000933565b8051602081830181018051600082529282019190930120915280546001909101546001600160a01b031682565b600181815481106200014f57600080fd5b600091825260209182902001805460408051601f6002600019610100600187161502019094169390930492830185900485028101850190915281815293509091830182828015620001e45780601f10620001b857610100808354040283529160200191620001e4565b820191906000526020600020905b815481529060010190602001808311620001c657829003601f168201915b505050505081565b600081604051620001fe9190620008db565b90815260405190819003602001812060010154632474521560e21b82526001600160a01b0316906391d14854906200025d907f123b642491709420c2370bb98c4e7de2b1bc05c5f9fd95ac4111e12683553c6290339060040162000997565b60206040518083038186803b1580156200027657600080fd5b505afa1580156200028b573d6000803e3d6000fd5b505050506040513d601f19601f82011682018060405250810190620002b19190620007c4565b620002d95760405162461bcd60e51b8152600401620002d090620009c3565b60405180910390fd5b60008082604051620002ec9190620008db565b9081526040519081900360200181206001908101546001600160a01b03169250906000906200031d908590620008db565b90815260405190819003602001902054815481106200033857fe5b90600052602060002001600062000350919062000646565b600082604051620003629190620008db565b9081526040519081900360200181206000815560010180546001600160a01b031916905563e22c35d160e01b81526001600160a01b0382169063e22c35d190620003b1903390600401620008f9565b600060405180830381600087803b158015620003cc57600080fd5b505af1158015620003e1573d6000803e3d6000fd5b505050505050565b6000806001600160a01b0316600084604051620004079190620008db565b908152604051908190036020019020600101546001600160a01b031614620004435760405162461bcd60e51b8152600401620002d090620009ea565b600180548082018255600091909152835162000487917fb10e2d527612073b26eecdfd717e6a320cf44b4afac2b0732d9fcbe2b7fa0cf60190602086019062000691565b506001808054905003600084604051620004a29190620008db565b9081526040519081900360200181209190915533908390620004c49062000726565b620004d19291906200090d565b604051809103906000f080158015620004ee573d6000803e3d6000fd5b50600084604051620005019190620008db565b90815260405190819003602001812060010180546001600160a01b03939093166001600160a01b03199093169290921790915560009062000544908590620008db565b908152604051908190036020019020600101546001600160a01b0316905092915050565b60606001805480602002602001604051908101604052809291908181526020016000905b828210156200063d5760008481526020908190208301805460408051601f6002600019610100600187161502019094169390930492830185900485028101850190915281815292830182828015620006285780601f10620005fc5761010080835404028352916020019162000628565b820191906000526020600020905b8154815290600101906020018083116200060a57829003601f168201915b5050505050815260200190600101906200058c565b50505050905090565b50805460018160011615610100020316600290046000825580601f106200066e57506200068e565b601f0160209004906000526020600020908101906200068e919062000734565b50565b828054600181600116156101000203166002900490600052602060002090601f016020900481019282620006c9576000855562000714565b82601f10620006e457805160ff191683800117855562000714565b8280016001018555821562000714579182015b8281111562000714578251825591602001919060010190620006f7565b506200072292915062000734565b5090565b612f968062000a4b83390190565b5b8082111562000722576000815560010162000735565b600082601f8301126200075c578081fd5b813567ffffffffffffffff808211156200077257fe5b604051601f8301601f1916810160200182811182821017156200079157fe5b604052828152848301602001861015620007a9578384fd5b82602086016020830137918201602001929092529392505050565b600060208284031215620007d6578081fd5b81518015158114620007e6578182fd5b9392505050565b600060208284031215620007ff578081fd5b813567ffffffffffffffff81111562000816578182fd5b62000824848285016200074b565b949350505050565b600080604083850312156200083f578081fd5b823567ffffffffffffffff8082111562000857578283fd5b62000865868387016200074b565b935060208501359150808211156200087b578283fd5b506200088a858286016200074b565b9150509250929050565b600060208284031215620008a6578081fd5b5035919050565b60008151808452620008c781602086016020860162000a17565b601f01601f19169290920160200192915050565b60008251620008ef81846020870162000a17565b9190910192915050565b6001600160a01b0391909116815260200190565b6001600160a01b03831681526040602082018190526000906200082490830184620008ad565b6000602080830181845280855180835260408601915060408482028701019250838701855b828110156200098a57603f1988860301845262000977858351620008ad565b9450928501929085019060010162000958565b5092979650505050505050565b9182526001600160a01b0316602082015260400190565b600060208252620007e66020830184620008ad565b6020808252600d908201526c1058d8d95cdcc811195b9a5959609a1b604082015260600190565b6020808252601390820152724f7267616e697a6174696f6e2065786973747360681b604082015260600190565b60005b8381101562000a3457818101518382015260200162000a1a565b8381111562000a44576000848401525b5050505056fe60a06040523480156200001157600080fd5b5060405162002f9638038062002f968339810160408190526200003491620002a1565b3360601b6080526200005660008051602062002f76833981519152836200008f565b6200007160008051602062002f76833981519152806200009f565b805162000086906001906020840190620001f5565b50505062000383565b6200009b8282620000f1565b5050565b600082815260208190526040808220600201549051839285917fbd79b86ffe0ab8e8776151514217cd7cacd52c909f66475c3af44e129f0b00ff9190a460009182526020829052604090912060020155565b6000828152602081815260409091206200011691839062000b2a6200016a821b17901c565b156200009b57620001266200018a565b6001600160a01b0316816001600160a01b0316837f2f8788117e7eff1d82e926ec794901d17c78024a50270940304540a733656f0d60405160405180910390a45050565b600062000181836001600160a01b0384166200018e565b90505b92915050565b3390565b60006200019c8383620001dd565b620001d45750815460018181018455600084815260208082209093018490558454848252828601909352604090209190915562000184565b50600062000184565b60009081526001919091016020526040902054151590565b828054600181600116156101000203166002900490600052602060002090601f0160209004810192826200022d576000855562000278565b82601f106200024857805160ff191683800117855562000278565b8280016001018555821562000278579182015b82811115620002785782518255916020019190600101906200025b565b50620002869291506200028a565b5090565b5b808211156200028657600081556001016200028b565b60008060408385031215620002b4578182fd5b82516001600160a01b0381168114620002cb578283fd5b602084810151919350906001600160401b0380821115620002ea578384fd5b818601915086601f830112620002fe578384fd5b8151818111156200030b57fe5b604051601f8201601f19168101850183811182821017156200032957fe5b604052818152838201850189101562000340578586fd5b8592505b8183101562000363578383018501518184018601529184019162000344565b818311156200037457858583830101525b80955050505050509250929050565b60805160601c612bd5620003a1600039806109e15250612bd56000f3fe60806040523480156200001157600080fd5b5060043610620001185760003560e01c8063a217fddf11620000a5578063d547741f116200006f578063d547741f1462000270578063e22c35d11462000287578063ecc492a0146200029e578063fffbd55614620002b55762000118565b8063a217fddf1462000221578063a7e033d6146200022b578063c26927601462000242578063ca15c87314620002595762000118565b806372fb47df11620000e757806372fb47df14620001955780639010d07c14620001ae57806391d1485414620001d4578063936c3a0314620001fa5762000118565b8063092b90e4146200011d578063248a9ca3146200013f5780632f2ff15d146200016557806336568abe146200017e575b600080fd5b62000127620002cc565b60405162000136919062001168565b60405180910390f35b620001566200015036600462000fce565b620003aa565b604051620001369190620011d7565b6200017c6200017636600462000fe7565b620003bf565b005b6200017c6200018f36600462000fe7565b6200042d565b6200019f62000494565b604051620001369190620011f7565b620001c5620001bf36600462001019565b62000525565b6040516200013691906200112e565b620001eb620001e536600462000fe7565b62000548565b604051620001369190620011cc565b620002116200020b3660046200103b565b62000562565b60405162000136929190620011e0565b620001566200058f565b6200017c6200023c3660046200103b565b62000594565b620001c5620002533660046200107a565b62000792565b620001566200026a36600462000fce565b6200095f565b6200017c6200028136600462000fe7565b62000978565b6200017c6200029836600462000f86565b620009d6565b6200017c620002af3660046200103b565b62000a50565b6200019f620002c636600462000fce565b62000ab0565b60606003805480602002602001604051908101604052809291908181526020016000905b82821015620003a15760008481526020908190208301805460408051601f60026000196101006001871615020190941693909304928301859004850281018501909152818152928301828280156200038c5780601f1062000360576101008083540402835291602001916200038c565b820191906000526020600020905b8154815290600101906020018083116200036e57829003601f168201915b505050505081526020019060010190620002f0565b50505050905090565b60009081526020819052604090206002015490565b600082815260208190526040902060020154620003e090620001e562000b41565b6200041d5760405162461bcd60e51b815260040180806020018281038252602f81526020018062002b12602f913960400191505060405180910390fd5b62000429828262000b45565b5050565b6200043762000b41565b6001600160a01b0316816001600160a01b031614620004885760405162461bcd60e51b815260040180806020018281038252602f81526020018062002b71602f913960400191505060405180910390fd5b62000429828262000bb3565b60018054604080516020600284861615610100026000190190941693909304601f810184900484028201840190925281815292918301828280156200051d5780601f10620004f1576101008083540402835291602001916200051d565b820191906000526020600020905b815481529060010190602001808311620004ff57829003601f168201915b505050505081565b60008281526020819052604081206200053f908362000c21565b90505b92915050565b60008281526020819052604081206200053f908362000c2f565b8051602081830181018051600282529282019190930120915280546001909101546001600160a01b031682565b600081565b600281604051620005a6919062001110565b90815260405190819003602001812060010154632474521560e21b82526001600160a01b0316906391d148549062000605907fff7d2294a3c189284afb74beb7d578b566cf69863d5cb16db08773c21bea56c9903390600401620011e0565b60206040518083038186803b1580156200061e57600080fd5b505afa15801562000633573d6000803e3d6000fd5b505050506040513d601f19601f8201168201806040525081019062000659919062000fac565b620006815760405162461bcd60e51b815260040162000678906200120c565b60405180910390fd5b600060028260405162000695919062001110565b908152604051908190036020018120600101546001600160a01b03169150600390600290620006c690859062001110565b9081526040519081900360200190205481548110620006e157fe5b906000526020600020016000620006f9919062000e08565b6002826040516200070b919062001110565b9081526040519081900360200181206000815560010180546001600160a01b0319169055630f0cdf8b60e11b81526001600160a01b03821690631e19bf16906200075a9033906004016200112e565b600060405180830381600087803b1580156200077557600080fd5b505af11580156200078a573d6000803e3d6000fd5b505050505050565b6000620007c07f123b642491709420c2370bb98c4e7de2b1bc05c5f9fd95ac4111e12683553c623362000548565b620007df5760405162461bcd60e51b815260040162000678906200120c565b60006001600160a01b0316600284604051620007fc919062001110565b908152604051908190036020019020600101546001600160a01b031614620008385760405162461bcd60e51b8152600401620006789062001233565b6003805460018101825560009190915283516200087d917fc2575a0e9e593c00f959f8c92f12db2869c3395a3b0502d05e2516446f71f85b0190602086019062000e53565b5060016003805490500360028460405162000899919062001110565b9081526040519081900360200181209190915533908390620008bb9062000ee8565b620008c892919062001142565b604051809103906000f080158015620008e5573d6000803e3d6000fd5b50600284604051620008f8919062001110565b90815260405190819003602001812060010180546001600160a01b03939093166001600160a01b0319909316929092179091556002906200093b90859062001110565b908152604051908190036020019020600101546001600160a01b0316905092915050565b6000818152602081905260408120620005429062000c46565b6000828152602081905260409020600201546200099990620001e562000b41565b620004885760405162461bcd60e51b815260040180806020018281038252603081526020018062002b416030913960400191505060405180910390fd5b336001600160a01b037f0000000000000000000000000000000000000000000000000000000000000000161462000a215760405162461bcd60e51b8152600401620006789062001258565b6003541562000a445760405162461bcd60e51b815260040162000678906200129f565b806001600160a01b0316ff5b62000a7c7f123b642491709420c2370bb98c4e7de2b1bc05c5f9fd95ac4111e12683553c623362000548565b62000a9b5760405162461bcd60e51b815260040162000678906200120c565b80516200042990600190602084019062000e53565b6003818154811062000ac157600080fd5b600091825260209182902001805460408051601f60026000196101006001871615020190941693909304928301859004850281018501909152818152935090918301828280156200051d5780601f10620004f1576101008083540402835291602001916200051d565b60006200053f836001600160a01b03841662000c53565b3390565b600082815260208190526040902062000b5f908262000b2a565b15620004295762000b6f62000b41565b6001600160a01b0316816001600160a01b0316837f2f8788117e7eff1d82e926ec794901d17c78024a50270940304540a733656f0d60405160405180910390a45050565b600082815260208190526040902062000bcd908262000ca2565b15620004295762000bdd62000b41565b6001600160a01b0316816001600160a01b0316837ff6391f5c32d9c69d2a47ea670b442974b53935d1edc7fd64eb21e047a839171b60405160405180910390a45050565b60006200053f838362000cb9565b60006200053f836001600160a01b03841662000d20565b6000620005428262000d38565b600062000c61838362000d20565b62000c995750815460018181018455600084815260208082209093018490558454848252828601909352604090209190915562000542565b50600062000542565b60006200053f836001600160a01b03841662000d3c565b8154600090821062000cfd5760405162461bcd60e51b815260040180806020018281038252602281526020018062002af06022913960400191505060405180910390fd5b82600001828154811062000d0d57fe5b9060005260206000200154905092915050565b60009081526001919091016020526040902054151590565b5490565b6000818152600183016020526040812054801562000dfd578354600019808301919081019060009087908390811062000d7157fe5b906000526020600020015490508087600001848154811062000d8f57fe5b60009182526020808320909101929092558281526001898101909252604090209084019055865487908062000dc057fe5b6001900381819060005260206000200160009055905586600101600087815260200190815260200160002060009055600194505050505062000542565b600091505062000542565b50805460018160011615610100020316600290046000825580601f1062000e30575062000e50565b601f01602090049060005260206000209081019062000e50919062000ef6565b50565b828054600181600116156101000203166002900490600052602060002090601f01602090048101928262000e8b576000855562000ed6565b82601f1062000ea657805160ff191683800117855562000ed6565b8280016001018555821562000ed6579182015b8281111562000ed657825182559160200191906001019062000eb9565b5062000ee492915062000ef6565b5090565b6117aa806200134683390190565b5b8082111562000ee4576000815560010162000ef7565b600082601f83011262000f1e578081fd5b813567ffffffffffffffff8082111562000f3457fe5b604051601f8301601f19168101602001828111828210171562000f5357fe5b60405282815284830160200186101562000f6b578384fd5b82602086016020830137918201602001929092529392505050565b60006020828403121562000f98578081fd5b813562000fa5816200132f565b9392505050565b60006020828403121562000fbe578081fd5b8151801515811462000fa5578182fd5b60006020828403121562000fe0578081fd5b5035919050565b6000806040838503121562000ffa578081fd5b8235915060208301356200100e816200132f565b809150509250929050565b600080604083850312156200102c578182fd5b50508035926020909101359150565b6000602082840312156200104d578081fd5b813567ffffffffffffffff81111562001064578182fd5b620010728482850162000f0d565b949350505050565b600080604083850312156200108d578182fd5b823567ffffffffffffffff80821115620010a5578384fd5b620010b38683870162000f0d565b93506020850135915080821115620010c9578283fd5b50620010d88582860162000f0d565b9150509250929050565b60008151808452620010fc816020860160208601620012fc565b601f01601f19169290920160200192915050565b6000825162001124818460208701620012fc565b9190910192915050565b6001600160a01b0391909116815260200190565b6001600160a01b03831681526040602082018190526000906200107290830184620010e2565b6000602080830181845280855180835260408601915060408482028701019250838701855b82811015620011bf57603f19888603018452620011ac858351620010e2565b945092850192908501906001016200118d565b5092979650505050505050565b901515815260200190565b90815260200190565b9182526001600160a01b0316602082015260400190565b6000602082526200053f6020830184620010e2565b6020808252600d908201526c1058d8d95cdcc811195b9a5959609a1b604082015260600190565b6020808252600b908201526a5265706f2065786973747360a81b604082015260600190565b60208082526027908201527f43616e206f6e6c792062652063616c6c65642066726f6d20706172656e7420636040820152661bdb9d1c9858dd60ca1b606082015260800190565b6020808252603a908201527f596f75206d7573742064656c65746520616c6c207265706f73206265666f726560408201527f2064656c6574696e6720746865206f7267616e697a6174696f6e000000000000606082015260800190565b60005b8381101562001319578181015183820152602001620012ff565b8381111562001329576000848401525b50505050565b6001600160a01b038116811462000e5057600080fdfe60a06040523480156200001157600080fd5b50604051620017aa380380620017aa8339810160408190526200003491620002dc565b3360601b608052620000566000805160206200178a83398151915283620000ca565b620000716000805160206200178a83398151915280620000da565b620000ac7f069bf569f27d389f2c70410107860b2e82ff561283b097a89e897daa5e34b1b66000805160206200178a833981519152620000da565b8051620000c190600190602084019062000230565b505050620003be565b620000d682826200012c565b5050565b600082815260208190526040808220600201549051839285917fbd79b86ffe0ab8e8776151514217cd7cacd52c909f66475c3af44e129f0b00ff9190a460009182526020829052604090912060020155565b6000828152602081815260409091206200015191839062000b23620001a5821b17901c565b15620000d65762000161620001c5565b6001600160a01b0316816001600160a01b0316837f2f8788117e7eff1d82e926ec794901d17c78024a50270940304540a733656f0d60405160405180910390a45050565b6000620001bc836001600160a01b038416620001c9565b90505b92915050565b3390565b6000620001d7838362000218565b6200020f57508154600181810184556000848152602080822090930184905584548482528286019093526040902091909155620001bf565b506000620001bf565b60009081526001919091016020526040902054151590565b828054600181600116156101000203166002900490600052602060002090601f016020900481019282620002685760008555620002b3565b82601f106200028357805160ff1916838001178555620002b3565b82800160010185558215620002b3579182015b82811115620002b357825182559160200191906001019062000296565b50620002c1929150620002c5565b5090565b5b80821115620002c15760008155600101620002c6565b60008060408385031215620002ef578182fd5b82516001600160a01b038116811462000306578283fd5b602084810151919350906001600160401b038082111562000325578384fd5b818601915086601f83011262000339578384fd5b8151818111156200034657fe5b604051601f8201601f19168101850183811182821017156200036457fe5b60405281815283820185018910156200037b578586fd5b8592505b818310156200039e57838301850151818401860152918401916200037f565b81831115620003af57858583830101525b80955050505050509250929050565b60805160601c6113ae620003dc6000398061026f52506113ae6000f3fe608060405234801561001057600080fd5b50600436106101005760003560e01c806391d1485411610097578063ca15c87311610066578063ca15c87314610223578063d547741f14610236578063e3eb62b314610249578063f1b672801461025c57610100565b806391d14854146101d3578063995d9ab7146101f3578063a217fddf14610208578063b42742881461021057610100565b806336568abe116100d357806336568abe14610176578063729aaabb146101895780637be0ca5e1461019c5780639010d07c146101b357610100565b80631e19bf161461010557806320822abc1461011a578063248a9ca3146101435780632f2ff15d14610163575b600080fd5b610118610113366004610f78565b610264565b005b61012d610128366004610f9b565b6102c1565b60405161013a9190611192565b60405180910390f35b610156610151366004610f9b565b61036a565b60405161013a9190611189565b610118610171366004610fb3565b61037f565b610118610184366004610fb3565b6103e6565b610118610197366004611003565b610447565b6101a46104a0565b60405161013a939291906111a5565b6101c66101c1366004610fe2565b610662565b60405161013a919061110a565b6101e66101e1366004610fb3565b610683565b60405161013a919061117e565b6101fb61069b565b60405161013a919061111e565b610156610773565b6101a461021e366004611003565b610778565b610156610231366004610f9b565b6107eb565b610118610244366004610fb3565b610802565b61011861025736600461103e565b61085b565b61012d610ac9565b336001600160a01b037f000000000000000000000000000000000000000000000000000000000000000016146102b55760405162461bcd60e51b81526004016102ac90611239565b60405180910390fd5b806001600160a01b0316ff5b600381815481106102d157600080fd5b600091825260209182902001805460408051601f60026000196101006001871615020190941693909304928301859004850281018501909152818152935090918301828280156103625780601f1061033757610100808354040283529160200191610362565b820191906000526020600020905b81548152906001019060200180831161034557829003601f168201915b505050505081565b60009081526020819052604090206002015490565b60008281526020819052604090206002015461039d906101e1610b38565b6103d85760405162461bcd60e51b815260040180806020018281038252602f8152602001806112eb602f913960400191505060405180910390fd5b6103e28282610b3c565b5050565b6103ee610b38565b6001600160a01b0316816001600160a01b03161461043d5760405162461bcd60e51b815260040180806020018281038252602f81526020018061134a602f913960400191505060405180910390fd5b6103e28282610ba5565b6104717fff7d2294a3c189284afb74beb7d578b566cf69863d5cb16db08773c21bea56c933610683565b61048d5760405162461bcd60e51b81526004016102ac90611212565b80516103e2906001906020840190610ddf565b60048054604080516020601f600260001961010060018816150201909516949094049384018190048102820181019092528281529183918301828280156105285780601f106104fd57610100808354040283529160200191610528565b820191906000526020600020905b81548152906001019060200180831161050b57829003601f168201915b505050505090806001018054600181600116156101000203166002900480601f0160208091040260200160405190810160405280929190818152602001828054600181600116156101000203166002900480156105c65780601f1061059b576101008083540402835291602001916105c6565b820191906000526020600020905b8154815290600101906020018083116105a957829003601f168201915b50505060028085018054604080516020601f60001961010060018716150201909416959095049283018590048502810185019091528181529596959450909250908301828280156106585780601f1061062d57610100808354040283529160200191610658565b820191906000526020600020905b81548152906001019060200180831161063b57829003601f168201915b5050505050905083565b600082815260208190526040812061067a9083610c0e565b90505b92915050565b600082815260208190526040812061067a9083610c1a565b60606003805480602002602001604051908101604052809291908181526020016000905b8282101561076a5760008481526020908190208301805460408051601f60026000196101006001871615020190941693909304928301859004850281018501909152818152928301828280156107565780601f1061072b57610100808354040283529160200191610756565b820191906000526020600020905b81548152906001019060200180831161073957829003601f168201915b5050505050815260200190600101906106bf565b50505050905090565b600081565b805180820160209081018051600280835293830194830194909420939052825460408051601f6000196101006001861615020190931694909404918201839004830284018301905280835283918301828280156105285780601f106104fd57610100808354040283529160200191610528565b600081815260208190526040812061067d90610c2f565b600082815260208190526040902060020154610820906101e1610b38565b61043d5760405162461bcd60e51b815260040180806020018281038252603081526020018061131a6030913960400191505060405180910390fd5b6108857fff7d2294a3c189284afb74beb7d578b566cf69863d5cb16db08773c21bea56c933610683565b806108b557506108b57f069bf569f27d389f2c70410107860b2e82ff561283b097a89e897daa5e34b1b633610683565b6108d15760405162461bcd60e51b81526004016102ac90611212565b6002836040516108e191906110ee565b90815260200160405180910390206001018054600181600116156101000203166002900490506000146109265760405162461bcd60e51b81526004016102ac906111e8565b600380546001810182556000919091528351610969917fc2575a0e9e593c00f959f8c92f12db2869c3395a3b0502d05e2516446f71f85b01906020860190610ddf565b5060405180606001604052808481526020018381526020018281525060028460405161099591906110ee565b908152602001604051809103902060008201518160000190805190602001906109bf929190610ddf565b5060208281015180516109d89260018501920190610ddf565b50604082015180516109f4916002840191602090910190610ddf565b50905050600283604051610a0891906110ee565b9081526040519081900360200190208054600490610a3c908290849060026000196101006001841615020190911604610e6b565b5060018201816001019080546001816001161561010002031660029004610a64929190610e6b565b5060028281018054610a89928481019291600019610100600183161502011604610e6b565b509050507fcca3b5deae8d56e87d93d362cbe3dea63bbd917e34287a63769b849b93dde19f83604051610abc9190611192565b60405180910390a1505050565b60018054604080516020600284861615610100026000190190941693909304601f810184900484028201840190925281815292918301828280156103625780601f1061033757610100808354040283529160200191610362565b600061067a836001600160a01b038416610c3a565b3390565b6000828152602081905260409020610b549082610b23565b156103e257610b61610b38565b6001600160a01b0316816001600160a01b0316837f2f8788117e7eff1d82e926ec794901d17c78024a50270940304540a733656f0d60405160405180910390a45050565b6000828152602081905260409020610bbd9082610c84565b156103e257610bca610b38565b6001600160a01b0316816001600160a01b0316837ff6391f5c32d9c69d2a47ea670b442974b53935d1edc7fd64eb21e047a839171b60405160405180910390a45050565b600061067a8383610c99565b600061067a836001600160a01b038416610cfd565b600061067d82610d15565b6000610c468383610cfd565b610c7c5750815460018181018455600084815260208082209093018490558454848252828601909352604090209190915561067d565b50600061067d565b600061067a836001600160a01b038416610d19565b81546000908210610cdb5760405162461bcd60e51b81526004018080602001828103825260228152602001806112c96022913960400191505060405180910390fd5b826000018281548110610cea57fe5b9060005260206000200154905092915050565b60009081526001919091016020526040902054151590565b5490565b60008181526001830160205260408120548015610dd55783546000198083019190810190600090879083908110610d4c57fe5b9060005260206000200154905080876000018481548110610d6957fe5b600091825260208083209091019290925582815260018981019092526040902090840190558654879080610d9957fe5b6001900381819060005260206000200160009055905586600101600087815260200190815260200160002060009055600194505050505061067d565b600091505061067d565b828054600181600116156101000203166002900490600052602060002090601f016020900481019282610e155760008555610e5b565b82601f10610e2e57805160ff1916838001178555610e5b565b82800160010185558215610e5b579182015b82811115610e5b578251825591602001919060010190610e40565b50610e67929150610eee565b5090565b828054600181600116156101000203166002900490600052602060002090601f016020900481019282610ea15760008555610e5b565b82601f10610eb25780548555610e5b565b82800160010185558215610e5b57600052602060002091601f016020900482015b82811115610e5b578254825591600101919060010190610ed3565b5b80821115610e675760008155600101610eef565b600082601f830112610f13578081fd5b813567ffffffffffffffff80821115610f2857fe5b604051601f8301601f191681016020018281118282101715610f4657fe5b604052828152848301602001861015610f5d578384fd5b82602086016020830137918201602001929092529392505050565b600060208284031215610f89578081fd5b8135610f94816112b0565b9392505050565b600060208284031215610fac578081fd5b5035919050565b60008060408385031215610fc5578081fd5b823591506020830135610fd7816112b0565b809150509250929050565b60008060408385031215610ff4578182fd5b50508035926020909101359150565b600060208284031215611014578081fd5b813567ffffffffffffffff81111561102a578182fd5b61103684828501610f03565b949350505050565b600080600060608486031215611052578081fd5b833567ffffffffffffffff80821115611069578283fd5b61107587838801610f03565b9450602086013591508082111561108a578283fd5b61109687838801610f03565b935060408601359150808211156110ab578283fd5b506110b886828701610f03565b9150509250925092565b600081518084526110da816020860160208601611280565b601f01601f19169290920160200192915050565b60008251611100818460208701611280565b9190910192915050565b6001600160a01b0391909116815260200190565b6000602080830181845280855180835260408601915060408482028701019250838701855b8281101561117157603f1988860301845261115f8583516110c2565b94509285019290850190600101611143565b5092979650505050505050565b901515815260200190565b90815260200190565b60006020825261067a60208301846110c2565b6000606082526111b860608301866110c2565b82810360208401526111ca81866110c2565b905082810360408401526111de81856110c2565b9695505050505050565b60208082526010908201526f151859c8185b1c9958591e481d5cd95960821b604082015260600190565b6020808252600d908201526c1058d8d95cdcc811195b9a5959609a1b604082015260600190565b60208082526027908201527f43616e206f6e6c792062652063616c6c65642066726f6d20706172656e7420636040820152661bdb9d1c9858dd60ca1b606082015260800190565b60005b8381101561129b578181015183820152602001611283565b838111156112aa576000848401525b50505050565b6001600160a01b03811681146112c557600080fd5b5056fe456e756d657261626c655365743a20696e646578206f7574206f6620626f756e6473416363657373436f6e74726f6c3a2073656e646572206d75737420626520616e2061646d696e20746f206772616e74416363657373436f6e74726f6c3a2073656e646572206d75737420626520616e2061646d696e20746f207265766f6b65416363657373436f6e74726f6c3a2063616e206f6e6c792072656e6f756e636520726f6c657320666f722073656c66a26469706673582212206985711489032ac9e96c6762abc601501d9687de4881ab415ebcf77197304f6764736f6c63430007060033ff7d2294a3c189284afb74beb7d578b566cf69863d5cb16db08773c21bea56c9456e756d657261626c655365743a20696e646578206f7574206f6620626f756e6473416363657373436f6e74726f6c3a2073656e646572206d75737420626520616e2061646d696e20746f206772616e74416363657373436f6e74726f6c3a2073656e646572206d75737420626520616e2061646d696e20746f207265766f6b65416363657373436f6e74726f6c3a2063616e206f6e6c792072656e6f756e636520726f6c657320666f722073656c66a2646970667358221220348f89ea1f2b9590925dfd0af1eca3bac0eaea86385504fe01aed2dd93aef65b64736f6c63430007060033123b642491709420c2370bb98c4e7de2b1bc05c5f9fd95ac4111e12683553c62a2646970667358221220b5802a2ebdf5e562cd982d57780f338a0cbca6f58e74be3c1f024d3051b8be6d64736f6c63430007060033",
    "immutableReferences": {},
    "source": "// SPDX-License-Identifier: MIT\npragma solidity >=0.7.0;\npragma experimental ABIEncoderV2;\n\nimport \"./ValistOrganization.sol\";\n\ncontract Valist {\n\n    bytes32 constant ORG_ADMIN = keccak256(\"ORG_ADMIN_ROLE\");\n\n    struct Organization {\n        uint index;\n        ValistOrganization org;\n    }\n\n    // map an organization/username handle to an Organization contract\n    // this enables the following schema:\n    // [valist.io/other relays]/[organization]/[repository]\n    mapping(string => Organization) public orgs;\n\n    string[] public orgNames;\n\n    function getOrgNames() public view returns (string[] memory) {\n        return orgNames;\n    }\n\n    // register organization/username to the global valist namespace\n    function createOrganization(string memory _orgName, string memory _orgMeta) public returns(address) {\n        require(address(orgs[_orgName].org) == address(0), \"Organization exists\");\n\n        orgNames.push(_orgName);\n\n        orgs[_orgName].index = orgNames.length - 1;\n\n        orgs[_orgName].org = new ValistOrganization(msg.sender, _orgMeta);\n\n        return address(orgs[_orgName].org);\n    }\n\n    function deleteOrganization(string memory _orgName) public {\n        require(orgs[_orgName].org.hasRole(ORG_ADMIN, msg.sender), \"Access Denied\");\n\n        ValistOrganization org = orgs[_orgName].org;\n\n        delete orgNames[orgs[_orgName].index];\n        delete orgs[_orgName];\n\n        org._deleteOrganization(msg.sender);\n    }\n\n}\n",
    "sourcePath": "/Users/alec/Workspace/valist/eth/contracts/Valist.sol",
    "compiler": {
        "name": "solc",
        "version": "0.7.6+commit.7338295f.Emscripten.clang"
    },
    "schemaVersion": "3.3.3",
    "updatedAt": "2020-12-30T03:17:21.834Z",
    "devdoc": {
        "kind": "dev",
        "methods": {},
        "version": 1
    },
    "userdoc": {
        "kind": "user",
        "methods": {},
        "version": 1
    }
}