{
    "contractName": "ValistRepository",
    "abi": [
        {
            "inputs": [
                {
                    "internalType": "address",
                    "name": "_admin",
                    "type": "address"
                },
                {
                    "internalType": "string",
                    "name": "_repoMeta",
                    "type": "string"
                }
            ],
            "stateMutability": "nonpayable",
            "type": "constructor"
        },
        {
            "anonymous": false,
            "inputs": [
                {
                    "indexed": false,
                    "internalType": "string",
                    "name": "tag",
                    "type": "string"
                }
            ],
            "name": "NewRelease",
            "type": "event"
        },
        {
            "anonymous": false,
            "inputs": [
                {
                    "indexed": true,
                    "internalType": "bytes32",
                    "name": "role",
                    "type": "bytes32"
                },
                {
                    "indexed": true,
                    "internalType": "bytes32",
                    "name": "previousAdminRole",
                    "type": "bytes32"
                },
                {
                    "indexed": true,
                    "internalType": "bytes32",
                    "name": "newAdminRole",
                    "type": "bytes32"
                }
            ],
            "name": "RoleAdminChanged",
            "type": "event"
        },
        {
            "anonymous": false,
            "inputs": [
                {
                    "indexed": true,
                    "internalType": "bytes32",
                    "name": "role",
                    "type": "bytes32"
                },
                {
                    "indexed": true,
                    "internalType": "address",
                    "name": "account",
                    "type": "address"
                },
                {
                    "indexed": true,
                    "internalType": "address",
                    "name": "sender",
                    "type": "address"
                }
            ],
            "name": "RoleGranted",
            "type": "event"
        },
        {
            "anonymous": false,
            "inputs": [
                {
                    "indexed": true,
                    "internalType": "bytes32",
                    "name": "role",
                    "type": "bytes32"
                },
                {
                    "indexed": true,
                    "internalType": "address",
                    "name": "account",
                    "type": "address"
                },
                {
                    "indexed": true,
                    "internalType": "address",
                    "name": "sender",
                    "type": "address"
                }
            ],
            "name": "RoleRevoked",
            "type": "event"
        },
        {
            "inputs": [],
            "name": "DEFAULT_ADMIN_ROLE",
            "outputs": [
                {
                    "internalType": "bytes32",
                    "name": "",
                    "type": "bytes32"
                }
            ],
            "stateMutability": "view",
            "type": "function"
        },
        {
            "inputs": [
                {
                    "internalType": "bytes32",
                    "name": "role",
                    "type": "bytes32"
                }
            ],
            "name": "getRoleAdmin",
            "outputs": [
                {
                    "internalType": "bytes32",
                    "name": "",
                    "type": "bytes32"
                }
            ],
            "stateMutability": "view",
            "type": "function"
        },
        {
            "inputs": [
                {
                    "internalType": "bytes32",
                    "name": "role",
                    "type": "bytes32"
                },
                {
                    "internalType": "uint256",
                    "name": "index",
                    "type": "uint256"
                }
            ],
            "name": "getRoleMember",
            "outputs": [
                {
                    "internalType": "address",
                    "name": "",
                    "type": "address"
                }
            ],
            "stateMutability": "view",
            "type": "function"
        },
        {
            "inputs": [
                {
                    "internalType": "bytes32",
                    "name": "role",
                    "type": "bytes32"
                }
            ],
            "name": "getRoleMemberCount",
            "outputs": [
                {
                    "internalType": "uint256",
                    "name": "",
                    "type": "uint256"
                }
            ],
            "stateMutability": "view",
            "type": "function"
        },
        {
            "inputs": [
                {
                    "internalType": "bytes32",
                    "name": "role",
                    "type": "bytes32"
                },
                {
                    "internalType": "address",
                    "name": "account",
                    "type": "address"
                }
            ],
            "name": "grantRole",
            "outputs": [],
            "stateMutability": "nonpayable",
            "type": "function"
        },
        {
            "inputs": [
                {
                    "internalType": "bytes32",
                    "name": "role",
                    "type": "bytes32"
                },
                {
                    "internalType": "address",
                    "name": "account",
                    "type": "address"
                }
            ],
            "name": "hasRole",
            "outputs": [
                {
                    "internalType": "bool",
                    "name": "",
                    "type": "bool"
                }
            ],
            "stateMutability": "view",
            "type": "function"
        },
        {
            "inputs": [],
            "name": "latestRelease",
            "outputs": [
                {
                    "internalType": "string",
                    "name": "tag",
                    "type": "string"
                },
                {
                    "internalType": "string",
                    "name": "releaseCID",
                    "type": "string"
                },
                {
                    "internalType": "string",
                    "name": "metaCID",
                    "type": "string"
                }
            ],
            "stateMutability": "view",
            "type": "function"
        },
        {
            "inputs": [
                {
                    "internalType": "string",
                    "name": "",
                    "type": "string"
                }
            ],
            "name": "releases",
            "outputs": [
                {
                    "internalType": "string",
                    "name": "tag",
                    "type": "string"
                },
                {
                    "internalType": "string",
                    "name": "releaseCID",
                    "type": "string"
                },
                {
                    "internalType": "string",
                    "name": "metaCID",
                    "type": "string"
                }
            ],
            "stateMutability": "view",
            "type": "function"
        },
        {
            "inputs": [
                {
                    "internalType": "bytes32",
                    "name": "role",
                    "type": "bytes32"
                },
                {
                    "internalType": "address",
                    "name": "account",
                    "type": "address"
                }
            ],
            "name": "renounceRole",
            "outputs": [],
            "stateMutability": "nonpayable",
            "type": "function"
        },
        {
            "inputs": [],
            "name": "repoMeta",
            "outputs": [
                {
                    "internalType": "string",
                    "name": "",
                    "type": "string"
                }
            ],
            "stateMutability": "view",
            "type": "function"
        },
        {
            "inputs": [
                {
                    "internalType": "bytes32",
                    "name": "role",
                    "type": "bytes32"
                },
                {
                    "internalType": "address",
                    "name": "account",
                    "type": "address"
                }
            ],
            "name": "revokeRole",
            "outputs": [],
            "stateMutability": "nonpayable",
            "type": "function"
        },
        {
            "inputs": [
                {
                    "internalType": "uint256",
                    "name": "",
                    "type": "uint256"
                }
            ],
            "name": "tags",
            "outputs": [
                {
                    "internalType": "string",
                    "name": "",
                    "type": "string"
                }
            ],
            "stateMutability": "view",
            "type": "function"
        },
        {
            "inputs": [],
            "name": "getTags",
            "outputs": [
                {
                    "internalType": "string[]",
                    "name": "",
                    "type": "string[]"
                }
            ],
            "stateMutability": "view",
            "type": "function"
        },
        {
            "inputs": [
                {
                    "internalType": "string",
                    "name": "_repoMeta",
                    "type": "string"
                }
            ],
            "name": "updateRepoMeta",
            "outputs": [],
            "stateMutability": "nonpayable",
            "type": "function"
        },
        {
            "inputs": [
                {
                    "internalType": "string",
                    "name": "_tag",
                    "type": "string"
                },
                {
                    "internalType": "string",
                    "name": "_latestRelease",
                    "type": "string"
                },
                {
                    "internalType": "string",
                    "name": "_releaseMeta",
                    "type": "string"
                }
            ],
            "name": "publishRelease",
            "outputs": [],
            "stateMutability": "nonpayable",
            "type": "function"
        },
        {
            "inputs": [
                {
                    "internalType": "address payable",
                    "name": "_admin",
                    "type": "address"
                }
            ],
            "name": "_deleteRepository",
            "outputs": [],
            "stateMutability": "nonpayable",
            "type": "function"
        }
    ],
    "bytecode": "0x60a06040523480156200001157600080fd5b50604051620017aa380380620017aa8339810160408190526200003491620002dc565b3360601b608052620000566000805160206200178a83398151915283620000ca565b620000716000805160206200178a83398151915280620000da565b620000ac7f069bf569f27d389f2c70410107860b2e82ff561283b097a89e897daa5e34b1b66000805160206200178a833981519152620000da565b8051620000c190600190602084019062000230565b505050620003be565b620000d682826200012c565b5050565b600082815260208190526040808220600201549051839285917fbd79b86ffe0ab8e8776151514217cd7cacd52c909f66475c3af44e129f0b00ff9190a460009182526020829052604090912060020155565b6000828152602081815260409091206200015191839062000b23620001a5821b17901c565b15620000d65762000161620001c5565b6001600160a01b0316816001600160a01b0316837f2f8788117e7eff1d82e926ec794901d17c78024a50270940304540a733656f0d60405160405180910390a45050565b6000620001bc836001600160a01b038416620001c9565b90505b92915050565b3390565b6000620001d7838362000218565b6200020f57508154600181810184556000848152602080822090930184905584548482528286019093526040902091909155620001bf565b506000620001bf565b60009081526001919091016020526040902054151590565b828054600181600116156101000203166002900490600052602060002090601f016020900481019282620002685760008555620002b3565b82601f106200028357805160ff1916838001178555620002b3565b82800160010185558215620002b3579182015b82811115620002b357825182559160200191906001019062000296565b50620002c1929150620002c5565b5090565b5b80821115620002c15760008155600101620002c6565b60008060408385031215620002ef578182fd5b82516001600160a01b038116811462000306578283fd5b602084810151919350906001600160401b038082111562000325578384fd5b818601915086601f83011262000339578384fd5b8151818111156200034657fe5b604051601f8201601f19168101850183811182821017156200036457fe5b60405281815283820185018910156200037b578586fd5b8592505b818310156200039e57838301850151818401860152918401916200037f565b81831115620003af57858583830101525b80955050505050509250929050565b60805160601c6113ae620003dc6000398061026f52506113ae6000f3fe608060405234801561001057600080fd5b50600436106101005760003560e01c806391d1485411610097578063ca15c87311610066578063ca15c87314610223578063d547741f14610236578063e3eb62b314610249578063f1b672801461025c57610100565b806391d14854146101d3578063995d9ab7146101f3578063a217fddf14610208578063b42742881461021057610100565b806336568abe116100d357806336568abe14610176578063729aaabb146101895780637be0ca5e1461019c5780639010d07c146101b357610100565b80631e19bf161461010557806320822abc1461011a578063248a9ca3146101435780632f2ff15d14610163575b600080fd5b610118610113366004610f78565b610264565b005b61012d610128366004610f9b565b6102c1565b60405161013a9190611192565b60405180910390f35b610156610151366004610f9b565b61036a565b60405161013a9190611189565b610118610171366004610fb3565b61037f565b610118610184366004610fb3565b6103e6565b610118610197366004611003565b610447565b6101a46104a0565b60405161013a939291906111a5565b6101c66101c1366004610fe2565b610662565b60405161013a919061110a565b6101e66101e1366004610fb3565b610683565b60405161013a919061117e565b6101fb61069b565b60405161013a919061111e565b610156610773565b6101a461021e366004611003565b610778565b610156610231366004610f9b565b6107eb565b610118610244366004610fb3565b610802565b61011861025736600461103e565b61085b565b61012d610ac9565b336001600160a01b037f000000000000000000000000000000000000000000000000000000000000000016146102b55760405162461bcd60e51b81526004016102ac90611239565b60405180910390fd5b806001600160a01b0316ff5b600381815481106102d157600080fd5b600091825260209182902001805460408051601f60026000196101006001871615020190941693909304928301859004850281018501909152818152935090918301828280156103625780601f1061033757610100808354040283529160200191610362565b820191906000526020600020905b81548152906001019060200180831161034557829003601f168201915b505050505081565b60009081526020819052604090206002015490565b60008281526020819052604090206002015461039d906101e1610b38565b6103d85760405162461bcd60e51b815260040180806020018281038252602f8152602001806112eb602f913960400191505060405180910390fd5b6103e28282610b3c565b5050565b6103ee610b38565b6001600160a01b0316816001600160a01b03161461043d5760405162461bcd60e51b815260040180806020018281038252602f81526020018061134a602f913960400191505060405180910390fd5b6103e28282610ba5565b6104717fff7d2294a3c189284afb74beb7d578b566cf69863d5cb16db08773c21bea56c933610683565b61048d5760405162461bcd60e51b81526004016102ac90611212565b80516103e2906001906020840190610ddf565b60048054604080516020601f600260001961010060018816150201909516949094049384018190048102820181019092528281529183918301828280156105285780601f106104fd57610100808354040283529160200191610528565b820191906000526020600020905b81548152906001019060200180831161050b57829003601f168201915b505050505090806001018054600181600116156101000203166002900480601f0160208091040260200160405190810160405280929190818152602001828054600181600116156101000203166002900480156105c65780601f1061059b576101008083540402835291602001916105c6565b820191906000526020600020905b8154815290600101906020018083116105a957829003601f168201915b50505060028085018054604080516020601f60001961010060018716150201909416959095049283018590048502810185019091528181529596959450909250908301828280156106585780601f1061062d57610100808354040283529160200191610658565b820191906000526020600020905b81548152906001019060200180831161063b57829003601f168201915b5050505050905083565b600082815260208190526040812061067a9083610c0e565b90505b92915050565b600082815260208190526040812061067a9083610c1a565b60606003805480602002602001604051908101604052809291908181526020016000905b8282101561076a5760008481526020908190208301805460408051601f60026000196101006001871615020190941693909304928301859004850281018501909152818152928301828280156107565780601f1061072b57610100808354040283529160200191610756565b820191906000526020600020905b81548152906001019060200180831161073957829003601f168201915b5050505050815260200190600101906106bf565b50505050905090565b600081565b805180820160209081018051600280835293830194830194909420939052825460408051601f6000196101006001861615020190931694909404918201839004830284018301905280835283918301828280156105285780601f106104fd57610100808354040283529160200191610528565b600081815260208190526040812061067d90610c2f565b600082815260208190526040902060020154610820906101e1610b38565b61043d5760405162461bcd60e51b815260040180806020018281038252603081526020018061131a6030913960400191505060405180910390fd5b6108857fff7d2294a3c189284afb74beb7d578b566cf69863d5cb16db08773c21bea56c933610683565b806108b557506108b57f069bf569f27d389f2c70410107860b2e82ff561283b097a89e897daa5e34b1b633610683565b6108d15760405162461bcd60e51b81526004016102ac90611212565b6002836040516108e191906110ee565b90815260200160405180910390206001018054600181600116156101000203166002900490506000146109265760405162461bcd60e51b81526004016102ac906111e8565b600380546001810182556000919091528351610969917fc2575a0e9e593c00f959f8c92f12db2869c3395a3b0502d05e2516446f71f85b01906020860190610ddf565b5060405180606001604052808481526020018381526020018281525060028460405161099591906110ee565b908152602001604051809103902060008201518160000190805190602001906109bf929190610ddf565b5060208281015180516109d89260018501920190610ddf565b50604082015180516109f4916002840191602090910190610ddf565b50905050600283604051610a0891906110ee565b9081526040519081900360200190208054600490610a3c908290849060026000196101006001841615020190911604610e6b565b5060018201816001019080546001816001161561010002031660029004610a64929190610e6b565b5060028281018054610a89928481019291600019610100600183161502011604610e6b565b509050507fcca3b5deae8d56e87d93d362cbe3dea63bbd917e34287a63769b849b93dde19f83604051610abc9190611192565b60405180910390a1505050565b60018054604080516020600284861615610100026000190190941693909304601f810184900484028201840190925281815292918301828280156103625780601f1061033757610100808354040283529160200191610362565b600061067a836001600160a01b038416610c3a565b3390565b6000828152602081905260409020610b549082610b23565b156103e257610b61610b38565b6001600160a01b0316816001600160a01b0316837f2f8788117e7eff1d82e926ec794901d17c78024a50270940304540a733656f0d60405160405180910390a45050565b6000828152602081905260409020610bbd9082610c84565b156103e257610bca610b38565b6001600160a01b0316816001600160a01b0316837ff6391f5c32d9c69d2a47ea670b442974b53935d1edc7fd64eb21e047a839171b60405160405180910390a45050565b600061067a8383610c99565b600061067a836001600160a01b038416610cfd565b600061067d82610d15565b6000610c468383610cfd565b610c7c5750815460018181018455600084815260208082209093018490558454848252828601909352604090209190915561067d565b50600061067d565b600061067a836001600160a01b038416610d19565b81546000908210610cdb5760405162461bcd60e51b81526004018080602001828103825260228152602001806112c96022913960400191505060405180910390fd5b826000018281548110610cea57fe5b9060005260206000200154905092915050565b60009081526001919091016020526040902054151590565b5490565b60008181526001830160205260408120548015610dd55783546000198083019190810190600090879083908110610d4c57fe5b9060005260206000200154905080876000018481548110610d6957fe5b600091825260208083209091019290925582815260018981019092526040902090840190558654879080610d9957fe5b6001900381819060005260206000200160009055905586600101600087815260200190815260200160002060009055600194505050505061067d565b600091505061067d565b828054600181600116156101000203166002900490600052602060002090601f016020900481019282610e155760008555610e5b565b82601f10610e2e57805160ff1916838001178555610e5b565b82800160010185558215610e5b579182015b82811115610e5b578251825591602001919060010190610e40565b50610e67929150610eee565b5090565b828054600181600116156101000203166002900490600052602060002090601f016020900481019282610ea15760008555610e5b565b82601f10610eb25780548555610e5b565b82800160010185558215610e5b57600052602060002091601f016020900482015b82811115610e5b578254825591600101919060010190610ed3565b5b80821115610e675760008155600101610eef565b600082601f830112610f13578081fd5b813567ffffffffffffffff80821115610f2857fe5b604051601f8301601f191681016020018281118282101715610f4657fe5b604052828152848301602001861015610f5d578384fd5b82602086016020830137918201602001929092529392505050565b600060208284031215610f89578081fd5b8135610f94816112b0565b9392505050565b600060208284031215610fac578081fd5b5035919050565b60008060408385031215610fc5578081fd5b823591506020830135610fd7816112b0565b809150509250929050565b60008060408385031215610ff4578182fd5b50508035926020909101359150565b600060208284031215611014578081fd5b813567ffffffffffffffff81111561102a578182fd5b61103684828501610f03565b949350505050565b600080600060608486031215611052578081fd5b833567ffffffffffffffff80821115611069578283fd5b61107587838801610f03565b9450602086013591508082111561108a578283fd5b61109687838801610f03565b935060408601359150808211156110ab578283fd5b506110b886828701610f03565b9150509250925092565b600081518084526110da816020860160208601611280565b601f01601f19169290920160200192915050565b60008251611100818460208701611280565b9190910192915050565b6001600160a01b0391909116815260200190565b6000602080830181845280855180835260408601915060408482028701019250838701855b8281101561117157603f1988860301845261115f8583516110c2565b94509285019290850190600101611143565b5092979650505050505050565b901515815260200190565b90815260200190565b60006020825261067a60208301846110c2565b6000606082526111b860608301866110c2565b82810360208401526111ca81866110c2565b905082810360408401526111de81856110c2565b9695505050505050565b60208082526010908201526f151859c8185b1c9958591e481d5cd95960821b604082015260600190565b6020808252600d908201526c1058d8d95cdcc811195b9a5959609a1b604082015260600190565b60208082526027908201527f43616e206f6e6c792062652063616c6c65642066726f6d20706172656e7420636040820152661bdb9d1c9858dd60ca1b606082015260800190565b60005b8381101561129b578181015183820152602001611283565b838111156112aa576000848401525b50505050565b6001600160a01b03811681146112c557600080fd5b5056fe456e756d657261626c655365743a20696e646578206f7574206f6620626f756e6473416363657373436f6e74726f6c3a2073656e646572206d75737420626520616e2061646d696e20746f206772616e74416363657373436f6e74726f6c3a2073656e646572206d75737420626520616e2061646d696e20746f207265766f6b65416363657373436f6e74726f6c3a2063616e206f6e6c792072656e6f756e636520726f6c657320666f722073656c66a26469706673582212206985711489032ac9e96c6762abc601501d9687de4881ab415ebcf77197304f6764736f6c63430007060033ff7d2294a3c189284afb74beb7d578b566cf69863d5cb16db08773c21bea56c9",
    "immutableReferences": {
        "414": [
            {
                "length": 32,
                "start": 623
            }
        ]
    },
    "source": "// SPDX-License-Identifier: MIT\npragma solidity >=0.7.0;\npragma experimental ABIEncoderV2;\n\nimport \"@openzeppelin/contracts/access/AccessControl.sol\";\n\ncontract ValistRepository is AccessControl {\n\n    address immutable deployer;\n\n    bytes32 constant REPO_ADMIN = keccak256(\"REPO_ADMIN_ROLE\");\n    bytes32 constant REPO_DEV = keccak256(\"REPO_DEV_ROLE\");\n\n    string public repoMeta; // ipfs URI for metadata (image, description, etc)\n\n    struct Release {\n        string tag;\n        string releaseCID;\n        string metaCID;\n    }\n\n    mapping(string => Release) public releases;\n\n    string[] public tags;\n\n    Release public latestRelease; // latest release\n\n    event NewRelease(string tag);\n\n    modifier admin() {\n        require(hasRole(REPO_ADMIN, msg.sender), \"Access Denied\");\n        _;\n    }\n\n    modifier developer() {\n        require(hasRole(REPO_ADMIN, msg.sender) || hasRole(REPO_DEV, msg.sender), \"Access Denied\");\n        _;\n    }\n\n    constructor(address _admin, string memory _repoMeta) {\n        deployer = msg.sender;\n\n        _setupRole(REPO_ADMIN, _admin);\n        _setRoleAdmin(REPO_ADMIN, REPO_ADMIN);\n        _setRoleAdmin(REPO_DEV, REPO_ADMIN);\n\n        repoMeta = _repoMeta;\n    }\n\n    function getTags() public view returns(string[] memory) {\n        return tags;\n    }\n\n    function updateRepoMeta(string memory _repoMeta) public admin {\n        repoMeta = _repoMeta;\n    }\n\n    function publishRelease(string memory _tag, string memory _latestRelease, string memory _releaseMeta) public developer {\n        require(bytes(releases[_tag].releaseCID).length == 0, \"Tag already used\");\n\n        tags.push(_tag);\n\n        releases[_tag] = Release(_tag, _latestRelease, _releaseMeta);\n\n        latestRelease = releases[_tag];\n\n        emit NewRelease(_tag);\n    }\n\n    function _deleteRepository(address payable _admin) external {\n        require(msg.sender == deployer, \"Can only be called from parent contract\");\n\n        selfdestruct(_admin);\n    }\n\n}\n",
    "sourcePath": "/Users/alec/Workspace/valist/eth/contracts/ValistRepository.sol",
    "compiler": {
        "name": "solc",
        "version": "0.7.6+commit.7338295f.Emscripten.clang"
    },
    "schemaVersion": "3.3.3",
    "updatedAt": "2020-12-30T03:59:09.930Z",
    "devdoc": {
        "kind": "dev",
        "methods": {
            "getRoleAdmin(bytes32)": {
                "details": "Returns the admin role that controls `role`. See {grantRole} and {revokeRole}. To change a role's admin, use {_setRoleAdmin}."
            },
            "getRoleMember(bytes32,uint256)": {
                "details": "Returns one of the accounts that have `role`. `index` must be a value between 0 and {getRoleMemberCount}, non-inclusive. Role bearers are not sorted in any particular way, and their ordering may change at any point. WARNING: When using {getRoleMember} and {getRoleMemberCount}, make sure you perform all queries on the same block. See the following https://forum.openzeppelin.com/t/iterating-over-elements-on-enumerableset-in-openzeppelin-contracts/2296[forum post] for more information."
            },
            "getRoleMemberCount(bytes32)": {
                "details": "Returns the number of accounts that have `role`. Can be used together with {getRoleMember} to enumerate all bearers of a role."
            },
            "grantRole(bytes32,address)": {
                "details": "Grants `role` to `account`. If `account` had not been already granted `role`, emits a {RoleGranted} event. Requirements: - the caller must have ``role``'s admin role."
            },
            "hasRole(bytes32,address)": {
                "details": "Returns `true` if `account` has been granted `role`."
            },
            "renounceRole(bytes32,address)": {
                "details": "Revokes `role` from the calling account. Roles are often managed via {grantRole} and {revokeRole}: this function's purpose is to provide a mechanism for accounts to lose their privileges if they are compromised (such as when a trusted device is misplaced). If the calling account had been granted `role`, emits a {RoleRevoked} event. Requirements: - the caller must be `account`."
            },
            "revokeRole(bytes32,address)": {
                "details": "Revokes `role` from `account`. If `account` had been granted `role`, emits a {RoleRevoked} event. Requirements: - the caller must have ``role``'s admin role."
            }
        },
        "version": 1
    },
    "userdoc": {
        "kind": "user",
        "methods": {},
        "version": 1
    }
}