{
  "_format": "hh-sol-artifact-1",
  "contractName": "Valist",
  "sourceName": "contracts/Valist.sol",
  "abi": [
    {
      "inputs": [
        {
          "internalType": "address",
          "name": "metaTxForwarder",
          "type": "address"
        }
      ],
      "stateMutability": "nonpayable",
      "type": "constructor"
    },
    {
      "anonymous": false,
      "inputs": [
        {
          "indexed": true,
          "internalType": "bytes32",
          "name": "_orgID",
          "type": "bytes32"
        },
        {
          "indexed": true,
          "internalType": "string",
          "name": "_repoName",
          "type": "string"
        },
        {
          "indexed": true,
          "internalType": "address",
          "name": "_signer",
          "type": "address"
        },
        {
          "indexed": false,
          "internalType": "string",
          "name": "_metaCID",
          "type": "string"
        }
      ],
      "name": "MetaUpdate",
      "type": "event"
    },
    {
      "anonymous": false,
      "inputs": [
        {
          "indexed": true,
          "internalType": "bytes32",
          "name": "_orgID",
          "type": "bytes32"
        },
        {
          "indexed": true,
          "internalType": "string",
          "name": "_repoName",
          "type": "string"
        },
        {
          "indexed": false,
          "internalType": "address",
          "name": "_signer",
          "type": "address"
        },
        {
          "indexed": false,
          "internalType": "bytes32",
          "name": "_operation",
          "type": "bytes32"
        },
        {
          "indexed": true,
          "internalType": "address",
          "name": "_key",
          "type": "address"
        },
        {
          "indexed": false,
          "internalType": "uint256",
          "name": "_sigCount",
          "type": "uint256"
        },
        {
          "indexed": false,
          "internalType": "uint256",
          "name": "_threshold",
          "type": "uint256"
        }
      ],
      "name": "VoteKeyEvent",
      "type": "event"
    },
    {
      "anonymous": false,
      "inputs": [
        {
          "indexed": true,
          "internalType": "bytes32",
          "name": "_orgID",
          "type": "bytes32"
        },
        {
          "indexed": true,
          "internalType": "string",
          "name": "_repoName",
          "type": "string"
        },
        {
          "indexed": true,
          "internalType": "string",
          "name": "_tag",
          "type": "string"
        },
        {
          "indexed": false,
          "internalType": "string",
          "name": "_releaseCID",
          "type": "string"
        },
        {
          "indexed": false,
          "internalType": "string",
          "name": "_metaCID",
          "type": "string"
        },
        {
          "indexed": false,
          "internalType": "address",
          "name": "_signer",
          "type": "address"
        },
        {
          "indexed": false,
          "internalType": "uint256",
          "name": "_sigCount",
          "type": "uint256"
        },
        {
          "indexed": false,
          "internalType": "uint256",
          "name": "_threshold",
          "type": "uint256"
        }
      ],
      "name": "VoteReleaseEvent",
      "type": "event"
    },
    {
      "anonymous": false,
      "inputs": [
        {
          "indexed": true,
          "internalType": "bytes32",
          "name": "_orgID",
          "type": "bytes32"
        },
        {
          "indexed": true,
          "internalType": "string",
          "name": "_repoName",
          "type": "string"
        },
        {
          "indexed": false,
          "internalType": "address",
          "name": "_signer",
          "type": "address"
        },
        {
          "indexed": true,
          "internalType": "uint256",
          "name": "_pendingThreshold",
          "type": "uint256"
        },
        {
          "indexed": false,
          "internalType": "uint256",
          "name": "_sigCount",
          "type": "uint256"
        },
        {
          "indexed": false,
          "internalType": "uint256",
          "name": "_threshold",
          "type": "uint256"
        }
      ],
      "name": "VoteThresholdEvent",
      "type": "event"
    },
    {
      "inputs": [
        {
          "internalType": "bytes32",
          "name": "_orgID",
          "type": "bytes32"
        },
        {
          "internalType": "string",
          "name": "_repoName",
          "type": "string"
        },
        {
          "internalType": "bytes32",
          "name": "_operation",
          "type": "bytes32"
        },
        {
          "internalType": "address",
          "name": "_key",
          "type": "address"
        },
        {
          "internalType": "uint256",
          "name": "_requestIndex",
          "type": "uint256"
        }
      ],
      "name": "clearPendingKey",
      "outputs": [],
      "stateMutability": "nonpayable",
      "type": "function"
    },
    {
      "inputs": [
        {
          "internalType": "bytes32",
          "name": "_orgID",
          "type": "bytes32"
        },
        {
          "internalType": "string",
          "name": "_repoName",
          "type": "string"
        },
        {
          "internalType": "string",
          "name": "_tag",
          "type": "string"
        },
        {
          "internalType": "string",
          "name": "_releaseCID",
          "type": "string"
        },
        {
          "internalType": "string",
          "name": "_metaCID",
          "type": "string"
        },
        {
          "internalType": "uint256",
          "name": "_requestIndex",
          "type": "uint256"
        }
      ],
      "name": "clearPendingRelease",
      "outputs": [],
      "stateMutability": "nonpayable",
      "type": "function"
    },
    {
      "inputs": [
        {
          "internalType": "bytes32",
          "name": "_orgID",
          "type": "bytes32"
        },
        {
          "internalType": "string",
          "name": "_repoName",
          "type": "string"
        },
        {
          "internalType": "uint256",
          "name": "_threshold",
          "type": "uint256"
        },
        {
          "internalType": "uint256",
          "name": "_requestIndex",
          "type": "uint256"
        }
      ],
      "name": "clearPendingThreshold",
      "outputs": [],
      "stateMutability": "nonpayable",
      "type": "function"
    },
    {
      "inputs": [
        {
          "internalType": "string",
          "name": "_orgName",
          "type": "string"
        },
        {
          "internalType": "string",
          "name": "_orgMeta",
          "type": "string"
        }
      ],
      "name": "createOrganization",
      "outputs": [],
      "stateMutability": "nonpayable",
      "type": "function"
    },
    {
      "inputs": [
        {
          "internalType": "bytes32",
          "name": "_orgID",
          "type": "bytes32"
        },
        {
          "internalType": "string",
          "name": "_repoName",
          "type": "string"
        },
        {
          "internalType": "string",
          "name": "_repoMeta",
          "type": "string"
        }
      ],
      "name": "createRepository",
      "outputs": [],
      "stateMutability": "nonpayable",
      "type": "function"
    },
    {
      "inputs": [
        {
          "internalType": "bytes32",
          "name": "_orgID",
          "type": "bytes32"
        },
        {
          "internalType": "string",
          "name": "_repoName",
          "type": "string"
        }
      ],
      "name": "getLatestRelease",
      "outputs": [
        {
          "internalType": "string",
          "name": "",
          "type": "string"
        },
        {
          "internalType": "string",
          "name": "",
          "type": "string"
        },
        {
          "internalType": "string",
          "name": "",
          "type": "string"
        },
        {
          "internalType": "address[]",
          "name": "",
          "type": "address[]"
        }
      ],
      "stateMutability": "view",
      "type": "function"
    },
    {
      "inputs": [
        {
          "internalType": "uint256",
          "name": "_page",
          "type": "uint256"
        },
        {
          "internalType": "uint256",
          "name": "_resultsPerPage",
          "type": "uint256"
        }
      ],
      "name": "getOrgNames",
      "outputs": [
        {
          "internalType": "string[]",
          "name": "",
          "type": "string[]"
        }
      ],
      "stateMutability": "view",
      "type": "function"
    },
    {
      "inputs": [
        {
          "internalType": "bytes32",
          "name": "_selector",
          "type": "bytes32"
        }
      ],
      "name": "getPendingReleaseCount",
      "outputs": [
        {
          "internalType": "uint256",
          "name": "",
          "type": "uint256"
        }
      ],
      "stateMutability": "view",
      "type": "function"
    },
    {
      "inputs": [
        {
          "internalType": "bytes32",
          "name": "_selector",
          "type": "bytes32"
        }
      ],
      "name": "getPendingVotes",
      "outputs": [
        {
          "internalType": "uint256",
          "name": "",
          "type": "uint256"
        },
        {
          "internalType": "address[]",
          "name": "",
          "type": "address[]"
        }
      ],
      "stateMutability": "view",
      "type": "function"
    },
    {
      "inputs": [
        {
          "internalType": "bytes32",
          "name": "_selector",
          "type": "bytes32"
        },
        {
          "internalType": "uint256",
          "name": "_page",
          "type": "uint256"
        },
        {
          "internalType": "uint256",
          "name": "_resultsPerPage",
          "type": "uint256"
        }
      ],
      "name": "getReleaseTags",
      "outputs": [
        {
          "internalType": "string[]",
          "name": "",
          "type": "string[]"
        }
      ],
      "stateMutability": "view",
      "type": "function"
    },
    {
      "inputs": [
        {
          "internalType": "bytes32",
          "name": "_orgID",
          "type": "bytes32"
        },
        {
          "internalType": "uint256",
          "name": "_page",
          "type": "uint256"
        },
        {
          "internalType": "uint256",
          "name": "_resultsPerPage",
          "type": "uint256"
        }
      ],
      "name": "getRepoNames",
      "outputs": [
        {
          "internalType": "string[]",
          "name": "",
          "type": "string[]"
        }
      ],
      "stateMutability": "view",
      "type": "function"
    },
    {
      "inputs": [
        {
          "internalType": "bytes32",
          "name": "_selector",
          "type": "bytes32"
        }
      ],
      "name": "getRoleMembers",
      "outputs": [
        {
          "internalType": "address[]",
          "name": "",
          "type": "address[]"
        }
      ],
      "stateMutability": "view",
      "type": "function"
    },
    {
      "inputs": [
        {
          "internalType": "bytes32",
          "name": "_selector",
          "type": "bytes32"
        }
      ],
      "name": "getRoleRequestCount",
      "outputs": [
        {
          "internalType": "uint256",
          "name": "",
          "type": "uint256"
        }
      ],
      "stateMutability": "view",
      "type": "function"
    },
    {
      "inputs": [
        {
          "internalType": "bytes32",
          "name": "_selector",
          "type": "bytes32"
        }
      ],
      "name": "getThresholdRequestCount",
      "outputs": [
        {
          "internalType": "uint256",
          "name": "",
          "type": "uint256"
        }
      ],
      "stateMutability": "view",
      "type": "function"
    },
    {
      "inputs": [
        {
          "internalType": "bytes32",
          "name": "_orgID",
          "type": "bytes32"
        },
        {
          "internalType": "address",
          "name": "_address",
          "type": "address"
        }
      ],
      "name": "isOrgAdmin",
      "outputs": [
        {
          "internalType": "bool",
          "name": "",
          "type": "bool"
        }
      ],
      "stateMutability": "view",
      "type": "function"
    },
    {
      "inputs": [
        {
          "internalType": "bytes32",
          "name": "_orgID",
          "type": "bytes32"
        },
        {
          "internalType": "string",
          "name": "_repoName",
          "type": "string"
        },
        {
          "internalType": "address",
          "name": "_address",
          "type": "address"
        }
      ],
      "name": "isRepoDev",
      "outputs": [
        {
          "internalType": "bool",
          "name": "",
          "type": "bool"
        }
      ],
      "stateMutability": "view",
      "type": "function"
    },
    {
      "inputs": [
        {
          "internalType": "address",
          "name": "forwarder",
          "type": "address"
        }
      ],
      "name": "isTrustedForwarder",
      "outputs": [
        {
          "internalType": "bool",
          "name": "",
          "type": "bool"
        }
      ],
      "stateMutability": "view",
      "type": "function"
    },
    {
      "inputs": [],
      "name": "orgCount",
      "outputs": [
        {
          "internalType": "uint256",
          "name": "",
          "type": "uint256"
        }
      ],
      "stateMutability": "view",
      "type": "function"
    },
    {
      "inputs": [
        {
          "internalType": "string",
          "name": "",
          "type": "string"
        }
      ],
      "name": "orgIDByName",
      "outputs": [
        {
          "internalType": "bytes32",
          "name": "",
          "type": "bytes32"
        }
      ],
      "stateMutability": "view",
      "type": "function"
    },
    {
      "inputs": [
        {
          "internalType": "uint256",
          "name": "",
          "type": "uint256"
        }
      ],
      "name": "orgIDs",
      "outputs": [
        {
          "internalType": "bytes32",
          "name": "",
          "type": "bytes32"
        }
      ],
      "stateMutability": "view",
      "type": "function"
    },
    {
      "inputs": [
        {
          "internalType": "uint256",
          "name": "",
          "type": "uint256"
        }
      ],
      "name": "orgNames",
      "outputs": [
        {
          "internalType": "string",
          "name": "",
          "type": "string"
        }
      ],
      "stateMutability": "view",
      "type": "function"
    },
    {
      "inputs": [
        {
          "internalType": "bytes32",
          "name": "",
          "type": "bytes32"
        }
      ],
      "name": "orgs",
      "outputs": [
        {
          "internalType": "uint256",
          "name": "threshold",
          "type": "uint256"
        },
        {
          "internalType": "uint256",
          "name": "thresholdDate",
          "type": "uint256"
        },
        {
          "internalType": "string",
          "name": "metaCID",
          "type": "string"
        }
      ],
      "stateMutability": "view",
      "type": "function"
    },
    {
      "inputs": [
        {
          "internalType": "bytes32",
          "name": "",
          "type": "bytes32"
        },
        {
          "internalType": "uint256",
          "name": "",
          "type": "uint256"
        }
      ],
      "name": "pendingReleaseRequests",
      "outputs": [
        {
          "internalType": "string",
          "name": "tag",
          "type": "string"
        },
        {
          "internalType": "string",
          "name": "releaseCID",
          "type": "string"
        },
        {
          "internalType": "string",
          "name": "metaCID",
          "type": "string"
        }
      ],
      "stateMutability": "view",
      "type": "function"
    },
    {
      "inputs": [
        {
          "internalType": "bytes32",
          "name": "",
          "type": "bytes32"
        },
        {
          "internalType": "uint256",
          "name": "",
          "type": "uint256"
        }
      ],
      "name": "pendingRoleRequests",
      "outputs": [
        {
          "internalType": "address",
          "name": "",
          "type": "address"
        }
      ],
      "stateMutability": "view",
      "type": "function"
    },
    {
      "inputs": [
        {
          "internalType": "bytes32",
          "name": "",
          "type": "bytes32"
        },
        {
          "internalType": "uint256",
          "name": "",
          "type": "uint256"
        }
      ],
      "name": "pendingThresholdRequests",
      "outputs": [
        {
          "internalType": "uint256",
          "name": "",
          "type": "uint256"
        }
      ],
      "stateMutability": "view",
      "type": "function"
    },
    {
      "inputs": [
        {
          "internalType": "bytes32",
          "name": "",
          "type": "bytes32"
        }
      ],
      "name": "releases",
      "outputs": [
        {
          "internalType": "string",
          "name": "releaseCID",
          "type": "string"
        },
        {
          "internalType": "string",
          "name": "metaCID",
          "type": "string"
        }
      ],
      "stateMutability": "view",
      "type": "function"
    },
    {
      "inputs": [
        {
          "internalType": "bytes32",
          "name": "",
          "type": "bytes32"
        }
      ],
      "name": "repos",
      "outputs": [
        {
          "internalType": "bool",
          "name": "exists",
          "type": "bool"
        },
        {
          "internalType": "uint256",
          "name": "threshold",
          "type": "uint256"
        },
        {
          "internalType": "uint256",
          "name": "thresholdDate",
          "type": "uint256"
        },
        {
          "internalType": "string",
          "name": "metaCID",
          "type": "string"
        }
      ],
      "stateMutability": "view",
      "type": "function"
    },
    {
      "inputs": [
        {
          "internalType": "bytes32",
          "name": "",
          "type": "bytes32"
        }
      ],
      "name": "roleModifiedTimestamps",
      "outputs": [
        {
          "internalType": "uint256",
          "name": "",
          "type": "uint256"
        }
      ],
      "stateMutability": "view",
      "type": "function"
    },
    {
      "inputs": [
        {
          "internalType": "bytes32",
          "name": "_orgID",
          "type": "bytes32"
        },
        {
          "internalType": "string",
          "name": "_metaCID",
          "type": "string"
        }
      ],
      "name": "setOrgMeta",
      "outputs": [],
      "stateMutability": "nonpayable",
      "type": "function"
    },
    {
      "inputs": [
        {
          "internalType": "bytes32",
          "name": "_orgID",
          "type": "bytes32"
        },
        {
          "internalType": "string",
          "name": "_repoName",
          "type": "string"
        },
        {
          "internalType": "string",
          "name": "_metaCID",
          "type": "string"
        }
      ],
      "name": "setRepoMeta",
      "outputs": [],
      "stateMutability": "nonpayable",
      "type": "function"
    },
    {
      "inputs": [],
      "name": "trustedForwarder",
      "outputs": [
        {
          "internalType": "address",
          "name": "",
          "type": "address"
        }
      ],
      "stateMutability": "view",
      "type": "function"
    },
    {
      "inputs": [],
      "name": "versionRecipient",
      "outputs": [
        {
          "internalType": "string",
          "name": "",
          "type": "string"
        }
      ],
      "stateMutability": "view",
      "type": "function"
    },
    {
      "inputs": [
        {
          "internalType": "bytes32",
          "name": "_orgID",
          "type": "bytes32"
        },
        {
          "internalType": "string",
          "name": "_repoName",
          "type": "string"
        },
        {
          "internalType": "bytes32",
          "name": "_operation",
          "type": "bytes32"
        },
        {
          "internalType": "address",
          "name": "_key",
          "type": "address"
        }
      ],
      "name": "voteKey",
      "outputs": [],
      "stateMutability": "nonpayable",
      "type": "function"
    },
    {
      "inputs": [
        {
          "internalType": "bytes32",
          "name": "_orgID",
          "type": "bytes32"
        },
        {
          "internalType": "string",
          "name": "_repoName",
          "type": "string"
        },
        {
          "internalType": "string",
          "name": "_tag",
          "type": "string"
        },
        {
          "internalType": "string",
          "name": "_releaseCID",
          "type": "string"
        },
        {
          "internalType": "string",
          "name": "_metaCID",
          "type": "string"
        }
      ],
      "name": "voteRelease",
      "outputs": [],
      "stateMutability": "nonpayable",
      "type": "function"
    },
    {
      "inputs": [
        {
          "internalType": "bytes32",
          "name": "_orgID",
          "type": "bytes32"
        },
        {
          "internalType": "string",
          "name": "_repoName",
          "type": "string"
        },
        {
          "internalType": "uint256",
          "name": "_threshold",
          "type": "uint256"
        }
      ],
      "name": "voteThreshold",
      "outputs": [],
      "stateMutability": "nonpayable",
      "type": "function"
    }
  ],
  "bytecode": "0x60c060405260056080819052640322e322e360dc1b60a09081526200002891600191906200007f565b503480156200003657600080fd5b5060405162004ce238038062004ce2833981016040819052620000599162000125565b600080546001600160a01b0319166001600160a01b039290921691909117905562000192565b8280546200008d9062000155565b90600052602060002090601f016020900481019282620000b15760008555620000fc565b82601f10620000cc57805160ff1916838001178555620000fc565b82800160010185558215620000fc579182015b82811115620000fc578251825591602001919060010190620000df565b506200010a9291506200010e565b5090565b5b808211156200010a57600081556001016200010f565b60006020828403121562000137578081fd5b81516001600160a01b03811681146200014e578182fd5b9392505050565b600181811c908216806200016a57607f821691505b602082108114156200018c57634e487b7160e01b600052602260045260246000fd5b50919050565b614b4080620001a26000396000f3fe608060405234801561001057600080fd5b50600436106102115760003560e01c8063a411ef2011610125578063d96162a1116100ad578063e59dbfa41161007c578063e59dbfa41461054a578063f26f3c561461055d578063f3439d5614610570578063f491a84c14610583578063f735b352146105a457600080fd5b8063d96162a1146104fe578063dedc339114610511578063dfec1bb014610524578063e253f5e11461053757600080fd5b8063c372be80116100f4578063c372be8014610483578063c6c2a0be14610496578063cd20ff77146104a9578063d565e860146104d4578063d8106690146104f557600080fd5b8063a411ef2014610428578063a940abcb1461043b578063aa788ebe1461045d578063b93d16851461047057600080fd5b80635bb44241116101a85780638775692f116101775780638775692f146103935780638bf67370146103a6578063924a5443146103c6578063a3246ad3146103e6578063a3e84beb1461040657600080fd5b80635bb44241146103125780635cd20d29146103255780637da0a87714610348578063837dc4d01461037357600080fd5b80633e1bf64b116101e45780633e1bf64b146102a857806340fd48a7146102c8578063486ff0cd146102db578063572b6c05146102f057600080fd5b806302b2583a146102165780631fd522a614610242578063328d3ddf146102655780633b0659fd1461027a575b600080fd5b610229610224366004613f63565b6105b7565b6040516102399493929190614692565b60405180910390f35b610255610250366004613fea565b61066e565b6040519015158152602001610239565b61027861027336600461416b565b610775565b005b61029a610288366004613f63565b6000908152600d602052604090205490565b604051908152602001610239565b61029a6102b6366004613f63565b6000908152600c602052604090205490565b6102786102d636600461409c565b610ea9565b6102e3611292565b60405161023991906147db565b6102556102fe366004613f49565b6000546001600160a01b0391821691161490565b6102e3610320366004613f63565b611320565b610338610333366004613fa6565b61134b565b60405161023994939291906148a1565b60005461035b906001600160a01b031681565b6040516001600160a01b039091168152602001610239565b610386610381366004614397565b61166f565b6040516102399190614631565b61029a6103a1366004613f63565b611837565b61029a6103b4366004613f63565b600a6020526000908152604090205481565b61029a6103d4366004613f63565b6000908152600b602052604090205490565b6103f96103f4366004613f63565b611858565b604051610239919061461e565b610419610414366004613f63565b61194c565b60405161023993929190614978565b6102786104363660046143f4565b6119f7565b61044e610449366004614376565b611c3f565b60405161023993929190614868565b61038661046b366004614376565b611d9b565b61027861047e366004614322565b611f36565b61029a610491366004614376565b6121c4565b6102786104a436600461421c565b6121f5565b61029a6104b73660046143c2565b805160208183018101805160058252928201919093012091525481565b6104e76104e2366004613f63565b612528565b60405161023992919061495f565b61029a60025481565b61025561050c366004613f7b565b612636565b61027861051f366004614102565b61269c565b61035b610532366004614376565b61277d565b610278610545366004613fa6565b6127b5565b610278610558366004614102565b61287a565b61027861056b36600461403e565b612a0a565b61038661057e366004614397565b61327b565b610596610591366004613f63565b613439565b6040516102399291906147ee565b6102786105b23660046142d5565b613565565b600760205260009081526040902080546001820154600283015460038401805460ff9094169492939192916105eb90614a28565b80601f016020809104026020016040519081016040528092919081815260200182805461061790614a28565b80156106645780601f1061063957610100808354040283529160200191610664565b820191906000526020600020905b81548152906001019060200180831161064757829003601f168201915b5050505050905084565b8151600090156107615760076000858560405160200161068f9291906144b9565b60408051601f198184030181529181528151602092830120835290820192909252016000205460ff166106f35760405162461bcd60e51b81526020600482015260076024820152664e6f207265706f60c81b60448201526064015b60405180910390fd5b60008484600080516020614acb8339815191526040516020016107189392919061451e565b60408051601f1981840301815291815281516020928301206000818152600990935291209091506107499084613ac6565b8061075957506107598584612636565b91505061076e565b61076b8483612636565b90505b9392505050565b84846107848282610250613ae8565b6107a05760405162461bcd60e51b81526004016106ea9061491e565b60008551116107da5760405162461bcd60e51b81526020600482015260066024820152654e6f2074616760d01b60448201526064016106ea565b600084511161081b5760405162461bcd60e51b815260206004820152600d60248201526c139bc81c995b19585cd950d251609a1b60448201526064016106ea565b60008351116108595760405162461bcd60e51b815260206004820152600a602482015269139bc81b595d1850d25160b21b60448201526064016106ea565b6000878787604051602001610870939291906146b9565b60408051601f1981840301815291815281516020928301206000818152600890935291208054919250906108a390614a28565b1590506108dd5760405162461bcd60e51b8152602060048201526008602482015267151859c81d5cd95960c21b60448201526064016106ea565b600088888888886040516020016108f89594939291906146e4565b604051602081830303815290604052805190602001209050600089896040516020016109259291906144b9565b6040516020818303038152906040528051906020012090506001600760008381526020019081526020016000206001015411610aa9576000838152600860209081526040909120885161097a928a0190613d56565b50600083815260086020908152604090912087516109a092600190920191890190613d56565b5060008381526008602052604090206002016109ba613ae8565b8154600180820184556000938452602080852090920180546001600160a01b0319166001600160a01b0394909416939093179092558383526007815260408320600401805492830181558352918290208a51610a1e939190920191908b0190613d56565b5087604051610a2d9190614593565b604051809103902089604051610a439190614593565b60405180910390208b7f38b17387282322f8d6de03e5d4b3ff512d3bb4d3db8cc2be4611ecfb8a126c6b8a8a610a77613ae8565b600088815260076020526040908190206001908101549151610a9c959493929061481c565b60405180910390a4610e9d565b6000828152600e6020526040902054610b8b57610ac94262093a80614997565b6000838152600e6020526040902055610afa610ae3613ae8565b6000848152600e6020526040902060010190613b1c565b506000818152600b6020908152604080832081516060810183528c81528084018c90529182018a905280546001810182559084529282902081518051929460030290910192610b4e92849290910190613d56565b506020828101518051610b679260018501920190613d56565b5060408201518051610b83916002840191602090910190613d56565b505050610dfe565b6000828152600e6020526040902054421115610bb95760405162461bcd60e51b81526004016106ea9061493e565b610bdb610bc4613ae8565b6000848152600e6020526040902060010190613ac6565b15610c155760405162461bcd60e51b815260206004820152600a602482015269155cd95c881d9bdd195960b21b60448201526064016106ea565b610c20610ae3613ae8565b5060005b6000838152600e60205260409020610c3e90600101613b31565b811015610cb8576000838152600e60205260409020610c68908c908c906102509060010185613b3b565b610ca8576000838152600e60205260409020610ca290610c8b9060010183613b3b565b6000858152600e6020526040902060010190613b47565b50600090505b610cb181614a63565b9050610c24565b506000818152600760209081526040808320600190810154868552600e90935292209091610ce69101613b31565b10610dfe5760008381526008602090815260409091208851610d0a928a0190613d56565b5060008381526008602090815260409091208751610d3092600190920191890190613d56565b5060005b6000838152600e60205260409020610d4e90600101613b31565b811015610dc6576000848152600860209081526040808320868452600e909252909120600290910190610d849060010183613b3b565b81546001810183556000928352602090922090910180546001600160a01b0319166001600160a01b03909216919091179055610dbf81614a63565b9050610d34565b50600081815260076020908152604082206004018054600181018255908352918190208a51610dfc9391909101918b0190613d56565b505b87604051610e0c9190614593565b604051809103902089604051610e229190614593565b60405180910390208b7f38b17387282322f8d6de03e5d4b3ff512d3bb4d3db8cc2be4611ecfb8a126c6b8a8a610e56613ae8565b6000898152600e60205260409020610e7090600101613b31565b60008981526007602052604090819020600101549051610e9495949392919061481c565b60405180910390a45b50505050505050505050565b8484610eb88282610250613ae8565b610ed45760405162461bcd60e51b81526004016106ea9061491e565b600080516020614aab833981519152851480610f0f57507fb85a6b22a26ce426daea6357c60a74cb0b4d36234cd7c96170cd6a64102786ff85145b610f485760405162461bcd60e51b815260206004820152600a6024820152690496e76616c6964206f760b41b60448201526064016106ea565b6000806000898988604051602001610f62939291906144df565b604051602081830303815290604052805190602001209050600089511115610ff3578989600080516020614acb8339815191528a8a604051602001610fab95949392919061454b565b6040516020818303038152906040528051906020012092508989604051602001610fd69291906144b9565b60405160208183030381529060405280519060200120915061104d565b60408051602081018c9052600080516020614aeb8339815191529181019190915260608082018a905288901b6001600160601b03191660808201526094016040516020818303038152906040528051906020012092508991505b6000838152600e60205260409020544210158061109457506000838152600e60205260409020546110829062093a80906149ce565b6000828152600a602052604090205410155b6110b05760405162461bcd60e51b81526004016106ea906148f9565b6000828152600c6020526040902080546001600160a01b0389169190889081106110ea57634e487b7160e01b600052603260045260246000fd5b6000918252602090912001546001600160a01b0316146111385760405162461bcd60e51b815260206004820152600960248201526857726f6e67206b657960b81b60448201526064016106ea565b6000838152600e6020526040812061115290600101613b31565b111561117d576000838152600e6020526040812061117791610c8b9160010190613b3b565b50611138565b6000838152600e60209081526040808320839055848352600c909152902080546111a9906001906149ce565b815481106111c757634e487b7160e01b600052603260045260246000fd5b6000918252602080832090910154848352600c909152604090912080546001600160a01b03909216918890811061120e57634e487b7160e01b600052603260045260246000fd5b600091825260208083209190910180546001600160a01b0319166001600160a01b039490941693909317909255838152600c9091526040902080548061126457634e487b7160e01b600052603160045260246000fd5b600082815260209020810160001990810180546001600160a01b031916905501905550505050505050505050565b6001805461129f90614a28565b80601f01602080910402602001604051908101604052809291908181526020018280546112cb90614a28565b80156113185780601f106112ed57610100808354040283529160200191611318565b820191906000526020600020905b8154815290600101906020018083116112fb57829003601f168201915b505050505081565b6004818154811061133057600080fd5b90600052602060002001600091509050805461129f90614a28565b606080606080600060076000888860405160200161136a9291906144b9565b6040516020818303038152906040528051906020012081526020019081526020016000209050600060086000898985600401600187600401805490506113b091906149ce565b815481106113ce57634e487b7160e01b600052603260045260246000fd5b906000526020600020016040516020016113ea93929190614743565b6040516020818303038152906040528051906020012081526020019081526020016000209050816004016001836004018054905061142891906149ce565b8154811061144657634e487b7160e01b600052603260045260246000fd5b9060005260206000200181600001826001018360020183805461146890614a28565b80601f016020809104026020016040519081016040528092919081815260200182805461149490614a28565b80156114e15780601f106114b6576101008083540402835291602001916114e1565b820191906000526020600020905b8154815290600101906020018083116114c457829003601f168201915b505050505093508280546114f490614a28565b80601f016020809104026020016040519081016040528092919081815260200182805461152090614a28565b801561156d5780601f106115425761010080835404028352916020019161156d565b820191906000526020600020905b81548152906001019060200180831161155057829003601f168201915b5050505050925081805461158090614a28565b80601f01602080910402602001604051908101604052809291908181526020018280546115ac90614a28565b80156115f95780601f106115ce576101008083540402835291602001916115f9565b820191906000526020600020905b8154815290600101906020018083116115dc57829003601f168201915b505050505091508080548060200260200160405190810160405280929190818152602001828054801561165557602002820191906000526020600020905b81546001600160a01b03168152600190910190602001808311611637575b505050505090509550955095509550505092959194509250565b606060008261167e85826149af565b61168891906149ce565b9050600061169684866149af565b6000878152600660205260409020600301549091508111156116c657506000858152600660205260409020600301545b6000846001600160401b038111156116ee57634e487b7160e01b600052604160045260246000fd5b60405190808252806020026020018201604052801561172157816020015b606081526020019060019003908161170c5790505b5090505b8183101561182d57600087815260066020526040902060030180548490811061175e57634e487b7160e01b600052603260045260246000fd5b90600052602060002001805461177390614a28565b80601f016020809104026020016040519081016040528092919081815260200182805461179f90614a28565b80156117ec5780601f106117c1576101008083540402835291602001916117ec565b820191906000526020600020905b8154815290600101906020018083116117cf57829003601f168201915b505050505081848151811061181157634e487b7160e01b600052603260045260246000fd5b60200260200101819052508261182690614a63565b9250611725565b9695505050505050565b6003818154811061184757600080fd5b600091825260209091200154905081565b60008181526009602052604081206060919061187390613b31565b6001600160401b0381111561189857634e487b7160e01b600052604160045260246000fd5b6040519080825280602002602001820160405280156118c1578160200160208202803683370190505b50905060005b60008481526009602052604090206118de90613b31565b8110156119455760008481526009602052604090206118fd9082613b3b565b82828151811061191d57634e487b7160e01b600052603260045260246000fd5b6001600160a01b039092166020928302919091019091015261193e81614a63565b90506118c7565b5092915050565b6006602052600090815260409020805460018201546002830180549293919261197490614a28565b80601f01602080910402602001604051908101604052809291908181526020018280546119a090614a28565b80156119ed5780601f106119c2576101008083540402835291602001916119ed565b820191906000526020600020905b8154815290600101906020018083116119d057829003601f168201915b5050505050905083565b600582604051611a079190614593565b9081526040519081900360200190205415611a515760405162461bcd60e51b815260206004820152600a6024820152694f72672065786973747360b01b60448201526064016106ea565b6000825111611a8f5760405162461bcd60e51b815260206004820152600a6024820152694e6f206f72674e616d6560b01b60448201526064016106ea565b6000815111611acd5760405162461bcd60e51b815260206004820152600a6024820152694e6f206f72674d65746160b01b60448201526064016106ea565b6000600260008154611ade90614a63565b9182905550604080516020810192909252469082015260600160405160208183030381529060405280519060200120905080600584604051611b209190614593565b90815260200160405180910390208190555081600660008381526020019081526020016000206002019080519060200190611b5c929190613d56565b506003805460018181019092557fc2575a0e9e593c00f959f8c92f12db2869c3395a3b0502d05e2516446f71f85b018290556004805491820181556000528351611bcd917f8a35acfbc15ff81a39ae7d344fd709f28e8600b4aa8c65c6b64bfe7fe36bd19b01906020860190613d56565b50611c39611bd9613ae8565b6009600084600080516020614aeb833981519152604051602001611c07929190918252602082015260400190565b604051602081830303815290604052805190602001208152602001908152602001600020613b1c90919063ffffffff16565b50505050565b600b6020528160005260406000208181548110611c5b57600080fd5b906000526020600020906003020160009150915050806000018054611c7f90614a28565b80601f0160208091040260200160405190810160405280929190818152602001828054611cab90614a28565b8015611cf85780601f10611ccd57610100808354040283529160200191611cf8565b820191906000526020600020905b815481529060010190602001808311611cdb57829003601f168201915b505050505090806001018054611d0d90614a28565b80601f0160208091040260200160405190810160405280929190818152602001828054611d3990614a28565b8015611d865780601f10611d5b57610100808354040283529160200191611d86565b820191906000526020600020905b815481529060010190602001808311611d6957829003601f168201915b50505050509080600201805461197490614a28565b6060600082611daa85826149af565b611db491906149ce565b90506000611dc284866149af565b600454909150811115611dd457506004545b6000846001600160401b03811115611dfc57634e487b7160e01b600052604160045260246000fd5b604051908082528060200260200182016040528015611e2f57816020015b6060815260200190600190039081611e1a5790505b5090505b81831015611f2b5760048381548110611e5c57634e487b7160e01b600052603260045260246000fd5b906000526020600020018054611e7190614a28565b80601f0160208091040260200160405190810160405280929190818152602001828054611e9d90614a28565b8015611eea5780601f10611ebf57610100808354040283529160200191611eea565b820191906000526020600020905b815481529060010190602001808311611ecd57829003601f168201915b5050505050818481518110611f0f57634e487b7160e01b600052603260045260246000fd5b602002602001018190525082611f2490614a63565b9250611e33565b925050505b92915050565b8383611f458282610250613ae8565b611f615760405162461bcd60e51b81526004016106ea9061491e565b60008086511190506000878787604051602001611f809392919061451e565b60405160208183030381529060405280519060200120905060008215611fd0578888604051602001611fb39291906144b9565b604051602081830303815290604052805190602001209050611fd3565b50875b6000828152600e602052604090205442101580612025575082801561202557506000828152600e60205260409020546120109062093a80906149ce565b60008281526007602052604090206002015410155b8061206657508215801561206657506000828152600e60205260409020546120519062093a80906149ce565b60008a81526006602052604090206001015410155b6120825760405162461bcd60e51b81526004016106ea906148f9565b6000828152600e6020526040812061209c90600101613b31565b11156120de576000828152600e602052604081206120d8916120c19160010190613b3b565b6000848152600e6020526040902060010190613b47565b50612082565b6000828152600e60209081526040808320839055838352600d9091529020805461210a906001906149ce565b8154811061212857634e487b7160e01b600052603260045260246000fd5b9060005260206000200154600d6000838152602001908152602001600020878154811061216557634e487b7160e01b600052603260045260246000fd5b9060005260206000200181905550600d60008281526020019081526020016000208054806121a357634e487b7160e01b600052603160045260246000fd5b60019003818190600052602060002001600090559055505050505050505050565b600d60205281600052604060002081815481106121e057600080fd5b90600052602060002001600091509150505481565b85856122048282610250613ae8565b6122205760405162461bcd60e51b81526004016106ea9061491e565b6000888888604051602001612237939291906146b9565b6040516020818303038152906040528051906020012090506000898989898960405160200161226a9594939291906146e4565b60408051601f1981840301815291815281516020928301206000818152600e909352912054909150421015806122b85750600082815260086020526040812080546122b490614a28565b9050115b6122d45760405162461bcd60e51b81526004016106ea906148f9565b60008a8a6040516020016122e99291906144b9565b604051602081830303815290604052805190602001209050886040516020016123129190614593565b60408051601f1981840301815291815281516020928301206000848152600b909352912080548890811061235657634e487b7160e01b600052603260045260246000fd5b906000526020600020906003020160000160405160200161237791906145af565b60405160208183030381529060405280519060200120146123c65760405162461bcd60e51b815260206004820152600960248201526857726f6e672074616760b81b60448201526064016106ea565b6000818152600b6020526040902080546123e2906001906149ce565b8154811061240057634e487b7160e01b600052603260045260246000fd5b9060005260206000209060030201600b6000838152602001908152602001600020878154811061244057634e487b7160e01b600052603260045260246000fd5b9060005260206000209060030201600082018160000190805461246290614a28565b61246d929190613dda565b50600182018160010190805461248290614a28565b61248d929190613dda565b5060028201816002019080546124a290614a28565b6124ad929190613dda565b5050506000818152600b602052604090208054806124db57634e487b7160e01b600052603160045260246000fd5b600082815260208120600019909201916003830201906124fb8282613e55565b612509600183016000613e55565b612517600283016000613e55565b505090555050505050505050505050565b6000818152600e60205260408120606090829061254790600101613b31565b6001600160401b0381111561256c57634e487b7160e01b600052604160045260246000fd5b604051908082528060200260200182016040528015612595578160200160208202803683370190505b50905060005b6000858152600e602052604090206125b590600101613b31565b81101561261f576000858152600e602052604090206125d79060010182613b3b565b8282815181106125f757634e487b7160e01b600052603260045260246000fd5b6001600160a01b039092166020928302919091019091015261261881614a63565b905061259b565b506000938452600e60205260409093205493915050565b60008083600080516020614aeb833981519152604051602001612663929190918252602082015260400190565b60408051601f1981840301815291815281516020928301206000818152600990935291209091506126949084613ac6565b949350505050565b826126a98161050c613ae8565b6126c55760405162461bcd60e51b81526004016106ea9061491e565b816007600086866040516020016126dd9291906144b9565b6040516020818303038152906040528051906020012081526020019081526020016000206003019080519060200190612717929190613d56565b50612720613ae8565b6001600160a01b0316836040516127379190614593565b6040518091039020857f082dfc0cda6cc25674875e2dcd882c68a8b2c80bf48e58c6a3dc2384c69859558560405161276f91906147db565b60405180910390a450505050565b600c602052816000526040600020818154811061279957600080fd5b6000918252602090912001546001600160a01b03169150829050565b816127c28161050c613ae8565b6127de5760405162461bcd60e51b81526004016106ea9061491e565b6000838152600660209081526040909120835161280392600290920191850190613d56565b5061280c613ae8565b6040516001600160a01b0391909116907fc5d2460186f7233c927e7db2dcc703c0e500b653ca82273b7bfad8045d85a4709085907f082dfc0cda6cc25674875e2dcd882c68a8b2c80bf48e58c6a3dc2384c69859559061286d9087906147db565b60405180910390a4505050565b826128878161050c613ae8565b6128a35760405162461bcd60e51b81526004016106ea9061491e565b600084846040516020016128b89291906144b9565b60408051601f1981840301815291815281516020928301206000818152600790935291205490915060ff161561291e5760405162461bcd60e51b815260206004820152600b60248201526a5265706f2065786973747360a81b60448201526064016106ea565b600084511161295d5760405162461bcd60e51b815260206004820152600b60248201526a4e6f207265706f4e616d6560a81b60448201526064016106ea565b600083511161299c5760405162461bcd60e51b815260206004820152600b60248201526a4e6f207265706f4d65746160a81b60448201526064016106ea565b6000858152600660209081526040822060030180546001810182559083529181902086516129d1939190910191870190613d56565b506000818152600760209081526040909120805460ff191660011781558451612a0292600390920191860190613d56565b505050505050565b8383612a198282610250613ae8565b612a355760405162461bcd60e51b81526004016106ea9061491e565b600080516020614aab833981519152841480612a7057507fb85a6b22a26ce426daea6357c60a74cb0b4d36234cd7c96170cd6a64102786ff84145b80612a9a57507fd7381cbf120651c7bcd9cff77aa8449385520247d98372358854435c90a30af484145b612ad35760405162461bcd60e51b815260206004820152600a6024820152690496e76616c6964206f760b41b60448201526064016106ea565b60008086511190506000806000808a8a89604051602001612af6939291906144df565b60405160208183030381529060405280519060200120905060008515612bd5578b8b600080516020614acb8339815191528c8c604051602001612b3d95949392919061454b565b6040516020818303038152906040528051906020012094508b8b600080516020614acb833981519152604051602001612b789392919061451e565b6040516020818303038152906040528051906020012093508b8b604051602001612ba39291906144b9565b60408051601f198184030181529181528151602092830120600081815260079093529120600101549093509050612c77565b60408051602081018e9052600080516020614aeb8339815191529181019190915260608082018c90528a901b6001600160601b031916608082015260940160408051601f1981840301815282825280516020918201209083018f9052600080516020614aeb83398151915291830191909152955060600160408051601f19818403018152918152815160209283012060008f8152600690935291205490945090505b7fb85a6b22a26ce426daea6357c60a74cb0b4d36234cd7c96170cd6a64102786ff8a1415612cf1576000848152600960205260409020612cb7908a613ac6565b612cec5760405162461bcd60e51b81526020600482015260066024820152654e6f204b657960d01b60448201526064016106ea565b612d43565b6000848152600960205260409020612d09908a613ac6565b15612d435760405162461bcd60e51b815260206004820152600a6024820152694b65792065786973747360b01b60448201526064016106ea565b7fd7381cbf120651c7bcd9cff77aa8449385520247d98372358854435c90a30af48a1415612de457612d8a612d76613ae8565b600086815260096020526040902090613ac6565b612da65760405162461bcd60e51b81526004016106ea9061491e565b612dc5612db1613ae8565b600086815260096020526040902090613b47565b506000848152600960205260409020612dde908a613b1c565b506131d8565b60018111612e3257600080516020614aab8339815191528a1415612e1a576000848152600960205260409020612dde908a613b1c565b6000848152600960205260409020612dde908a613b47565b6000858152600e6020526040902054612edf57612e524262093a80614997565b6000868152600e60205260409020558515612ea3576000838152600c602090815260408220805460018101825590835291200180546001600160a01b0319166001600160a01b038b16179055612f42565b60008c8152600c602090815260408220805460018101825590835291200180546001600160a01b0319166001600160a01b038b16179055612f42565b6000858152600e602052604090205442111580612f2657506000858152600e6020526040902054612f149062093a80906149ce565b6000838152600a602052604090205411155b612f425760405162461bcd60e51b81526004016106ea9061493e565b612f64612f4d613ae8565b6000878152600e6020526040902060010190613b1c565b5060005b6000868152600e60205260409020612f8290600101613b31565b81101561303957868015612fb657506000868152600e60205260409020612fb4908e908e906102509060010185613b3b565b155b80612fe8575086158015612fe857506000868152600e60205260409020612fe6908e9061050c9060010184613b3b565b155b15613029576000868152600e602052604090206130239061300c9060010183613b3b565b6000888152600e6020526040902060010190613b47565b50600090505b61303281614a63565b9050612f68565b506000858152600e60205260409020819061305690600101613b31565b106131d857600080516020614aab8339815191528a141561308f576000848152600960205260409020613089908a613b1c565b506131c6565b60008481526009602052604090206130a7908a613b47565b506000613104600960008f600080516020614aeb8339815191526040516020016130db929190918252602082015260400190565b604051602081830303815290604052805190602001208152602001908152602001600020613b31565b905086801561314157506000858152600960205260409020829060019061312a90613b31565b6131349084614997565b61313e91906149ce565b11155b1561316d57600084815260076020526040812060010180549161316383614a11565b91905055506131c4565b8615801561319f57506000858152600960205260409020829060019061319290613b31565b61319c91906149ce565b11155b156131c45760008d81526006602052604081208054916131be83614a11565b91905055505b505b6000828152600a602052604090204290555b886001600160a01b03168b6040516131f09190614593565b60405180910390208d7fa8cea71b77054741d93ac504e0ee90fa3e815d68104468d65f9eb36924a8d590613222613ae8565b60008a8152600e602052604090208f9061323e90600101613b31565b604080516001600160a01b0390941684526020840192909252908201526060810186905260800160405180910390a4505050505050505050505050565b606060008261328a85826149af565b61329491906149ce565b905060006132a284866149af565b6000878152600760205260409020600401549091508111156132d257506000858152600760205260409020600401545b6000846001600160401b038111156132fa57634e487b7160e01b600052604160045260246000fd5b60405190808252806020026020018201604052801561332d57816020015b60608152602001906001900390816133185790505b5090505b8183101561182d57600087815260076020526040902060040180548490811061336a57634e487b7160e01b600052603260045260246000fd5b90600052602060002001805461337f90614a28565b80601f01602080910402602001604051908101604052809291908181526020018280546133ab90614a28565b80156133f85780601f106133cd576101008083540402835291602001916133f8565b820191906000526020600020905b8154815290600101906020018083116133db57829003601f168201915b505050505081848151811061341d57634e487b7160e01b600052603260045260246000fd5b60200260200101819052508261343290614a63565b9250613331565b60086020526000908152604090208054819061345490614a28565b80601f016020809104026020016040519081016040528092919081815260200182805461348090614a28565b80156134cd5780601f106134a2576101008083540402835291602001916134cd565b820191906000526020600020905b8154815290600101906020018083116134b057829003601f168201915b5050505050908060010180546134e290614a28565b80601f016020809104026020016040519081016040528092919081815260200182805461350e90614a28565b801561355b5780601f106135305761010080835404028352916020019161355b565b820191906000526020600020905b81548152906001019060200180831161353e57829003601f168201915b5050505050905082565b82826135748282610250613ae8565b6135905760405162461bcd60e51b81526004016106ea9061491e565b6000808551119050600086866040516020016135ad9291906144b9565b60405160208183030381529060405280519060200120905060008083156135e957505060008181526007602052604090206001015481906135fd565b505060008781526006602052604090205487905b8087141561363d5760405162461bcd60e51b815260206004820152600d60248201526c151a1c995cda1bdb19081cd95d609a1b60448201526064016106ea565b60008989896040516020016136549392919061451e565b60405160208183030381529060405280519060200120905061368e613677613ae8565b6000838152600e6020526040902060010190613ac6565b156136c85760405162461bcd60e51b815260206004820152600a602482015269155cd95c881d9bdd195960b21b60448201526064016106ea565b84801561374557506001613703600960008d600080516020614aeb8339815191526040516020016130db929190918252602082015260400190565b61372d600960008e8e600080516020614acb8339815191526040516020016130db9392919061451e565b6137379190614997565b61374191906149ce565b8811155b8061379557508415801561379557506001613787600960008d600080516020614aeb8339815191526040516020016130db929190918252602082015260400190565b61379191906149ce565b8811155b6137d65760405162461bcd60e51b81526020600482015260126024820152714e6f7420656e6f756768206d656d6265727360701b60448201526064016106ea565b6000818152600e602052604090205461382c576137f64262093a80614997565b6000828152600e6020908152604080832093909355858252600d81529181208054600181018255908252919020018890556138db565b6000818152600e60205260409020544211158061387e575084801561387e57506000818152600e60205260409020546138699062093a80906149ce565b60008581526007602052604090206002015411155b806138bf5750841580156138bf57506000818152600e60205260409020546138aa9062093a80906149ce565b60008b81526006602052604090206001015411155b6138db5760405162461bcd60e51b81526004016106ea9061493e565b6138fd6138e6613ae8565b6000838152600e6020526040902060010190613b1c565b5060005b6000828152600e6020526040902061391b90600101613b31565b8110156139bb5785801561394f57506000828152600e6020526040902061394d908c908c906102509060010185613b3b565b155b8061398157508515801561398157506000828152600e6020526040902061397f908c9061050c9060010184613b3b565b155b156139ab576000828152600e602052604090206139a5906120c19060010183613b3b565b50600090505b6139b481614a63565b9050613901565b506000818152600e6020526040902082906139d890600101613b31565b10158015613a0057506000818152600e6020526040902088906139fd90600101613b31565b10155b15613a45578415613a2c5760008481526007602052604090206001810189905542600290910155613a45565b60008a8152600660205260409020888155426001909101555b8789604051613a549190614593565b60405180910390208b7f2daad345bbc18b1fa8a7f542403081df42c546dd841a44507d53e174e761ce89613a86613ae8565b6000868152600e60205260409020613aa090600101613b31565b604080516001600160a01b03909316835260208301919091528101879052606001610e94565b6001600160a01b0381166000908152600183016020526040812054151561076e565b600060143610801590613b0557506000546001600160a01b031633145b15613b17575060131936013560601c90565b503390565b600061076e836001600160a01b038416613b5c565b6000611f30825490565b600061076e8383613bab565b600061076e836001600160a01b038416613c3f565b6000818152600183016020526040812054613ba357508154600181810184556000848152602080822090930184905584548482528286019093526040902091909155611f30565b506000611f30565b81546000908210613c095760405162461bcd60e51b815260206004820152602260248201527f456e756d657261626c655365743a20696e646578206f7574206f6620626f756e604482015261647360f01b60648201526084016106ea565b826000018281548110613c2c57634e487b7160e01b600052603260045260246000fd5b9060005260206000200154905092915050565b60008181526001830160205260408120548015613d4c576000613c636001836149ce565b8554909150600090613c77906001906149ce565b90506000866000018281548110613c9e57634e487b7160e01b600052603260045260246000fd5b9060005260206000200154905080876000018481548110613ccf57634e487b7160e01b600052603260045260246000fd5b600091825260208083209091019290925582815260018901909152604090208490558654879080613d1057634e487b7160e01b600052603160045260246000fd5b60019003818190600052602060002001600090559055866001016000878152602001908152602001600020600090556001945050505050611f30565b6000915050611f30565b828054613d6290614a28565b90600052602060002090601f016020900481019282613d845760008555613dca565b82601f10613d9d57805160ff1916838001178555613dca565b82800160010185558215613dca579182015b82811115613dca578251825591602001919060010190613daf565b50613dd6929150613e92565b5090565b828054613de690614a28565b90600052602060002090601f016020900481019282613e085760008555613dca565b82601f10613e195780548555613dca565b82800160010185558215613dca57600052602060002091601f016020900482015b82811115613dca578254825591600101919060010190613e3a565b508054613e6190614a28565b6000825580601f10613e71575050565b601f016020900490600052602060002090810190613e8f9190613e92565b50565b5b80821115613dd65760008155600101613e93565b80356001600160a01b0381168114613ebe57600080fd5b919050565b600082601f830112613ed3578081fd5b81356001600160401b0380821115613eed57613eed614a94565b604051601f8301601f19908116603f01168101908282118183101715613f1557613f15614a94565b81604052838152866020858801011115613f2d578485fd5b8360208701602083013792830160200193909352509392505050565b600060208284031215613f5a578081fd5b61076e82613ea7565b600060208284031215613f74578081fd5b5035919050565b60008060408385031215613f8d578081fd5b82359150613f9d60208401613ea7565b90509250929050565b60008060408385031215613fb8578182fd5b8235915060208301356001600160401b03811115613fd4578182fd5b613fe085828601613ec3565b9150509250929050565b600080600060608486031215613ffe578081fd5b8335925060208401356001600160401b0381111561401a578182fd5b61402686828701613ec3565b92505061403560408501613ea7565b90509250925092565b60008060008060808587031215614053578081fd5b8435935060208501356001600160401b0381111561406f578182fd5b61407b87828801613ec3565b9350506040850135915061409160608601613ea7565b905092959194509250565b600080600080600060a086880312156140b3578081fd5b8535945060208601356001600160401b038111156140cf578182fd5b6140db88828901613ec3565b945050604086013592506140f160608701613ea7565b949793965091946080013592915050565b600080600060608486031215614116578283fd5b8335925060208401356001600160401b0380821115614133578384fd5b61413f87838801613ec3565b93506040860135915080821115614154578283fd5b5061416186828701613ec3565b9150509250925092565b600080600080600060a08688031215614182578081fd5b8535945060208601356001600160401b038082111561419f578283fd5b6141ab89838a01613ec3565b955060408801359150808211156141c0578283fd5b6141cc89838a01613ec3565b945060608801359150808211156141e1578283fd5b6141ed89838a01613ec3565b93506080880135915080821115614202578283fd5b5061420f88828901613ec3565b9150509295509295909350565b60008060008060008060c08789031215614234578081fd5b8635955060208701356001600160401b0380821115614251578283fd5b61425d8a838b01613ec3565b96506040890135915080821115614272578283fd5b61427e8a838b01613ec3565b95506060890135915080821115614293578283fd5b61429f8a838b01613ec3565b945060808901359150808211156142b4578283fd5b506142c189828a01613ec3565b92505060a087013590509295509295509295565b6000806000606084860312156142e9578283fd5b8335925060208401356001600160401b03811115614305578283fd5b61431186828701613ec3565b925050604084013590509250925092565b60008060008060808587031215614337578182fd5b8435935060208501356001600160401b03811115614353578283fd5b61435f87828801613ec3565b949794965050505060408301359260600135919050565b60008060408385031215614388578182fd5b50508035926020909101359150565b6000806000606084860312156143ab578081fd5b505081359360208301359350604090920135919050565b6000602082840312156143d3578081fd5b81356001600160401b038111156143e8578182fd5b61269484828501613ec3565b60008060408385031215614406578182fd5b82356001600160401b038082111561441c578384fd5b61442886838701613ec3565b9350602085013591508082111561443d578283fd5b50613fe085828601613ec3565b6000815180845260208085019450808401835b838110156144825781516001600160a01b03168752958201959082019060010161445d565b509495945050505050565b600081518084526144a58160208601602086016149e5565b601f01601f19169290920160200192915050565b828152600082516144d18160208501602087016149e5565b919091016020019392505050565b838152600083516144f78160208501602088016149e5565b60609390931b6001600160601b031916602092909301918201929092526034019392505050565b838152600083516145368160208501602088016149e5565b60209201918201929092526040019392505050565b85815260008551614563816020850160208a016149e5565b60209201918201949094526040810192909252606090811b6001600160601b031916908201526074019392505050565b600082516145a58184602087016149e5565b9190910192915050565b60008083546145bd81614a28565b600182811680156145d557600181146145e657614612565b60ff19841687528287019450614612565b8786526020808720875b858110156146095781548a8201529084019082016145f0565b50505082870194505b50929695505050505050565b60208152600061076e602083018461444a565b6000602080830181845280855180835260408601915060408160051b8701019250838701855b8281101561468557603f1988860301845261467385835161448d565b94509285019290850190600101614657565b5092979650505050505050565b841515815283602082015282604082015260806060820152600061182d608083018461448d565b8381526060602082015260006146d2606083018561448d565b828103604084015261182d818561448d565b85815260a0602082015260006146fd60a083018761448d565b828103604084015261470f818761448d565b90508281036060840152614723818661448d565b90508281036080840152614737818561448d565b98975050505050505050565b8381526000602060608184015261475d606084018661448d565b838103604085015282855461477181614a28565b8084526001828116801561478c57600181146147a0576147cb565b60ff198416868801526040860194506147cb565b898852868820885b848110156147c35781548882018a01529083019088016147a8565b870188019550505b50929a9950505050505050505050565b60208152600061076e602083018461448d565b604081526000614801604083018561448d565b8281036020840152614813818561448d565b95945050505050565b60a08152600061482f60a083018861448d565b8281036020840152614841818861448d565b6001600160a01b039690961660408401525050606081019290925260809091015292915050565b60608152600061487b606083018661448d565b828103602084015261488d818661448d565b9050828103604084015261182d818561448d565b6080815260006148b4608083018761448d565b82810360208401526148c6818761448d565b905082810360408401526148da818661448d565b905082810360608401526148ee818561444a565b979650505050505050565b6020808252600b908201526a139bdd08195e1c1a5c995960aa1b604082015260600190565b60208082526006908201526511195b9a595960d21b604082015260600190565b602080825260079082015266115e1c1a5c995960ca1b604082015260600190565b828152604060208201526000612694604083018461444a565b838152826020820152606060408201526000614813606083018461448d565b600082198211156149aa576149aa614a7e565b500190565b60008160001904831182151516156149c9576149c9614a7e565b500290565b6000828210156149e0576149e0614a7e565b500390565b60005b83811015614a005781810151838201526020016149e8565b83811115611c395750506000910152565b600081614a2057614a20614a7e565b506000190190565b600181811c90821680614a3c57607f821691505b60208210811415614a5d57634e487b7160e01b600052602260045260246000fd5b50919050565b6000600019821415614a7757614a77614a7e565b5060010190565b634e487b7160e01b600052601160045260246000fd5b634e487b7160e01b600052604160045260246000fdfedb7bfe957d82520d83f2a439f82c0ab65bbe62c5da8b7b7aa22924c027ef518d069bf569f27d389f2c70410107860b2e82ff561283b097a89e897daa5e34b1b6123b642491709420c2370bb98c4e7de2b1bc05c5f9fd95ac4111e12683553c62a2646970667358221220e2f075aafdf62674cdfeb1fa26f8b51f3b58b805a558f50b207becf51733425364736f6c63430008040033",
  "linkReferences": {},
  "deployedLinkReferences": {}
}