{
  "_format": "hh-sol-artifact-1",
  "contractName": "Valist",
  "sourceName": "contracts/Valist.sol",
  "abi": [
    {
      "inputs": [
        {
          "internalType": "address",
          "name": "metaTxForwarder",
          "type": "address"
        }
      ],
      "stateMutability": "nonpayable",
      "type": "constructor"
    },
    {
      "anonymous": false,
      "inputs": [
        {
          "indexed": false,
          "internalType": "bytes32",
          "name": "_orgID",
          "type": "bytes32"
        },
        {
          "indexed": false,
          "internalType": "string",
          "name": "_repoName",
          "type": "string"
        },
        {
          "indexed": false,
          "internalType": "address",
          "name": "_signer",
          "type": "address"
        },
        {
          "indexed": false,
          "internalType": "string",
          "name": "_metaCID",
          "type": "string"
        }
      ],
      "name": "MetaUpdate",
      "type": "event"
    },
    {
      "anonymous": false,
      "inputs": [
        {
          "indexed": false,
          "internalType": "bytes32",
          "name": "_orgID",
          "type": "bytes32"
        },
        {
          "indexed": false,
          "internalType": "string",
          "name": "_repoName",
          "type": "string"
        },
        {
          "indexed": false,
          "internalType": "string",
          "name": "_tag",
          "type": "string"
        },
        {
          "indexed": false,
          "internalType": "string",
          "name": "_releaseCID",
          "type": "string"
        },
        {
          "indexed": false,
          "internalType": "string",
          "name": "_metaCID",
          "type": "string"
        }
      ],
      "name": "ReleaseEvent",
      "type": "event"
    },
    {
      "anonymous": false,
      "inputs": [
        {
          "indexed": false,
          "internalType": "bytes32",
          "name": "_orgID",
          "type": "bytes32"
        },
        {
          "indexed": false,
          "internalType": "string",
          "name": "_repoName",
          "type": "string"
        },
        {
          "indexed": false,
          "internalType": "address",
          "name": "_signer",
          "type": "address"
        },
        {
          "indexed": false,
          "internalType": "bytes32",
          "name": "_operation",
          "type": "bytes32"
        },
        {
          "indexed": false,
          "internalType": "address",
          "name": "_key",
          "type": "address"
        }
      ],
      "name": "VoteKeyEvent",
      "type": "event"
    },
    {
      "anonymous": false,
      "inputs": [
        {
          "indexed": false,
          "internalType": "bytes32",
          "name": "_orgID",
          "type": "bytes32"
        },
        {
          "indexed": false,
          "internalType": "string",
          "name": "_repoName",
          "type": "string"
        },
        {
          "indexed": false,
          "internalType": "address",
          "name": "_signer",
          "type": "address"
        },
        {
          "indexed": false,
          "internalType": "string",
          "name": "_tag",
          "type": "string"
        },
        {
          "indexed": false,
          "internalType": "string",
          "name": "_releaseCID",
          "type": "string"
        },
        {
          "indexed": false,
          "internalType": "string",
          "name": "_metaCID",
          "type": "string"
        }
      ],
      "name": "VoteReleaseEvent",
      "type": "event"
    },
    {
      "anonymous": false,
      "inputs": [
        {
          "indexed": false,
          "internalType": "bytes32",
          "name": "_orgID",
          "type": "bytes32"
        },
        {
          "indexed": false,
          "internalType": "string",
          "name": "_repoName",
          "type": "string"
        },
        {
          "indexed": false,
          "internalType": "address",
          "name": "_signer",
          "type": "address"
        },
        {
          "indexed": false,
          "internalType": "uint256",
          "name": "_threshold",
          "type": "uint256"
        }
      ],
      "name": "VoteThresholdEvent",
      "type": "event"
    },
    {
      "inputs": [
        {
          "internalType": "bytes32",
          "name": "_orgID",
          "type": "bytes32"
        },
        {
          "internalType": "string",
          "name": "_repoName",
          "type": "string"
        },
        {
          "internalType": "bytes32",
          "name": "_operation",
          "type": "bytes32"
        },
        {
          "internalType": "address",
          "name": "_key",
          "type": "address"
        },
        {
          "internalType": "uint256",
          "name": "_requestIndex",
          "type": "uint256"
        }
      ],
      "name": "clearPendingKey",
      "outputs": [],
      "stateMutability": "nonpayable",
      "type": "function"
    },
    {
      "inputs": [
        {
          "internalType": "bytes32",
          "name": "_orgID",
          "type": "bytes32"
        },
        {
          "internalType": "string",
          "name": "_repoName",
          "type": "string"
        },
        {
          "internalType": "string",
          "name": "_tag",
          "type": "string"
        },
        {
          "internalType": "string",
          "name": "_releaseCID",
          "type": "string"
        },
        {
          "internalType": "string",
          "name": "_metaCID",
          "type": "string"
        },
        {
          "internalType": "uint256",
          "name": "_requestIndex",
          "type": "uint256"
        }
      ],
      "name": "clearPendingRelease",
      "outputs": [],
      "stateMutability": "nonpayable",
      "type": "function"
    },
    {
      "inputs": [
        {
          "internalType": "bytes32",
          "name": "_orgID",
          "type": "bytes32"
        },
        {
          "internalType": "string",
          "name": "_repoName",
          "type": "string"
        },
        {
          "internalType": "uint256",
          "name": "_threshold",
          "type": "uint256"
        },
        {
          "internalType": "uint256",
          "name": "_requestIndex",
          "type": "uint256"
        }
      ],
      "name": "clearPendingThreshold",
      "outputs": [],
      "stateMutability": "nonpayable",
      "type": "function"
    },
    {
      "inputs": [
        {
          "internalType": "string",
          "name": "_orgName",
          "type": "string"
        },
        {
          "internalType": "string",
          "name": "_orgMeta",
          "type": "string"
        }
      ],
      "name": "createOrganization",
      "outputs": [],
      "stateMutability": "nonpayable",
      "type": "function"
    },
    {
      "inputs": [
        {
          "internalType": "bytes32",
          "name": "_orgID",
          "type": "bytes32"
        },
        {
          "internalType": "string",
          "name": "_repoName",
          "type": "string"
        },
        {
          "internalType": "string",
          "name": "_repoMeta",
          "type": "string"
        }
      ],
      "name": "createRepository",
      "outputs": [],
      "stateMutability": "nonpayable",
      "type": "function"
    },
    {
      "inputs": [
        {
          "internalType": "bytes32",
          "name": "_orgID",
          "type": "bytes32"
        },
        {
          "internalType": "string",
          "name": "_repoName",
          "type": "string"
        }
      ],
      "name": "getLatestRelease",
      "outputs": [
        {
          "internalType": "string",
          "name": "",
          "type": "string"
        },
        {
          "internalType": "string",
          "name": "",
          "type": "string"
        },
        {
          "internalType": "string",
          "name": "",
          "type": "string"
        },
        {
          "internalType": "address[]",
          "name": "",
          "type": "address[]"
        }
      ],
      "stateMutability": "view",
      "type": "function"
    },
    {
      "inputs": [
        {
          "internalType": "uint256",
          "name": "_page",
          "type": "uint256"
        },
        {
          "internalType": "uint256",
          "name": "_resultsPerPage",
          "type": "uint256"
        }
      ],
      "name": "getOrgNames",
      "outputs": [
        {
          "internalType": "string[]",
          "name": "",
          "type": "string[]"
        }
      ],
      "stateMutability": "view",
      "type": "function"
    },
    {
      "inputs": [
        {
          "internalType": "bytes32",
          "name": "_selector",
          "type": "bytes32"
        }
      ],
      "name": "getPendingReleaseCount",
      "outputs": [
        {
          "internalType": "uint256",
          "name": "",
          "type": "uint256"
        }
      ],
      "stateMutability": "view",
      "type": "function"
    },
    {
      "inputs": [
        {
          "internalType": "bytes32",
          "name": "_selector",
          "type": "bytes32"
        }
      ],
      "name": "getPendingVotes",
      "outputs": [
        {
          "internalType": "uint256",
          "name": "",
          "type": "uint256"
        },
        {
          "internalType": "address[]",
          "name": "",
          "type": "address[]"
        }
      ],
      "stateMutability": "view",
      "type": "function"
    },
    {
      "inputs": [
        {
          "internalType": "bytes32",
          "name": "_selector",
          "type": "bytes32"
        },
        {
          "internalType": "uint256",
          "name": "_page",
          "type": "uint256"
        },
        {
          "internalType": "uint256",
          "name": "_resultsPerPage",
          "type": "uint256"
        }
      ],
      "name": "getReleaseTags",
      "outputs": [
        {
          "internalType": "string[]",
          "name": "",
          "type": "string[]"
        }
      ],
      "stateMutability": "view",
      "type": "function"
    },
    {
      "inputs": [
        {
          "internalType": "bytes32",
          "name": "_orgID",
          "type": "bytes32"
        },
        {
          "internalType": "uint256",
          "name": "_page",
          "type": "uint256"
        },
        {
          "internalType": "uint256",
          "name": "_resultsPerPage",
          "type": "uint256"
        }
      ],
      "name": "getRepoNames",
      "outputs": [
        {
          "internalType": "string[]",
          "name": "",
          "type": "string[]"
        }
      ],
      "stateMutability": "view",
      "type": "function"
    },
    {
      "inputs": [
        {
          "internalType": "bytes32",
          "name": "_selector",
          "type": "bytes32"
        }
      ],
      "name": "getRoleMembers",
      "outputs": [
        {
          "internalType": "address[]",
          "name": "",
          "type": "address[]"
        }
      ],
      "stateMutability": "view",
      "type": "function"
    },
    {
      "inputs": [
        {
          "internalType": "bytes32",
          "name": "_selector",
          "type": "bytes32"
        }
      ],
      "name": "getRoleRequestCount",
      "outputs": [
        {
          "internalType": "uint256",
          "name": "",
          "type": "uint256"
        }
      ],
      "stateMutability": "view",
      "type": "function"
    },
    {
      "inputs": [
        {
          "internalType": "bytes32",
          "name": "_selector",
          "type": "bytes32"
        }
      ],
      "name": "getThresholdRequestCount",
      "outputs": [
        {
          "internalType": "uint256",
          "name": "",
          "type": "uint256"
        }
      ],
      "stateMutability": "view",
      "type": "function"
    },
    {
      "inputs": [
        {
          "internalType": "bytes32",
          "name": "_orgID",
          "type": "bytes32"
        },
        {
          "internalType": "address",
          "name": "_address",
          "type": "address"
        }
      ],
      "name": "isOrgAdmin",
      "outputs": [
        {
          "internalType": "bool",
          "name": "",
          "type": "bool"
        }
      ],
      "stateMutability": "view",
      "type": "function"
    },
    {
      "inputs": [
        {
          "internalType": "bytes32",
          "name": "_orgID",
          "type": "bytes32"
        },
        {
          "internalType": "string",
          "name": "_repoName",
          "type": "string"
        },
        {
          "internalType": "address",
          "name": "_address",
          "type": "address"
        }
      ],
      "name": "isRepoDev",
      "outputs": [
        {
          "internalType": "bool",
          "name": "",
          "type": "bool"
        }
      ],
      "stateMutability": "view",
      "type": "function"
    },
    {
      "inputs": [
        {
          "internalType": "address",
          "name": "forwarder",
          "type": "address"
        }
      ],
      "name": "isTrustedForwarder",
      "outputs": [
        {
          "internalType": "bool",
          "name": "",
          "type": "bool"
        }
      ],
      "stateMutability": "view",
      "type": "function"
    },
    {
      "inputs": [],
      "name": "orgCount",
      "outputs": [
        {
          "internalType": "uint256",
          "name": "",
          "type": "uint256"
        }
      ],
      "stateMutability": "view",
      "type": "function"
    },
    {
      "inputs": [
        {
          "internalType": "string",
          "name": "",
          "type": "string"
        }
      ],
      "name": "orgIDByName",
      "outputs": [
        {
          "internalType": "bytes32",
          "name": "",
          "type": "bytes32"
        }
      ],
      "stateMutability": "view",
      "type": "function"
    },
    {
      "inputs": [
        {
          "internalType": "uint256",
          "name": "",
          "type": "uint256"
        }
      ],
      "name": "orgIDs",
      "outputs": [
        {
          "internalType": "bytes32",
          "name": "",
          "type": "bytes32"
        }
      ],
      "stateMutability": "view",
      "type": "function"
    },
    {
      "inputs": [
        {
          "internalType": "uint256",
          "name": "",
          "type": "uint256"
        }
      ],
      "name": "orgNames",
      "outputs": [
        {
          "internalType": "string",
          "name": "",
          "type": "string"
        }
      ],
      "stateMutability": "view",
      "type": "function"
    },
    {
      "inputs": [
        {
          "internalType": "bytes32",
          "name": "",
          "type": "bytes32"
        }
      ],
      "name": "orgs",
      "outputs": [
        {
          "internalType": "uint256",
          "name": "threshold",
          "type": "uint256"
        },
        {
          "internalType": "uint256",
          "name": "thresholdDate",
          "type": "uint256"
        },
        {
          "internalType": "string",
          "name": "metaCID",
          "type": "string"
        }
      ],
      "stateMutability": "view",
      "type": "function"
    },
    {
      "inputs": [
        {
          "internalType": "bytes32",
          "name": "",
          "type": "bytes32"
        },
        {
          "internalType": "uint256",
          "name": "",
          "type": "uint256"
        }
      ],
      "name": "pendingReleaseRequests",
      "outputs": [
        {
          "internalType": "string",
          "name": "tag",
          "type": "string"
        },
        {
          "internalType": "string",
          "name": "releaseCID",
          "type": "string"
        },
        {
          "internalType": "string",
          "name": "metaCID",
          "type": "string"
        }
      ],
      "stateMutability": "view",
      "type": "function"
    },
    {
      "inputs": [
        {
          "internalType": "bytes32",
          "name": "",
          "type": "bytes32"
        },
        {
          "internalType": "uint256",
          "name": "",
          "type": "uint256"
        }
      ],
      "name": "pendingRoleRequests",
      "outputs": [
        {
          "internalType": "address",
          "name": "",
          "type": "address"
        }
      ],
      "stateMutability": "view",
      "type": "function"
    },
    {
      "inputs": [
        {
          "internalType": "bytes32",
          "name": "",
          "type": "bytes32"
        },
        {
          "internalType": "uint256",
          "name": "",
          "type": "uint256"
        }
      ],
      "name": "pendingThresholdRequests",
      "outputs": [
        {
          "internalType": "uint256",
          "name": "",
          "type": "uint256"
        }
      ],
      "stateMutability": "view",
      "type": "function"
    },
    {
      "inputs": [
        {
          "internalType": "bytes32",
          "name": "",
          "type": "bytes32"
        }
      ],
      "name": "releases",
      "outputs": [
        {
          "internalType": "string",
          "name": "releaseCID",
          "type": "string"
        },
        {
          "internalType": "string",
          "name": "metaCID",
          "type": "string"
        }
      ],
      "stateMutability": "view",
      "type": "function"
    },
    {
      "inputs": [
        {
          "internalType": "bytes32",
          "name": "",
          "type": "bytes32"
        }
      ],
      "name": "repos",
      "outputs": [
        {
          "internalType": "uint256",
          "name": "threshold",
          "type": "uint256"
        },
        {
          "internalType": "uint256",
          "name": "thresholdDate",
          "type": "uint256"
        },
        {
          "internalType": "string",
          "name": "metaCID",
          "type": "string"
        }
      ],
      "stateMutability": "view",
      "type": "function"
    },
    {
      "inputs": [
        {
          "internalType": "bytes32",
          "name": "",
          "type": "bytes32"
        }
      ],
      "name": "roleModifiedTimestamps",
      "outputs": [
        {
          "internalType": "uint256",
          "name": "",
          "type": "uint256"
        }
      ],
      "stateMutability": "view",
      "type": "function"
    },
    {
      "inputs": [
        {
          "internalType": "bytes32",
          "name": "_orgID",
          "type": "bytes32"
        },
        {
          "internalType": "string",
          "name": "_metaCID",
          "type": "string"
        }
      ],
      "name": "setOrgMeta",
      "outputs": [],
      "stateMutability": "nonpayable",
      "type": "function"
    },
    {
      "inputs": [
        {
          "internalType": "bytes32",
          "name": "_orgID",
          "type": "bytes32"
        },
        {
          "internalType": "string",
          "name": "_repoName",
          "type": "string"
        },
        {
          "internalType": "string",
          "name": "_metaCID",
          "type": "string"
        }
      ],
      "name": "setRepoMeta",
      "outputs": [],
      "stateMutability": "nonpayable",
      "type": "function"
    },
    {
      "inputs": [],
      "name": "trustedForwarder",
      "outputs": [
        {
          "internalType": "address",
          "name": "",
          "type": "address"
        }
      ],
      "stateMutability": "view",
      "type": "function"
    },
    {
      "inputs": [],
      "name": "versionRecipient",
      "outputs": [
        {
          "internalType": "string",
          "name": "",
          "type": "string"
        }
      ],
      "stateMutability": "view",
      "type": "function"
    },
    {
      "inputs": [
        {
          "internalType": "bytes32",
          "name": "_orgID",
          "type": "bytes32"
        },
        {
          "internalType": "string",
          "name": "_repoName",
          "type": "string"
        },
        {
          "internalType": "bytes32",
          "name": "_operation",
          "type": "bytes32"
        },
        {
          "internalType": "address",
          "name": "_key",
          "type": "address"
        }
      ],
      "name": "voteKey",
      "outputs": [],
      "stateMutability": "nonpayable",
      "type": "function"
    },
    {
      "inputs": [
        {
          "internalType": "bytes32",
          "name": "_orgID",
          "type": "bytes32"
        },
        {
          "internalType": "string",
          "name": "_repoName",
          "type": "string"
        },
        {
          "internalType": "string",
          "name": "_tag",
          "type": "string"
        },
        {
          "internalType": "string",
          "name": "_releaseCID",
          "type": "string"
        },
        {
          "internalType": "string",
          "name": "_metaCID",
          "type": "string"
        }
      ],
      "name": "voteRelease",
      "outputs": [],
      "stateMutability": "nonpayable",
      "type": "function"
    },
    {
      "inputs": [
        {
          "internalType": "bytes32",
          "name": "_orgID",
          "type": "bytes32"
        },
        {
          "internalType": "string",
          "name": "_repoName",
          "type": "string"
        },
        {
          "internalType": "uint256",
          "name": "_threshold",
          "type": "uint256"
        }
      ],
      "name": "voteThreshold",
      "outputs": [],
      "stateMutability": "nonpayable",
      "type": "function"
    }
  ],
  "bytecode": "0x60c060405260056080819052640322e322e360dc1b60a09081526200002891600191906200007f565b503480156200003657600080fd5b5060405162004b9b38038062004b9b833981016040819052620000599162000125565b600080546001600160a01b0319166001600160a01b039290921691909117905562000192565b8280546200008d9062000155565b90600052602060002090601f016020900481019282620000b15760008555620000fc565b82601f10620000cc57805160ff1916838001178555620000fc565b82800160010185558215620000fc579182015b82811115620000fc578251825591602001919060010190620000df565b506200010a9291506200010e565b5090565b5b808211156200010a57600081556001016200010f565b60006020828403121562000137578081fd5b81516001600160a01b03811681146200014e578182fd5b9392505050565b600181811c908216806200016a57607f821691505b602082108114156200018c57634e487b7160e01b600052602260045260246000fd5b50919050565b6149f980620001a26000396000f3fe608060405234801561001057600080fd5b50600436106102115760003560e01c8063a411ef2011610125578063d96162a1116100ad578063e59dbfa41161007c578063e59dbfa41461053a578063f26f3c561461054d578063f3439d5614610560578063f491a84c14610573578063f735b3521461059457600080fd5b8063d96162a1146104ee578063dedc339114610501578063dfec1bb014610514578063e253f5e11461052757600080fd5b8063c372be80116100f4578063c372be8014610473578063c6c2a0be14610486578063cd20ff7714610499578063d565e860146104c4578063d8106690146104e557600080fd5b8063a411ef2014610418578063a940abcb1461042b578063aa788ebe1461044d578063b93d16851461046057600080fd5b80635bb44241116101a85780638775692f116101775780638775692f146103925780638bf67370146103a5578063924a5443146103c5578063a3246ad3146103e5578063a3e84beb1461040557600080fd5b80635bb44241146103115780635cd20d29146103245780637da0a87714610347578063837dc4d01461037257600080fd5b80633e1bf64b116101e45780633e1bf64b146102a757806340fd48a7146102c7578063486ff0cd146102da578063572b6c05146102ef57600080fd5b806302b2583a146102165780631fd522a614610241578063328d3ddf146102645780633b0659fd14610279575b600080fd5b610229610224366004613d43565b6105a7565b60405161023893929190614831565b60405180910390f35b61025461024f366004613dca565b610652565b6040519015158152602001610238565b610277610272366004613f4b565b6106c2565b005b610299610287366004613d43565b6000908152600d602052604090205490565b604051908152602001610238565b6102996102b5366004613d43565b6000908152600c602052604090205490565b6102776102d5366004613e7c565b610dd1565b6102e26111ba565b60405161023891906146f4565b6102546102fd366004613d29565b6000546001600160a01b0391821691161490565b6102e261031f366004613d43565b611248565b610337610332366004613d86565b611273565b6040516102389493929190614765565b60005461035a906001600160a01b031681565b6040516001600160a01b039091168152602001610238565b610385610380366004614177565b611597565b6040516102389190614411565b6102996103a0366004613d43565b61175f565b6102996103b3366004613d43565b600a6020526000908152604090205481565b6102996103d3366004613d43565b6000908152600b602052604090205490565b6103f86103f3366004613d43565b611780565b60405161023891906143fe565b610229610413366004613d43565b611874565b6102776104263660046141d4565b61189c565b61043e610439366004614156565b611ae4565b6040516102389392919061472c565b61038561045b366004614156565b611c40565b61027761046e366004614102565b611ddb565b610299610481366004614156565b612069565b610277610494366004613ffc565b61209a565b6102996104a73660046141a2565b805160208183018101805160058252928201919093012091525481565b6104d76104d2366004613d43565b6123cd565b604051610238929190614818565b61029960025481565b6102546104fc366004613d5b565b6124db565b61027761050f366004613ee2565b612541565b61035a610522366004614156565b612607565b610277610535366004613d86565b61263f565b610277610548366004613ee2565b6126d5565b61027761055b366004613e1e565b612885565b61038561056e366004614177565b61300d565b610586610581366004613d43565b6131cb565b604051610238929190614707565b6102776105a23660046140b5565b6132f7565b600760205260009081526040902080546001820154600283018054929391926105cf906148e1565b80601f01602080910402602001604051908101604052809291908181526020018280546105fb906148e1565b80156106485780601f1061061d57610100808354040283529160200191610648565b820191906000526020600020905b81548152906001019060200180831161062b57829003601f168201915b5050505050905083565b6000808484600080516020614984833981519152604051602001610678939291906142fe565b60408051601f1981840301815291815281516020928301206000818152600990935291209091506106a990846138a3565b806106b957506106b985846124db565b95945050505050565b84846106d1828261024f6138c8565b6106f65760405162461bcd60e51b81526004016106ed906147d7565b60405180910390fd5b60008551116107305760405162461bcd60e51b81526020600482015260066024820152654e6f2074616760d01b60448201526064016106ed565b60008451116107715760405162461bcd60e51b815260206004820152600d60248201526c139bc81c995b19585cd950d251609a1b60448201526064016106ed565b60008351116107af5760405162461bcd60e51b815260206004820152600a602482015269139bc81b595d1850d25160b21b60448201526064016106ed565b60008787876040516020016107c69392919061459e565b60408051601f1981840301815291815281516020928301206000818152600890935291208054919250906107f9906148e1565b1590506108335760405162461bcd60e51b8152602060048201526008602482015267151859c81d5cd95960c21b60448201526064016106ed565b6000888888888860405160200161084e9594939291906145c9565b6040516020818303038152906040528051906020012090506000898960405160200161087b929190614299565b60408051601f198184030181529181528151602092830120600081815260079093529120549091506001106109b257600083815260086020908152604090912088516108c9928a0190613b36565b50600083815260086020908152604090912087516108ef92600190920191890190613b36565b5060008381526008602052604090206002016109096138c8565b8154600180820184556000938452602080852090920180546001600160a01b0319166001600160a01b0394909416939093179092558383526007815260408320600301805492830181558352918290208a5161096d939190920191908b0190613b36565b507f5e1fbe6b2dcd4a3319cc33eaca642474c15d38bf53fbd13951233b9a01db1b118a8a8a8a8a6040516109a59594939291906145c9565b60405180910390a1610dc5565b6000828152600e6020526040902054610acf576109d24262093a80614850565b6000838152600e6020526040902055610a036109ec6138c8565b6000848152600e60205260409020600101906138fc565b506000818152600b6020908152604080832081516060810183528c81528084018c90529182018a905280546001810182559084529282902081518051929460030290910192610a5792849290910190613b36565b506020828101518051610a709260018501920190613b36565b5060408201518051610a8c916002840191602090910190613b36565b5050507f023dc5b7151fd62739363b3f93507e8ddc0db882c760ae809789bb5e546a26558a8a610aba6138c8565b8b8b8b6040516109a5969594939291906144fa565b6000828152600e6020526040902054421115610afd5760405162461bcd60e51b81526004016106ed906147f7565b610b1f610b086138c8565b6000848152600e60205260409020600101906138a3565b15610b595760405162461bcd60e51b815260206004820152600a602482015269155cd95c881d9bdd195960b21b60448201526064016106ed565b610b646109ec6138c8565b507f023dc5b7151fd62739363b3f93507e8ddc0db882c760ae809789bb5e546a26558a8a610b906138c8565b8b8b8b604051610ba5969594939291906144fa565b60405180910390a160005b6000838152600e60205260409020610bca90600101613911565b811015610c44576000838152600e60205260409020610bf4908c908c9061024f906001018561391b565b610c34576000838152600e60205260409020610c2e90610c17906001018361391b565b6000858152600e6020526040902060010190613927565b50600090505b610c3d8161491c565b9050610bb0565b50600081815260076020908152604080832054858452600e909252909120610c6e90600101613911565b10610dc55760008381526008602090815260409091208851610c92928a0190613b36565b5060008381526008602090815260409091208751610cb892600190920191890190613b36565b5060005b6000838152600e60205260409020610cd690600101613911565b811015610d4e576000848152600860209081526040808320868452600e909252909120600290910190610d0c906001018361391b565b81546001810183556000928352602090922090910180546001600160a01b0319166001600160a01b03909216919091179055610d478161491c565b9050610cbc565b50600081815260076020908152604082206003018054600181018255908352918190208a51610d849391909101918b0190613b36565b507f5e1fbe6b2dcd4a3319cc33eaca642474c15d38bf53fbd13951233b9a01db1b118a8a8a8a8a604051610dbc9594939291906145c9565b60405180910390a15b50505050505050505050565b8484610de0828261024f6138c8565b610dfc5760405162461bcd60e51b81526004016106ed906147d7565b600080516020614964833981519152851480610e3757507fb85a6b22a26ce426daea6357c60a74cb0b4d36234cd7c96170cd6a64102786ff85145b610e705760405162461bcd60e51b815260206004820152600a6024820152690496e76616c6964206f760b41b60448201526064016106ed565b6000806000898988604051602001610e8a939291906142bf565b604051602081830303815290604052805190602001209050600089511115610f1b5789896000805160206149848339815191528a8a604051602001610ed395949392919061432b565b6040516020818303038152906040528051906020012092508989604051602001610efe929190614299565b604051602081830303815290604052805190602001209150610f75565b60408051602081018c90526000805160206149a48339815191529181019190915260608082018a905288901b6001600160601b03191660808201526094016040516020818303038152906040528051906020012092508991505b6000838152600e602052604090205442101580610fbc57506000838152600e6020526040902054610faa9062093a8090614887565b6000828152600a602052604090205410155b610fd85760405162461bcd60e51b81526004016106ed906147b2565b6000828152600c6020526040902080546001600160a01b03891691908890811061101257634e487b7160e01b600052603260045260246000fd5b6000918252602090912001546001600160a01b0316146110605760405162461bcd60e51b815260206004820152600960248201526857726f6e67206b657960b81b60448201526064016106ed565b6000838152600e6020526040812061107a90600101613911565b11156110a5576000838152600e6020526040812061109f91610c17916001019061391b565b50611060565b6000838152600e60209081526040808320839055848352600c909152902080546110d190600190614887565b815481106110ef57634e487b7160e01b600052603260045260246000fd5b6000918252602080832090910154848352600c909152604090912080546001600160a01b03909216918890811061113657634e487b7160e01b600052603260045260246000fd5b600091825260208083209190910180546001600160a01b0319166001600160a01b039490941693909317909255838152600c9091526040902080548061118c57634e487b7160e01b600052603160045260246000fd5b600082815260209020810160001990810180546001600160a01b031916905501905550505050505050505050565b600180546111c7906148e1565b80601f01602080910402602001604051908101604052809291908181526020018280546111f3906148e1565b80156112405780601f1061121557610100808354040283529160200191611240565b820191906000526020600020905b81548152906001019060200180831161122357829003601f168201915b505050505081565b6004818154811061125857600080fd5b9060005260206000200160009150905080546111c7906148e1565b6060806060806000600760008888604051602001611292929190614299565b6040516020818303038152906040528051906020012081526020019081526020016000209050600060086000898985600301600187600301805490506112d89190614887565b815481106112f657634e487b7160e01b600052603260045260246000fd5b9060005260206000200160405160200161131293929190614628565b604051602081830303815290604052805190602001208152602001908152602001600020905081600301600183600301805490506113509190614887565b8154811061136e57634e487b7160e01b600052603260045260246000fd5b90600052602060002001816000018260010183600201838054611390906148e1565b80601f01602080910402602001604051908101604052809291908181526020018280546113bc906148e1565b80156114095780601f106113de57610100808354040283529160200191611409565b820191906000526020600020905b8154815290600101906020018083116113ec57829003601f168201915b5050505050935082805461141c906148e1565b80601f0160208091040260200160405190810160405280929190818152602001828054611448906148e1565b80156114955780601f1061146a57610100808354040283529160200191611495565b820191906000526020600020905b81548152906001019060200180831161147857829003601f168201915b505050505092508180546114a8906148e1565b80601f01602080910402602001604051908101604052809291908181526020018280546114d4906148e1565b80156115215780601f106114f657610100808354040283529160200191611521565b820191906000526020600020905b81548152906001019060200180831161150457829003601f168201915b505050505091508080548060200260200160405190810160405280929190818152602001828054801561157d57602002820191906000526020600020905b81546001600160a01b0316815260019091019060200180831161155f575b505050505090509550955095509550505092959194509250565b60606000826115a68582614868565b6115b09190614887565b905060006115be8486614868565b6000878152600660205260409020600301549091508111156115ee57506000858152600660205260409020600301545b6000846001600160401b0381111561161657634e487b7160e01b600052604160045260246000fd5b60405190808252806020026020018201604052801561164957816020015b60608152602001906001900390816116345790505b5090505b8183101561175557600087815260066020526040902060030180548490811061168657634e487b7160e01b600052603260045260246000fd5b90600052602060002001805461169b906148e1565b80601f01602080910402602001604051908101604052809291908181526020018280546116c7906148e1565b80156117145780601f106116e957610100808354040283529160200191611714565b820191906000526020600020905b8154815290600101906020018083116116f757829003601f168201915b505050505081848151811061173957634e487b7160e01b600052603260045260246000fd5b60200260200101819052508261174e9061491c565b925061164d565b9695505050505050565b6003818154811061176f57600080fd5b600091825260209091200154905081565b60008181526009602052604081206060919061179b90613911565b6001600160401b038111156117c057634e487b7160e01b600052604160045260246000fd5b6040519080825280602002602001820160405280156117e9578160200160208202803683370190505b50905060005b600084815260096020526040902061180690613911565b81101561186d576000848152600960205260409020611825908261391b565b82828151811061184557634e487b7160e01b600052603260045260246000fd5b6001600160a01b03909216602092830291909101909101526118668161491c565b90506117ef565b5092915050565b600660205260009081526040902080546001820154600283018054929391926105cf906148e1565b6005826040516118ac9190614373565b90815260405190819003602001902054156118f65760405162461bcd60e51b815260206004820152600a6024820152694f72672065786973747360b01b60448201526064016106ed565b60008251116119345760405162461bcd60e51b815260206004820152600a6024820152694e6f206f72674e616d6560b01b60448201526064016106ed565b60008151116119725760405162461bcd60e51b815260206004820152600a6024820152694e6f206f72674d65746160b01b60448201526064016106ed565b60006002600081546119839061491c565b91829055506040805160208101929092524690820152606001604051602081830303815290604052805190602001209050806005846040516119c59190614373565b90815260200160405180910390208190555081600660008381526020019081526020016000206002019080519060200190611a01929190613b36565b506003805460018181019092557fc2575a0e9e593c00f959f8c92f12db2869c3395a3b0502d05e2516446f71f85b018290556004805491820181556000528351611a72917f8a35acfbc15ff81a39ae7d344fd709f28e8600b4aa8c65c6b64bfe7fe36bd19b01906020860190613b36565b50611ade611a7e6138c8565b60096000846000805160206149a4833981519152604051602001611aac929190918252602082015260400190565b6040516020818303038152906040528051906020012081526020019081526020016000206138fc90919063ffffffff16565b50505050565b600b6020528160005260406000208181548110611b0057600080fd5b906000526020600020906003020160009150915050806000018054611b24906148e1565b80601f0160208091040260200160405190810160405280929190818152602001828054611b50906148e1565b8015611b9d5780601f10611b7257610100808354040283529160200191611b9d565b820191906000526020600020905b815481529060010190602001808311611b8057829003601f168201915b505050505090806001018054611bb2906148e1565b80601f0160208091040260200160405190810160405280929190818152602001828054611bde906148e1565b8015611c2b5780601f10611c0057610100808354040283529160200191611c2b565b820191906000526020600020905b815481529060010190602001808311611c0e57829003601f168201915b5050505050908060020180546105cf906148e1565b6060600082611c4f8582614868565b611c599190614887565b90506000611c678486614868565b600454909150811115611c7957506004545b6000846001600160401b03811115611ca157634e487b7160e01b600052604160045260246000fd5b604051908082528060200260200182016040528015611cd457816020015b6060815260200190600190039081611cbf5790505b5090505b81831015611dd05760048381548110611d0157634e487b7160e01b600052603260045260246000fd5b906000526020600020018054611d16906148e1565b80601f0160208091040260200160405190810160405280929190818152602001828054611d42906148e1565b8015611d8f5780601f10611d6457610100808354040283529160200191611d8f565b820191906000526020600020905b815481529060010190602001808311611d7257829003601f168201915b5050505050818481518110611db457634e487b7160e01b600052603260045260246000fd5b602002602001018190525082611dc99061491c565b9250611cd8565b925050505b92915050565b8383611dea828261024f6138c8565b611e065760405162461bcd60e51b81526004016106ed906147d7565b60008086511190506000878787604051602001611e25939291906142fe565b60405160208183030381529060405280519060200120905060008215611e75578888604051602001611e58929190614299565b604051602081830303815290604052805190602001209050611e78565b50875b6000828152600e602052604090205442101580611eca5750828015611eca57506000828152600e6020526040902054611eb59062093a8090614887565b60008281526007602052604090206001015410155b80611f0b575082158015611f0b57506000828152600e6020526040902054611ef69062093a8090614887565b60008a81526006602052604090206001015410155b611f275760405162461bcd60e51b81526004016106ed906147b2565b6000828152600e60205260408120611f4190600101613911565b1115611f83576000828152600e60205260408120611f7d91611f66916001019061391b565b6000848152600e6020526040902060010190613927565b50611f27565b6000828152600e60209081526040808320839055838352600d90915290208054611faf90600190614887565b81548110611fcd57634e487b7160e01b600052603260045260246000fd5b9060005260206000200154600d6000838152602001908152602001600020878154811061200a57634e487b7160e01b600052603260045260246000fd5b9060005260206000200181905550600d600082815260200190815260200160002080548061204857634e487b7160e01b600052603160045260246000fd5b60019003818190600052602060002001600090559055505050505050505050565b600d602052816000526040600020818154811061208557600080fd5b90600052602060002001600091509150505481565b85856120a9828261024f6138c8565b6120c55760405162461bcd60e51b81526004016106ed906147d7565b60008888886040516020016120dc9392919061459e565b6040516020818303038152906040528051906020012090506000898989898960405160200161210f9594939291906145c9565b60408051601f1981840301815291815281516020928301206000818152600e9093529120549091504210158061215d575060008281526008602052604081208054612159906148e1565b9050115b6121795760405162461bcd60e51b81526004016106ed906147b2565b60008a8a60405160200161218e929190614299565b604051602081830303815290604052805190602001209050886040516020016121b79190614373565b60408051601f1981840301815291815281516020928301206000848152600b90935291208054889081106121fb57634e487b7160e01b600052603260045260246000fd5b906000526020600020906003020160000160405160200161221c919061438f565b604051602081830303815290604052805190602001201461226b5760405162461bcd60e51b815260206004820152600960248201526857726f6e672074616760b81b60448201526064016106ed565b6000818152600b60205260409020805461228790600190614887565b815481106122a557634e487b7160e01b600052603260045260246000fd5b9060005260206000209060030201600b600083815260200190815260200160002087815481106122e557634e487b7160e01b600052603260045260246000fd5b90600052602060002090600302016000820181600001908054612307906148e1565b612312929190613bba565b506001820181600101908054612327906148e1565b612332929190613bba565b506002820181600201908054612347906148e1565b612352929190613bba565b5050506000818152600b6020526040902080548061238057634e487b7160e01b600052603160045260246000fd5b600082815260208120600019909201916003830201906123a08282613c35565b6123ae600183016000613c35565b6123bc600283016000613c35565b505090555050505050505050505050565b6000818152600e6020526040812060609082906123ec90600101613911565b6001600160401b0381111561241157634e487b7160e01b600052604160045260246000fd5b60405190808252806020026020018201604052801561243a578160200160208202803683370190505b50905060005b6000858152600e6020526040902061245a90600101613911565b8110156124c4576000858152600e6020526040902061247c906001018261391b565b82828151811061249c57634e487b7160e01b600052603260045260246000fd5b6001600160a01b03909216602092830291909101909101526124bd8161491c565b9050612440565b506000938452600e60205260409093205493915050565b600080836000805160206149a4833981519152604051602001612508929190918252602082015260400190565b60408051601f19818403018152918152815160209283012060008181526009909352912090915061253990846138a3565b949350505050565b8261254e816104fc6138c8565b61256a5760405162461bcd60e51b81526004016106ed906147d7565b81600760008686604051602001612582929190614299565b60405160208183030381529060405280519060200120815260200190815260200160002060020190805190602001906125bc929190613b36565b507f082dfc0cda6cc25674875e2dcd882c68a8b2c80bf48e58c6a3dc2384c698595584846125e86138c8565b856040516125f994939291906144b5565b60405180910390a150505050565b600c602052816000526040600020818154811061262357600080fd5b6000918252602090912001546001600160a01b03169150829050565b8161264c816104fc6138c8565b6126685760405162461bcd60e51b81526004016106ed906147d7565b6000838152600660209081526040909120835161268d92600290920191850190613b36565b507f082dfc0cda6cc25674875e2dcd882c68a8b2c80bf48e58c6a3dc2384c6985955836126b86138c8565b846040516126c8939291906146c0565b60405180910390a1505050565b826126e2816104fc6138c8565b6126fe5760405162461bcd60e51b81526004016106ed906147d7565b60008484604051602001612713929190614299565b60405160208183030381529060405280519060200120905060076000828152602001908152602001600020600201805461274c906148e1565b159050801561276a5750600081815260076020526040902060030154155b6127a45760405162461bcd60e51b815260206004820152600b60248201526a5265706f2065786973747360a81b60448201526064016106ed565b60008451116127e35760405162461bcd60e51b815260206004820152600b60248201526a4e6f207265706f4e616d6560a81b60448201526064016106ed565b60008351116128225760405162461bcd60e51b815260206004820152600b60248201526a4e6f207265706f4d65746160a81b60448201526064016106ed565b600085815260066020908152604082206003018054600181018255908352918190208651612857939190910191870190613b36565b506000818152600760209081526040909120845161287d92600290920191860190613b36565b505050505050565b8383612894828261024f6138c8565b6128b05760405162461bcd60e51b81526004016106ed906147d7565b6000805160206149648339815191528414806128eb57507fb85a6b22a26ce426daea6357c60a74cb0b4d36234cd7c96170cd6a64102786ff84145b8061291557507fd7381cbf120651c7bcd9cff77aa8449385520247d98372358854435c90a30af484145b61294e5760405162461bcd60e51b815260206004820152600a6024820152690496e76616c6964206f760b41b60448201526064016106ed565b60008086511190506000806000808a8a89604051602001612971939291906142bf565b6040516020818303038152906040528051906020012090508415612a39578a8a6000805160206149848339815191528b8b6040516020016129b695949392919061432b565b6040516020818303038152906040528051906020012093508a8a6000805160206149848339815191526040516020016129f1939291906142fe565b6040516020818303038152906040528051906020012092508a8a604051602001612a1c929190614299565b604051602081830303815290604052805190602001209150612ac9565b60408051602081018d90526000805160206149a48339815191529181019190915260608082018b905289901b6001600160601b031916608082015260940160408051601f1981840301815282825280516020918201209083018e90526000805160206149a48339815191529183019190915294506060016040516020818303038152906040528051906020012092505b7fb85a6b22a26ce426daea6357c60a74cb0b4d36234cd7c96170cd6a64102786ff891415612b43576000838152600960205260409020612b0990896138a3565b612b3e5760405162461bcd60e51b81526020600482015260066024820152654e6f204b657960d01b60448201526064016106ed565b612b95565b6000838152600960205260409020612b5b90896138a3565b15612b955760405162461bcd60e51b815260206004820152600a6024820152694b65792065786973747360b01b60448201526064016106ed565b7fd7381cbf120651c7bcd9cff77aa8449385520247d98372358854435c90a30af4891415612c3657612bdc612bc86138c8565b6000858152600960205260409020906138a3565b612bf85760405162461bcd60e51b81526004016106ed906147d7565b612c17612c036138c8565b600085815260096020526040902090613927565b506000838152600960205260409020612c3090896138fc565b50612fba565b848015612c525750600082815260076020526040902054600110155b80612c75575084158015612c75575060008b815260066020526040902054600110155b15612cc057600080516020614964833981519152891415612ca8576000838152600960205260409020612c3090896138fc565b6000838152600960205260409020612c309089613927565b6000848152600e6020526040902054612d6d57612ce04262093a80614850565b6000858152600e60205260409020558415612d31576000828152600c602090815260408220805460018101825590835291200180546001600160a01b0319166001600160a01b038a16179055612dd0565b60008b8152600c602090815260408220805460018101825590835291200180546001600160a01b0319166001600160a01b038a16179055612dd0565b6000848152600e602052604090205442111580612db457506000848152600e6020526040902054612da29062093a8090614887565b6000828152600a602052604090205411155b612dd05760405162461bcd60e51b81526004016106ed906147f7565b612df2612ddb6138c8565b6000868152600e60205260409020600101906138fc565b5060005b6000858152600e60205260409020612e1090600101613911565b811015612ec757858015612e4457506000858152600e60205260409020612e42908d908d9061024f906001018561391b565b155b80612e76575085158015612e7657506000858152600e60205260409020612e74908d906104fc906001018461391b565b155b15612eb7576000858152600e60205260409020612eb190612e9a906001018361391b565b6000878152600e6020526040902060010190613927565b50600090505b612ec08161491c565b9050612df6565b50848015612efc5750600082815260076020908152604080832054878452600e909252909120612ef990600101613911565b10155b80612f36575084158015612f36575060008b815260066020908152604080832054878452600e909252909120612f3490600101613911565b145b15612fba57600080516020614964833981519152891415612f6f576000838152600960205260409020612f6990896138fc565b50612fa8565b6000838152600960205260409020612f879089613927565b506000828152600760205260408120805491612fa2836148ca565b91905055505b6000818152600a602052604090204290555b7fadb15976f6bf4c8e9dad42fef92b31bb40b1dc7b84e20195788ab115b6e51be58b8b612fe56138c8565b8c8c604051612ff8959493929190614472565b60405180910390a15050505050505050505050565b606060008261301c8582614868565b6130269190614887565b905060006130348486614868565b60008781526007602052604090206003015490915081111561306457506000858152600760205260409020600301545b6000846001600160401b0381111561308c57634e487b7160e01b600052604160045260246000fd5b6040519080825280602002602001820160405280156130bf57816020015b60608152602001906001900390816130aa5790505b5090505b818310156117555760008781526007602052604090206003018054849081106130fc57634e487b7160e01b600052603260045260246000fd5b906000526020600020018054613111906148e1565b80601f016020809104026020016040519081016040528092919081815260200182805461313d906148e1565b801561318a5780601f1061315f5761010080835404028352916020019161318a565b820191906000526020600020905b81548152906001019060200180831161316d57829003601f168201915b50505050508184815181106131af57634e487b7160e01b600052603260045260246000fd5b6020026020010181905250826131c49061491c565b92506130c3565b6008602052600090815260409020805481906131e6906148e1565b80601f0160208091040260200160405190810160405280929190818152602001828054613212906148e1565b801561325f5780601f106132345761010080835404028352916020019161325f565b820191906000526020600020905b81548152906001019060200180831161324257829003601f168201915b505050505090806001018054613274906148e1565b80601f01602080910402602001604051908101604052809291908181526020018280546132a0906148e1565b80156132ed5780601f106132c2576101008083540402835291602001916132ed565b820191906000526020600020905b8154815290600101906020018083116132d057829003601f168201915b5050505050905082565b8282613306828261024f6138c8565b6133225760405162461bcd60e51b81526004016106ed906147d7565b60008085511190506000868660405160200161333f929190614299565b60405160208183030381529060405280519060200120905081801561337257506000818152600760205260409020548514155b8061339457508115801561339457506000878152600660205260409020548514155b6133d05760405162461bcd60e51b815260206004820152600d60248201526c151a1c995cda1bdb19081cd95d609a1b60448201526064016106ed565b60008787876040516020016133e7939291906142fe565b60405160208183030381529060405280519060200120905061342161340a6138c8565b6000838152600e60205260409020600101906138a3565b1561345b5760405162461bcd60e51b815260206004820152600a602482015269155cd95c881d9bdd195960b21b60448201526064016106ed565b828015613501575060016134bf600960008b6000805160206149a4833981519152604051602001613496929190918252602082015260400190565b604051602081830303815290604052805190602001208152602001908152602001600020613911565b6134e9600960008c8c600080516020614984833981519152604051602001613496939291906142fe565b6134f39190614850565b6134fd9190614887565b8611155b8061355157508215801561355157506001613543600960008b6000805160206149a4833981519152604051602001613496929190918252602082015260400190565b61354d9190614887565b8611155b6135925760405162461bcd60e51b81526020600482015260126024820152714e6f7420656e6f756768206d656d6265727360701b60448201526064016106ed565b6000818152600e6020526040902054613613576135b24262093a80614850565b6000828152600e602052604090205582156135ed576000828152600d60209081526040822080546001810182559083529120018690556136c2565b6000888152600d60209081526040822080546001810182559083529120018690556136c2565b6000818152600e602052604090205442111580613665575082801561366557506000818152600e60205260409020546136509062093a8090614887565b60008381526007602052604090206001015411155b806136a65750821580156136a657506000818152600e60205260409020546136919062093a8090614887565b60008981526006602052604090206001015411155b6136c25760405162461bcd60e51b81526004016106ed906147f7565b6136e46136cd6138c8565b6000838152600e60205260409020600101906138fc565b5060005b6000828152600e6020526040902061370290600101613911565b8110156137a25783801561373657506000828152600e60205260409020613734908a908a9061024f906001018561391b565b155b8061376857508315801561376857506000828152600e60205260409020613766908a906104fc906001018461391b565b155b15613792576000828152600e6020526040902061378c90611f66906001018361391b565b50600090505b61379b8161491c565b90506136e8565b508280156137d75750600088815260066020908152604080832054848452600e9092529091206137d490600101613911565b10155b806138125750821580156138125750600082815260076020908152604080832054848452600e90925290912061380f90600101613911565b10155b801561383757506000818152600e60205260409020869061383590600101613911565b145b15613855576000828152600760205260409020868155426001909101555b7fd7d535adfceb30de790ccff182812a6198d0f34ad8e4f5427dc1f918e4d84e7688886138806138c8565b896040516138919493929190614569565b60405180910390a15050505050505050565b6001600160a01b038116600090815260018301602052604081205415155b9392505050565b6000601436108015906138e557506000546001600160a01b031633145b156138f7575060131936013560601c90565b503390565b60006138c1836001600160a01b03841661393c565b6000611dd5825490565b60006138c1838361398b565b60006138c1836001600160a01b038416613a1f565b600081815260018301602052604081205461398357508154600181810184556000848152602080822090930184905584548482528286019093526040902091909155611dd5565b506000611dd5565b815460009082106139e95760405162461bcd60e51b815260206004820152602260248201527f456e756d657261626c655365743a20696e646578206f7574206f6620626f756e604482015261647360f01b60648201526084016106ed565b826000018281548110613a0c57634e487b7160e01b600052603260045260246000fd5b9060005260206000200154905092915050565b60008181526001830160205260408120548015613b2c576000613a43600183614887565b8554909150600090613a5790600190614887565b90506000866000018281548110613a7e57634e487b7160e01b600052603260045260246000fd5b9060005260206000200154905080876000018481548110613aaf57634e487b7160e01b600052603260045260246000fd5b600091825260208083209091019290925582815260018901909152604090208490558654879080613af057634e487b7160e01b600052603160045260246000fd5b60019003818190600052602060002001600090559055866001016000878152602001908152602001600020600090556001945050505050611dd5565b6000915050611dd5565b828054613b42906148e1565b90600052602060002090601f016020900481019282613b645760008555613baa565b82601f10613b7d57805160ff1916838001178555613baa565b82800160010185558215613baa579182015b82811115613baa578251825591602001919060010190613b8f565b50613bb6929150613c72565b5090565b828054613bc6906148e1565b90600052602060002090601f016020900481019282613be85760008555613baa565b82601f10613bf95780548555613baa565b82800160010185558215613baa57600052602060002091601f016020900482015b82811115613baa578254825591600101919060010190613c1a565b508054613c41906148e1565b6000825580601f10613c51575050565b601f016020900490600052602060002090810190613c6f9190613c72565b50565b5b80821115613bb65760008155600101613c73565b80356001600160a01b0381168114613c9e57600080fd5b919050565b600082601f830112613cb3578081fd5b81356001600160401b0380821115613ccd57613ccd61494d565b604051601f8301601f19908116603f01168101908282118183101715613cf557613cf561494d565b81604052838152866020858801011115613d0d578485fd5b8360208701602083013792830160200193909352509392505050565b600060208284031215613d3a578081fd5b6138c182613c87565b600060208284031215613d54578081fd5b5035919050565b60008060408385031215613d6d578081fd5b82359150613d7d60208401613c87565b90509250929050565b60008060408385031215613d98578182fd5b8235915060208301356001600160401b03811115613db4578182fd5b613dc085828601613ca3565b9150509250929050565b600080600060608486031215613dde578081fd5b8335925060208401356001600160401b03811115613dfa578182fd5b613e0686828701613ca3565b925050613e1560408501613c87565b90509250925092565b60008060008060808587031215613e33578081fd5b8435935060208501356001600160401b03811115613e4f578182fd5b613e5b87828801613ca3565b93505060408501359150613e7160608601613c87565b905092959194509250565b600080600080600060a08688031215613e93578081fd5b8535945060208601356001600160401b03811115613eaf578182fd5b613ebb88828901613ca3565b94505060408601359250613ed160608701613c87565b949793965091946080013592915050565b600080600060608486031215613ef6578283fd5b8335925060208401356001600160401b0380821115613f13578384fd5b613f1f87838801613ca3565b93506040860135915080821115613f34578283fd5b50613f4186828701613ca3565b9150509250925092565b600080600080600060a08688031215613f62578081fd5b8535945060208601356001600160401b0380821115613f7f578283fd5b613f8b89838a01613ca3565b95506040880135915080821115613fa0578283fd5b613fac89838a01613ca3565b94506060880135915080821115613fc1578283fd5b613fcd89838a01613ca3565b93506080880135915080821115613fe2578283fd5b50613fef88828901613ca3565b9150509295509295909350565b60008060008060008060c08789031215614014578081fd5b8635955060208701356001600160401b0380821115614031578283fd5b61403d8a838b01613ca3565b96506040890135915080821115614052578283fd5b61405e8a838b01613ca3565b95506060890135915080821115614073578283fd5b61407f8a838b01613ca3565b94506080890135915080821115614094578283fd5b506140a189828a01613ca3565b92505060a087013590509295509295509295565b6000806000606084860312156140c9578283fd5b8335925060208401356001600160401b038111156140e5578283fd5b6140f186828701613ca3565b925050604084013590509250925092565b60008060008060808587031215614117578182fd5b8435935060208501356001600160401b03811115614133578283fd5b61413f87828801613ca3565b949794965050505060408301359260600135919050565b60008060408385031215614168578182fd5b50508035926020909101359150565b60008060006060848603121561418b578081fd5b505081359360208301359350604090920135919050565b6000602082840312156141b3578081fd5b81356001600160401b038111156141c8578182fd5b61253984828501613ca3565b600080604083850312156141e6578182fd5b82356001600160401b03808211156141fc578384fd5b61420886838701613ca3565b9350602085013591508082111561421d578283fd5b50613dc085828601613ca3565b6000815180845260208085019450808401835b838110156142625781516001600160a01b03168752958201959082019060010161423d565b509495945050505050565b6000815180845261428581602086016020860161489e565b601f01601f19169290920160200192915050565b828152600082516142b181602085016020870161489e565b919091016020019392505050565b838152600083516142d781602085016020880161489e565b60609390931b6001600160601b031916602092909301918201929092526034019392505050565b8381526000835161431681602085016020880161489e565b60209201918201929092526040019392505050565b85815260008551614343816020850160208a0161489e565b60209201918201949094526040810192909252606090811b6001600160601b031916908201526074019392505050565b6000825161438581846020870161489e565b9190910192915050565b600080835461439d816148e1565b600182811680156143b557600181146143c6576143f2565b60ff198416875282870194506143f2565b8786526020808720875b858110156143e95781548a8201529084019082016143d0565b50505082870194505b50929695505050505050565b6020815260006138c1602083018461422a565b6000602080830181845280855180835260408601915060408160051b8701019250838701855b8281101561446557603f1988860301845261445385835161426d565b94509285019290850190600101614437565b5092979650505050505050565b85815260a06020820152600061448b60a083018761426d565b6001600160a01b039586166040840152606083019490945250921660809092019190915292915050565b8481526080602082015260006144ce608083018661426d565b6001600160a01b038516604084015282810360608401526144ef818561426d565b979650505050505050565b86815260c06020820152600061451360c083018861426d565b6001600160a01b03871660408401528281036060840152614534818761426d565b90508281036080840152614548818661426d565b905082810360a084015261455c818561426d565b9998505050505050505050565b848152608060208201526000614582608083018661426d565b6001600160a01b03949094166040830152506060015292915050565b8381526060602082015260006145b7606083018561426d565b8281036040840152611755818561426d565b85815260a0602082015260006145e260a083018761426d565b82810360408401526145f4818761426d565b90508281036060840152614608818661426d565b9050828103608084015261461c818561426d565b98975050505050505050565b83815260006020606081840152614642606084018661426d565b8381036040850152828554614656816148e1565b808452600182811680156146715760018114614685576146b0565b60ff198416868801526040860194506146b0565b898852868820885b848110156146a85781548882018a015290830190880161468d565b870188019550505b50929a9950505050505050505050565b83815260806020820152600080608083015260018060a01b038416604083015260a060608301526106b960a083018461426d565b6020815260006138c1602083018461426d565b60408152600061471a604083018561426d565b82810360208401526106b9818561426d565b60608152600061473f606083018661426d565b8281036020840152614751818661426d565b90508281036040840152611755818561426d565b608081526000614778608083018761426d565b828103602084015261478a818761426d565b9050828103604084015261479e818661426d565b905082810360608401526144ef818561422a565b6020808252600b908201526a139bdd08195e1c1a5c995960aa1b604082015260600190565b60208082526006908201526511195b9a595960d21b604082015260600190565b602080825260079082015266115e1c1a5c995960ca1b604082015260600190565b828152604060208201526000612539604083018461422a565b8381528260208201526060604082015260006106b9606083018461426d565b6000821982111561486357614863614937565b500190565b600081600019048311821515161561488257614882614937565b500290565b60008282101561489957614899614937565b500390565b60005b838110156148b95781810151838201526020016148a1565b83811115611ade5750506000910152565b6000816148d9576148d9614937565b506000190190565b600181811c908216806148f557607f821691505b6020821081141561491657634e487b7160e01b600052602260045260246000fd5b50919050565b600060001982141561493057614930614937565b5060010190565b634e487b7160e01b600052601160045260246000fd5b634e487b7160e01b600052604160045260246000fdfedb7bfe957d82520d83f2a439f82c0ab65bbe62c5da8b7b7aa22924c027ef518d069bf569f27d389f2c70410107860b2e82ff561283b097a89e897daa5e34b1b6123b642491709420c2370bb98c4e7de2b1bc05c5f9fd95ac4111e12683553c62a2646970667358221220df419c58d4717cae38087f25b6825a1d29099ad59d4ab7ffd30985eb05df0bd364736f6c63430008040033",
  "linkReferences": {},
  "deployedLinkReferences": {}
}