{
  "contracts/Valist.sol": {
    "Valist": {
      "abi": [
        {
          "inputs": [
            {
              "internalType": "address",
              "name": "metaTxForwarder",
              "type": "address"
            }
          ],
          "stateMutability": "nonpayable",
          "type": "constructor"
        },
        {
          "anonymous": false,
          "inputs": [
            {
              "indexed": true,
              "internalType": "bytes32",
              "name": "_orgID",
              "type": "bytes32"
            },
            {
              "indexed": true,
              "internalType": "string",
              "name": "_repoName",
              "type": "string"
            },
            {
              "indexed": true,
              "internalType": "address",
              "name": "_signer",
              "type": "address"
            },
            {
              "indexed": false,
              "internalType": "string",
              "name": "_metaCID",
              "type": "string"
            }
          ],
          "name": "MetaUpdate",
          "type": "event"
        },
        {
          "anonymous": false,
          "inputs": [
            {
              "indexed": true,
              "internalType": "bytes32",
              "name": "_orgID",
              "type": "bytes32"
            },
            {
              "indexed": true,
              "internalType": "string",
              "name": "_repoName",
              "type": "string"
            },
            {
              "indexed": false,
              "internalType": "address",
              "name": "_signer",
              "type": "address"
            },
            {
              "indexed": false,
              "internalType": "bytes32",
              "name": "_operation",
              "type": "bytes32"
            },
            {
              "indexed": true,
              "internalType": "address",
              "name": "_key",
              "type": "address"
            },
            {
              "indexed": false,
              "internalType": "uint256",
              "name": "_sigCount",
              "type": "uint256"
            },
            {
              "indexed": false,
              "internalType": "uint256",
              "name": "_threshold",
              "type": "uint256"
            }
          ],
          "name": "VoteKeyEvent",
          "type": "event"
        },
        {
          "anonymous": false,
          "inputs": [
            {
              "indexed": true,
              "internalType": "bytes32",
              "name": "_orgID",
              "type": "bytes32"
            },
            {
              "indexed": true,
              "internalType": "string",
              "name": "_repoName",
              "type": "string"
            },
            {
              "indexed": true,
              "internalType": "string",
              "name": "_tag",
              "type": "string"
            },
            {
              "indexed": false,
              "internalType": "string",
              "name": "_releaseCID",
              "type": "string"
            },
            {
              "indexed": false,
              "internalType": "string",
              "name": "_metaCID",
              "type": "string"
            },
            {
              "indexed": false,
              "internalType": "address",
              "name": "_signer",
              "type": "address"
            },
            {
              "indexed": false,
              "internalType": "uint256",
              "name": "_sigCount",
              "type": "uint256"
            },
            {
              "indexed": false,
              "internalType": "uint256",
              "name": "_threshold",
              "type": "uint256"
            }
          ],
          "name": "VoteReleaseEvent",
          "type": "event"
        },
        {
          "anonymous": false,
          "inputs": [
            {
              "indexed": true,
              "internalType": "bytes32",
              "name": "_orgID",
              "type": "bytes32"
            },
            {
              "indexed": true,
              "internalType": "string",
              "name": "_repoName",
              "type": "string"
            },
            {
              "indexed": false,
              "internalType": "address",
              "name": "_signer",
              "type": "address"
            },
            {
              "indexed": true,
              "internalType": "uint256",
              "name": "_pendingThreshold",
              "type": "uint256"
            },
            {
              "indexed": false,
              "internalType": "uint256",
              "name": "_sigCount",
              "type": "uint256"
            },
            {
              "indexed": false,
              "internalType": "uint256",
              "name": "_threshold",
              "type": "uint256"
            }
          ],
          "name": "VoteThresholdEvent",
          "type": "event"
        },
        {
          "inputs": [
            {
              "internalType": "bytes32",
              "name": "_orgID",
              "type": "bytes32"
            },
            {
              "internalType": "string",
              "name": "_repoName",
              "type": "string"
            },
            {
              "internalType": "bytes32",
              "name": "_operation",
              "type": "bytes32"
            },
            {
              "internalType": "address",
              "name": "_key",
              "type": "address"
            },
            {
              "internalType": "uint256",
              "name": "_requestIndex",
              "type": "uint256"
            }
          ],
          "name": "clearPendingKey",
          "outputs": [],
          "stateMutability": "nonpayable",
          "type": "function"
        },
        {
          "inputs": [
            {
              "internalType": "bytes32",
              "name": "_orgID",
              "type": "bytes32"
            },
            {
              "internalType": "string",
              "name": "_repoName",
              "type": "string"
            },
            {
              "internalType": "string",
              "name": "_tag",
              "type": "string"
            },
            {
              "internalType": "string",
              "name": "_releaseCID",
              "type": "string"
            },
            {
              "internalType": "string",
              "name": "_metaCID",
              "type": "string"
            },
            {
              "internalType": "uint256",
              "name": "_requestIndex",
              "type": "uint256"
            }
          ],
          "name": "clearPendingRelease",
          "outputs": [],
          "stateMutability": "nonpayable",
          "type": "function"
        },
        {
          "inputs": [
            {
              "internalType": "bytes32",
              "name": "_orgID",
              "type": "bytes32"
            },
            {
              "internalType": "string",
              "name": "_repoName",
              "type": "string"
            },
            {
              "internalType": "uint256",
              "name": "_threshold",
              "type": "uint256"
            },
            {
              "internalType": "uint256",
              "name": "_requestIndex",
              "type": "uint256"
            }
          ],
          "name": "clearPendingThreshold",
          "outputs": [],
          "stateMutability": "nonpayable",
          "type": "function"
        },
        {
          "inputs": [
            {
              "internalType": "string",
              "name": "_orgName",
              "type": "string"
            },
            {
              "internalType": "string",
              "name": "_orgMeta",
              "type": "string"
            }
          ],
          "name": "createOrganization",
          "outputs": [],
          "stateMutability": "nonpayable",
          "type": "function"
        },
        {
          "inputs": [
            {
              "internalType": "bytes32",
              "name": "_orgID",
              "type": "bytes32"
            },
            {
              "internalType": "string",
              "name": "_repoName",
              "type": "string"
            },
            {
              "internalType": "string",
              "name": "_repoMeta",
              "type": "string"
            }
          ],
          "name": "createRepository",
          "outputs": [],
          "stateMutability": "nonpayable",
          "type": "function"
        },
        {
          "inputs": [
            {
              "internalType": "bytes32",
              "name": "_orgID",
              "type": "bytes32"
            },
            {
              "internalType": "string",
              "name": "_repoName",
              "type": "string"
            }
          ],
          "name": "getLatestRelease",
          "outputs": [
            {
              "internalType": "string",
              "name": "",
              "type": "string"
            },
            {
              "internalType": "string",
              "name": "",
              "type": "string"
            },
            {
              "internalType": "string",
              "name": "",
              "type": "string"
            },
            {
              "internalType": "address[]",
              "name": "",
              "type": "address[]"
            }
          ],
          "stateMutability": "view",
          "type": "function"
        },
        {
          "inputs": [
            {
              "internalType": "uint256",
              "name": "_page",
              "type": "uint256"
            },
            {
              "internalType": "uint256",
              "name": "_resultsPerPage",
              "type": "uint256"
            }
          ],
          "name": "getOrgNames",
          "outputs": [
            {
              "internalType": "string[]",
              "name": "",
              "type": "string[]"
            }
          ],
          "stateMutability": "view",
          "type": "function"
        },
        {
          "inputs": [
            {
              "internalType": "bytes32",
              "name": "_selector",
              "type": "bytes32"
            }
          ],
          "name": "getPendingReleaseCount",
          "outputs": [
            {
              "internalType": "uint256",
              "name": "",
              "type": "uint256"
            }
          ],
          "stateMutability": "view",
          "type": "function"
        },
        {
          "inputs": [
            {
              "internalType": "bytes32",
              "name": "_selector",
              "type": "bytes32"
            }
          ],
          "name": "getPendingVotes",
          "outputs": [
            {
              "internalType": "uint256",
              "name": "",
              "type": "uint256"
            },
            {
              "internalType": "address[]",
              "name": "",
              "type": "address[]"
            }
          ],
          "stateMutability": "view",
          "type": "function"
        },
        {
          "inputs": [
            {
              "internalType": "bytes32",
              "name": "_selector",
              "type": "bytes32"
            },
            {
              "internalType": "uint256",
              "name": "_page",
              "type": "uint256"
            },
            {
              "internalType": "uint256",
              "name": "_resultsPerPage",
              "type": "uint256"
            }
          ],
          "name": "getReleaseTags",
          "outputs": [
            {
              "internalType": "string[]",
              "name": "",
              "type": "string[]"
            }
          ],
          "stateMutability": "view",
          "type": "function"
        },
        {
          "inputs": [
            {
              "internalType": "bytes32",
              "name": "_orgID",
              "type": "bytes32"
            },
            {
              "internalType": "uint256",
              "name": "_page",
              "type": "uint256"
            },
            {
              "internalType": "uint256",
              "name": "_resultsPerPage",
              "type": "uint256"
            }
          ],
          "name": "getRepoNames",
          "outputs": [
            {
              "internalType": "string[]",
              "name": "",
              "type": "string[]"
            }
          ],
          "stateMutability": "view",
          "type": "function"
        },
        {
          "inputs": [
            {
              "internalType": "bytes32",
              "name": "_selector",
              "type": "bytes32"
            }
          ],
          "name": "getRoleMembers",
          "outputs": [
            {
              "internalType": "address[]",
              "name": "",
              "type": "address[]"
            }
          ],
          "stateMutability": "view",
          "type": "function"
        },
        {
          "inputs": [
            {
              "internalType": "bytes32",
              "name": "_selector",
              "type": "bytes32"
            }
          ],
          "name": "getRoleRequestCount",
          "outputs": [
            {
              "internalType": "uint256",
              "name": "",
              "type": "uint256"
            }
          ],
          "stateMutability": "view",
          "type": "function"
        },
        {
          "inputs": [
            {
              "internalType": "bytes32",
              "name": "_selector",
              "type": "bytes32"
            }
          ],
          "name": "getThresholdRequestCount",
          "outputs": [
            {
              "internalType": "uint256",
              "name": "",
              "type": "uint256"
            }
          ],
          "stateMutability": "view",
          "type": "function"
        },
        {
          "inputs": [
            {
              "internalType": "bytes32",
              "name": "_orgID",
              "type": "bytes32"
            },
            {
              "internalType": "address",
              "name": "_address",
              "type": "address"
            }
          ],
          "name": "isOrgAdmin",
          "outputs": [
            {
              "internalType": "bool",
              "name": "",
              "type": "bool"
            }
          ],
          "stateMutability": "view",
          "type": "function"
        },
        {
          "inputs": [
            {
              "internalType": "bytes32",
              "name": "_orgID",
              "type": "bytes32"
            },
            {
              "internalType": "string",
              "name": "_repoName",
              "type": "string"
            },
            {
              "internalType": "address",
              "name": "_address",
              "type": "address"
            }
          ],
          "name": "isRepoDev",
          "outputs": [
            {
              "internalType": "bool",
              "name": "",
              "type": "bool"
            }
          ],
          "stateMutability": "view",
          "type": "function"
        },
        {
          "inputs": [
            {
              "internalType": "address",
              "name": "forwarder",
              "type": "address"
            }
          ],
          "name": "isTrustedForwarder",
          "outputs": [
            {
              "internalType": "bool",
              "name": "",
              "type": "bool"
            }
          ],
          "stateMutability": "view",
          "type": "function"
        },
        {
          "inputs": [],
          "name": "orgCount",
          "outputs": [
            {
              "internalType": "uint256",
              "name": "",
              "type": "uint256"
            }
          ],
          "stateMutability": "view",
          "type": "function"
        },
        {
          "inputs": [
            {
              "internalType": "string",
              "name": "",
              "type": "string"
            }
          ],
          "name": "orgIDByName",
          "outputs": [
            {
              "internalType": "bytes32",
              "name": "",
              "type": "bytes32"
            }
          ],
          "stateMutability": "view",
          "type": "function"
        },
        {
          "inputs": [
            {
              "internalType": "uint256",
              "name": "",
              "type": "uint256"
            }
          ],
          "name": "orgIDs",
          "outputs": [
            {
              "internalType": "bytes32",
              "name": "",
              "type": "bytes32"
            }
          ],
          "stateMutability": "view",
          "type": "function"
        },
        {
          "inputs": [
            {
              "internalType": "uint256",
              "name": "",
              "type": "uint256"
            }
          ],
          "name": "orgNames",
          "outputs": [
            {
              "internalType": "string",
              "name": "",
              "type": "string"
            }
          ],
          "stateMutability": "view",
          "type": "function"
        },
        {
          "inputs": [
            {
              "internalType": "bytes32",
              "name": "",
              "type": "bytes32"
            }
          ],
          "name": "orgs",
          "outputs": [
            {
              "internalType": "uint256",
              "name": "threshold",
              "type": "uint256"
            },
            {
              "internalType": "uint256",
              "name": "thresholdDate",
              "type": "uint256"
            },
            {
              "internalType": "string",
              "name": "metaCID",
              "type": "string"
            }
          ],
          "stateMutability": "view",
          "type": "function"
        },
        {
          "inputs": [
            {
              "internalType": "bytes32",
              "name": "",
              "type": "bytes32"
            },
            {
              "internalType": "uint256",
              "name": "",
              "type": "uint256"
            }
          ],
          "name": "pendingReleaseRequests",
          "outputs": [
            {
              "internalType": "string",
              "name": "tag",
              "type": "string"
            },
            {
              "internalType": "string",
              "name": "releaseCID",
              "type": "string"
            },
            {
              "internalType": "string",
              "name": "metaCID",
              "type": "string"
            }
          ],
          "stateMutability": "view",
          "type": "function"
        },
        {
          "inputs": [
            {
              "internalType": "bytes32",
              "name": "",
              "type": "bytes32"
            },
            {
              "internalType": "uint256",
              "name": "",
              "type": "uint256"
            }
          ],
          "name": "pendingRoleRequests",
          "outputs": [
            {
              "internalType": "address",
              "name": "",
              "type": "address"
            }
          ],
          "stateMutability": "view",
          "type": "function"
        },
        {
          "inputs": [
            {
              "internalType": "bytes32",
              "name": "",
              "type": "bytes32"
            },
            {
              "internalType": "uint256",
              "name": "",
              "type": "uint256"
            }
          ],
          "name": "pendingThresholdRequests",
          "outputs": [
            {
              "internalType": "uint256",
              "name": "",
              "type": "uint256"
            }
          ],
          "stateMutability": "view",
          "type": "function"
        },
        {
          "inputs": [
            {
              "internalType": "bytes32",
              "name": "",
              "type": "bytes32"
            }
          ],
          "name": "releases",
          "outputs": [
            {
              "internalType": "string",
              "name": "releaseCID",
              "type": "string"
            },
            {
              "internalType": "string",
              "name": "metaCID",
              "type": "string"
            }
          ],
          "stateMutability": "view",
          "type": "function"
        },
        {
          "inputs": [
            {
              "internalType": "bytes32",
              "name": "",
              "type": "bytes32"
            }
          ],
          "name": "repos",
          "outputs": [
            {
              "internalType": "bool",
              "name": "exists",
              "type": "bool"
            },
            {
              "internalType": "uint256",
              "name": "threshold",
              "type": "uint256"
            },
            {
              "internalType": "uint256",
              "name": "thresholdDate",
              "type": "uint256"
            },
            {
              "internalType": "string",
              "name": "metaCID",
              "type": "string"
            }
          ],
          "stateMutability": "view",
          "type": "function"
        },
        {
          "inputs": [
            {
              "internalType": "bytes32",
              "name": "",
              "type": "bytes32"
            }
          ],
          "name": "roleModifiedTimestamps",
          "outputs": [
            {
              "internalType": "uint256",
              "name": "",
              "type": "uint256"
            }
          ],
          "stateMutability": "view",
          "type": "function"
        },
        {
          "inputs": [
            {
              "internalType": "bytes32",
              "name": "_orgID",
              "type": "bytes32"
            },
            {
              "internalType": "string",
              "name": "_metaCID",
              "type": "string"
            }
          ],
          "name": "setOrgMeta",
          "outputs": [],
          "stateMutability": "nonpayable",
          "type": "function"
        },
        {
          "inputs": [
            {
              "internalType": "bytes32",
              "name": "_orgID",
              "type": "bytes32"
            },
            {
              "internalType": "string",
              "name": "_repoName",
              "type": "string"
            },
            {
              "internalType": "string",
              "name": "_metaCID",
              "type": "string"
            }
          ],
          "name": "setRepoMeta",
          "outputs": [],
          "stateMutability": "nonpayable",
          "type": "function"
        },
        {
          "inputs": [],
          "name": "trustedForwarder",
          "outputs": [
            {
              "internalType": "address",
              "name": "",
              "type": "address"
            }
          ],
          "stateMutability": "view",
          "type": "function"
        },
        {
          "inputs": [],
          "name": "versionRecipient",
          "outputs": [
            {
              "internalType": "string",
              "name": "",
              "type": "string"
            }
          ],
          "stateMutability": "view",
          "type": "function"
        },
        {
          "inputs": [
            {
              "internalType": "bytes32",
              "name": "_orgID",
              "type": "bytes32"
            },
            {
              "internalType": "string",
              "name": "_repoName",
              "type": "string"
            },
            {
              "internalType": "bytes32",
              "name": "_operation",
              "type": "bytes32"
            },
            {
              "internalType": "address",
              "name": "_key",
              "type": "address"
            }
          ],
          "name": "voteKey",
          "outputs": [],
          "stateMutability": "nonpayable",
          "type": "function"
        },
        {
          "inputs": [
            {
              "internalType": "bytes32",
              "name": "_orgID",
              "type": "bytes32"
            },
            {
              "internalType": "string",
              "name": "_repoName",
              "type": "string"
            },
            {
              "internalType": "string",
              "name": "_tag",
              "type": "string"
            },
            {
              "internalType": "string",
              "name": "_releaseCID",
              "type": "string"
            },
            {
              "internalType": "string",
              "name": "_metaCID",
              "type": "string"
            }
          ],
          "name": "voteRelease",
          "outputs": [],
          "stateMutability": "nonpayable",
          "type": "function"
        },
        {
          "inputs": [
            {
              "internalType": "bytes32",
              "name": "_orgID",
              "type": "bytes32"
            },
            {
              "internalType": "string",
              "name": "_repoName",
              "type": "string"
            },
            {
              "internalType": "uint256",
              "name": "_threshold",
              "type": "uint256"
            }
          ],
          "name": "voteThreshold",
          "outputs": [],
          "stateMutability": "nonpayable",
          "type": "function"
        }
      ],
      "evm": {
        "bytecode": {
          "linkReferences": {},
          "object": "60c060405260056080819052640322e322e360dc1b60a09081526200002891600191906200007f565b503480156200003657600080fd5b5060405162004ce238038062004ce2833981016040819052620000599162000125565b600080546001600160a01b0319166001600160a01b039290921691909117905562000192565b8280546200008d9062000155565b90600052602060002090601f016020900481019282620000b15760008555620000fc565b82601f10620000cc57805160ff1916838001178555620000fc565b82800160010185558215620000fc579182015b82811115620000fc578251825591602001919060010190620000df565b506200010a9291506200010e565b5090565b5b808211156200010a57600081556001016200010f565b60006020828403121562000137578081fd5b81516001600160a01b03811681146200014e578182fd5b9392505050565b600181811c908216806200016a57607f821691505b602082108114156200018c57634e487b7160e01b600052602260045260246000fd5b50919050565b614b4080620001a26000396000f3fe608060405234801561001057600080fd5b50600436106102115760003560e01c8063a411ef2011610125578063d96162a1116100ad578063e59dbfa41161007c578063e59dbfa41461054a578063f26f3c561461055d578063f3439d5614610570578063f491a84c14610583578063f735b352146105a457600080fd5b8063d96162a1146104fe578063dedc339114610511578063dfec1bb014610524578063e253f5e11461053757600080fd5b8063c372be80116100f4578063c372be8014610483578063c6c2a0be14610496578063cd20ff77146104a9578063d565e860146104d4578063d8106690146104f557600080fd5b8063a411ef2014610428578063a940abcb1461043b578063aa788ebe1461045d578063b93d16851461047057600080fd5b80635bb44241116101a85780638775692f116101775780638775692f146103935780638bf67370146103a6578063924a5443146103c6578063a3246ad3146103e6578063a3e84beb1461040657600080fd5b80635bb44241146103125780635cd20d29146103255780637da0a87714610348578063837dc4d01461037357600080fd5b80633e1bf64b116101e45780633e1bf64b146102a857806340fd48a7146102c8578063486ff0cd146102db578063572b6c05146102f057600080fd5b806302b2583a146102165780631fd522a614610242578063328d3ddf146102655780633b0659fd1461027a575b600080fd5b610229610224366004613f63565b6105b7565b6040516102399493929190614692565b60405180910390f35b610255610250366004613fea565b61066e565b6040519015158152602001610239565b61027861027336600461416b565b610775565b005b61029a610288366004613f63565b6000908152600d602052604090205490565b604051908152602001610239565b61029a6102b6366004613f63565b6000908152600c602052604090205490565b6102786102d636600461409c565b610ea9565b6102e3611292565b60405161023991906147db565b6102556102fe366004613f49565b6000546001600160a01b0391821691161490565b6102e3610320366004613f63565b611320565b610338610333366004613fa6565b61134b565b60405161023994939291906148a1565b60005461035b906001600160a01b031681565b6040516001600160a01b039091168152602001610239565b610386610381366004614397565b61166f565b6040516102399190614631565b61029a6103a1366004613f63565b611837565b61029a6103b4366004613f63565b600a6020526000908152604090205481565b61029a6103d4366004613f63565b6000908152600b602052604090205490565b6103f96103f4366004613f63565b611858565b604051610239919061461e565b610419610414366004613f63565b61194c565b60405161023993929190614978565b6102786104363660046143f4565b6119f7565b61044e610449366004614376565b611c3f565b60405161023993929190614868565b61038661046b366004614376565b611d9b565b61027861047e366004614322565b611f36565b61029a610491366004614376565b6121c4565b6102786104a436600461421c565b6121f5565b61029a6104b73660046143c2565b805160208183018101805160058252928201919093012091525481565b6104e76104e2366004613f63565b612528565b60405161023992919061495f565b61029a60025481565b61025561050c366004613f7b565b612636565b61027861051f366004614102565b61269c565b61035b610532366004614376565b61277d565b610278610545366004613fa6565b6127b5565b610278610558366004614102565b61287a565b61027861056b36600461403e565b612a0a565b61038661057e366004614397565b61327b565b610596610591366004613f63565b613439565b6040516102399291906147ee565b6102786105b23660046142d5565b613565565b600760205260009081526040902080546001820154600283015460038401805460ff9094169492939192916105eb90614a28565b80601f016020809104026020016040519081016040528092919081815260200182805461061790614a28565b80156106645780601f1061063957610100808354040283529160200191610664565b820191906000526020600020905b81548152906001019060200180831161064757829003601f168201915b5050505050905084565b8151600090156107615760076000858560405160200161068f9291906144b9565b60408051601f198184030181529181528151602092830120835290820192909252016000205460ff166106f35760405162461bcd60e51b81526020600482015260076024820152664e6f207265706f60c81b60448201526064015b60405180910390fd5b60008484600080516020614acb8339815191526040516020016107189392919061451e565b60408051601f1981840301815291815281516020928301206000818152600990935291209091506107499084613ac6565b8061075957506107598584612636565b91505061076e565b61076b8483612636565b90505b9392505050565b84846107848282610250613ae8565b6107a05760405162461bcd60e51b81526004016106ea9061491e565b60008551116107da5760405162461bcd60e51b81526020600482015260066024820152654e6f2074616760d01b60448201526064016106ea565b600084511161081b5760405162461bcd60e51b815260206004820152600d60248201526c139bc81c995b19585cd950d251609a1b60448201526064016106ea565b60008351116108595760405162461bcd60e51b815260206004820152600a602482015269139bc81b595d1850d25160b21b60448201526064016106ea565b6000878787604051602001610870939291906146b9565b60408051601f1981840301815291815281516020928301206000818152600890935291208054919250906108a390614a28565b1590506108dd5760405162461bcd60e51b8152602060048201526008602482015267151859c81d5cd95960c21b60448201526064016106ea565b600088888888886040516020016108f89594939291906146e4565b604051602081830303815290604052805190602001209050600089896040516020016109259291906144b9565b6040516020818303038152906040528051906020012090506001600760008381526020019081526020016000206001015411610aa9576000838152600860209081526040909120885161097a928a0190613d56565b50600083815260086020908152604090912087516109a092600190920191890190613d56565b5060008381526008602052604090206002016109ba613ae8565b8154600180820184556000938452602080852090920180546001600160a01b0319166001600160a01b0394909416939093179092558383526007815260408320600401805492830181558352918290208a51610a1e939190920191908b0190613d56565b5087604051610a2d9190614593565b604051809103902089604051610a439190614593565b60405180910390208b7f38b17387282322f8d6de03e5d4b3ff512d3bb4d3db8cc2be4611ecfb8a126c6b8a8a610a77613ae8565b600088815260076020526040908190206001908101549151610a9c959493929061481c565b60405180910390a4610e9d565b6000828152600e6020526040902054610b8b57610ac94262093a80614997565b6000838152600e6020526040902055610afa610ae3613ae8565b6000848152600e6020526040902060010190613b1c565b506000818152600b6020908152604080832081516060810183528c81528084018c90529182018a905280546001810182559084529282902081518051929460030290910192610b4e92849290910190613d56565b506020828101518051610b679260018501920190613d56565b5060408201518051610b83916002840191602090910190613d56565b505050610dfe565b6000828152600e6020526040902054421115610bb95760405162461bcd60e51b81526004016106ea9061493e565b610bdb610bc4613ae8565b6000848152600e6020526040902060010190613ac6565b15610c155760405162461bcd60e51b815260206004820152600a602482015269155cd95c881d9bdd195960b21b60448201526064016106ea565b610c20610ae3613ae8565b5060005b6000838152600e60205260409020610c3e90600101613b31565b811015610cb8576000838152600e60205260409020610c68908c908c906102509060010185613b3b565b610ca8576000838152600e60205260409020610ca290610c8b9060010183613b3b565b6000858152600e6020526040902060010190613b47565b50600090505b610cb181614a63565b9050610c24565b506000818152600760209081526040808320600190810154868552600e90935292209091610ce69101613b31565b10610dfe5760008381526008602090815260409091208851610d0a928a0190613d56565b5060008381526008602090815260409091208751610d3092600190920191890190613d56565b5060005b6000838152600e60205260409020610d4e90600101613b31565b811015610dc6576000848152600860209081526040808320868452600e909252909120600290910190610d849060010183613b3b565b81546001810183556000928352602090922090910180546001600160a01b0319166001600160a01b03909216919091179055610dbf81614a63565b9050610d34565b50600081815260076020908152604082206004018054600181018255908352918190208a51610dfc9391909101918b0190613d56565b505b87604051610e0c9190614593565b604051809103902089604051610e229190614593565b60405180910390208b7f38b17387282322f8d6de03e5d4b3ff512d3bb4d3db8cc2be4611ecfb8a126c6b8a8a610e56613ae8565b6000898152600e60205260409020610e7090600101613b31565b60008981526007602052604090819020600101549051610e9495949392919061481c565b60405180910390a45b50505050505050505050565b8484610eb88282610250613ae8565b610ed45760405162461bcd60e51b81526004016106ea9061491e565b600080516020614aab833981519152851480610f0f57507fb85a6b22a26ce426daea6357c60a74cb0b4d36234cd7c96170cd6a64102786ff85145b610f485760405162461bcd60e51b815260206004820152600a6024820152690496e76616c6964206f760b41b60448201526064016106ea565b6000806000898988604051602001610f62939291906144df565b604051602081830303815290604052805190602001209050600089511115610ff3578989600080516020614acb8339815191528a8a604051602001610fab95949392919061454b565b6040516020818303038152906040528051906020012092508989604051602001610fd69291906144b9565b60405160208183030381529060405280519060200120915061104d565b60408051602081018c9052600080516020614aeb8339815191529181019190915260608082018a905288901b6001600160601b03191660808201526094016040516020818303038152906040528051906020012092508991505b6000838152600e60205260409020544210158061109457506000838152600e60205260409020546110829062093a80906149ce565b6000828152600a602052604090205410155b6110b05760405162461bcd60e51b81526004016106ea906148f9565b6000828152600c6020526040902080546001600160a01b0389169190889081106110ea57634e487b7160e01b600052603260045260246000fd5b6000918252602090912001546001600160a01b0316146111385760405162461bcd60e51b815260206004820152600960248201526857726f6e67206b657960b81b60448201526064016106ea565b6000838152600e6020526040812061115290600101613b31565b111561117d576000838152600e6020526040812061117791610c8b9160010190613b3b565b50611138565b6000838152600e60209081526040808320839055848352600c909152902080546111a9906001906149ce565b815481106111c757634e487b7160e01b600052603260045260246000fd5b6000918252602080832090910154848352600c909152604090912080546001600160a01b03909216918890811061120e57634e487b7160e01b600052603260045260246000fd5b600091825260208083209190910180546001600160a01b0319166001600160a01b039490941693909317909255838152600c9091526040902080548061126457634e487b7160e01b600052603160045260246000fd5b600082815260209020810160001990810180546001600160a01b031916905501905550505050505050505050565b6001805461129f90614a28565b80601f01602080910402602001604051908101604052809291908181526020018280546112cb90614a28565b80156113185780601f106112ed57610100808354040283529160200191611318565b820191906000526020600020905b8154815290600101906020018083116112fb57829003601f168201915b505050505081565b6004818154811061133057600080fd5b90600052602060002001600091509050805461129f90614a28565b606080606080600060076000888860405160200161136a9291906144b9565b6040516020818303038152906040528051906020012081526020019081526020016000209050600060086000898985600401600187600401805490506113b091906149ce565b815481106113ce57634e487b7160e01b600052603260045260246000fd5b906000526020600020016040516020016113ea93929190614743565b6040516020818303038152906040528051906020012081526020019081526020016000209050816004016001836004018054905061142891906149ce565b8154811061144657634e487b7160e01b600052603260045260246000fd5b9060005260206000200181600001826001018360020183805461146890614a28565b80601f016020809104026020016040519081016040528092919081815260200182805461149490614a28565b80156114e15780601f106114b6576101008083540402835291602001916114e1565b820191906000526020600020905b8154815290600101906020018083116114c457829003601f168201915b505050505093508280546114f490614a28565b80601f016020809104026020016040519081016040528092919081815260200182805461152090614a28565b801561156d5780601f106115425761010080835404028352916020019161156d565b820191906000526020600020905b81548152906001019060200180831161155057829003601f168201915b5050505050925081805461158090614a28565b80601f01602080910402602001604051908101604052809291908181526020018280546115ac90614a28565b80156115f95780601f106115ce576101008083540402835291602001916115f9565b820191906000526020600020905b8154815290600101906020018083116115dc57829003601f168201915b505050505091508080548060200260200160405190810160405280929190818152602001828054801561165557602002820191906000526020600020905b81546001600160a01b03168152600190910190602001808311611637575b505050505090509550955095509550505092959194509250565b606060008261167e85826149af565b61168891906149ce565b9050600061169684866149af565b6000878152600660205260409020600301549091508111156116c657506000858152600660205260409020600301545b6000846001600160401b038111156116ee57634e487b7160e01b600052604160045260246000fd5b60405190808252806020026020018201604052801561172157816020015b606081526020019060019003908161170c5790505b5090505b8183101561182d57600087815260066020526040902060030180548490811061175e57634e487b7160e01b600052603260045260246000fd5b90600052602060002001805461177390614a28565b80601f016020809104026020016040519081016040528092919081815260200182805461179f90614a28565b80156117ec5780601f106117c1576101008083540402835291602001916117ec565b820191906000526020600020905b8154815290600101906020018083116117cf57829003601f168201915b505050505081848151811061181157634e487b7160e01b600052603260045260246000fd5b60200260200101819052508261182690614a63565b9250611725565b9695505050505050565b6003818154811061184757600080fd5b600091825260209091200154905081565b60008181526009602052604081206060919061187390613b31565b6001600160401b0381111561189857634e487b7160e01b600052604160045260246000fd5b6040519080825280602002602001820160405280156118c1578160200160208202803683370190505b50905060005b60008481526009602052604090206118de90613b31565b8110156119455760008481526009602052604090206118fd9082613b3b565b82828151811061191d57634e487b7160e01b600052603260045260246000fd5b6001600160a01b039092166020928302919091019091015261193e81614a63565b90506118c7565b5092915050565b6006602052600090815260409020805460018201546002830180549293919261197490614a28565b80601f01602080910402602001604051908101604052809291908181526020018280546119a090614a28565b80156119ed5780601f106119c2576101008083540402835291602001916119ed565b820191906000526020600020905b8154815290600101906020018083116119d057829003601f168201915b5050505050905083565b600582604051611a079190614593565b9081526040519081900360200190205415611a515760405162461bcd60e51b815260206004820152600a6024820152694f72672065786973747360b01b60448201526064016106ea565b6000825111611a8f5760405162461bcd60e51b815260206004820152600a6024820152694e6f206f72674e616d6560b01b60448201526064016106ea565b6000815111611acd5760405162461bcd60e51b815260206004820152600a6024820152694e6f206f72674d65746160b01b60448201526064016106ea565b6000600260008154611ade90614a63565b9182905550604080516020810192909252469082015260600160405160208183030381529060405280519060200120905080600584604051611b209190614593565b90815260200160405180910390208190555081600660008381526020019081526020016000206002019080519060200190611b5c929190613d56565b506003805460018181019092557fc2575a0e9e593c00f959f8c92f12db2869c3395a3b0502d05e2516446f71f85b018290556004805491820181556000528351611bcd917f8a35acfbc15ff81a39ae7d344fd709f28e8600b4aa8c65c6b64bfe7fe36bd19b01906020860190613d56565b50611c39611bd9613ae8565b6009600084600080516020614aeb833981519152604051602001611c07929190918252602082015260400190565b604051602081830303815290604052805190602001208152602001908152602001600020613b1c90919063ffffffff16565b50505050565b600b6020528160005260406000208181548110611c5b57600080fd5b906000526020600020906003020160009150915050806000018054611c7f90614a28565b80601f0160208091040260200160405190810160405280929190818152602001828054611cab90614a28565b8015611cf85780601f10611ccd57610100808354040283529160200191611cf8565b820191906000526020600020905b815481529060010190602001808311611cdb57829003601f168201915b505050505090806001018054611d0d90614a28565b80601f0160208091040260200160405190810160405280929190818152602001828054611d3990614a28565b8015611d865780601f10611d5b57610100808354040283529160200191611d86565b820191906000526020600020905b815481529060010190602001808311611d6957829003601f168201915b50505050509080600201805461197490614a28565b6060600082611daa85826149af565b611db491906149ce565b90506000611dc284866149af565b600454909150811115611dd457506004545b6000846001600160401b03811115611dfc57634e487b7160e01b600052604160045260246000fd5b604051908082528060200260200182016040528015611e2f57816020015b6060815260200190600190039081611e1a5790505b5090505b81831015611f2b5760048381548110611e5c57634e487b7160e01b600052603260045260246000fd5b906000526020600020018054611e7190614a28565b80601f0160208091040260200160405190810160405280929190818152602001828054611e9d90614a28565b8015611eea5780601f10611ebf57610100808354040283529160200191611eea565b820191906000526020600020905b815481529060010190602001808311611ecd57829003601f168201915b5050505050818481518110611f0f57634e487b7160e01b600052603260045260246000fd5b602002602001018190525082611f2490614a63565b9250611e33565b925050505b92915050565b8383611f458282610250613ae8565b611f615760405162461bcd60e51b81526004016106ea9061491e565b60008086511190506000878787604051602001611f809392919061451e565b60405160208183030381529060405280519060200120905060008215611fd0578888604051602001611fb39291906144b9565b604051602081830303815290604052805190602001209050611fd3565b50875b6000828152600e602052604090205442101580612025575082801561202557506000828152600e60205260409020546120109062093a80906149ce565b60008281526007602052604090206002015410155b8061206657508215801561206657506000828152600e60205260409020546120519062093a80906149ce565b60008a81526006602052604090206001015410155b6120825760405162461bcd60e51b81526004016106ea906148f9565b6000828152600e6020526040812061209c90600101613b31565b11156120de576000828152600e602052604081206120d8916120c19160010190613b3b565b6000848152600e6020526040902060010190613b47565b50612082565b6000828152600e60209081526040808320839055838352600d9091529020805461210a906001906149ce565b8154811061212857634e487b7160e01b600052603260045260246000fd5b9060005260206000200154600d6000838152602001908152602001600020878154811061216557634e487b7160e01b600052603260045260246000fd5b9060005260206000200181905550600d60008281526020019081526020016000208054806121a357634e487b7160e01b600052603160045260246000fd5b60019003818190600052602060002001600090559055505050505050505050565b600d60205281600052604060002081815481106121e057600080fd5b90600052602060002001600091509150505481565b85856122048282610250613ae8565b6122205760405162461bcd60e51b81526004016106ea9061491e565b6000888888604051602001612237939291906146b9565b6040516020818303038152906040528051906020012090506000898989898960405160200161226a9594939291906146e4565b60408051601f1981840301815291815281516020928301206000818152600e909352912054909150421015806122b85750600082815260086020526040812080546122b490614a28565b9050115b6122d45760405162461bcd60e51b81526004016106ea906148f9565b60008a8a6040516020016122e99291906144b9565b604051602081830303815290604052805190602001209050886040516020016123129190614593565b60408051601f1981840301815291815281516020928301206000848152600b909352912080548890811061235657634e487b7160e01b600052603260045260246000fd5b906000526020600020906003020160000160405160200161237791906145af565b60405160208183030381529060405280519060200120146123c65760405162461bcd60e51b815260206004820152600960248201526857726f6e672074616760b81b60448201526064016106ea565b6000818152600b6020526040902080546123e2906001906149ce565b8154811061240057634e487b7160e01b600052603260045260246000fd5b9060005260206000209060030201600b6000838152602001908152602001600020878154811061244057634e487b7160e01b600052603260045260246000fd5b9060005260206000209060030201600082018160000190805461246290614a28565b61246d929190613dda565b50600182018160010190805461248290614a28565b61248d929190613dda565b5060028201816002019080546124a290614a28565b6124ad929190613dda565b5050506000818152600b602052604090208054806124db57634e487b7160e01b600052603160045260246000fd5b600082815260208120600019909201916003830201906124fb8282613e55565b612509600183016000613e55565b612517600283016000613e55565b505090555050505050505050505050565b6000818152600e60205260408120606090829061254790600101613b31565b6001600160401b0381111561256c57634e487b7160e01b600052604160045260246000fd5b604051908082528060200260200182016040528015612595578160200160208202803683370190505b50905060005b6000858152600e602052604090206125b590600101613b31565b81101561261f576000858152600e602052604090206125d79060010182613b3b565b8282815181106125f757634e487b7160e01b600052603260045260246000fd5b6001600160a01b039092166020928302919091019091015261261881614a63565b905061259b565b506000938452600e60205260409093205493915050565b60008083600080516020614aeb833981519152604051602001612663929190918252602082015260400190565b60408051601f1981840301815291815281516020928301206000818152600990935291209091506126949084613ac6565b949350505050565b826126a98161050c613ae8565b6126c55760405162461bcd60e51b81526004016106ea9061491e565b816007600086866040516020016126dd9291906144b9565b6040516020818303038152906040528051906020012081526020019081526020016000206003019080519060200190612717929190613d56565b50612720613ae8565b6001600160a01b0316836040516127379190614593565b6040518091039020857f082dfc0cda6cc25674875e2dcd882c68a8b2c80bf48e58c6a3dc2384c69859558560405161276f91906147db565b60405180910390a450505050565b600c602052816000526040600020818154811061279957600080fd5b6000918252602090912001546001600160a01b03169150829050565b816127c28161050c613ae8565b6127de5760405162461bcd60e51b81526004016106ea9061491e565b6000838152600660209081526040909120835161280392600290920191850190613d56565b5061280c613ae8565b6040516001600160a01b0391909116907fc5d2460186f7233c927e7db2dcc703c0e500b653ca82273b7bfad8045d85a4709085907f082dfc0cda6cc25674875e2dcd882c68a8b2c80bf48e58c6a3dc2384c69859559061286d9087906147db565b60405180910390a4505050565b826128878161050c613ae8565b6128a35760405162461bcd60e51b81526004016106ea9061491e565b600084846040516020016128b89291906144b9565b60408051601f1981840301815291815281516020928301206000818152600790935291205490915060ff161561291e5760405162461bcd60e51b815260206004820152600b60248201526a5265706f2065786973747360a81b60448201526064016106ea565b600084511161295d5760405162461bcd60e51b815260206004820152600b60248201526a4e6f207265706f4e616d6560a81b60448201526064016106ea565b600083511161299c5760405162461bcd60e51b815260206004820152600b60248201526a4e6f207265706f4d65746160a81b60448201526064016106ea565b6000858152600660209081526040822060030180546001810182559083529181902086516129d1939190910191870190613d56565b506000818152600760209081526040909120805460ff191660011781558451612a0292600390920191860190613d56565b505050505050565b8383612a198282610250613ae8565b612a355760405162461bcd60e51b81526004016106ea9061491e565b600080516020614aab833981519152841480612a7057507fb85a6b22a26ce426daea6357c60a74cb0b4d36234cd7c96170cd6a64102786ff84145b80612a9a57507fd7381cbf120651c7bcd9cff77aa8449385520247d98372358854435c90a30af484145b612ad35760405162461bcd60e51b815260206004820152600a6024820152690496e76616c6964206f760b41b60448201526064016106ea565b60008086511190506000806000808a8a89604051602001612af6939291906144df565b60405160208183030381529060405280519060200120905060008515612bd5578b8b600080516020614acb8339815191528c8c604051602001612b3d95949392919061454b565b6040516020818303038152906040528051906020012094508b8b600080516020614acb833981519152604051602001612b789392919061451e565b6040516020818303038152906040528051906020012093508b8b604051602001612ba39291906144b9565b60408051601f198184030181529181528151602092830120600081815260079093529120600101549093509050612c77565b60408051602081018e9052600080516020614aeb8339815191529181019190915260608082018c90528a901b6001600160601b031916608082015260940160408051601f1981840301815282825280516020918201209083018f9052600080516020614aeb83398151915291830191909152955060600160408051601f19818403018152918152815160209283012060008f8152600690935291205490945090505b7fb85a6b22a26ce426daea6357c60a74cb0b4d36234cd7c96170cd6a64102786ff8a1415612cf1576000848152600960205260409020612cb7908a613ac6565b612cec5760405162461bcd60e51b81526020600482015260066024820152654e6f204b657960d01b60448201526064016106ea565b612d43565b6000848152600960205260409020612d09908a613ac6565b15612d435760405162461bcd60e51b815260206004820152600a6024820152694b65792065786973747360b01b60448201526064016106ea565b7fd7381cbf120651c7bcd9cff77aa8449385520247d98372358854435c90a30af48a1415612de457612d8a612d76613ae8565b600086815260096020526040902090613ac6565b612da65760405162461bcd60e51b81526004016106ea9061491e565b612dc5612db1613ae8565b600086815260096020526040902090613b47565b506000848152600960205260409020612dde908a613b1c565b506131d8565b60018111612e3257600080516020614aab8339815191528a1415612e1a576000848152600960205260409020612dde908a613b1c565b6000848152600960205260409020612dde908a613b47565b6000858152600e6020526040902054612edf57612e524262093a80614997565b6000868152600e60205260409020558515612ea3576000838152600c602090815260408220805460018101825590835291200180546001600160a01b0319166001600160a01b038b16179055612f42565b60008c8152600c602090815260408220805460018101825590835291200180546001600160a01b0319166001600160a01b038b16179055612f42565b6000858152600e602052604090205442111580612f2657506000858152600e6020526040902054612f149062093a80906149ce565b6000838152600a602052604090205411155b612f425760405162461bcd60e51b81526004016106ea9061493e565b612f64612f4d613ae8565b6000878152600e6020526040902060010190613b1c565b5060005b6000868152600e60205260409020612f8290600101613b31565b81101561303957868015612fb657506000868152600e60205260409020612fb4908e908e906102509060010185613b3b565b155b80612fe8575086158015612fe857506000868152600e60205260409020612fe6908e9061050c9060010184613b3b565b155b15613029576000868152600e602052604090206130239061300c9060010183613b3b565b6000888152600e6020526040902060010190613b47565b50600090505b61303281614a63565b9050612f68565b506000858152600e60205260409020819061305690600101613b31565b106131d857600080516020614aab8339815191528a141561308f576000848152600960205260409020613089908a613b1c565b506131c6565b60008481526009602052604090206130a7908a613b47565b506000613104600960008f600080516020614aeb8339815191526040516020016130db929190918252602082015260400190565b604051602081830303815290604052805190602001208152602001908152602001600020613b31565b905086801561314157506000858152600960205260409020829060019061312a90613b31565b6131349084614997565b61313e91906149ce565b11155b1561316d57600084815260076020526040812060010180549161316383614a11565b91905055506131c4565b8615801561319f57506000858152600960205260409020829060019061319290613b31565b61319c91906149ce565b11155b156131c45760008d81526006602052604081208054916131be83614a11565b91905055505b505b6000828152600a602052604090204290555b886001600160a01b03168b6040516131f09190614593565b60405180910390208d7fa8cea71b77054741d93ac504e0ee90fa3e815d68104468d65f9eb36924a8d590613222613ae8565b60008a8152600e602052604090208f9061323e90600101613b31565b604080516001600160a01b0390941684526020840192909252908201526060810186905260800160405180910390a4505050505050505050505050565b606060008261328a85826149af565b61329491906149ce565b905060006132a284866149af565b6000878152600760205260409020600401549091508111156132d257506000858152600760205260409020600401545b6000846001600160401b038111156132fa57634e487b7160e01b600052604160045260246000fd5b60405190808252806020026020018201604052801561332d57816020015b60608152602001906001900390816133185790505b5090505b8183101561182d57600087815260076020526040902060040180548490811061336a57634e487b7160e01b600052603260045260246000fd5b90600052602060002001805461337f90614a28565b80601f01602080910402602001604051908101604052809291908181526020018280546133ab90614a28565b80156133f85780601f106133cd576101008083540402835291602001916133f8565b820191906000526020600020905b8154815290600101906020018083116133db57829003601f168201915b505050505081848151811061341d57634e487b7160e01b600052603260045260246000fd5b60200260200101819052508261343290614a63565b9250613331565b60086020526000908152604090208054819061345490614a28565b80601f016020809104026020016040519081016040528092919081815260200182805461348090614a28565b80156134cd5780601f106134a2576101008083540402835291602001916134cd565b820191906000526020600020905b8154815290600101906020018083116134b057829003601f168201915b5050505050908060010180546134e290614a28565b80601f016020809104026020016040519081016040528092919081815260200182805461350e90614a28565b801561355b5780601f106135305761010080835404028352916020019161355b565b820191906000526020600020905b81548152906001019060200180831161353e57829003601f168201915b5050505050905082565b82826135748282610250613ae8565b6135905760405162461bcd60e51b81526004016106ea9061491e565b6000808551119050600086866040516020016135ad9291906144b9565b60405160208183030381529060405280519060200120905060008083156135e957505060008181526007602052604090206001015481906135fd565b505060008781526006602052604090205487905b8087141561363d5760405162461bcd60e51b815260206004820152600d60248201526c151a1c995cda1bdb19081cd95d609a1b60448201526064016106ea565b60008989896040516020016136549392919061451e565b60405160208183030381529060405280519060200120905061368e613677613ae8565b6000838152600e6020526040902060010190613ac6565b156136c85760405162461bcd60e51b815260206004820152600a602482015269155cd95c881d9bdd195960b21b60448201526064016106ea565b84801561374557506001613703600960008d600080516020614aeb8339815191526040516020016130db929190918252602082015260400190565b61372d600960008e8e600080516020614acb8339815191526040516020016130db9392919061451e565b6137379190614997565b61374191906149ce565b8811155b8061379557508415801561379557506001613787600960008d600080516020614aeb8339815191526040516020016130db929190918252602082015260400190565b61379191906149ce565b8811155b6137d65760405162461bcd60e51b81526020600482015260126024820152714e6f7420656e6f756768206d656d6265727360701b60448201526064016106ea565b6000818152600e602052604090205461382c576137f64262093a80614997565b6000828152600e6020908152604080832093909355858252600d81529181208054600181018255908252919020018890556138db565b6000818152600e60205260409020544211158061387e575084801561387e57506000818152600e60205260409020546138699062093a80906149ce565b60008581526007602052604090206002015411155b806138bf5750841580156138bf57506000818152600e60205260409020546138aa9062093a80906149ce565b60008b81526006602052604090206001015411155b6138db5760405162461bcd60e51b81526004016106ea9061493e565b6138fd6138e6613ae8565b6000838152600e6020526040902060010190613b1c565b5060005b6000828152600e6020526040902061391b90600101613b31565b8110156139bb5785801561394f57506000828152600e6020526040902061394d908c908c906102509060010185613b3b565b155b8061398157508515801561398157506000828152600e6020526040902061397f908c9061050c9060010184613b3b565b155b156139ab576000828152600e602052604090206139a5906120c19060010183613b3b565b50600090505b6139b481614a63565b9050613901565b506000818152600e6020526040902082906139d890600101613b31565b10158015613a0057506000818152600e6020526040902088906139fd90600101613b31565b10155b15613a45578415613a2c5760008481526007602052604090206001810189905542600290910155613a45565b60008a8152600660205260409020888155426001909101555b8789604051613a549190614593565b60405180910390208b7f2daad345bbc18b1fa8a7f542403081df42c546dd841a44507d53e174e761ce89613a86613ae8565b6000868152600e60205260409020613aa090600101613b31565b604080516001600160a01b03909316835260208301919091528101879052606001610e94565b6001600160a01b0381166000908152600183016020526040812054151561076e565b600060143610801590613b0557506000546001600160a01b031633145b15613b17575060131936013560601c90565b503390565b600061076e836001600160a01b038416613b5c565b6000611f30825490565b600061076e8383613bab565b600061076e836001600160a01b038416613c3f565b6000818152600183016020526040812054613ba357508154600181810184556000848152602080822090930184905584548482528286019093526040902091909155611f30565b506000611f30565b81546000908210613c095760405162461bcd60e51b815260206004820152602260248201527f456e756d657261626c655365743a20696e646578206f7574206f6620626f756e604482015261647360f01b60648201526084016106ea565b826000018281548110613c2c57634e487b7160e01b600052603260045260246000fd5b9060005260206000200154905092915050565b60008181526001830160205260408120548015613d4c576000613c636001836149ce565b8554909150600090613c77906001906149ce565b90506000866000018281548110613c9e57634e487b7160e01b600052603260045260246000fd5b9060005260206000200154905080876000018481548110613ccf57634e487b7160e01b600052603260045260246000fd5b600091825260208083209091019290925582815260018901909152604090208490558654879080613d1057634e487b7160e01b600052603160045260246000fd5b60019003818190600052602060002001600090559055866001016000878152602001908152602001600020600090556001945050505050611f30565b6000915050611f30565b828054613d6290614a28565b90600052602060002090601f016020900481019282613d845760008555613dca565b82601f10613d9d57805160ff1916838001178555613dca565b82800160010185558215613dca579182015b82811115613dca578251825591602001919060010190613daf565b50613dd6929150613e92565b5090565b828054613de690614a28565b90600052602060002090601f016020900481019282613e085760008555613dca565b82601f10613e195780548555613dca565b82800160010185558215613dca57600052602060002091601f016020900482015b82811115613dca578254825591600101919060010190613e3a565b508054613e6190614a28565b6000825580601f10613e71575050565b601f016020900490600052602060002090810190613e8f9190613e92565b50565b5b80821115613dd65760008155600101613e93565b80356001600160a01b0381168114613ebe57600080fd5b919050565b600082601f830112613ed3578081fd5b81356001600160401b0380821115613eed57613eed614a94565b604051601f8301601f19908116603f01168101908282118183101715613f1557613f15614a94565b81604052838152866020858801011115613f2d578485fd5b8360208701602083013792830160200193909352509392505050565b600060208284031215613f5a578081fd5b61076e82613ea7565b600060208284031215613f74578081fd5b5035919050565b60008060408385031215613f8d578081fd5b82359150613f9d60208401613ea7565b90509250929050565b60008060408385031215613fb8578182fd5b8235915060208301356001600160401b03811115613fd4578182fd5b613fe085828601613ec3565b9150509250929050565b600080600060608486031215613ffe578081fd5b8335925060208401356001600160401b0381111561401a578182fd5b61402686828701613ec3565b92505061403560408501613ea7565b90509250925092565b60008060008060808587031215614053578081fd5b8435935060208501356001600160401b0381111561406f578182fd5b61407b87828801613ec3565b9350506040850135915061409160608601613ea7565b905092959194509250565b600080600080600060a086880312156140b3578081fd5b8535945060208601356001600160401b038111156140cf578182fd5b6140db88828901613ec3565b945050604086013592506140f160608701613ea7565b949793965091946080013592915050565b600080600060608486031215614116578283fd5b8335925060208401356001600160401b0380821115614133578384fd5b61413f87838801613ec3565b93506040860135915080821115614154578283fd5b5061416186828701613ec3565b9150509250925092565b600080600080600060a08688031215614182578081fd5b8535945060208601356001600160401b038082111561419f578283fd5b6141ab89838a01613ec3565b955060408801359150808211156141c0578283fd5b6141cc89838a01613ec3565b945060608801359150808211156141e1578283fd5b6141ed89838a01613ec3565b93506080880135915080821115614202578283fd5b5061420f88828901613ec3565b9150509295509295909350565b60008060008060008060c08789031215614234578081fd5b8635955060208701356001600160401b0380821115614251578283fd5b61425d8a838b01613ec3565b96506040890135915080821115614272578283fd5b61427e8a838b01613ec3565b95506060890135915080821115614293578283fd5b61429f8a838b01613ec3565b945060808901359150808211156142b4578283fd5b506142c189828a01613ec3565b92505060a087013590509295509295509295565b6000806000606084860312156142e9578283fd5b8335925060208401356001600160401b03811115614305578283fd5b61431186828701613ec3565b925050604084013590509250925092565b60008060008060808587031215614337578182fd5b8435935060208501356001600160401b03811115614353578283fd5b61435f87828801613ec3565b949794965050505060408301359260600135919050565b60008060408385031215614388578182fd5b50508035926020909101359150565b6000806000606084860312156143ab578081fd5b505081359360208301359350604090920135919050565b6000602082840312156143d3578081fd5b81356001600160401b038111156143e8578182fd5b61269484828501613ec3565b60008060408385031215614406578182fd5b82356001600160401b038082111561441c578384fd5b61442886838701613ec3565b9350602085013591508082111561443d578283fd5b50613fe085828601613ec3565b6000815180845260208085019450808401835b838110156144825781516001600160a01b03168752958201959082019060010161445d565b509495945050505050565b600081518084526144a58160208601602086016149e5565b601f01601f19169290920160200192915050565b828152600082516144d18160208501602087016149e5565b919091016020019392505050565b838152600083516144f78160208501602088016149e5565b60609390931b6001600160601b031916602092909301918201929092526034019392505050565b838152600083516145368160208501602088016149e5565b60209201918201929092526040019392505050565b85815260008551614563816020850160208a016149e5565b60209201918201949094526040810192909252606090811b6001600160601b031916908201526074019392505050565b600082516145a58184602087016149e5565b9190910192915050565b60008083546145bd81614a28565b600182811680156145d557600181146145e657614612565b60ff19841687528287019450614612565b8786526020808720875b858110156146095781548a8201529084019082016145f0565b50505082870194505b50929695505050505050565b60208152600061076e602083018461444a565b6000602080830181845280855180835260408601915060408160051b8701019250838701855b8281101561468557603f1988860301845261467385835161448d565b94509285019290850190600101614657565b5092979650505050505050565b841515815283602082015282604082015260806060820152600061182d608083018461448d565b8381526060602082015260006146d2606083018561448d565b828103604084015261182d818561448d565b85815260a0602082015260006146fd60a083018761448d565b828103604084015261470f818761448d565b90508281036060840152614723818661448d565b90508281036080840152614737818561448d565b98975050505050505050565b8381526000602060608184015261475d606084018661448d565b838103604085015282855461477181614a28565b8084526001828116801561478c57600181146147a0576147cb565b60ff198416868801526040860194506147cb565b898852868820885b848110156147c35781548882018a01529083019088016147a8565b870188019550505b50929a9950505050505050505050565b60208152600061076e602083018461448d565b604081526000614801604083018561448d565b8281036020840152614813818561448d565b95945050505050565b60a08152600061482f60a083018861448d565b8281036020840152614841818861448d565b6001600160a01b039690961660408401525050606081019290925260809091015292915050565b60608152600061487b606083018661448d565b828103602084015261488d818661448d565b9050828103604084015261182d818561448d565b6080815260006148b4608083018761448d565b82810360208401526148c6818761448d565b905082810360408401526148da818661448d565b905082810360608401526148ee818561444a565b979650505050505050565b6020808252600b908201526a139bdd08195e1c1a5c995960aa1b604082015260600190565b60208082526006908201526511195b9a595960d21b604082015260600190565b602080825260079082015266115e1c1a5c995960ca1b604082015260600190565b828152604060208201526000612694604083018461444a565b838152826020820152606060408201526000614813606083018461448d565b600082198211156149aa576149aa614a7e565b500190565b60008160001904831182151516156149c9576149c9614a7e565b500290565b6000828210156149e0576149e0614a7e565b500390565b60005b83811015614a005781810151838201526020016149e8565b83811115611c395750506000910152565b600081614a2057614a20614a7e565b506000190190565b600181811c90821680614a3c57607f821691505b60208210811415614a5d57634e487b7160e01b600052602260045260246000fd5b50919050565b6000600019821415614a7757614a77614a7e565b5060010190565b634e487b7160e01b600052601160045260246000fd5b634e487b7160e01b600052604160045260246000fdfedb7bfe957d82520d83f2a439f82c0ab65bbe62c5da8b7b7aa22924c027ef518d069bf569f27d389f2c70410107860b2e82ff561283b097a89e897daa5e34b1b6123b642491709420c2370bb98c4e7de2b1bc05c5f9fd95ac4111e12683553c62a2646970667358221220e2f075aafdf62674cdfeb1fa26f8b51f3b58b805a558f50b207becf51733425364736f6c63430008040033",
          "opcodes": "PUSH1 0xC0 PUSH1 0x40 MSTORE PUSH1 0x5 PUSH1 0x80 DUP2 SWAP1 MSTORE PUSH5 0x322E322E3 PUSH1 0xDC SHL PUSH1 0xA0 SWAP1 DUP2 MSTORE PUSH3 0x28 SWAP2 PUSH1 0x1 SWAP2 SWAP1 PUSH3 0x7F JUMP JUMPDEST POP CALLVALUE DUP1 ISZERO PUSH3 0x36 JUMPI PUSH1 0x0 DUP1 REVERT JUMPDEST POP PUSH1 0x40 MLOAD PUSH3 0x4CE2 CODESIZE SUB DUP1 PUSH3 0x4CE2 DUP4 CODECOPY DUP2 ADD PUSH1 0x40 DUP2 SWAP1 MSTORE PUSH3 0x59 SWAP2 PUSH3 0x125 JUMP JUMPDEST PUSH1 0x0 DUP1 SLOAD PUSH1 0x1 PUSH1 0x1 PUSH1 0xA0 SHL SUB NOT AND PUSH1 0x1 PUSH1 0x1 PUSH1 0xA0 SHL SUB SWAP3 SWAP1 SWAP3 AND SWAP2 SWAP1 SWAP2 OR SWAP1 SSTORE PUSH3 0x192 JUMP JUMPDEST DUP3 DUP1 SLOAD PUSH3 0x8D SWAP1 PUSH3 0x155 JUMP JUMPDEST SWAP1 PUSH1 0x0 MSTORE PUSH1 0x20 PUSH1 0x0 KECCAK256 SWAP1 PUSH1 0x1F ADD PUSH1 0x20 SWAP1 DIV DUP2 ADD SWAP3 DUP3 PUSH3 0xB1 JUMPI PUSH1 0x0 DUP6 SSTORE PUSH3 0xFC JUMP JUMPDEST DUP3 PUSH1 0x1F LT PUSH3 0xCC JUMPI DUP1 MLOAD PUSH1 0xFF NOT AND DUP4 DUP1 ADD OR DUP6 SSTORE PUSH3 0xFC JUMP JUMPDEST DUP3 DUP1 ADD PUSH1 0x1 ADD DUP6 SSTORE DUP3 ISZERO PUSH3 0xFC JUMPI SWAP2 DUP3 ADD JUMPDEST DUP3 DUP2 GT ISZERO PUSH3 0xFC JUMPI DUP3 MLOAD DUP3 SSTORE SWAP2 PUSH1 0x20 ADD SWAP2 SWAP1 PUSH1 0x1 ADD SWAP1 PUSH3 0xDF JUMP JUMPDEST POP PUSH3 0x10A SWAP3 SWAP2 POP PUSH3 0x10E JUMP JUMPDEST POP SWAP1 JUMP JUMPDEST JUMPDEST DUP1 DUP3 GT ISZERO PUSH3 0x10A JUMPI PUSH1 0x0 DUP2 SSTORE PUSH1 0x1 ADD PUSH3 0x10F JUMP JUMPDEST PUSH1 0x0 PUSH1 0x20 DUP3 DUP5 SUB SLT ISZERO PUSH3 0x137 JUMPI DUP1 DUP2 REVERT JUMPDEST DUP2 MLOAD PUSH1 0x1 PUSH1 0x1 PUSH1 0xA0 SHL SUB DUP2 AND DUP2 EQ PUSH3 0x14E JUMPI DUP2 DUP3 REVERT JUMPDEST SWAP4 SWAP3 POP POP POP JUMP JUMPDEST PUSH1 0x1 DUP2 DUP2 SHR SWAP1 DUP3 AND DUP1 PUSH3 0x16A JUMPI PUSH1 0x7F DUP3 AND SWAP2 POP JUMPDEST PUSH1 0x20 DUP3 LT DUP2 EQ ISZERO PUSH3 0x18C JUMPI PUSH4 0x4E487B71 PUSH1 0xE0 SHL PUSH1 0x0 MSTORE PUSH1 0x22 PUSH1 0x4 MSTORE PUSH1 0x24 PUSH1 0x0 REVERT JUMPDEST POP SWAP2 SWAP1 POP JUMP JUMPDEST PUSH2 0x4B40 DUP1 PUSH3 0x1A2 PUSH1 0x0 CODECOPY PUSH1 0x0 RETURN INVALID PUSH1 0x80 PUSH1 0x40 MSTORE CALLVALUE DUP1 ISZERO PUSH2 0x10 JUMPI PUSH1 0x0 DUP1 REVERT JUMPDEST POP PUSH1 0x4 CALLDATASIZE LT PUSH2 0x211 JUMPI PUSH1 0x0 CALLDATALOAD PUSH1 0xE0 SHR DUP1 PUSH4 0xA411EF20 GT PUSH2 0x125 JUMPI DUP1 PUSH4 0xD96162A1 GT PUSH2 0xAD JUMPI DUP1 PUSH4 0xE59DBFA4 GT PUSH2 0x7C JUMPI DUP1 PUSH4 0xE59DBFA4 EQ PUSH2 0x54A JUMPI DUP1 PUSH4 0xF26F3C56 EQ PUSH2 0x55D JUMPI DUP1 PUSH4 0xF3439D56 EQ PUSH2 0x570 JUMPI DUP1 PUSH4 0xF491A84C EQ PUSH2 0x583 JUMPI DUP1 PUSH4 0xF735B352 EQ PUSH2 0x5A4 JUMPI PUSH1 0x0 DUP1 REVERT JUMPDEST DUP1 PUSH4 0xD96162A1 EQ PUSH2 0x4FE JUMPI DUP1 PUSH4 0xDEDC3391 EQ PUSH2 0x511 JUMPI DUP1 PUSH4 0xDFEC1BB0 EQ PUSH2 0x524 JUMPI DUP1 PUSH4 0xE253F5E1 EQ PUSH2 0x537 JUMPI PUSH1 0x0 DUP1 REVERT JUMPDEST DUP1 PUSH4 0xC372BE80 GT PUSH2 0xF4 JUMPI DUP1 PUSH4 0xC372BE80 EQ PUSH2 0x483 JUMPI DUP1 PUSH4 0xC6C2A0BE EQ PUSH2 0x496 JUMPI DUP1 PUSH4 0xCD20FF77 EQ PUSH2 0x4A9 JUMPI DUP1 PUSH4 0xD565E860 EQ PUSH2 0x4D4 JUMPI DUP1 PUSH4 0xD8106690 EQ PUSH2 0x4F5 JUMPI PUSH1 0x0 DUP1 REVERT JUMPDEST DUP1 PUSH4 0xA411EF20 EQ PUSH2 0x428 JUMPI DUP1 PUSH4 0xA940ABCB EQ PUSH2 0x43B JUMPI DUP1 PUSH4 0xAA788EBE EQ PUSH2 0x45D JUMPI DUP1 PUSH4 0xB93D1685 EQ PUSH2 0x470 JUMPI PUSH1 0x0 DUP1 REVERT JUMPDEST DUP1 PUSH4 0x5BB44241 GT PUSH2 0x1A8 JUMPI DUP1 PUSH4 0x8775692F GT PUSH2 0x177 JUMPI DUP1 PUSH4 0x8775692F EQ PUSH2 0x393 JUMPI DUP1 PUSH4 0x8BF67370 EQ PUSH2 0x3A6 JUMPI DUP1 PUSH4 0x924A5443 EQ PUSH2 0x3C6 JUMPI DUP1 PUSH4 0xA3246AD3 EQ PUSH2 0x3E6 JUMPI DUP1 PUSH4 0xA3E84BEB EQ PUSH2 0x406 JUMPI PUSH1 0x0 DUP1 REVERT JUMPDEST DUP1 PUSH4 0x5BB44241 EQ PUSH2 0x312 JUMPI DUP1 PUSH4 0x5CD20D29 EQ PUSH2 0x325 JUMPI DUP1 PUSH4 0x7DA0A877 EQ PUSH2 0x348 JUMPI DUP1 PUSH4 0x837DC4D0 EQ PUSH2 0x373 JUMPI PUSH1 0x0 DUP1 REVERT JUMPDEST DUP1 PUSH4 0x3E1BF64B GT PUSH2 0x1E4 JUMPI DUP1 PUSH4 0x3E1BF64B EQ PUSH2 0x2A8 JUMPI DUP1 PUSH4 0x40FD48A7 EQ PUSH2 0x2C8 JUMPI DUP1 PUSH4 0x486FF0CD EQ PUSH2 0x2DB JUMPI DUP1 PUSH4 0x572B6C05 EQ PUSH2 0x2F0 JUMPI PUSH1 0x0 DUP1 REVERT JUMPDEST DUP1 PUSH4 0x2B2583A EQ PUSH2 0x216 JUMPI DUP1 PUSH4 0x1FD522A6 EQ PUSH2 0x242 JUMPI DUP1 PUSH4 0x328D3DDF EQ PUSH2 0x265 JUMPI DUP1 PUSH4 0x3B0659FD EQ PUSH2 0x27A JUMPI JUMPDEST PUSH1 0x0 DUP1 REVERT JUMPDEST PUSH2 0x229 PUSH2 0x224 CALLDATASIZE PUSH1 0x4 PUSH2 0x3F63 JUMP JUMPDEST PUSH2 0x5B7 JUMP JUMPDEST PUSH1 0x40 MLOAD PUSH2 0x239 SWAP5 SWAP4 SWAP3 SWAP2 SWAP1 PUSH2 0x4692 JUMP JUMPDEST PUSH1 0x40 MLOAD DUP1 SWAP2 SUB SWAP1 RETURN JUMPDEST PUSH2 0x255 PUSH2 0x250 CALLDATASIZE PUSH1 0x4 PUSH2 0x3FEA JUMP JUMPDEST PUSH2 0x66E JUMP JUMPDEST PUSH1 0x40 MLOAD SWAP1 ISZERO ISZERO DUP2 MSTORE PUSH1 0x20 ADD PUSH2 0x239 JUMP JUMPDEST PUSH2 0x278 PUSH2 0x273 CALLDATASIZE PUSH1 0x4 PUSH2 0x416B JUMP JUMPDEST PUSH2 0x775 JUMP JUMPDEST STOP JUMPDEST PUSH2 0x29A PUSH2 0x288 CALLDATASIZE PUSH1 0x4 PUSH2 0x3F63 JUMP JUMPDEST PUSH1 0x0 SWAP1 DUP2 MSTORE PUSH1 0xD PUSH1 0x20 MSTORE PUSH1 0x40 SWAP1 KECCAK256 SLOAD SWAP1 JUMP JUMPDEST PUSH1 0x40 MLOAD SWAP1 DUP2 MSTORE PUSH1 0x20 ADD PUSH2 0x239 JUMP JUMPDEST PUSH2 0x29A PUSH2 0x2B6 CALLDATASIZE PUSH1 0x4 PUSH2 0x3F63 JUMP JUMPDEST PUSH1 0x0 SWAP1 DUP2 MSTORE PUSH1 0xC PUSH1 0x20 MSTORE PUSH1 0x40 SWAP1 KECCAK256 SLOAD SWAP1 JUMP JUMPDEST PUSH2 0x278 PUSH2 0x2D6 CALLDATASIZE PUSH1 0x4 PUSH2 0x409C JUMP JUMPDEST PUSH2 0xEA9 JUMP JUMPDEST PUSH2 0x2E3 PUSH2 0x1292 JUMP JUMPDEST PUSH1 0x40 MLOAD PUSH2 0x239 SWAP2 SWAP1 PUSH2 0x47DB JUMP JUMPDEST PUSH2 0x255 PUSH2 0x2FE CALLDATASIZE PUSH1 0x4 PUSH2 0x3F49 JUMP JUMPDEST PUSH1 0x0 SLOAD PUSH1 0x1 PUSH1 0x1 PUSH1 0xA0 SHL SUB SWAP2 DUP3 AND SWAP2 AND EQ SWAP1 JUMP JUMPDEST PUSH2 0x2E3 PUSH2 0x320 CALLDATASIZE PUSH1 0x4 PUSH2 0x3F63 JUMP JUMPDEST PUSH2 0x1320 JUMP JUMPDEST PUSH2 0x338 PUSH2 0x333 CALLDATASIZE PUSH1 0x4 PUSH2 0x3FA6 JUMP JUMPDEST PUSH2 0x134B JUMP JUMPDEST PUSH1 0x40 MLOAD PUSH2 0x239 SWAP5 SWAP4 SWAP3 SWAP2 SWAP1 PUSH2 0x48A1 JUMP JUMPDEST PUSH1 0x0 SLOAD PUSH2 0x35B SWAP1 PUSH1 0x1 PUSH1 0x1 PUSH1 0xA0 SHL SUB AND DUP2 JUMP JUMPDEST PUSH1 0x40 MLOAD PUSH1 0x1 PUSH1 0x1 PUSH1 0xA0 SHL SUB SWAP1 SWAP2 AND DUP2 MSTORE PUSH1 0x20 ADD PUSH2 0x239 JUMP JUMPDEST PUSH2 0x386 PUSH2 0x381 CALLDATASIZE PUSH1 0x4 PUSH2 0x4397 JUMP JUMPDEST PUSH2 0x166F JUMP JUMPDEST PUSH1 0x40 MLOAD PUSH2 0x239 SWAP2 SWAP1 PUSH2 0x4631 JUMP JUMPDEST PUSH2 0x29A PUSH2 0x3A1 CALLDATASIZE PUSH1 0x4 PUSH2 0x3F63 JUMP JUMPDEST PUSH2 0x1837 JUMP JUMPDEST PUSH2 0x29A PUSH2 0x3B4 CALLDATASIZE PUSH1 0x4 PUSH2 0x3F63 JUMP JUMPDEST PUSH1 0xA PUSH1 0x20 MSTORE PUSH1 0x0 SWAP1 DUP2 MSTORE PUSH1 0x40 SWAP1 KECCAK256 SLOAD DUP2 JUMP JUMPDEST PUSH2 0x29A PUSH2 0x3D4 CALLDATASIZE PUSH1 0x4 PUSH2 0x3F63 JUMP JUMPDEST PUSH1 0x0 SWAP1 DUP2 MSTORE PUSH1 0xB PUSH1 0x20 MSTORE PUSH1 0x40 SWAP1 KECCAK256 SLOAD SWAP1 JUMP JUMPDEST PUSH2 0x3F9 PUSH2 0x3F4 CALLDATASIZE PUSH1 0x4 PUSH2 0x3F63 JUMP JUMPDEST PUSH2 0x1858 JUMP JUMPDEST PUSH1 0x40 MLOAD PUSH2 0x239 SWAP2 SWAP1 PUSH2 0x461E JUMP JUMPDEST PUSH2 0x419 PUSH2 0x414 CALLDATASIZE PUSH1 0x4 PUSH2 0x3F63 JUMP JUMPDEST PUSH2 0x194C JUMP JUMPDEST PUSH1 0x40 MLOAD PUSH2 0x239 SWAP4 SWAP3 SWAP2 SWAP1 PUSH2 0x4978 JUMP JUMPDEST PUSH2 0x278 PUSH2 0x436 CALLDATASIZE PUSH1 0x4 PUSH2 0x43F4 JUMP JUMPDEST PUSH2 0x19F7 JUMP JUMPDEST PUSH2 0x44E PUSH2 0x449 CALLDATASIZE PUSH1 0x4 PUSH2 0x4376 JUMP JUMPDEST PUSH2 0x1C3F JUMP JUMPDEST PUSH1 0x40 MLOAD PUSH2 0x239 SWAP4 SWAP3 SWAP2 SWAP1 PUSH2 0x4868 JUMP JUMPDEST PUSH2 0x386 PUSH2 0x46B CALLDATASIZE PUSH1 0x4 PUSH2 0x4376 JUMP JUMPDEST PUSH2 0x1D9B JUMP JUMPDEST PUSH2 0x278 PUSH2 0x47E CALLDATASIZE PUSH1 0x4 PUSH2 0x4322 JUMP JUMPDEST PUSH2 0x1F36 JUMP JUMPDEST PUSH2 0x29A PUSH2 0x491 CALLDATASIZE PUSH1 0x4 PUSH2 0x4376 JUMP JUMPDEST PUSH2 0x21C4 JUMP JUMPDEST PUSH2 0x278 PUSH2 0x4A4 CALLDATASIZE PUSH1 0x4 PUSH2 0x421C JUMP JUMPDEST PUSH2 0x21F5 JUMP JUMPDEST PUSH2 0x29A PUSH2 0x4B7 CALLDATASIZE PUSH1 0x4 PUSH2 0x43C2 JUMP JUMPDEST DUP1 MLOAD PUSH1 0x20 DUP2 DUP4 ADD DUP2 ADD DUP1 MLOAD PUSH1 0x5 DUP3 MSTORE SWAP3 DUP3 ADD SWAP2 SWAP1 SWAP4 ADD KECCAK256 SWAP2 MSTORE SLOAD DUP2 JUMP JUMPDEST PUSH2 0x4E7 PUSH2 0x4E2 CALLDATASIZE PUSH1 0x4 PUSH2 0x3F63 JUMP JUMPDEST PUSH2 0x2528 JUMP JUMPDEST PUSH1 0x40 MLOAD PUSH2 0x239 SWAP3 SWAP2 SWAP1 PUSH2 0x495F JUMP JUMPDEST PUSH2 0x29A PUSH1 0x2 SLOAD DUP2 JUMP JUMPDEST PUSH2 0x255 PUSH2 0x50C CALLDATASIZE PUSH1 0x4 PUSH2 0x3F7B JUMP JUMPDEST PUSH2 0x2636 JUMP JUMPDEST PUSH2 0x278 PUSH2 0x51F CALLDATASIZE PUSH1 0x4 PUSH2 0x4102 JUMP JUMPDEST PUSH2 0x269C JUMP JUMPDEST PUSH2 0x35B PUSH2 0x532 CALLDATASIZE PUSH1 0x4 PUSH2 0x4376 JUMP JUMPDEST PUSH2 0x277D JUMP JUMPDEST PUSH2 0x278 PUSH2 0x545 CALLDATASIZE PUSH1 0x4 PUSH2 0x3FA6 JUMP JUMPDEST PUSH2 0x27B5 JUMP JUMPDEST PUSH2 0x278 PUSH2 0x558 CALLDATASIZE PUSH1 0x4 PUSH2 0x4102 JUMP JUMPDEST PUSH2 0x287A JUMP JUMPDEST PUSH2 0x278 PUSH2 0x56B CALLDATASIZE PUSH1 0x4 PUSH2 0x403E JUMP JUMPDEST PUSH2 0x2A0A JUMP JUMPDEST PUSH2 0x386 PUSH2 0x57E CALLDATASIZE PUSH1 0x4 PUSH2 0x4397 JUMP JUMPDEST PUSH2 0x327B JUMP JUMPDEST PUSH2 0x596 PUSH2 0x591 CALLDATASIZE PUSH1 0x4 PUSH2 0x3F63 JUMP JUMPDEST PUSH2 0x3439 JUMP JUMPDEST PUSH1 0x40 MLOAD PUSH2 0x239 SWAP3 SWAP2 SWAP1 PUSH2 0x47EE JUMP JUMPDEST PUSH2 0x278 PUSH2 0x5B2 CALLDATASIZE PUSH1 0x4 PUSH2 0x42D5 JUMP JUMPDEST PUSH2 0x3565 JUMP JUMPDEST PUSH1 0x7 PUSH1 0x20 MSTORE PUSH1 0x0 SWAP1 DUP2 MSTORE PUSH1 0x40 SWAP1 KECCAK256 DUP1 SLOAD PUSH1 0x1 DUP3 ADD SLOAD PUSH1 0x2 DUP4 ADD SLOAD PUSH1 0x3 DUP5 ADD DUP1 SLOAD PUSH1 0xFF SWAP1 SWAP5 AND SWAP5 SWAP3 SWAP4 SWAP2 SWAP3 SWAP2 PUSH2 0x5EB SWAP1 PUSH2 0x4A28 JUMP JUMPDEST DUP1 PUSH1 0x1F ADD PUSH1 0x20 DUP1 SWAP2 DIV MUL PUSH1 0x20 ADD PUSH1 0x40 MLOAD SWAP1 DUP2 ADD PUSH1 0x40 MSTORE DUP1 SWAP3 SWAP2 SWAP1 DUP2 DUP2 MSTORE PUSH1 0x20 ADD DUP3 DUP1 SLOAD PUSH2 0x617 SWAP1 PUSH2 0x4A28 JUMP JUMPDEST DUP1 ISZERO PUSH2 0x664 JUMPI DUP1 PUSH1 0x1F LT PUSH2 0x639 JUMPI PUSH2 0x100 DUP1 DUP4 SLOAD DIV MUL DUP4 MSTORE SWAP2 PUSH1 0x20 ADD SWAP2 PUSH2 0x664 JUMP JUMPDEST DUP3 ADD SWAP2 SWAP1 PUSH1 0x0 MSTORE PUSH1 0x20 PUSH1 0x0 KECCAK256 SWAP1 JUMPDEST DUP2 SLOAD DUP2 MSTORE SWAP1 PUSH1 0x1 ADD SWAP1 PUSH1 0x20 ADD DUP1 DUP4 GT PUSH2 0x647 JUMPI DUP3 SWAP1 SUB PUSH1 0x1F AND DUP3 ADD SWAP2 JUMPDEST POP POP POP POP POP SWAP1 POP DUP5 JUMP JUMPDEST DUP2 MLOAD PUSH1 0x0 SWAP1 ISZERO PUSH2 0x761 JUMPI PUSH1 0x7 PUSH1 0x0 DUP6 DUP6 PUSH1 0x40 MLOAD PUSH1 0x20 ADD PUSH2 0x68F SWAP3 SWAP2 SWAP1 PUSH2 0x44B9 JUMP JUMPDEST PUSH1 0x40 DUP1 MLOAD PUSH1 0x1F NOT DUP2 DUP5 SUB ADD DUP2 MSTORE SWAP2 DUP2 MSTORE DUP2 MLOAD PUSH1 0x20 SWAP3 DUP4 ADD KECCAK256 DUP4 MSTORE SWAP1 DUP3 ADD SWAP3 SWAP1 SWAP3 MSTORE ADD PUSH1 0x0 KECCAK256 SLOAD PUSH1 0xFF AND PUSH2 0x6F3 JUMPI PUSH1 0x40 MLOAD PUSH3 0x461BCD PUSH1 0xE5 SHL DUP2 MSTORE PUSH1 0x20 PUSH1 0x4 DUP3 ADD MSTORE PUSH1 0x7 PUSH1 0x24 DUP3 ADD MSTORE PUSH7 0x4E6F207265706F PUSH1 0xC8 SHL PUSH1 0x44 DUP3 ADD MSTORE PUSH1 0x64 ADD JUMPDEST PUSH1 0x40 MLOAD DUP1 SWAP2 SUB SWAP1 REVERT JUMPDEST PUSH1 0x0 DUP5 DUP5 PUSH1 0x0 DUP1 MLOAD PUSH1 0x20 PUSH2 0x4ACB DUP4 CODECOPY DUP2 MLOAD SWAP2 MSTORE PUSH1 0x40 MLOAD PUSH1 0x20 ADD PUSH2 0x718 SWAP4 SWAP3 SWAP2 SWAP1 PUSH2 0x451E JUMP JUMPDEST PUSH1 0x40 DUP1 MLOAD PUSH1 0x1F NOT DUP2 DUP5 SUB ADD DUP2 MSTORE SWAP2 DUP2 MSTORE DUP2 MLOAD PUSH1 0x20 SWAP3 DUP4 ADD KECCAK256 PUSH1 0x0 DUP2 DUP2 MSTORE PUSH1 0x9 SWAP1 SWAP4 MSTORE SWAP2 KECCAK256 SWAP1 SWAP2 POP PUSH2 0x749 SWAP1 DUP5 PUSH2 0x3AC6 JUMP JUMPDEST DUP1 PUSH2 0x759 JUMPI POP PUSH2 0x759 DUP6 DUP5 PUSH2 0x2636 JUMP JUMPDEST SWAP2 POP POP PUSH2 0x76E JUMP JUMPDEST PUSH2 0x76B DUP5 DUP4 PUSH2 0x2636 JUMP JUMPDEST SWAP1 POP JUMPDEST SWAP4 SWAP3 POP POP POP JUMP JUMPDEST DUP5 DUP5 PUSH2 0x784 DUP3 DUP3 PUSH2 0x250 PUSH2 0x3AE8 JUMP JUMPDEST PUSH2 0x7A0 JUMPI PUSH1 0x40 MLOAD PUSH3 0x461BCD PUSH1 0xE5 SHL DUP2 MSTORE PUSH1 0x4 ADD PUSH2 0x6EA SWAP1 PUSH2 0x491E JUMP JUMPDEST PUSH1 0x0 DUP6 MLOAD GT PUSH2 0x7DA JUMPI PUSH1 0x40 MLOAD PUSH3 0x461BCD PUSH1 0xE5 SHL DUP2 MSTORE PUSH1 0x20 PUSH1 0x4 DUP3 ADD MSTORE PUSH1 0x6 PUSH1 0x24 DUP3 ADD MSTORE PUSH6 0x4E6F20746167 PUSH1 0xD0 SHL PUSH1 0x44 DUP3 ADD MSTORE PUSH1 0x64 ADD PUSH2 0x6EA JUMP JUMPDEST PUSH1 0x0 DUP5 MLOAD GT PUSH2 0x81B JUMPI PUSH1 0x40 MLOAD PUSH3 0x461BCD PUSH1 0xE5 SHL DUP2 MSTORE PUSH1 0x20 PUSH1 0x4 DUP3 ADD MSTORE PUSH1 0xD PUSH1 0x24 DUP3 ADD MSTORE PUSH13 0x139BC81C995B19585CD950D251 PUSH1 0x9A SHL PUSH1 0x44 DUP3 ADD MSTORE PUSH1 0x64 ADD PUSH2 0x6EA JUMP JUMPDEST PUSH1 0x0 DUP4 MLOAD GT PUSH2 0x859 JUMPI PUSH1 0x40 MLOAD PUSH3 0x461BCD PUSH1 0xE5 SHL DUP2 MSTORE PUSH1 0x20 PUSH1 0x4 DUP3 ADD MSTORE PUSH1 0xA PUSH1 0x24 DUP3 ADD MSTORE PUSH10 0x139BC81B595D1850D251 PUSH1 0xB2 SHL PUSH1 0x44 DUP3 ADD MSTORE PUSH1 0x64 ADD PUSH2 0x6EA JUMP JUMPDEST PUSH1 0x0 DUP8 DUP8 DUP8 PUSH1 0x40 MLOAD PUSH1 0x20 ADD PUSH2 0x870 SWAP4 SWAP3 SWAP2 SWAP1 PUSH2 0x46B9 JUMP JUMPDEST PUSH1 0x40 DUP1 MLOAD PUSH1 0x1F NOT DUP2 DUP5 SUB ADD DUP2 MSTORE SWAP2 DUP2 MSTORE DUP2 MLOAD PUSH1 0x20 SWAP3 DUP4 ADD KECCAK256 PUSH1 0x0 DUP2 DUP2 MSTORE PUSH1 0x8 SWAP1 SWAP4 MSTORE SWAP2 KECCAK256 DUP1 SLOAD SWAP2 SWAP3 POP SWAP1 PUSH2 0x8A3 SWAP1 PUSH2 0x4A28 JUMP JUMPDEST ISZERO SWAP1 POP PUSH2 0x8DD JUMPI PUSH1 0x40 MLOAD PUSH3 0x461BCD PUSH1 0xE5 SHL DUP2 MSTORE PUSH1 0x20 PUSH1 0x4 DUP3 ADD MSTORE PUSH1 0x8 PUSH1 0x24 DUP3 ADD MSTORE PUSH8 0x151859C81D5CD959 PUSH1 0xC2 SHL PUSH1 0x44 DUP3 ADD MSTORE PUSH1 0x64 ADD PUSH2 0x6EA JUMP JUMPDEST PUSH1 0x0 DUP9 DUP9 DUP9 DUP9 DUP9 PUSH1 0x40 MLOAD PUSH1 0x20 ADD PUSH2 0x8F8 SWAP6 SWAP5 SWAP4 SWAP3 SWAP2 SWAP1 PUSH2 0x46E4 JUMP JUMPDEST PUSH1 0x40 MLOAD PUSH1 0x20 DUP2 DUP4 SUB SUB DUP2 MSTORE SWAP1 PUSH1 0x40 MSTORE DUP1 MLOAD SWAP1 PUSH1 0x20 ADD KECCAK256 SWAP1 POP PUSH1 0x0 DUP10 DUP10 PUSH1 0x40 MLOAD PUSH1 0x20 ADD PUSH2 0x925 SWAP3 SWAP2 SWAP1 PUSH2 0x44B9 JUMP JUMPDEST PUSH1 0x40 MLOAD PUSH1 0x20 DUP2 DUP4 SUB SUB DUP2 MSTORE SWAP1 PUSH1 0x40 MSTORE DUP1 MLOAD SWAP1 PUSH1 0x20 ADD KECCAK256 SWAP1 POP PUSH1 0x1 PUSH1 0x7 PUSH1 0x0 DUP4 DUP2 MSTORE PUSH1 0x20 ADD SWAP1 DUP2 MSTORE PUSH1 0x20 ADD PUSH1 0x0 KECCAK256 PUSH1 0x1 ADD SLOAD GT PUSH2 0xAA9 JUMPI PUSH1 0x0 DUP4 DUP2 MSTORE PUSH1 0x8 PUSH1 0x20 SWAP1 DUP2 MSTORE PUSH1 0x40 SWAP1 SWAP2 KECCAK256 DUP9 MLOAD PUSH2 0x97A SWAP3 DUP11 ADD SWAP1 PUSH2 0x3D56 JUMP JUMPDEST POP PUSH1 0x0 DUP4 DUP2 MSTORE PUSH1 0x8 PUSH1 0x20 SWAP1 DUP2 MSTORE PUSH1 0x40 SWAP1 SWAP2 KECCAK256 DUP8 MLOAD PUSH2 0x9A0 SWAP3 PUSH1 0x1 SWAP1 SWAP3 ADD SWAP2 DUP10 ADD SWAP1 PUSH2 0x3D56 JUMP JUMPDEST POP PUSH1 0x0 DUP4 DUP2 MSTORE PUSH1 0x8 PUSH1 0x20 MSTORE PUSH1 0x40 SWAP1 KECCAK256 PUSH1 0x2 ADD PUSH2 0x9BA PUSH2 0x3AE8 JUMP JUMPDEST DUP2 SLOAD PUSH1 0x1 DUP1 DUP3 ADD DUP5 SSTORE PUSH1 0x0 SWAP4 DUP5 MSTORE PUSH1 0x20 DUP1 DUP6 KECCAK256 SWAP1 SWAP3 ADD DUP1 SLOAD PUSH1 0x1 PUSH1 0x1 PUSH1 0xA0 SHL SUB NOT AND PUSH1 0x1 PUSH1 0x1 PUSH1 0xA0 SHL SUB SWAP5 SWAP1 SWAP5 AND SWAP4 SWAP1 SWAP4 OR SWAP1 SWAP3 SSTORE DUP4 DUP4 MSTORE PUSH1 0x7 DUP2 MSTORE PUSH1 0x40 DUP4 KECCAK256 PUSH1 0x4 ADD DUP1 SLOAD SWAP3 DUP4 ADD DUP2 SSTORE DUP4 MSTORE SWAP2 DUP3 SWAP1 KECCAK256 DUP11 MLOAD PUSH2 0xA1E SWAP4 SWAP2 SWAP1 SWAP3 ADD SWAP2 SWAP1 DUP12 ADD SWAP1 PUSH2 0x3D56 JUMP JUMPDEST POP DUP8 PUSH1 0x40 MLOAD PUSH2 0xA2D SWAP2 SWAP1 PUSH2 0x4593 JUMP JUMPDEST PUSH1 0x40 MLOAD DUP1 SWAP2 SUB SWAP1 KECCAK256 DUP10 PUSH1 0x40 MLOAD PUSH2 0xA43 SWAP2 SWAP1 PUSH2 0x4593 JUMP JUMPDEST PUSH1 0x40 MLOAD DUP1 SWAP2 SUB SWAP1 KECCAK256 DUP12 PUSH32 0x38B17387282322F8D6DE03E5D4B3FF512D3BB4D3DB8CC2BE4611ECFB8A126C6B DUP11 DUP11 PUSH2 0xA77 PUSH2 0x3AE8 JUMP JUMPDEST PUSH1 0x0 DUP9 DUP2 MSTORE PUSH1 0x7 PUSH1 0x20 MSTORE PUSH1 0x40 SWAP1 DUP2 SWAP1 KECCAK256 PUSH1 0x1 SWAP1 DUP2 ADD SLOAD SWAP2 MLOAD PUSH2 0xA9C SWAP6 SWAP5 SWAP4 SWAP3 SWAP1 PUSH2 0x481C JUMP JUMPDEST PUSH1 0x40 MLOAD DUP1 SWAP2 SUB SWAP1 LOG4 PUSH2 0xE9D JUMP JUMPDEST PUSH1 0x0 DUP3 DUP2 MSTORE PUSH1 0xE PUSH1 0x20 MSTORE PUSH1 0x40 SWAP1 KECCAK256 SLOAD PUSH2 0xB8B JUMPI PUSH2 0xAC9 TIMESTAMP PUSH3 0x93A80 PUSH2 0x4997 JUMP JUMPDEST PUSH1 0x0 DUP4 DUP2 MSTORE PUSH1 0xE PUSH1 0x20 MSTORE PUSH1 0x40 SWAP1 KECCAK256 SSTORE PUSH2 0xAFA PUSH2 0xAE3 PUSH2 0x3AE8 JUMP JUMPDEST PUSH1 0x0 DUP5 DUP2 MSTORE PUSH1 0xE PUSH1 0x20 MSTORE PUSH1 0x40 SWAP1 KECCAK256 PUSH1 0x1 ADD SWAP1 PUSH2 0x3B1C JUMP JUMPDEST POP PUSH1 0x0 DUP2 DUP2 MSTORE PUSH1 0xB PUSH1 0x20 SWAP1 DUP2 MSTORE PUSH1 0x40 DUP1 DUP4 KECCAK256 DUP2 MLOAD PUSH1 0x60 DUP2 ADD DUP4 MSTORE DUP13 DUP2 MSTORE DUP1 DUP5 ADD DUP13 SWAP1 MSTORE SWAP2 DUP3 ADD DUP11 SWAP1 MSTORE DUP1 SLOAD PUSH1 0x1 DUP2 ADD DUP3 SSTORE SWAP1 DUP5 MSTORE SWAP3 DUP3 SWAP1 KECCAK256 DUP2 MLOAD DUP1 MLOAD SWAP3 SWAP5 PUSH1 0x3 MUL SWAP1 SWAP2 ADD SWAP3 PUSH2 0xB4E SWAP3 DUP5 SWAP3 SWAP1 SWAP2 ADD SWAP1 PUSH2 0x3D56 JUMP JUMPDEST POP PUSH1 0x20 DUP3 DUP2 ADD MLOAD DUP1 MLOAD PUSH2 0xB67 SWAP3 PUSH1 0x1 DUP6 ADD SWAP3 ADD SWAP1 PUSH2 0x3D56 JUMP JUMPDEST POP PUSH1 0x40 DUP3 ADD MLOAD DUP1 MLOAD PUSH2 0xB83 SWAP2 PUSH1 0x2 DUP5 ADD SWAP2 PUSH1 0x20 SWAP1 SWAP2 ADD SWAP1 PUSH2 0x3D56 JUMP JUMPDEST POP POP POP PUSH2 0xDFE JUMP JUMPDEST PUSH1 0x0 DUP3 DUP2 MSTORE PUSH1 0xE PUSH1 0x20 MSTORE PUSH1 0x40 SWAP1 KECCAK256 SLOAD TIMESTAMP GT ISZERO PUSH2 0xBB9 JUMPI PUSH1 0x40 MLOAD PUSH3 0x461BCD PUSH1 0xE5 SHL DUP2 MSTORE PUSH1 0x4 ADD PUSH2 0x6EA SWAP1 PUSH2 0x493E JUMP JUMPDEST PUSH2 0xBDB PUSH2 0xBC4 PUSH2 0x3AE8 JUMP JUMPDEST PUSH1 0x0 DUP5 DUP2 MSTORE PUSH1 0xE PUSH1 0x20 MSTORE PUSH1 0x40 SWAP1 KECCAK256 PUSH1 0x1 ADD SWAP1 PUSH2 0x3AC6 JUMP JUMPDEST ISZERO PUSH2 0xC15 JUMPI PUSH1 0x40 MLOAD PUSH3 0x461BCD PUSH1 0xE5 SHL DUP2 MSTORE PUSH1 0x20 PUSH1 0x4 DUP3 ADD MSTORE PUSH1 0xA PUSH1 0x24 DUP3 ADD MSTORE PUSH10 0x155CD95C881D9BDD1959 PUSH1 0xB2 SHL PUSH1 0x44 DUP3 ADD MSTORE PUSH1 0x64 ADD PUSH2 0x6EA JUMP JUMPDEST PUSH2 0xC20 PUSH2 0xAE3 PUSH2 0x3AE8 JUMP JUMPDEST POP PUSH1 0x0 JUMPDEST PUSH1 0x0 DUP4 DUP2 MSTORE PUSH1 0xE PUSH1 0x20 MSTORE PUSH1 0x40 SWAP1 KECCAK256 PUSH2 0xC3E SWAP1 PUSH1 0x1 ADD PUSH2 0x3B31 JUMP JUMPDEST DUP2 LT ISZERO PUSH2 0xCB8 JUMPI PUSH1 0x0 DUP4 DUP2 MSTORE PUSH1 0xE PUSH1 0x20 MSTORE PUSH1 0x40 SWAP1 KECCAK256 PUSH2 0xC68 SWAP1 DUP13 SWAP1 DUP13 SWAP1 PUSH2 0x250 SWAP1 PUSH1 0x1 ADD DUP6 PUSH2 0x3B3B JUMP JUMPDEST PUSH2 0xCA8 JUMPI PUSH1 0x0 DUP4 DUP2 MSTORE PUSH1 0xE PUSH1 0x20 MSTORE PUSH1 0x40 SWAP1 KECCAK256 PUSH2 0xCA2 SWAP1 PUSH2 0xC8B SWAP1 PUSH1 0x1 ADD DUP4 PUSH2 0x3B3B JUMP JUMPDEST PUSH1 0x0 DUP6 DUP2 MSTORE PUSH1 0xE PUSH1 0x20 MSTORE PUSH1 0x40 SWAP1 KECCAK256 PUSH1 0x1 ADD SWAP1 PUSH2 0x3B47 JUMP JUMPDEST POP PUSH1 0x0 SWAP1 POP JUMPDEST PUSH2 0xCB1 DUP2 PUSH2 0x4A63 JUMP JUMPDEST SWAP1 POP PUSH2 0xC24 JUMP JUMPDEST POP PUSH1 0x0 DUP2 DUP2 MSTORE PUSH1 0x7 PUSH1 0x20 SWAP1 DUP2 MSTORE PUSH1 0x40 DUP1 DUP4 KECCAK256 PUSH1 0x1 SWAP1 DUP2 ADD SLOAD DUP7 DUP6 MSTORE PUSH1 0xE SWAP1 SWAP4 MSTORE SWAP3 KECCAK256 SWAP1 SWAP2 PUSH2 0xCE6 SWAP2 ADD PUSH2 0x3B31 JUMP JUMPDEST LT PUSH2 0xDFE JUMPI PUSH1 0x0 DUP4 DUP2 MSTORE PUSH1 0x8 PUSH1 0x20 SWAP1 DUP2 MSTORE PUSH1 0x40 SWAP1 SWAP2 KECCAK256 DUP9 MLOAD PUSH2 0xD0A SWAP3 DUP11 ADD SWAP1 PUSH2 0x3D56 JUMP JUMPDEST POP PUSH1 0x0 DUP4 DUP2 MSTORE PUSH1 0x8 PUSH1 0x20 SWAP1 DUP2 MSTORE PUSH1 0x40 SWAP1 SWAP2 KECCAK256 DUP8 MLOAD PUSH2 0xD30 SWAP3 PUSH1 0x1 SWAP1 SWAP3 ADD SWAP2 DUP10 ADD SWAP1 PUSH2 0x3D56 JUMP JUMPDEST POP PUSH1 0x0 JUMPDEST PUSH1 0x0 DUP4 DUP2 MSTORE PUSH1 0xE PUSH1 0x20 MSTORE PUSH1 0x40 SWAP1 KECCAK256 PUSH2 0xD4E SWAP1 PUSH1 0x1 ADD PUSH2 0x3B31 JUMP JUMPDEST DUP2 LT ISZERO PUSH2 0xDC6 JUMPI PUSH1 0x0 DUP5 DUP2 MSTORE PUSH1 0x8 PUSH1 0x20 SWAP1 DUP2 MSTORE PUSH1 0x40 DUP1 DUP4 KECCAK256 DUP7 DUP5 MSTORE PUSH1 0xE SWAP1 SWAP3 MSTORE SWAP1 SWAP2 KECCAK256 PUSH1 0x2 SWAP1 SWAP2 ADD SWAP1 PUSH2 0xD84 SWAP1 PUSH1 0x1 ADD DUP4 PUSH2 0x3B3B JUMP JUMPDEST DUP2 SLOAD PUSH1 0x1 DUP2 ADD DUP4 SSTORE PUSH1 0x0 SWAP3 DUP4 MSTORE PUSH1 0x20 SWAP1 SWAP3 KECCAK256 SWAP1 SWAP2 ADD DUP1 SLOAD PUSH1 0x1 PUSH1 0x1 PUSH1 0xA0 SHL SUB NOT AND PUSH1 0x1 PUSH1 0x1 PUSH1 0xA0 SHL SUB SWAP1 SWAP3 AND SWAP2 SWAP1 SWAP2 OR SWAP1 SSTORE PUSH2 0xDBF DUP2 PUSH2 0x4A63 JUMP JUMPDEST SWAP1 POP PUSH2 0xD34 JUMP JUMPDEST POP PUSH1 0x0 DUP2 DUP2 MSTORE PUSH1 0x7 PUSH1 0x20 SWAP1 DUP2 MSTORE PUSH1 0x40 DUP3 KECCAK256 PUSH1 0x4 ADD DUP1 SLOAD PUSH1 0x1 DUP2 ADD DUP3 SSTORE SWAP1 DUP4 MSTORE SWAP2 DUP2 SWAP1 KECCAK256 DUP11 MLOAD PUSH2 0xDFC SWAP4 SWAP2 SWAP1 SWAP2 ADD SWAP2 DUP12 ADD SWAP1 PUSH2 0x3D56 JUMP JUMPDEST POP JUMPDEST DUP8 PUSH1 0x40 MLOAD PUSH2 0xE0C SWAP2 SWAP1 PUSH2 0x4593 JUMP JUMPDEST PUSH1 0x40 MLOAD DUP1 SWAP2 SUB SWAP1 KECCAK256 DUP10 PUSH1 0x40 MLOAD PUSH2 0xE22 SWAP2 SWAP1 PUSH2 0x4593 JUMP JUMPDEST PUSH1 0x40 MLOAD DUP1 SWAP2 SUB SWAP1 KECCAK256 DUP12 PUSH32 0x38B17387282322F8D6DE03E5D4B3FF512D3BB4D3DB8CC2BE4611ECFB8A126C6B DUP11 DUP11 PUSH2 0xE56 PUSH2 0x3AE8 JUMP JUMPDEST PUSH1 0x0 DUP10 DUP2 MSTORE PUSH1 0xE PUSH1 0x20 MSTORE PUSH1 0x40 SWAP1 KECCAK256 PUSH2 0xE70 SWAP1 PUSH1 0x1 ADD PUSH2 0x3B31 JUMP JUMPDEST PUSH1 0x0 DUP10 DUP2 MSTORE PUSH1 0x7 PUSH1 0x20 MSTORE PUSH1 0x40 SWAP1 DUP2 SWAP1 KECCAK256 PUSH1 0x1 ADD SLOAD SWAP1 MLOAD PUSH2 0xE94 SWAP6 SWAP5 SWAP4 SWAP3 SWAP2 SWAP1 PUSH2 0x481C JUMP JUMPDEST PUSH1 0x40 MLOAD DUP1 SWAP2 SUB SWAP1 LOG4 JUMPDEST POP POP POP POP POP POP POP POP POP POP JUMP JUMPDEST DUP5 DUP5 PUSH2 0xEB8 DUP3 DUP3 PUSH2 0x250 PUSH2 0x3AE8 JUMP JUMPDEST PUSH2 0xED4 JUMPI PUSH1 0x40 MLOAD PUSH3 0x461BCD PUSH1 0xE5 SHL DUP2 MSTORE PUSH1 0x4 ADD PUSH2 0x6EA SWAP1 PUSH2 0x491E JUMP JUMPDEST PUSH1 0x0 DUP1 MLOAD PUSH1 0x20 PUSH2 0x4AAB DUP4 CODECOPY DUP2 MLOAD SWAP2 MSTORE DUP6 EQ DUP1 PUSH2 0xF0F JUMPI POP PUSH32 0xB85A6B22A26CE426DAEA6357C60A74CB0B4D36234CD7C96170CD6A64102786FF DUP6 EQ JUMPDEST PUSH2 0xF48 JUMPI PUSH1 0x40 MLOAD PUSH3 0x461BCD PUSH1 0xE5 SHL DUP2 MSTORE PUSH1 0x20 PUSH1 0x4 DUP3 ADD MSTORE PUSH1 0xA PUSH1 0x24 DUP3 ADD MSTORE PUSH10 0x496E76616C6964206F7 PUSH1 0xB4 SHL PUSH1 0x44 DUP3 ADD MSTORE PUSH1 0x64 ADD PUSH2 0x6EA JUMP JUMPDEST PUSH1 0x0 DUP1 PUSH1 0x0 DUP10 DUP10 DUP9 PUSH1 0x40 MLOAD PUSH1 0x20 ADD PUSH2 0xF62 SWAP4 SWAP3 SWAP2 SWAP1 PUSH2 0x44DF JUMP JUMPDEST PUSH1 0x40 MLOAD PUSH1 0x20 DUP2 DUP4 SUB SUB DUP2 MSTORE SWAP1 PUSH1 0x40 MSTORE DUP1 MLOAD SWAP1 PUSH1 0x20 ADD KECCAK256 SWAP1 POP PUSH1 0x0 DUP10 MLOAD GT ISZERO PUSH2 0xFF3 JUMPI DUP10 DUP10 PUSH1 0x0 DUP1 MLOAD PUSH1 0x20 PUSH2 0x4ACB DUP4 CODECOPY DUP2 MLOAD SWAP2 MSTORE DUP11 DUP11 PUSH1 0x40 MLOAD PUSH1 0x20 ADD PUSH2 0xFAB SWAP6 SWAP5 SWAP4 SWAP3 SWAP2 SWAP1 PUSH2 0x454B JUMP JUMPDEST PUSH1 0x40 MLOAD PUSH1 0x20 DUP2 DUP4 SUB SUB DUP2 MSTORE SWAP1 PUSH1 0x40 MSTORE DUP1 MLOAD SWAP1 PUSH1 0x20 ADD KECCAK256 SWAP3 POP DUP10 DUP10 PUSH1 0x40 MLOAD PUSH1 0x20 ADD PUSH2 0xFD6 SWAP3 SWAP2 SWAP1 PUSH2 0x44B9 JUMP JUMPDEST PUSH1 0x40 MLOAD PUSH1 0x20 DUP2 DUP4 SUB SUB DUP2 MSTORE SWAP1 PUSH1 0x40 MSTORE DUP1 MLOAD SWAP1 PUSH1 0x20 ADD KECCAK256 SWAP2 POP PUSH2 0x104D JUMP JUMPDEST PUSH1 0x40 DUP1 MLOAD PUSH1 0x20 DUP2 ADD DUP13 SWAP1 MSTORE PUSH1 0x0 DUP1 MLOAD PUSH1 0x20 PUSH2 0x4AEB DUP4 CODECOPY DUP2 MLOAD SWAP2 MSTORE SWAP2 DUP2 ADD SWAP2 SWAP1 SWAP2 MSTORE PUSH1 0x60 DUP1 DUP3 ADD DUP11 SWAP1 MSTORE DUP9 SWAP1 SHL PUSH1 0x1 PUSH1 0x1 PUSH1 0x60 SHL SUB NOT AND PUSH1 0x80 DUP3 ADD MSTORE PUSH1 0x94 ADD PUSH1 0x40 MLOAD PUSH1 0x20 DUP2 DUP4 SUB SUB DUP2 MSTORE SWAP1 PUSH1 0x40 MSTORE DUP1 MLOAD SWAP1 PUSH1 0x20 ADD KECCAK256 SWAP3 POP DUP10 SWAP2 POP JUMPDEST PUSH1 0x0 DUP4 DUP2 MSTORE PUSH1 0xE PUSH1 0x20 MSTORE PUSH1 0x40 SWAP1 KECCAK256 SLOAD TIMESTAMP LT ISZERO DUP1 PUSH2 0x1094 JUMPI POP PUSH1 0x0 DUP4 DUP2 MSTORE PUSH1 0xE PUSH1 0x20 MSTORE PUSH1 0x40 SWAP1 KECCAK256 SLOAD PUSH2 0x1082 SWAP1 PUSH3 0x93A80 SWAP1 PUSH2 0x49CE JUMP JUMPDEST PUSH1 0x0 DUP3 DUP2 MSTORE PUSH1 0xA PUSH1 0x20 MSTORE PUSH1 0x40 SWAP1 KECCAK256 SLOAD LT ISZERO JUMPDEST PUSH2 0x10B0 JUMPI PUSH1 0x40 MLOAD PUSH3 0x461BCD PUSH1 0xE5 SHL DUP2 MSTORE PUSH1 0x4 ADD PUSH2 0x6EA SWAP1 PUSH2 0x48F9 JUMP JUMPDEST PUSH1 0x0 DUP3 DUP2 MSTORE PUSH1 0xC PUSH1 0x20 MSTORE PUSH1 0x40 SWAP1 KECCAK256 DUP1 SLOAD PUSH1 0x1 PUSH1 0x1 PUSH1 0xA0 SHL SUB DUP10 AND SWAP2 SWAP1 DUP9 SWAP1 DUP2 LT PUSH2 0x10EA JUMPI PUSH4 0x4E487B71 PUSH1 0xE0 SHL PUSH1 0x0 MSTORE PUSH1 0x32 PUSH1 0x4 MSTORE PUSH1 0x24 PUSH1 0x0 REVERT JUMPDEST PUSH1 0x0 SWAP2 DUP3 MSTORE PUSH1 0x20 SWAP1 SWAP2 KECCAK256 ADD SLOAD PUSH1 0x1 PUSH1 0x1 PUSH1 0xA0 SHL SUB AND EQ PUSH2 0x1138 JUMPI PUSH1 0x40 MLOAD PUSH3 0x461BCD PUSH1 0xE5 SHL DUP2 MSTORE PUSH1 0x20 PUSH1 0x4 DUP3 ADD MSTORE PUSH1 0x9 PUSH1 0x24 DUP3 ADD MSTORE PUSH9 0x57726F6E67206B6579 PUSH1 0xB8 SHL PUSH1 0x44 DUP3 ADD MSTORE PUSH1 0x64 ADD PUSH2 0x6EA JUMP JUMPDEST PUSH1 0x0 DUP4 DUP2 MSTORE PUSH1 0xE PUSH1 0x20 MSTORE PUSH1 0x40 DUP2 KECCAK256 PUSH2 0x1152 SWAP1 PUSH1 0x1 ADD PUSH2 0x3B31 JUMP JUMPDEST GT ISZERO PUSH2 0x117D JUMPI PUSH1 0x0 DUP4 DUP2 MSTORE PUSH1 0xE PUSH1 0x20 MSTORE PUSH1 0x40 DUP2 KECCAK256 PUSH2 0x1177 SWAP2 PUSH2 0xC8B SWAP2 PUSH1 0x1 ADD SWAP1 PUSH2 0x3B3B JUMP JUMPDEST POP PUSH2 0x1138 JUMP JUMPDEST PUSH1 0x0 DUP4 DUP2 MSTORE PUSH1 0xE PUSH1 0x20 SWAP1 DUP2 MSTORE PUSH1 0x40 DUP1 DUP4 KECCAK256 DUP4 SWAP1 SSTORE DUP5 DUP4 MSTORE PUSH1 0xC SWAP1 SWAP2 MSTORE SWAP1 KECCAK256 DUP1 SLOAD PUSH2 0x11A9 SWAP1 PUSH1 0x1 SWAP1 PUSH2 0x49CE JUMP JUMPDEST DUP2 SLOAD DUP2 LT PUSH2 0x11C7 JUMPI PUSH4 0x4E487B71 PUSH1 0xE0 SHL PUSH1 0x0 MSTORE PUSH1 0x32 PUSH1 0x4 MSTORE PUSH1 0x24 PUSH1 0x0 REVERT JUMPDEST PUSH1 0x0 SWAP2 DUP3 MSTORE PUSH1 0x20 DUP1 DUP4 KECCAK256 SWAP1 SWAP2 ADD SLOAD DUP5 DUP4 MSTORE PUSH1 0xC SWAP1 SWAP2 MSTORE PUSH1 0x40 SWAP1 SWAP2 KECCAK256 DUP1 SLOAD PUSH1 0x1 PUSH1 0x1 PUSH1 0xA0 SHL SUB SWAP1 SWAP3 AND SWAP2 DUP9 SWAP1 DUP2 LT PUSH2 0x120E JUMPI PUSH4 0x4E487B71 PUSH1 0xE0 SHL PUSH1 0x0 MSTORE PUSH1 0x32 PUSH1 0x4 MSTORE PUSH1 0x24 PUSH1 0x0 REVERT JUMPDEST PUSH1 0x0 SWAP2 DUP3 MSTORE PUSH1 0x20 DUP1 DUP4 KECCAK256 SWAP2 SWAP1 SWAP2 ADD DUP1 SLOAD PUSH1 0x1 PUSH1 0x1 PUSH1 0xA0 SHL SUB NOT AND PUSH1 0x1 PUSH1 0x1 PUSH1 0xA0 SHL SUB SWAP5 SWAP1 SWAP5 AND SWAP4 SWAP1 SWAP4 OR SWAP1 SWAP3 SSTORE DUP4 DUP2 MSTORE PUSH1 0xC SWAP1 SWAP2 MSTORE PUSH1 0x40 SWAP1 KECCAK256 DUP1 SLOAD DUP1 PUSH2 0x1264 JUMPI PUSH4 0x4E487B71 PUSH1 0xE0 SHL PUSH1 0x0 MSTORE PUSH1 0x31 PUSH1 0x4 MSTORE PUSH1 0x24 PUSH1 0x0 REVERT JUMPDEST PUSH1 0x0 DUP3 DUP2 MSTORE PUSH1 0x20 SWAP1 KECCAK256 DUP2 ADD PUSH1 0x0 NOT SWAP1 DUP2 ADD DUP1 SLOAD PUSH1 0x1 PUSH1 0x1 PUSH1 0xA0 SHL SUB NOT AND SWAP1 SSTORE ADD SWAP1 SSTORE POP POP POP POP POP POP POP POP POP POP JUMP JUMPDEST PUSH1 0x1 DUP1 SLOAD PUSH2 0x129F SWAP1 PUSH2 0x4A28 JUMP JUMPDEST DUP1 PUSH1 0x1F ADD PUSH1 0x20 DUP1 SWAP2 DIV MUL PUSH1 0x20 ADD PUSH1 0x40 MLOAD SWAP1 DUP2 ADD PUSH1 0x40 MSTORE DUP1 SWAP3 SWAP2 SWAP1 DUP2 DUP2 MSTORE PUSH1 0x20 ADD DUP3 DUP1 SLOAD PUSH2 0x12CB SWAP1 PUSH2 0x4A28 JUMP JUMPDEST DUP1 ISZERO PUSH2 0x1318 JUMPI DUP1 PUSH1 0x1F LT PUSH2 0x12ED JUMPI PUSH2 0x100 DUP1 DUP4 SLOAD DIV MUL DUP4 MSTORE SWAP2 PUSH1 0x20 ADD SWAP2 PUSH2 0x1318 JUMP JUMPDEST DUP3 ADD SWAP2 SWAP1 PUSH1 0x0 MSTORE PUSH1 0x20 PUSH1 0x0 KECCAK256 SWAP1 JUMPDEST DUP2 SLOAD DUP2 MSTORE SWAP1 PUSH1 0x1 ADD SWAP1 PUSH1 0x20 ADD DUP1 DUP4 GT PUSH2 0x12FB JUMPI DUP3 SWAP1 SUB PUSH1 0x1F AND DUP3 ADD SWAP2 JUMPDEST POP POP POP POP POP DUP2 JUMP JUMPDEST PUSH1 0x4 DUP2 DUP2 SLOAD DUP2 LT PUSH2 0x1330 JUMPI PUSH1 0x0 DUP1 REVERT JUMPDEST SWAP1 PUSH1 0x0 MSTORE PUSH1 0x20 PUSH1 0x0 KECCAK256 ADD PUSH1 0x0 SWAP2 POP SWAP1 POP DUP1 SLOAD PUSH2 0x129F SWAP1 PUSH2 0x4A28 JUMP JUMPDEST PUSH1 0x60 DUP1 PUSH1 0x60 DUP1 PUSH1 0x0 PUSH1 0x7 PUSH1 0x0 DUP9 DUP9 PUSH1 0x40 MLOAD PUSH1 0x20 ADD PUSH2 0x136A SWAP3 SWAP2 SWAP1 PUSH2 0x44B9 JUMP JUMPDEST PUSH1 0x40 MLOAD PUSH1 0x20 DUP2 DUP4 SUB SUB DUP2 MSTORE SWAP1 PUSH1 0x40 MSTORE DUP1 MLOAD SWAP1 PUSH1 0x20 ADD KECCAK256 DUP2 MSTORE PUSH1 0x20 ADD SWAP1 DUP2 MSTORE PUSH1 0x20 ADD PUSH1 0x0 KECCAK256 SWAP1 POP PUSH1 0x0 PUSH1 0x8 PUSH1 0x0 DUP10 DUP10 DUP6 PUSH1 0x4 ADD PUSH1 0x1 DUP8 PUSH1 0x4 ADD DUP1 SLOAD SWAP1 POP PUSH2 0x13B0 SWAP2 SWAP1 PUSH2 0x49CE JUMP JUMPDEST DUP2 SLOAD DUP2 LT PUSH2 0x13CE JUMPI PUSH4 0x4E487B71 PUSH1 0xE0 SHL PUSH1 0x0 MSTORE PUSH1 0x32 PUSH1 0x4 MSTORE PUSH1 0x24 PUSH1 0x0 REVERT JUMPDEST SWAP1 PUSH1 0x0 MSTORE PUSH1 0x20 PUSH1 0x0 KECCAK256 ADD PUSH1 0x40 MLOAD PUSH1 0x20 ADD PUSH2 0x13EA SWAP4 SWAP3 SWAP2 SWAP1 PUSH2 0x4743 JUMP JUMPDEST PUSH1 0x40 MLOAD PUSH1 0x20 DUP2 DUP4 SUB SUB DUP2 MSTORE SWAP1 PUSH1 0x40 MSTORE DUP1 MLOAD SWAP1 PUSH1 0x20 ADD KECCAK256 DUP2 MSTORE PUSH1 0x20 ADD SWAP1 DUP2 MSTORE PUSH1 0x20 ADD PUSH1 0x0 KECCAK256 SWAP1 POP DUP2 PUSH1 0x4 ADD PUSH1 0x1 DUP4 PUSH1 0x4 ADD DUP1 SLOAD SWAP1 POP PUSH2 0x1428 SWAP2 SWAP1 PUSH2 0x49CE JUMP JUMPDEST DUP2 SLOAD DUP2 LT PUSH2 0x1446 JUMPI PUSH4 0x4E487B71 PUSH1 0xE0 SHL PUSH1 0x0 MSTORE PUSH1 0x32 PUSH1 0x4 MSTORE PUSH1 0x24 PUSH1 0x0 REVERT JUMPDEST SWAP1 PUSH1 0x0 MSTORE PUSH1 0x20 PUSH1 0x0 KECCAK256 ADD DUP2 PUSH1 0x0 ADD DUP3 PUSH1 0x1 ADD DUP4 PUSH1 0x2 ADD DUP4 DUP1 SLOAD PUSH2 0x1468 SWAP1 PUSH2 0x4A28 JUMP JUMPDEST DUP1 PUSH1 0x1F ADD PUSH1 0x20 DUP1 SWAP2 DIV MUL PUSH1 0x20 ADD PUSH1 0x40 MLOAD SWAP1 DUP2 ADD PUSH1 0x40 MSTORE DUP1 SWAP3 SWAP2 SWAP1 DUP2 DUP2 MSTORE PUSH1 0x20 ADD DUP3 DUP1 SLOAD PUSH2 0x1494 SWAP1 PUSH2 0x4A28 JUMP JUMPDEST DUP1 ISZERO PUSH2 0x14E1 JUMPI DUP1 PUSH1 0x1F LT PUSH2 0x14B6 JUMPI PUSH2 0x100 DUP1 DUP4 SLOAD DIV MUL DUP4 MSTORE SWAP2 PUSH1 0x20 ADD SWAP2 PUSH2 0x14E1 JUMP JUMPDEST DUP3 ADD SWAP2 SWAP1 PUSH1 0x0 MSTORE PUSH1 0x20 PUSH1 0x0 KECCAK256 SWAP1 JUMPDEST DUP2 SLOAD DUP2 MSTORE SWAP1 PUSH1 0x1 ADD SWAP1 PUSH1 0x20 ADD DUP1 DUP4 GT PUSH2 0x14C4 JUMPI DUP3 SWAP1 SUB PUSH1 0x1F AND DUP3 ADD SWAP2 JUMPDEST POP POP POP POP POP SWAP4 POP DUP3 DUP1 SLOAD PUSH2 0x14F4 SWAP1 PUSH2 0x4A28 JUMP JUMPDEST DUP1 PUSH1 0x1F ADD PUSH1 0x20 DUP1 SWAP2 DIV MUL PUSH1 0x20 ADD PUSH1 0x40 MLOAD SWAP1 DUP2 ADD PUSH1 0x40 MSTORE DUP1 SWAP3 SWAP2 SWAP1 DUP2 DUP2 MSTORE PUSH1 0x20 ADD DUP3 DUP1 SLOAD PUSH2 0x1520 SWAP1 PUSH2 0x4A28 JUMP JUMPDEST DUP1 ISZERO PUSH2 0x156D JUMPI DUP1 PUSH1 0x1F LT PUSH2 0x1542 JUMPI PUSH2 0x100 DUP1 DUP4 SLOAD DIV MUL DUP4 MSTORE SWAP2 PUSH1 0x20 ADD SWAP2 PUSH2 0x156D JUMP JUMPDEST DUP3 ADD SWAP2 SWAP1 PUSH1 0x0 MSTORE PUSH1 0x20 PUSH1 0x0 KECCAK256 SWAP1 JUMPDEST DUP2 SLOAD DUP2 MSTORE SWAP1 PUSH1 0x1 ADD SWAP1 PUSH1 0x20 ADD DUP1 DUP4 GT PUSH2 0x1550 JUMPI DUP3 SWAP1 SUB PUSH1 0x1F AND DUP3 ADD SWAP2 JUMPDEST POP POP POP POP POP SWAP3 POP DUP2 DUP1 SLOAD PUSH2 0x1580 SWAP1 PUSH2 0x4A28 JUMP JUMPDEST DUP1 PUSH1 0x1F ADD PUSH1 0x20 DUP1 SWAP2 DIV MUL PUSH1 0x20 ADD PUSH1 0x40 MLOAD SWAP1 DUP2 ADD PUSH1 0x40 MSTORE DUP1 SWAP3 SWAP2 SWAP1 DUP2 DUP2 MSTORE PUSH1 0x20 ADD DUP3 DUP1 SLOAD PUSH2 0x15AC SWAP1 PUSH2 0x4A28 JUMP JUMPDEST DUP1 ISZERO PUSH2 0x15F9 JUMPI DUP1 PUSH1 0x1F LT PUSH2 0x15CE JUMPI PUSH2 0x100 DUP1 DUP4 SLOAD DIV MUL DUP4 MSTORE SWAP2 PUSH1 0x20 ADD SWAP2 PUSH2 0x15F9 JUMP JUMPDEST DUP3 ADD SWAP2 SWAP1 PUSH1 0x0 MSTORE PUSH1 0x20 PUSH1 0x0 KECCAK256 SWAP1 JUMPDEST DUP2 SLOAD DUP2 MSTORE SWAP1 PUSH1 0x1 ADD SWAP1 PUSH1 0x20 ADD DUP1 DUP4 GT PUSH2 0x15DC JUMPI DUP3 SWAP1 SUB PUSH1 0x1F AND DUP3 ADD SWAP2 JUMPDEST POP POP POP POP POP SWAP2 POP DUP1 DUP1 SLOAD DUP1 PUSH1 0x20 MUL PUSH1 0x20 ADD PUSH1 0x40 MLOAD SWAP1 DUP2 ADD PUSH1 0x40 MSTORE DUP1 SWAP3 SWAP2 SWAP1 DUP2 DUP2 MSTORE PUSH1 0x20 ADD DUP3 DUP1 SLOAD DUP1 ISZERO PUSH2 0x1655 JUMPI PUSH1 0x20 MUL DUP3 ADD SWAP2 SWAP1 PUSH1 0x0 MSTORE PUSH1 0x20 PUSH1 0x0 KECCAK256 SWAP1 JUMPDEST DUP2 SLOAD PUSH1 0x1 PUSH1 0x1 PUSH1 0xA0 SHL SUB AND DUP2 MSTORE PUSH1 0x1 SWAP1 SWAP2 ADD SWAP1 PUSH1 0x20 ADD DUP1 DUP4 GT PUSH2 0x1637 JUMPI JUMPDEST POP POP POP POP POP SWAP1 POP SWAP6 POP SWAP6 POP SWAP6 POP SWAP6 POP POP POP SWAP3 SWAP6 SWAP2 SWAP5 POP SWAP3 POP JUMP JUMPDEST PUSH1 0x60 PUSH1 0x0 DUP3 PUSH2 0x167E DUP6 DUP3 PUSH2 0x49AF JUMP JUMPDEST PUSH2 0x1688 SWAP2 SWAP1 PUSH2 0x49CE JUMP JUMPDEST SWAP1 POP PUSH1 0x0 PUSH2 0x1696 DUP5 DUP7 PUSH2 0x49AF JUMP JUMPDEST PUSH1 0x0 DUP8 DUP2 MSTORE PUSH1 0x6 PUSH1 0x20 MSTORE PUSH1 0x40 SWAP1 KECCAK256 PUSH1 0x3 ADD SLOAD SWAP1 SWAP2 POP DUP2 GT ISZERO PUSH2 0x16C6 JUMPI POP PUSH1 0x0 DUP6 DUP2 MSTORE PUSH1 0x6 PUSH1 0x20 MSTORE PUSH1 0x40 SWAP1 KECCAK256 PUSH1 0x3 ADD SLOAD JUMPDEST PUSH1 0x0 DUP5 PUSH1 0x1 PUSH1 0x1 PUSH1 0x40 SHL SUB DUP2 GT ISZERO PUSH2 0x16EE JUMPI PUSH4 0x4E487B71 PUSH1 0xE0 SHL PUSH1 0x0 MSTORE PUSH1 0x41 PUSH1 0x4 MSTORE PUSH1 0x24 PUSH1 0x0 REVERT JUMPDEST PUSH1 0x40 MLOAD SWAP1 DUP1 DUP3 MSTORE DUP1 PUSH1 0x20 MUL PUSH1 0x20 ADD DUP3 ADD PUSH1 0x40 MSTORE DUP1 ISZERO PUSH2 0x1721 JUMPI DUP2 PUSH1 0x20 ADD JUMPDEST PUSH1 0x60 DUP2 MSTORE PUSH1 0x20 ADD SWAP1 PUSH1 0x1 SWAP1 SUB SWAP1 DUP2 PUSH2 0x170C JUMPI SWAP1 POP JUMPDEST POP SWAP1 POP JUMPDEST DUP2 DUP4 LT ISZERO PUSH2 0x182D JUMPI PUSH1 0x0 DUP8 DUP2 MSTORE PUSH1 0x6 PUSH1 0x20 MSTORE PUSH1 0x40 SWAP1 KECCAK256 PUSH1 0x3 ADD DUP1 SLOAD DUP5 SWAP1 DUP2 LT PUSH2 0x175E JUMPI PUSH4 0x4E487B71 PUSH1 0xE0 SHL PUSH1 0x0 MSTORE PUSH1 0x32 PUSH1 0x4 MSTORE PUSH1 0x24 PUSH1 0x0 REVERT JUMPDEST SWAP1 PUSH1 0x0 MSTORE PUSH1 0x20 PUSH1 0x0 KECCAK256 ADD DUP1 SLOAD PUSH2 0x1773 SWAP1 PUSH2 0x4A28 JUMP JUMPDEST DUP1 PUSH1 0x1F ADD PUSH1 0x20 DUP1 SWAP2 DIV MUL PUSH1 0x20 ADD PUSH1 0x40 MLOAD SWAP1 DUP2 ADD PUSH1 0x40 MSTORE DUP1 SWAP3 SWAP2 SWAP1 DUP2 DUP2 MSTORE PUSH1 0x20 ADD DUP3 DUP1 SLOAD PUSH2 0x179F SWAP1 PUSH2 0x4A28 JUMP JUMPDEST DUP1 ISZERO PUSH2 0x17EC JUMPI DUP1 PUSH1 0x1F LT PUSH2 0x17C1 JUMPI PUSH2 0x100 DUP1 DUP4 SLOAD DIV MUL DUP4 MSTORE SWAP2 PUSH1 0x20 ADD SWAP2 PUSH2 0x17EC JUMP JUMPDEST DUP3 ADD SWAP2 SWAP1 PUSH1 0x0 MSTORE PUSH1 0x20 PUSH1 0x0 KECCAK256 SWAP1 JUMPDEST DUP2 SLOAD DUP2 MSTORE SWAP1 PUSH1 0x1 ADD SWAP1 PUSH1 0x20 ADD DUP1 DUP4 GT PUSH2 0x17CF JUMPI DUP3 SWAP1 SUB PUSH1 0x1F AND DUP3 ADD SWAP2 JUMPDEST POP POP POP POP POP DUP2 DUP5 DUP2 MLOAD DUP2 LT PUSH2 0x1811 JUMPI PUSH4 0x4E487B71 PUSH1 0xE0 SHL PUSH1 0x0 MSTORE PUSH1 0x32 PUSH1 0x4 MSTORE PUSH1 0x24 PUSH1 0x0 REVERT JUMPDEST PUSH1 0x20 MUL PUSH1 0x20 ADD ADD DUP2 SWAP1 MSTORE POP DUP3 PUSH2 0x1826 SWAP1 PUSH2 0x4A63 JUMP JUMPDEST SWAP3 POP PUSH2 0x1725 JUMP JUMPDEST SWAP7 SWAP6 POP POP POP POP POP POP JUMP JUMPDEST PUSH1 0x3 DUP2 DUP2 SLOAD DUP2 LT PUSH2 0x1847 JUMPI PUSH1 0x0 DUP1 REVERT JUMPDEST PUSH1 0x0 SWAP2 DUP3 MSTORE PUSH1 0x20 SWAP1 SWAP2 KECCAK256 ADD SLOAD SWAP1 POP DUP2 JUMP JUMPDEST PUSH1 0x0 DUP2 DUP2 MSTORE PUSH1 0x9 PUSH1 0x20 MSTORE PUSH1 0x40 DUP2 KECCAK256 PUSH1 0x60 SWAP2 SWAP1 PUSH2 0x1873 SWAP1 PUSH2 0x3B31 JUMP JUMPDEST PUSH1 0x1 PUSH1 0x1 PUSH1 0x40 SHL SUB DUP2 GT ISZERO PUSH2 0x1898 JUMPI PUSH4 0x4E487B71 PUSH1 0xE0 SHL PUSH1 0x0 MSTORE PUSH1 0x41 PUSH1 0x4 MSTORE PUSH1 0x24 PUSH1 0x0 REVERT JUMPDEST PUSH1 0x40 MLOAD SWAP1 DUP1 DUP3 MSTORE DUP1 PUSH1 0x20 MUL PUSH1 0x20 ADD DUP3 ADD PUSH1 0x40 MSTORE DUP1 ISZERO PUSH2 0x18C1 JUMPI DUP2 PUSH1 0x20 ADD PUSH1 0x20 DUP3 MUL DUP1 CALLDATASIZE DUP4 CALLDATACOPY ADD SWAP1 POP JUMPDEST POP SWAP1 POP PUSH1 0x0 JUMPDEST PUSH1 0x0 DUP5 DUP2 MSTORE PUSH1 0x9 PUSH1 0x20 MSTORE PUSH1 0x40 SWAP1 KECCAK256 PUSH2 0x18DE SWAP1 PUSH2 0x3B31 JUMP JUMPDEST DUP2 LT ISZERO PUSH2 0x1945 JUMPI PUSH1 0x0 DUP5 DUP2 MSTORE PUSH1 0x9 PUSH1 0x20 MSTORE PUSH1 0x40 SWAP1 KECCAK256 PUSH2 0x18FD SWAP1 DUP3 PUSH2 0x3B3B JUMP JUMPDEST DUP3 DUP3 DUP2 MLOAD DUP2 LT PUSH2 0x191D JUMPI PUSH4 0x4E487B71 PUSH1 0xE0 SHL PUSH1 0x0 MSTORE PUSH1 0x32 PUSH1 0x4 MSTORE PUSH1 0x24 PUSH1 0x0 REVERT JUMPDEST PUSH1 0x1 PUSH1 0x1 PUSH1 0xA0 SHL SUB SWAP1 SWAP3 AND PUSH1 0x20 SWAP3 DUP4 MUL SWAP2 SWAP1 SWAP2 ADD SWAP1 SWAP2 ADD MSTORE PUSH2 0x193E DUP2 PUSH2 0x4A63 JUMP JUMPDEST SWAP1 POP PUSH2 0x18C7 JUMP JUMPDEST POP SWAP3 SWAP2 POP POP JUMP JUMPDEST PUSH1 0x6 PUSH1 0x20 MSTORE PUSH1 0x0 SWAP1 DUP2 MSTORE PUSH1 0x40 SWAP1 KECCAK256 DUP1 SLOAD PUSH1 0x1 DUP3 ADD SLOAD PUSH1 0x2 DUP4 ADD DUP1 SLOAD SWAP3 SWAP4 SWAP2 SWAP3 PUSH2 0x1974 SWAP1 PUSH2 0x4A28 JUMP JUMPDEST DUP1 PUSH1 0x1F ADD PUSH1 0x20 DUP1 SWAP2 DIV MUL PUSH1 0x20 ADD PUSH1 0x40 MLOAD SWAP1 DUP2 ADD PUSH1 0x40 MSTORE DUP1 SWAP3 SWAP2 SWAP1 DUP2 DUP2 MSTORE PUSH1 0x20 ADD DUP3 DUP1 SLOAD PUSH2 0x19A0 SWAP1 PUSH2 0x4A28 JUMP JUMPDEST DUP1 ISZERO PUSH2 0x19ED JUMPI DUP1 PUSH1 0x1F LT PUSH2 0x19C2 JUMPI PUSH2 0x100 DUP1 DUP4 SLOAD DIV MUL DUP4 MSTORE SWAP2 PUSH1 0x20 ADD SWAP2 PUSH2 0x19ED JUMP JUMPDEST DUP3 ADD SWAP2 SWAP1 PUSH1 0x0 MSTORE PUSH1 0x20 PUSH1 0x0 KECCAK256 SWAP1 JUMPDEST DUP2 SLOAD DUP2 MSTORE SWAP1 PUSH1 0x1 ADD SWAP1 PUSH1 0x20 ADD DUP1 DUP4 GT PUSH2 0x19D0 JUMPI DUP3 SWAP1 SUB PUSH1 0x1F AND DUP3 ADD SWAP2 JUMPDEST POP POP POP POP POP SWAP1 POP DUP4 JUMP JUMPDEST PUSH1 0x5 DUP3 PUSH1 0x40 MLOAD PUSH2 0x1A07 SWAP2 SWAP1 PUSH2 0x4593 JUMP JUMPDEST SWAP1 DUP2 MSTORE PUSH1 0x40 MLOAD SWAP1 DUP2 SWAP1 SUB PUSH1 0x20 ADD SWAP1 KECCAK256 SLOAD ISZERO PUSH2 0x1A51 JUMPI PUSH1 0x40 MLOAD PUSH3 0x461BCD PUSH1 0xE5 SHL DUP2 MSTORE PUSH1 0x20 PUSH1 0x4 DUP3 ADD MSTORE PUSH1 0xA PUSH1 0x24 DUP3 ADD MSTORE PUSH10 0x4F726720657869737473 PUSH1 0xB0 SHL PUSH1 0x44 DUP3 ADD MSTORE PUSH1 0x64 ADD PUSH2 0x6EA JUMP JUMPDEST PUSH1 0x0 DUP3 MLOAD GT PUSH2 0x1A8F JUMPI PUSH1 0x40 MLOAD PUSH3 0x461BCD PUSH1 0xE5 SHL DUP2 MSTORE PUSH1 0x20 PUSH1 0x4 DUP3 ADD MSTORE PUSH1 0xA PUSH1 0x24 DUP3 ADD MSTORE PUSH10 0x4E6F206F72674E616D65 PUSH1 0xB0 SHL PUSH1 0x44 DUP3 ADD MSTORE PUSH1 0x64 ADD PUSH2 0x6EA JUMP JUMPDEST PUSH1 0x0 DUP2 MLOAD GT PUSH2 0x1ACD JUMPI PUSH1 0x40 MLOAD PUSH3 0x461BCD PUSH1 0xE5 SHL DUP2 MSTORE PUSH1 0x20 PUSH1 0x4 DUP3 ADD MSTORE PUSH1 0xA PUSH1 0x24 DUP3 ADD MSTORE PUSH10 0x4E6F206F72674D657461 PUSH1 0xB0 SHL PUSH1 0x44 DUP3 ADD MSTORE PUSH1 0x64 ADD PUSH2 0x6EA JUMP JUMPDEST PUSH1 0x0 PUSH1 0x2 PUSH1 0x0 DUP2 SLOAD PUSH2 0x1ADE SWAP1 PUSH2 0x4A63 JUMP JUMPDEST SWAP2 DUP3 SWAP1 SSTORE POP PUSH1 0x40 DUP1 MLOAD PUSH1 0x20 DUP2 ADD SWAP3 SWAP1 SWAP3 MSTORE CHAINID SWAP1 DUP3 ADD MSTORE PUSH1 0x60 ADD PUSH1 0x40 MLOAD PUSH1 0x20 DUP2 DUP4 SUB SUB DUP2 MSTORE SWAP1 PUSH1 0x40 MSTORE DUP1 MLOAD SWAP1 PUSH1 0x20 ADD KECCAK256 SWAP1 POP DUP1 PUSH1 0x5 DUP5 PUSH1 0x40 MLOAD PUSH2 0x1B20 SWAP2 SWAP1 PUSH2 0x4593 JUMP JUMPDEST SWAP1 DUP2 MSTORE PUSH1 0x20 ADD PUSH1 0x40 MLOAD DUP1 SWAP2 SUB SWAP1 KECCAK256 DUP2 SWAP1 SSTORE POP DUP2 PUSH1 0x6 PUSH1 0x0 DUP4 DUP2 MSTORE PUSH1 0x20 ADD SWAP1 DUP2 MSTORE PUSH1 0x20 ADD PUSH1 0x0 KECCAK256 PUSH1 0x2 ADD SWAP1 DUP1 MLOAD SWAP1 PUSH1 0x20 ADD SWAP1 PUSH2 0x1B5C SWAP3 SWAP2 SWAP1 PUSH2 0x3D56 JUMP JUMPDEST POP PUSH1 0x3 DUP1 SLOAD PUSH1 0x1 DUP2 DUP2 ADD SWAP1 SWAP3 SSTORE PUSH32 0xC2575A0E9E593C00F959F8C92F12DB2869C3395A3B0502D05E2516446F71F85B ADD DUP3 SWAP1 SSTORE PUSH1 0x4 DUP1 SLOAD SWAP2 DUP3 ADD DUP2 SSTORE PUSH1 0x0 MSTORE DUP4 MLOAD PUSH2 0x1BCD SWAP2 PUSH32 0x8A35ACFBC15FF81A39AE7D344FD709F28E8600B4AA8C65C6B64BFE7FE36BD19B ADD SWAP1 PUSH1 0x20 DUP7 ADD SWAP1 PUSH2 0x3D56 JUMP JUMPDEST POP PUSH2 0x1C39 PUSH2 0x1BD9 PUSH2 0x3AE8 JUMP JUMPDEST PUSH1 0x9 PUSH1 0x0 DUP5 PUSH1 0x0 DUP1 MLOAD PUSH1 0x20 PUSH2 0x4AEB DUP4 CODECOPY DUP2 MLOAD SWAP2 MSTORE PUSH1 0x40 MLOAD PUSH1 0x20 ADD PUSH2 0x1C07 SWAP3 SWAP2 SWAP1 SWAP2 DUP3 MSTORE PUSH1 0x20 DUP3 ADD MSTORE PUSH1 0x40 ADD SWAP1 JUMP JUMPDEST PUSH1 0x40 MLOAD PUSH1 0x20 DUP2 DUP4 SUB SUB DUP2 MSTORE SWAP1 PUSH1 0x40 MSTORE DUP1 MLOAD SWAP1 PUSH1 0x20 ADD KECCAK256 DUP2 MSTORE PUSH1 0x20 ADD SWAP1 DUP2 MSTORE PUSH1 0x20 ADD PUSH1 0x0 KECCAK256 PUSH2 0x3B1C SWAP1 SWAP2 SWAP1 PUSH4 0xFFFFFFFF AND JUMP JUMPDEST POP POP POP POP JUMP JUMPDEST PUSH1 0xB PUSH1 0x20 MSTORE DUP2 PUSH1 0x0 MSTORE PUSH1 0x40 PUSH1 0x0 KECCAK256 DUP2 DUP2 SLOAD DUP2 LT PUSH2 0x1C5B JUMPI PUSH1 0x0 DUP1 REVERT JUMPDEST SWAP1 PUSH1 0x0 MSTORE PUSH1 0x20 PUSH1 0x0 KECCAK256 SWAP1 PUSH1 0x3 MUL ADD PUSH1 0x0 SWAP2 POP SWAP2 POP POP DUP1 PUSH1 0x0 ADD DUP1 SLOAD PUSH2 0x1C7F SWAP1 PUSH2 0x4A28 JUMP JUMPDEST DUP1 PUSH1 0x1F ADD PUSH1 0x20 DUP1 SWAP2 DIV MUL PUSH1 0x20 ADD PUSH1 0x40 MLOAD SWAP1 DUP2 ADD PUSH1 0x40 MSTORE DUP1 SWAP3 SWAP2 SWAP1 DUP2 DUP2 MSTORE PUSH1 0x20 ADD DUP3 DUP1 SLOAD PUSH2 0x1CAB SWAP1 PUSH2 0x4A28 JUMP JUMPDEST DUP1 ISZERO PUSH2 0x1CF8 JUMPI DUP1 PUSH1 0x1F LT PUSH2 0x1CCD JUMPI PUSH2 0x100 DUP1 DUP4 SLOAD DIV MUL DUP4 MSTORE SWAP2 PUSH1 0x20 ADD SWAP2 PUSH2 0x1CF8 JUMP JUMPDEST DUP3 ADD SWAP2 SWAP1 PUSH1 0x0 MSTORE PUSH1 0x20 PUSH1 0x0 KECCAK256 SWAP1 JUMPDEST DUP2 SLOAD DUP2 MSTORE SWAP1 PUSH1 0x1 ADD SWAP1 PUSH1 0x20 ADD DUP1 DUP4 GT PUSH2 0x1CDB JUMPI DUP3 SWAP1 SUB PUSH1 0x1F AND DUP3 ADD SWAP2 JUMPDEST POP POP POP POP POP SWAP1 DUP1 PUSH1 0x1 ADD DUP1 SLOAD PUSH2 0x1D0D SWAP1 PUSH2 0x4A28 JUMP JUMPDEST DUP1 PUSH1 0x1F ADD PUSH1 0x20 DUP1 SWAP2 DIV MUL PUSH1 0x20 ADD PUSH1 0x40 MLOAD SWAP1 DUP2 ADD PUSH1 0x40 MSTORE DUP1 SWAP3 SWAP2 SWAP1 DUP2 DUP2 MSTORE PUSH1 0x20 ADD DUP3 DUP1 SLOAD PUSH2 0x1D39 SWAP1 PUSH2 0x4A28 JUMP JUMPDEST DUP1 ISZERO PUSH2 0x1D86 JUMPI DUP1 PUSH1 0x1F LT PUSH2 0x1D5B JUMPI PUSH2 0x100 DUP1 DUP4 SLOAD DIV MUL DUP4 MSTORE SWAP2 PUSH1 0x20 ADD SWAP2 PUSH2 0x1D86 JUMP JUMPDEST DUP3 ADD SWAP2 SWAP1 PUSH1 0x0 MSTORE PUSH1 0x20 PUSH1 0x0 KECCAK256 SWAP1 JUMPDEST DUP2 SLOAD DUP2 MSTORE SWAP1 PUSH1 0x1 ADD SWAP1 PUSH1 0x20 ADD DUP1 DUP4 GT PUSH2 0x1D69 JUMPI DUP3 SWAP1 SUB PUSH1 0x1F AND DUP3 ADD SWAP2 JUMPDEST POP POP POP POP POP SWAP1 DUP1 PUSH1 0x2 ADD DUP1 SLOAD PUSH2 0x1974 SWAP1 PUSH2 0x4A28 JUMP JUMPDEST PUSH1 0x60 PUSH1 0x0 DUP3 PUSH2 0x1DAA DUP6 DUP3 PUSH2 0x49AF JUMP JUMPDEST PUSH2 0x1DB4 SWAP2 SWAP1 PUSH2 0x49CE JUMP JUMPDEST SWAP1 POP PUSH1 0x0 PUSH2 0x1DC2 DUP5 DUP7 PUSH2 0x49AF JUMP JUMPDEST PUSH1 0x4 SLOAD SWAP1 SWAP2 POP DUP2 GT ISZERO PUSH2 0x1DD4 JUMPI POP PUSH1 0x4 SLOAD JUMPDEST PUSH1 0x0 DUP5 PUSH1 0x1 PUSH1 0x1 PUSH1 0x40 SHL SUB DUP2 GT ISZERO PUSH2 0x1DFC JUMPI PUSH4 0x4E487B71 PUSH1 0xE0 SHL PUSH1 0x0 MSTORE PUSH1 0x41 PUSH1 0x4 MSTORE PUSH1 0x24 PUSH1 0x0 REVERT JUMPDEST PUSH1 0x40 MLOAD SWAP1 DUP1 DUP3 MSTORE DUP1 PUSH1 0x20 MUL PUSH1 0x20 ADD DUP3 ADD PUSH1 0x40 MSTORE DUP1 ISZERO PUSH2 0x1E2F JUMPI DUP2 PUSH1 0x20 ADD JUMPDEST PUSH1 0x60 DUP2 MSTORE PUSH1 0x20 ADD SWAP1 PUSH1 0x1 SWAP1 SUB SWAP1 DUP2 PUSH2 0x1E1A JUMPI SWAP1 POP JUMPDEST POP SWAP1 POP JUMPDEST DUP2 DUP4 LT ISZERO PUSH2 0x1F2B JUMPI PUSH1 0x4 DUP4 DUP2 SLOAD DUP2 LT PUSH2 0x1E5C JUMPI PUSH4 0x4E487B71 PUSH1 0xE0 SHL PUSH1 0x0 MSTORE PUSH1 0x32 PUSH1 0x4 MSTORE PUSH1 0x24 PUSH1 0x0 REVERT JUMPDEST SWAP1 PUSH1 0x0 MSTORE PUSH1 0x20 PUSH1 0x0 KECCAK256 ADD DUP1 SLOAD PUSH2 0x1E71 SWAP1 PUSH2 0x4A28 JUMP JUMPDEST DUP1 PUSH1 0x1F ADD PUSH1 0x20 DUP1 SWAP2 DIV MUL PUSH1 0x20 ADD PUSH1 0x40 MLOAD SWAP1 DUP2 ADD PUSH1 0x40 MSTORE DUP1 SWAP3 SWAP2 SWAP1 DUP2 DUP2 MSTORE PUSH1 0x20 ADD DUP3 DUP1 SLOAD PUSH2 0x1E9D SWAP1 PUSH2 0x4A28 JUMP JUMPDEST DUP1 ISZERO PUSH2 0x1EEA JUMPI DUP1 PUSH1 0x1F LT PUSH2 0x1EBF JUMPI PUSH2 0x100 DUP1 DUP4 SLOAD DIV MUL DUP4 MSTORE SWAP2 PUSH1 0x20 ADD SWAP2 PUSH2 0x1EEA JUMP JUMPDEST DUP3 ADD SWAP2 SWAP1 PUSH1 0x0 MSTORE PUSH1 0x20 PUSH1 0x0 KECCAK256 SWAP1 JUMPDEST DUP2 SLOAD DUP2 MSTORE SWAP1 PUSH1 0x1 ADD SWAP1 PUSH1 0x20 ADD DUP1 DUP4 GT PUSH2 0x1ECD JUMPI DUP3 SWAP1 SUB PUSH1 0x1F AND DUP3 ADD SWAP2 JUMPDEST POP POP POP POP POP DUP2 DUP5 DUP2 MLOAD DUP2 LT PUSH2 0x1F0F JUMPI PUSH4 0x4E487B71 PUSH1 0xE0 SHL PUSH1 0x0 MSTORE PUSH1 0x32 PUSH1 0x4 MSTORE PUSH1 0x24 PUSH1 0x0 REVERT JUMPDEST PUSH1 0x20 MUL PUSH1 0x20 ADD ADD DUP2 SWAP1 MSTORE POP DUP3 PUSH2 0x1F24 SWAP1 PUSH2 0x4A63 JUMP JUMPDEST SWAP3 POP PUSH2 0x1E33 JUMP JUMPDEST SWAP3 POP POP POP JUMPDEST SWAP3 SWAP2 POP POP JUMP JUMPDEST DUP4 DUP4 PUSH2 0x1F45 DUP3 DUP3 PUSH2 0x250 PUSH2 0x3AE8 JUMP JUMPDEST PUSH2 0x1F61 JUMPI PUSH1 0x40 MLOAD PUSH3 0x461BCD PUSH1 0xE5 SHL DUP2 MSTORE PUSH1 0x4 ADD PUSH2 0x6EA SWAP1 PUSH2 0x491E JUMP JUMPDEST PUSH1 0x0 DUP1 DUP7 MLOAD GT SWAP1 POP PUSH1 0x0 DUP8 DUP8 DUP8 PUSH1 0x40 MLOAD PUSH1 0x20 ADD PUSH2 0x1F80 SWAP4 SWAP3 SWAP2 SWAP1 PUSH2 0x451E JUMP JUMPDEST PUSH1 0x40 MLOAD PUSH1 0x20 DUP2 DUP4 SUB SUB DUP2 MSTORE SWAP1 PUSH1 0x40 MSTORE DUP1 MLOAD SWAP1 PUSH1 0x20 ADD KECCAK256 SWAP1 POP PUSH1 0x0 DUP3 ISZERO PUSH2 0x1FD0 JUMPI DUP9 DUP9 PUSH1 0x40 MLOAD PUSH1 0x20 ADD PUSH2 0x1FB3 SWAP3 SWAP2 SWAP1 PUSH2 0x44B9 JUMP JUMPDEST PUSH1 0x40 MLOAD PUSH1 0x20 DUP2 DUP4 SUB SUB DUP2 MSTORE SWAP1 PUSH1 0x40 MSTORE DUP1 MLOAD SWAP1 PUSH1 0x20 ADD KECCAK256 SWAP1 POP PUSH2 0x1FD3 JUMP JUMPDEST POP DUP8 JUMPDEST PUSH1 0x0 DUP3 DUP2 MSTORE PUSH1 0xE PUSH1 0x20 MSTORE PUSH1 0x40 SWAP1 KECCAK256 SLOAD TIMESTAMP LT ISZERO DUP1 PUSH2 0x2025 JUMPI POP DUP3 DUP1 ISZERO PUSH2 0x2025 JUMPI POP PUSH1 0x0 DUP3 DUP2 MSTORE PUSH1 0xE PUSH1 0x20 MSTORE PUSH1 0x40 SWAP1 KECCAK256 SLOAD PUSH2 0x2010 SWAP1 PUSH3 0x93A80 SWAP1 PUSH2 0x49CE JUMP JUMPDEST PUSH1 0x0 DUP3 DUP2 MSTORE PUSH1 0x7 PUSH1 0x20 MSTORE PUSH1 0x40 SWAP1 KECCAK256 PUSH1 0x2 ADD SLOAD LT ISZERO JUMPDEST DUP1 PUSH2 0x2066 JUMPI POP DUP3 ISZERO DUP1 ISZERO PUSH2 0x2066 JUMPI POP PUSH1 0x0 DUP3 DUP2 MSTORE PUSH1 0xE PUSH1 0x20 MSTORE PUSH1 0x40 SWAP1 KECCAK256 SLOAD PUSH2 0x2051 SWAP1 PUSH3 0x93A80 SWAP1 PUSH2 0x49CE JUMP JUMPDEST PUSH1 0x0 DUP11 DUP2 MSTORE PUSH1 0x6 PUSH1 0x20 MSTORE PUSH1 0x40 SWAP1 KECCAK256 PUSH1 0x1 ADD SLOAD LT ISZERO JUMPDEST PUSH2 0x2082 JUMPI PUSH1 0x40 MLOAD PUSH3 0x461BCD PUSH1 0xE5 SHL DUP2 MSTORE PUSH1 0x4 ADD PUSH2 0x6EA SWAP1 PUSH2 0x48F9 JUMP JUMPDEST PUSH1 0x0 DUP3 DUP2 MSTORE PUSH1 0xE PUSH1 0x20 MSTORE PUSH1 0x40 DUP2 KECCAK256 PUSH2 0x209C SWAP1 PUSH1 0x1 ADD PUSH2 0x3B31 JUMP JUMPDEST GT ISZERO PUSH2 0x20DE JUMPI PUSH1 0x0 DUP3 DUP2 MSTORE PUSH1 0xE PUSH1 0x20 MSTORE PUSH1 0x40 DUP2 KECCAK256 PUSH2 0x20D8 SWAP2 PUSH2 0x20C1 SWAP2 PUSH1 0x1 ADD SWAP1 PUSH2 0x3B3B JUMP JUMPDEST PUSH1 0x0 DUP5 DUP2 MSTORE PUSH1 0xE PUSH1 0x20 MSTORE PUSH1 0x40 SWAP1 KECCAK256 PUSH1 0x1 ADD SWAP1 PUSH2 0x3B47 JUMP JUMPDEST POP PUSH2 0x2082 JUMP JUMPDEST PUSH1 0x0 DUP3 DUP2 MSTORE PUSH1 0xE PUSH1 0x20 SWAP1 DUP2 MSTORE PUSH1 0x40 DUP1 DUP4 KECCAK256 DUP4 SWAP1 SSTORE DUP4 DUP4 MSTORE PUSH1 0xD SWAP1 SWAP2 MSTORE SWAP1 KECCAK256 DUP1 SLOAD PUSH2 0x210A SWAP1 PUSH1 0x1 SWAP1 PUSH2 0x49CE JUMP JUMPDEST DUP2 SLOAD DUP2 LT PUSH2 0x2128 JUMPI PUSH4 0x4E487B71 PUSH1 0xE0 SHL PUSH1 0x0 MSTORE PUSH1 0x32 PUSH1 0x4 MSTORE PUSH1 0x24 PUSH1 0x0 REVERT JUMPDEST SWAP1 PUSH1 0x0 MSTORE PUSH1 0x20 PUSH1 0x0 KECCAK256 ADD SLOAD PUSH1 0xD PUSH1 0x0 DUP4 DUP2 MSTORE PUSH1 0x20 ADD SWAP1 DUP2 MSTORE PUSH1 0x20 ADD PUSH1 0x0 KECCAK256 DUP8 DUP2 SLOAD DUP2 LT PUSH2 0x2165 JUMPI PUSH4 0x4E487B71 PUSH1 0xE0 SHL PUSH1 0x0 MSTORE PUSH1 0x32 PUSH1 0x4 MSTORE PUSH1 0x24 PUSH1 0x0 REVERT JUMPDEST SWAP1 PUSH1 0x0 MSTORE PUSH1 0x20 PUSH1 0x0 KECCAK256 ADD DUP2 SWAP1 SSTORE POP PUSH1 0xD PUSH1 0x0 DUP3 DUP2 MSTORE PUSH1 0x20 ADD SWAP1 DUP2 MSTORE PUSH1 0x20 ADD PUSH1 0x0 KECCAK256 DUP1 SLOAD DUP1 PUSH2 0x21A3 JUMPI PUSH4 0x4E487B71 PUSH1 0xE0 SHL PUSH1 0x0 MSTORE PUSH1 0x31 PUSH1 0x4 MSTORE PUSH1 0x24 PUSH1 0x0 REVERT JUMPDEST PUSH1 0x1 SWAP1 SUB DUP2 DUP2 SWAP1 PUSH1 0x0 MSTORE PUSH1 0x20 PUSH1 0x0 KECCAK256 ADD PUSH1 0x0 SWAP1 SSTORE SWAP1 SSTORE POP POP POP POP POP POP POP POP POP JUMP JUMPDEST PUSH1 0xD PUSH1 0x20 MSTORE DUP2 PUSH1 0x0 MSTORE PUSH1 0x40 PUSH1 0x0 KECCAK256 DUP2 DUP2 SLOAD DUP2 LT PUSH2 0x21E0 JUMPI PUSH1 0x0 DUP1 REVERT JUMPDEST SWAP1 PUSH1 0x0 MSTORE PUSH1 0x20 PUSH1 0x0 KECCAK256 ADD PUSH1 0x0 SWAP2 POP SWAP2 POP POP SLOAD DUP2 JUMP JUMPDEST DUP6 DUP6 PUSH2 0x2204 DUP3 DUP3 PUSH2 0x250 PUSH2 0x3AE8 JUMP JUMPDEST PUSH2 0x2220 JUMPI PUSH1 0x40 MLOAD PUSH3 0x461BCD PUSH1 0xE5 SHL DUP2 MSTORE PUSH1 0x4 ADD PUSH2 0x6EA SWAP1 PUSH2 0x491E JUMP JUMPDEST PUSH1 0x0 DUP9 DUP9 DUP9 PUSH1 0x40 MLOAD PUSH1 0x20 ADD PUSH2 0x2237 SWAP4 SWAP3 SWAP2 SWAP1 PUSH2 0x46B9 JUMP JUMPDEST PUSH1 0x40 MLOAD PUSH1 0x20 DUP2 DUP4 SUB SUB DUP2 MSTORE SWAP1 PUSH1 0x40 MSTORE DUP1 MLOAD SWAP1 PUSH1 0x20 ADD KECCAK256 SWAP1 POP PUSH1 0x0 DUP10 DUP10 DUP10 DUP10 DUP10 PUSH1 0x40 MLOAD PUSH1 0x20 ADD PUSH2 0x226A SWAP6 SWAP5 SWAP4 SWAP3 SWAP2 SWAP1 PUSH2 0x46E4 JUMP JUMPDEST PUSH1 0x40 DUP1 MLOAD PUSH1 0x1F NOT DUP2 DUP5 SUB ADD DUP2 MSTORE SWAP2 DUP2 MSTORE DUP2 MLOAD PUSH1 0x20 SWAP3 DUP4 ADD KECCAK256 PUSH1 0x0 DUP2 DUP2 MSTORE PUSH1 0xE SWAP1 SWAP4 MSTORE SWAP2 KECCAK256 SLOAD SWAP1 SWAP2 POP TIMESTAMP LT ISZERO DUP1 PUSH2 0x22B8 JUMPI POP PUSH1 0x0 DUP3 DUP2 MSTORE PUSH1 0x8 PUSH1 0x20 MSTORE PUSH1 0x40 DUP2 KECCAK256 DUP1 SLOAD PUSH2 0x22B4 SWAP1 PUSH2 0x4A28 JUMP JUMPDEST SWAP1 POP GT JUMPDEST PUSH2 0x22D4 JUMPI PUSH1 0x40 MLOAD PUSH3 0x461BCD PUSH1 0xE5 SHL DUP2 MSTORE PUSH1 0x4 ADD PUSH2 0x6EA SWAP1 PUSH2 0x48F9 JUMP JUMPDEST PUSH1 0x0 DUP11 DUP11 PUSH1 0x40 MLOAD PUSH1 0x20 ADD PUSH2 0x22E9 SWAP3 SWAP2 SWAP1 PUSH2 0x44B9 JUMP JUMPDEST PUSH1 0x40 MLOAD PUSH1 0x20 DUP2 DUP4 SUB SUB DUP2 MSTORE SWAP1 PUSH1 0x40 MSTORE DUP1 MLOAD SWAP1 PUSH1 0x20 ADD KECCAK256 SWAP1 POP DUP9 PUSH1 0x40 MLOAD PUSH1 0x20 ADD PUSH2 0x2312 SWAP2 SWAP1 PUSH2 0x4593 JUMP JUMPDEST PUSH1 0x40 DUP1 MLOAD PUSH1 0x1F NOT DUP2 DUP5 SUB ADD DUP2 MSTORE SWAP2 DUP2 MSTORE DUP2 MLOAD PUSH1 0x20 SWAP3 DUP4 ADD KECCAK256 PUSH1 0x0 DUP5 DUP2 MSTORE PUSH1 0xB SWAP1 SWAP4 MSTORE SWAP2 KECCAK256 DUP1 SLOAD DUP9 SWAP1 DUP2 LT PUSH2 0x2356 JUMPI PUSH4 0x4E487B71 PUSH1 0xE0 SHL PUSH1 0x0 MSTORE PUSH1 0x32 PUSH1 0x4 MSTORE PUSH1 0x24 PUSH1 0x0 REVERT JUMPDEST SWAP1 PUSH1 0x0 MSTORE PUSH1 0x20 PUSH1 0x0 KECCAK256 SWAP1 PUSH1 0x3 MUL ADD PUSH1 0x0 ADD PUSH1 0x40 MLOAD PUSH1 0x20 ADD PUSH2 0x2377 SWAP2 SWAP1 PUSH2 0x45AF JUMP JUMPDEST PUSH1 0x40 MLOAD PUSH1 0x20 DUP2 DUP4 SUB SUB DUP2 MSTORE SWAP1 PUSH1 0x40 MSTORE DUP1 MLOAD SWAP1 PUSH1 0x20 ADD KECCAK256 EQ PUSH2 0x23C6 JUMPI PUSH1 0x40 MLOAD PUSH3 0x461BCD PUSH1 0xE5 SHL DUP2 MSTORE PUSH1 0x20 PUSH1 0x4 DUP3 ADD MSTORE PUSH1 0x9 PUSH1 0x24 DUP3 ADD MSTORE PUSH9 0x57726F6E6720746167 PUSH1 0xB8 SHL PUSH1 0x44 DUP3 ADD MSTORE PUSH1 0x64 ADD PUSH2 0x6EA JUMP JUMPDEST PUSH1 0x0 DUP2 DUP2 MSTORE PUSH1 0xB PUSH1 0x20 MSTORE PUSH1 0x40 SWAP1 KECCAK256 DUP1 SLOAD PUSH2 0x23E2 SWAP1 PUSH1 0x1 SWAP1 PUSH2 0x49CE JUMP JUMPDEST DUP2 SLOAD DUP2 LT PUSH2 0x2400 JUMPI PUSH4 0x4E487B71 PUSH1 0xE0 SHL PUSH1 0x0 MSTORE PUSH1 0x32 PUSH1 0x4 MSTORE PUSH1 0x24 PUSH1 0x0 REVERT JUMPDEST SWAP1 PUSH1 0x0 MSTORE PUSH1 0x20 PUSH1 0x0 KECCAK256 SWAP1 PUSH1 0x3 MUL ADD PUSH1 0xB PUSH1 0x0 DUP4 DUP2 MSTORE PUSH1 0x20 ADD SWAP1 DUP2 MSTORE PUSH1 0x20 ADD PUSH1 0x0 KECCAK256 DUP8 DUP2 SLOAD DUP2 LT PUSH2 0x2440 JUMPI PUSH4 0x4E487B71 PUSH1 0xE0 SHL PUSH1 0x0 MSTORE PUSH1 0x32 PUSH1 0x4 MSTORE PUSH1 0x24 PUSH1 0x0 REVERT JUMPDEST SWAP1 PUSH1 0x0 MSTORE PUSH1 0x20 PUSH1 0x0 KECCAK256 SWAP1 PUSH1 0x3 MUL ADD PUSH1 0x0 DUP3 ADD DUP2 PUSH1 0x0 ADD SWAP1 DUP1 SLOAD PUSH2 0x2462 SWAP1 PUSH2 0x4A28 JUMP JUMPDEST PUSH2 0x246D SWAP3 SWAP2 SWAP1 PUSH2 0x3DDA JUMP JUMPDEST POP PUSH1 0x1 DUP3 ADD DUP2 PUSH1 0x1 ADD SWAP1 DUP1 SLOAD PUSH2 0x2482 SWAP1 PUSH2 0x4A28 JUMP JUMPDEST PUSH2 0x248D SWAP3 SWAP2 SWAP1 PUSH2 0x3DDA JUMP JUMPDEST POP PUSH1 0x2 DUP3 ADD DUP2 PUSH1 0x2 ADD SWAP1 DUP1 SLOAD PUSH2 0x24A2 SWAP1 PUSH2 0x4A28 JUMP JUMPDEST PUSH2 0x24AD SWAP3 SWAP2 SWAP1 PUSH2 0x3DDA JUMP JUMPDEST POP POP POP PUSH1 0x0 DUP2 DUP2 MSTORE PUSH1 0xB PUSH1 0x20 MSTORE PUSH1 0x40 SWAP1 KECCAK256 DUP1 SLOAD DUP1 PUSH2 0x24DB JUMPI PUSH4 0x4E487B71 PUSH1 0xE0 SHL PUSH1 0x0 MSTORE PUSH1 0x31 PUSH1 0x4 MSTORE PUSH1 0x24 PUSH1 0x0 REVERT JUMPDEST PUSH1 0x0 DUP3 DUP2 MSTORE PUSH1 0x20 DUP2 KECCAK256 PUSH1 0x0 NOT SWAP1 SWAP3 ADD SWAP2 PUSH1 0x3 DUP4 MUL ADD SWAP1 PUSH2 0x24FB DUP3 DUP3 PUSH2 0x3E55 JUMP JUMPDEST PUSH2 0x2509 PUSH1 0x1 DUP4 ADD PUSH1 0x0 PUSH2 0x3E55 JUMP JUMPDEST PUSH2 0x2517 PUSH1 0x2 DUP4 ADD PUSH1 0x0 PUSH2 0x3E55 JUMP JUMPDEST POP POP SWAP1 SSTORE POP POP POP POP POP POP POP POP POP POP POP JUMP JUMPDEST PUSH1 0x0 DUP2 DUP2 MSTORE PUSH1 0xE PUSH1 0x20 MSTORE PUSH1 0x40 DUP2 KECCAK256 PUSH1 0x60 SWAP1 DUP3 SWAP1 PUSH2 0x2547 SWAP1 PUSH1 0x1 ADD PUSH2 0x3B31 JUMP JUMPDEST PUSH1 0x1 PUSH1 0x1 PUSH1 0x40 SHL SUB DUP2 GT ISZERO PUSH2 0x256C JUMPI PUSH4 0x4E487B71 PUSH1 0xE0 SHL PUSH1 0x0 MSTORE PUSH1 0x41 PUSH1 0x4 MSTORE PUSH1 0x24 PUSH1 0x0 REVERT JUMPDEST PUSH1 0x40 MLOAD SWAP1 DUP1 DUP3 MSTORE DUP1 PUSH1 0x20 MUL PUSH1 0x20 ADD DUP3 ADD PUSH1 0x40 MSTORE DUP1 ISZERO PUSH2 0x2595 JUMPI DUP2 PUSH1 0x20 ADD PUSH1 0x20 DUP3 MUL DUP1 CALLDATASIZE DUP4 CALLDATACOPY ADD SWAP1 POP JUMPDEST POP SWAP1 POP PUSH1 0x0 JUMPDEST PUSH1 0x0 DUP6 DUP2 MSTORE PUSH1 0xE PUSH1 0x20 MSTORE PUSH1 0x40 SWAP1 KECCAK256 PUSH2 0x25B5 SWAP1 PUSH1 0x1 ADD PUSH2 0x3B31 JUMP JUMPDEST DUP2 LT ISZERO PUSH2 0x261F JUMPI PUSH1 0x0 DUP6 DUP2 MSTORE PUSH1 0xE PUSH1 0x20 MSTORE PUSH1 0x40 SWAP1 KECCAK256 PUSH2 0x25D7 SWAP1 PUSH1 0x1 ADD DUP3 PUSH2 0x3B3B JUMP JUMPDEST DUP3 DUP3 DUP2 MLOAD DUP2 LT PUSH2 0x25F7 JUMPI PUSH4 0x4E487B71 PUSH1 0xE0 SHL PUSH1 0x0 MSTORE PUSH1 0x32 PUSH1 0x4 MSTORE PUSH1 0x24 PUSH1 0x0 REVERT JUMPDEST PUSH1 0x1 PUSH1 0x1 PUSH1 0xA0 SHL SUB SWAP1 SWAP3 AND PUSH1 0x20 SWAP3 DUP4 MUL SWAP2 SWAP1 SWAP2 ADD SWAP1 SWAP2 ADD MSTORE PUSH2 0x2618 DUP2 PUSH2 0x4A63 JUMP JUMPDEST SWAP1 POP PUSH2 0x259B JUMP JUMPDEST POP PUSH1 0x0 SWAP4 DUP5 MSTORE PUSH1 0xE PUSH1 0x20 MSTORE PUSH1 0x40 SWAP1 SWAP4 KECCAK256 SLOAD SWAP4 SWAP2 POP POP JUMP JUMPDEST PUSH1 0x0 DUP1 DUP4 PUSH1 0x0 DUP1 MLOAD PUSH1 0x20 PUSH2 0x4AEB DUP4 CODECOPY DUP2 MLOAD SWAP2 MSTORE PUSH1 0x40 MLOAD PUSH1 0x20 ADD PUSH2 0x2663 SWAP3 SWAP2 SWAP1 SWAP2 DUP3 MSTORE PUSH1 0x20 DUP3 ADD MSTORE PUSH1 0x40 ADD SWAP1 JUMP JUMPDEST PUSH1 0x40 DUP1 MLOAD PUSH1 0x1F NOT DUP2 DUP5 SUB ADD DUP2 MSTORE SWAP2 DUP2 MSTORE DUP2 MLOAD PUSH1 0x20 SWAP3 DUP4 ADD KECCAK256 PUSH1 0x0 DUP2 DUP2 MSTORE PUSH1 0x9 SWAP1 SWAP4 MSTORE SWAP2 KECCAK256 SWAP1 SWAP2 POP PUSH2 0x2694 SWAP1 DUP5 PUSH2 0x3AC6 JUMP JUMPDEST SWAP5 SWAP4 POP POP POP POP JUMP JUMPDEST DUP3 PUSH2 0x26A9 DUP2 PUSH2 0x50C PUSH2 0x3AE8 JUMP JUMPDEST PUSH2 0x26C5 JUMPI PUSH1 0x40 MLOAD PUSH3 0x461BCD PUSH1 0xE5 SHL DUP2 MSTORE PUSH1 0x4 ADD PUSH2 0x6EA SWAP1 PUSH2 0x491E JUMP JUMPDEST DUP2 PUSH1 0x7 PUSH1 0x0 DUP7 DUP7 PUSH1 0x40 MLOAD PUSH1 0x20 ADD PUSH2 0x26DD SWAP3 SWAP2 SWAP1 PUSH2 0x44B9 JUMP JUMPDEST PUSH1 0x40 MLOAD PUSH1 0x20 DUP2 DUP4 SUB SUB DUP2 MSTORE SWAP1 PUSH1 0x40 MSTORE DUP1 MLOAD SWAP1 PUSH1 0x20 ADD KECCAK256 DUP2 MSTORE PUSH1 0x20 ADD SWAP1 DUP2 MSTORE PUSH1 0x20 ADD PUSH1 0x0 KECCAK256 PUSH1 0x3 ADD SWAP1 DUP1 MLOAD SWAP1 PUSH1 0x20 ADD SWAP1 PUSH2 0x2717 SWAP3 SWAP2 SWAP1 PUSH2 0x3D56 JUMP JUMPDEST POP PUSH2 0x2720 PUSH2 0x3AE8 JUMP JUMPDEST PUSH1 0x1 PUSH1 0x1 PUSH1 0xA0 SHL SUB AND DUP4 PUSH1 0x40 MLOAD PUSH2 0x2737 SWAP2 SWAP1 PUSH2 0x4593 JUMP JUMPDEST PUSH1 0x40 MLOAD DUP1 SWAP2 SUB SWAP1 KECCAK256 DUP6 PUSH32 0x82DFC0CDA6CC25674875E2DCD882C68A8B2C80BF48E58C6A3DC2384C6985955 DUP6 PUSH1 0x40 MLOAD PUSH2 0x276F SWAP2 SWAP1 PUSH2 0x47DB JUMP JUMPDEST PUSH1 0x40 MLOAD DUP1 SWAP2 SUB SWAP1 LOG4 POP POP POP POP JUMP JUMPDEST PUSH1 0xC PUSH1 0x20 MSTORE DUP2 PUSH1 0x0 MSTORE PUSH1 0x40 PUSH1 0x0 KECCAK256 DUP2 DUP2 SLOAD DUP2 LT PUSH2 0x2799 JUMPI PUSH1 0x0 DUP1 REVERT JUMPDEST PUSH1 0x0 SWAP2 DUP3 MSTORE PUSH1 0x20 SWAP1 SWAP2 KECCAK256 ADD SLOAD PUSH1 0x1 PUSH1 0x1 PUSH1 0xA0 SHL SUB AND SWAP2 POP DUP3 SWAP1 POP JUMP JUMPDEST DUP2 PUSH2 0x27C2 DUP2 PUSH2 0x50C PUSH2 0x3AE8 JUMP JUMPDEST PUSH2 0x27DE JUMPI PUSH1 0x40 MLOAD PUSH3 0x461BCD PUSH1 0xE5 SHL DUP2 MSTORE PUSH1 0x4 ADD PUSH2 0x6EA SWAP1 PUSH2 0x491E JUMP JUMPDEST PUSH1 0x0 DUP4 DUP2 MSTORE PUSH1 0x6 PUSH1 0x20 SWAP1 DUP2 MSTORE PUSH1 0x40 SWAP1 SWAP2 KECCAK256 DUP4 MLOAD PUSH2 0x2803 SWAP3 PUSH1 0x2 SWAP1 SWAP3 ADD SWAP2 DUP6 ADD SWAP1 PUSH2 0x3D56 JUMP JUMPDEST POP PUSH2 0x280C PUSH2 0x3AE8 JUMP JUMPDEST PUSH1 0x40 MLOAD PUSH1 0x1 PUSH1 0x1 PUSH1 0xA0 SHL SUB SWAP2 SWAP1 SWAP2 AND SWAP1 PUSH32 0xC5D2460186F7233C927E7DB2DCC703C0E500B653CA82273B7BFAD8045D85A470 SWAP1 DUP6 SWAP1 PUSH32 0x82DFC0CDA6CC25674875E2DCD882C68A8B2C80BF48E58C6A3DC2384C6985955 SWAP1 PUSH2 0x286D SWAP1 DUP8 SWAP1 PUSH2 0x47DB JUMP JUMPDEST PUSH1 0x40 MLOAD DUP1 SWAP2 SUB SWAP1 LOG4 POP POP POP JUMP JUMPDEST DUP3 PUSH2 0x2887 DUP2 PUSH2 0x50C PUSH2 0x3AE8 JUMP JUMPDEST PUSH2 0x28A3 JUMPI PUSH1 0x40 MLOAD PUSH3 0x461BCD PUSH1 0xE5 SHL DUP2 MSTORE PUSH1 0x4 ADD PUSH2 0x6EA SWAP1 PUSH2 0x491E JUMP JUMPDEST PUSH1 0x0 DUP5 DUP5 PUSH1 0x40 MLOAD PUSH1 0x20 ADD PUSH2 0x28B8 SWAP3 SWAP2 SWAP1 PUSH2 0x44B9 JUMP JUMPDEST PUSH1 0x40 DUP1 MLOAD PUSH1 0x1F NOT DUP2 DUP5 SUB ADD DUP2 MSTORE SWAP2 DUP2 MSTORE DUP2 MLOAD PUSH1 0x20 SWAP3 DUP4 ADD KECCAK256 PUSH1 0x0 DUP2 DUP2 MSTORE PUSH1 0x7 SWAP1 SWAP4 MSTORE SWAP2 KECCAK256 SLOAD SWAP1 SWAP2 POP PUSH1 0xFF AND ISZERO PUSH2 0x291E JUMPI PUSH1 0x40 MLOAD PUSH3 0x461BCD PUSH1 0xE5 SHL DUP2 MSTORE PUSH1 0x20 PUSH1 0x4 DUP3 ADD MSTORE PUSH1 0xB PUSH1 0x24 DUP3 ADD MSTORE PUSH11 0x5265706F20657869737473 PUSH1 0xA8 SHL PUSH1 0x44 DUP3 ADD MSTORE PUSH1 0x64 ADD PUSH2 0x6EA JUMP JUMPDEST PUSH1 0x0 DUP5 MLOAD GT PUSH2 0x295D JUMPI PUSH1 0x40 MLOAD PUSH3 0x461BCD PUSH1 0xE5 SHL DUP2 MSTORE PUSH1 0x20 PUSH1 0x4 DUP3 ADD MSTORE PUSH1 0xB PUSH1 0x24 DUP3 ADD MSTORE PUSH11 0x4E6F207265706F4E616D65 PUSH1 0xA8 SHL PUSH1 0x44 DUP3 ADD MSTORE PUSH1 0x64 ADD PUSH2 0x6EA JUMP JUMPDEST PUSH1 0x0 DUP4 MLOAD GT PUSH2 0x299C JUMPI PUSH1 0x40 MLOAD PUSH3 0x461BCD PUSH1 0xE5 SHL DUP2 MSTORE PUSH1 0x20 PUSH1 0x4 DUP3 ADD MSTORE PUSH1 0xB PUSH1 0x24 DUP3 ADD MSTORE PUSH11 0x4E6F207265706F4D657461 PUSH1 0xA8 SHL PUSH1 0x44 DUP3 ADD MSTORE PUSH1 0x64 ADD PUSH2 0x6EA JUMP JUMPDEST PUSH1 0x0 DUP6 DUP2 MSTORE PUSH1 0x6 PUSH1 0x20 SWAP1 DUP2 MSTORE PUSH1 0x40 DUP3 KECCAK256 PUSH1 0x3 ADD DUP1 SLOAD PUSH1 0x1 DUP2 ADD DUP3 SSTORE SWAP1 DUP4 MSTORE SWAP2 DUP2 SWAP1 KECCAK256 DUP7 MLOAD PUSH2 0x29D1 SWAP4 SWAP2 SWAP1 SWAP2 ADD SWAP2 DUP8 ADD SWAP1 PUSH2 0x3D56 JUMP JUMPDEST POP PUSH1 0x0 DUP2 DUP2 MSTORE PUSH1 0x7 PUSH1 0x20 SWAP1 DUP2 MSTORE PUSH1 0x40 SWAP1 SWAP2 KECCAK256 DUP1 SLOAD PUSH1 0xFF NOT AND PUSH1 0x1 OR DUP2 SSTORE DUP5 MLOAD PUSH2 0x2A02 SWAP3 PUSH1 0x3 SWAP1 SWAP3 ADD SWAP2 DUP7 ADD SWAP1 PUSH2 0x3D56 JUMP JUMPDEST POP POP POP POP POP POP JUMP JUMPDEST DUP4 DUP4 PUSH2 0x2A19 DUP3 DUP3 PUSH2 0x250 PUSH2 0x3AE8 JUMP JUMPDEST PUSH2 0x2A35 JUMPI PUSH1 0x40 MLOAD PUSH3 0x461BCD PUSH1 0xE5 SHL DUP2 MSTORE PUSH1 0x4 ADD PUSH2 0x6EA SWAP1 PUSH2 0x491E JUMP JUMPDEST PUSH1 0x0 DUP1 MLOAD PUSH1 0x20 PUSH2 0x4AAB DUP4 CODECOPY DUP2 MLOAD SWAP2 MSTORE DUP5 EQ DUP1 PUSH2 0x2A70 JUMPI POP PUSH32 0xB85A6B22A26CE426DAEA6357C60A74CB0B4D36234CD7C96170CD6A64102786FF DUP5 EQ JUMPDEST DUP1 PUSH2 0x2A9A JUMPI POP PUSH32 0xD7381CBF120651C7BCD9CFF77AA8449385520247D98372358854435C90A30AF4 DUP5 EQ JUMPDEST PUSH2 0x2AD3 JUMPI PUSH1 0x40 MLOAD PUSH3 0x461BCD PUSH1 0xE5 SHL DUP2 MSTORE PUSH1 0x20 PUSH1 0x4 DUP3 ADD MSTORE PUSH1 0xA PUSH1 0x24 DUP3 ADD MSTORE PUSH10 0x496E76616C6964206F7 PUSH1 0xB4 SHL PUSH1 0x44 DUP3 ADD MSTORE PUSH1 0x64 ADD PUSH2 0x6EA JUMP JUMPDEST PUSH1 0x0 DUP1 DUP7 MLOAD GT SWAP1 POP PUSH1 0x0 DUP1 PUSH1 0x0 DUP1 DUP11 DUP11 DUP10 PUSH1 0x40 MLOAD PUSH1 0x20 ADD PUSH2 0x2AF6 SWAP4 SWAP3 SWAP2 SWAP1 PUSH2 0x44DF JUMP JUMPDEST PUSH1 0x40 MLOAD PUSH1 0x20 DUP2 DUP4 SUB SUB DUP2 MSTORE SWAP1 PUSH1 0x40 MSTORE DUP1 MLOAD SWAP1 PUSH1 0x20 ADD KECCAK256 SWAP1 POP PUSH1 0x0 DUP6 ISZERO PUSH2 0x2BD5 JUMPI DUP12 DUP12 PUSH1 0x0 DUP1 MLOAD PUSH1 0x20 PUSH2 0x4ACB DUP4 CODECOPY DUP2 MLOAD SWAP2 MSTORE DUP13 DUP13 PUSH1 0x40 MLOAD PUSH1 0x20 ADD PUSH2 0x2B3D SWAP6 SWAP5 SWAP4 SWAP3 SWAP2 SWAP1 PUSH2 0x454B JUMP JUMPDEST PUSH1 0x40 MLOAD PUSH1 0x20 DUP2 DUP4 SUB SUB DUP2 MSTORE SWAP1 PUSH1 0x40 MSTORE DUP1 MLOAD SWAP1 PUSH1 0x20 ADD KECCAK256 SWAP5 POP DUP12 DUP12 PUSH1 0x0 DUP1 MLOAD PUSH1 0x20 PUSH2 0x4ACB DUP4 CODECOPY DUP2 MLOAD SWAP2 MSTORE PUSH1 0x40 MLOAD PUSH1 0x20 ADD PUSH2 0x2B78 SWAP4 SWAP3 SWAP2 SWAP1 PUSH2 0x451E JUMP JUMPDEST PUSH1 0x40 MLOAD PUSH1 0x20 DUP2 DUP4 SUB SUB DUP2 MSTORE SWAP1 PUSH1 0x40 MSTORE DUP1 MLOAD SWAP1 PUSH1 0x20 ADD KECCAK256 SWAP4 POP DUP12 DUP12 PUSH1 0x40 MLOAD PUSH1 0x20 ADD PUSH2 0x2BA3 SWAP3 SWAP2 SWAP1 PUSH2 0x44B9 JUMP JUMPDEST PUSH1 0x40 DUP1 MLOAD PUSH1 0x1F NOT DUP2 DUP5 SUB ADD DUP2 MSTORE SWAP2 DUP2 MSTORE DUP2 MLOAD PUSH1 0x20 SWAP3 DUP4 ADD KECCAK256 PUSH1 0x0 DUP2 DUP2 MSTORE PUSH1 0x7 SWAP1 SWAP4 MSTORE SWAP2 KECCAK256 PUSH1 0x1 ADD SLOAD SWAP1 SWAP4 POP SWAP1 POP PUSH2 0x2C77 JUMP JUMPDEST PUSH1 0x40 DUP1 MLOAD PUSH1 0x20 DUP2 ADD DUP15 SWAP1 MSTORE PUSH1 0x0 DUP1 MLOAD PUSH1 0x20 PUSH2 0x4AEB DUP4 CODECOPY DUP2 MLOAD SWAP2 MSTORE SWAP2 DUP2 ADD SWAP2 SWAP1 SWAP2 MSTORE PUSH1 0x60 DUP1 DUP3 ADD DUP13 SWAP1 MSTORE DUP11 SWAP1 SHL PUSH1 0x1 PUSH1 0x1 PUSH1 0x60 SHL SUB NOT AND PUSH1 0x80 DUP3 ADD MSTORE PUSH1 0x94 ADD PUSH1 0x40 DUP1 MLOAD PUSH1 0x1F NOT DUP2 DUP5 SUB ADD DUP2 MSTORE DUP3 DUP3 MSTORE DUP1 MLOAD PUSH1 0x20 SWAP2 DUP3 ADD KECCAK256 SWAP1 DUP4 ADD DUP16 SWAP1 MSTORE PUSH1 0x0 DUP1 MLOAD PUSH1 0x20 PUSH2 0x4AEB DUP4 CODECOPY DUP2 MLOAD SWAP2 MSTORE SWAP2 DUP4 ADD SWAP2 SWAP1 SWAP2 MSTORE SWAP6 POP PUSH1 0x60 ADD PUSH1 0x40 DUP1 MLOAD PUSH1 0x1F NOT DUP2 DUP5 SUB ADD DUP2 MSTORE SWAP2 DUP2 MSTORE DUP2 MLOAD PUSH1 0x20 SWAP3 DUP4 ADD KECCAK256 PUSH1 0x0 DUP16 DUP2 MSTORE PUSH1 0x6 SWAP1 SWAP4 MSTORE SWAP2 KECCAK256 SLOAD SWAP1 SWAP5 POP SWAP1 POP JUMPDEST PUSH32 0xB85A6B22A26CE426DAEA6357C60A74CB0B4D36234CD7C96170CD6A64102786FF DUP11 EQ ISZERO PUSH2 0x2CF1 JUMPI PUSH1 0x0 DUP5 DUP2 MSTORE PUSH1 0x9 PUSH1 0x20 MSTORE PUSH1 0x40 SWAP1 KECCAK256 PUSH2 0x2CB7 SWAP1 DUP11 PUSH2 0x3AC6 JUMP JUMPDEST PUSH2 0x2CEC JUMPI PUSH1 0x40 MLOAD PUSH3 0x461BCD PUSH1 0xE5 SHL DUP2 MSTORE PUSH1 0x20 PUSH1 0x4 DUP3 ADD MSTORE PUSH1 0x6 PUSH1 0x24 DUP3 ADD MSTORE PUSH6 0x4E6F204B6579 PUSH1 0xD0 SHL PUSH1 0x44 DUP3 ADD MSTORE PUSH1 0x64 ADD PUSH2 0x6EA JUMP JUMPDEST PUSH2 0x2D43 JUMP JUMPDEST PUSH1 0x0 DUP5 DUP2 MSTORE PUSH1 0x9 PUSH1 0x20 MSTORE PUSH1 0x40 SWAP1 KECCAK256 PUSH2 0x2D09 SWAP1 DUP11 PUSH2 0x3AC6 JUMP JUMPDEST ISZERO PUSH2 0x2D43 JUMPI PUSH1 0x40 MLOAD PUSH3 0x461BCD PUSH1 0xE5 SHL DUP2 MSTORE PUSH1 0x20 PUSH1 0x4 DUP3 ADD MSTORE PUSH1 0xA PUSH1 0x24 DUP3 ADD MSTORE PUSH10 0x4B657920657869737473 PUSH1 0xB0 SHL PUSH1 0x44 DUP3 ADD MSTORE PUSH1 0x64 ADD PUSH2 0x6EA JUMP JUMPDEST PUSH32 0xD7381CBF120651C7BCD9CFF77AA8449385520247D98372358854435C90A30AF4 DUP11 EQ ISZERO PUSH2 0x2DE4 JUMPI PUSH2 0x2D8A PUSH2 0x2D76 PUSH2 0x3AE8 JUMP JUMPDEST PUSH1 0x0 DUP7 DUP2 MSTORE PUSH1 0x9 PUSH1 0x20 MSTORE PUSH1 0x40 SWAP1 KECCAK256 SWAP1 PUSH2 0x3AC6 JUMP JUMPDEST PUSH2 0x2DA6 JUMPI PUSH1 0x40 MLOAD PUSH3 0x461BCD PUSH1 0xE5 SHL DUP2 MSTORE PUSH1 0x4 ADD PUSH2 0x6EA SWAP1 PUSH2 0x491E JUMP JUMPDEST PUSH2 0x2DC5 PUSH2 0x2DB1 PUSH2 0x3AE8 JUMP JUMPDEST PUSH1 0x0 DUP7 DUP2 MSTORE PUSH1 0x9 PUSH1 0x20 MSTORE PUSH1 0x40 SWAP1 KECCAK256 SWAP1 PUSH2 0x3B47 JUMP JUMPDEST POP PUSH1 0x0 DUP5 DUP2 MSTORE PUSH1 0x9 PUSH1 0x20 MSTORE PUSH1 0x40 SWAP1 KECCAK256 PUSH2 0x2DDE SWAP1 DUP11 PUSH2 0x3B1C JUMP JUMPDEST POP PUSH2 0x31D8 JUMP JUMPDEST PUSH1 0x1 DUP2 GT PUSH2 0x2E32 JUMPI PUSH1 0x0 DUP1 MLOAD PUSH1 0x20 PUSH2 0x4AAB DUP4 CODECOPY DUP2 MLOAD SWAP2 MSTORE DUP11 EQ ISZERO PUSH2 0x2E1A JUMPI PUSH1 0x0 DUP5 DUP2 MSTORE PUSH1 0x9 PUSH1 0x20 MSTORE PUSH1 0x40 SWAP1 KECCAK256 PUSH2 0x2DDE SWAP1 DUP11 PUSH2 0x3B1C JUMP JUMPDEST PUSH1 0x0 DUP5 DUP2 MSTORE PUSH1 0x9 PUSH1 0x20 MSTORE PUSH1 0x40 SWAP1 KECCAK256 PUSH2 0x2DDE SWAP1 DUP11 PUSH2 0x3B47 JUMP JUMPDEST PUSH1 0x0 DUP6 DUP2 MSTORE PUSH1 0xE PUSH1 0x20 MSTORE PUSH1 0x40 SWAP1 KECCAK256 SLOAD PUSH2 0x2EDF JUMPI PUSH2 0x2E52 TIMESTAMP PUSH3 0x93A80 PUSH2 0x4997 JUMP JUMPDEST PUSH1 0x0 DUP7 DUP2 MSTORE PUSH1 0xE PUSH1 0x20 MSTORE PUSH1 0x40 SWAP1 KECCAK256 SSTORE DUP6 ISZERO PUSH2 0x2EA3 JUMPI PUSH1 0x0 DUP4 DUP2 MSTORE PUSH1 0xC PUSH1 0x20 SWAP1 DUP2 MSTORE PUSH1 0x40 DUP3 KECCAK256 DUP1 SLOAD PUSH1 0x1 DUP2 ADD DUP3 SSTORE SWAP1 DUP4 MSTORE SWAP2 KECCAK256 ADD DUP1 SLOAD PUSH1 0x1 PUSH1 0x1 PUSH1 0xA0 SHL SUB NOT AND PUSH1 0x1 PUSH1 0x1 PUSH1 0xA0 SHL SUB DUP12 AND OR SWAP1 SSTORE PUSH2 0x2F42 JUMP JUMPDEST PUSH1 0x0 DUP13 DUP2 MSTORE PUSH1 0xC PUSH1 0x20 SWAP1 DUP2 MSTORE PUSH1 0x40 DUP3 KECCAK256 DUP1 SLOAD PUSH1 0x1 DUP2 ADD DUP3 SSTORE SWAP1 DUP4 MSTORE SWAP2 KECCAK256 ADD DUP1 SLOAD PUSH1 0x1 PUSH1 0x1 PUSH1 0xA0 SHL SUB NOT AND PUSH1 0x1 PUSH1 0x1 PUSH1 0xA0 SHL SUB DUP12 AND OR SWAP1 SSTORE PUSH2 0x2F42 JUMP JUMPDEST PUSH1 0x0 DUP6 DUP2 MSTORE PUSH1 0xE PUSH1 0x20 MSTORE PUSH1 0x40 SWAP1 KECCAK256 SLOAD TIMESTAMP GT ISZERO DUP1 PUSH2 0x2F26 JUMPI POP PUSH1 0x0 DUP6 DUP2 MSTORE PUSH1 0xE PUSH1 0x20 MSTORE PUSH1 0x40 SWAP1 KECCAK256 SLOAD PUSH2 0x2F14 SWAP1 PUSH3 0x93A80 SWAP1 PUSH2 0x49CE JUMP JUMPDEST PUSH1 0x0 DUP4 DUP2 MSTORE PUSH1 0xA PUSH1 0x20 MSTORE PUSH1 0x40 SWAP1 KECCAK256 SLOAD GT ISZERO JUMPDEST PUSH2 0x2F42 JUMPI PUSH1 0x40 MLOAD PUSH3 0x461BCD PUSH1 0xE5 SHL DUP2 MSTORE PUSH1 0x4 ADD PUSH2 0x6EA SWAP1 PUSH2 0x493E JUMP JUMPDEST PUSH2 0x2F64 PUSH2 0x2F4D PUSH2 0x3AE8 JUMP JUMPDEST PUSH1 0x0 DUP8 DUP2 MSTORE PUSH1 0xE PUSH1 0x20 MSTORE PUSH1 0x40 SWAP1 KECCAK256 PUSH1 0x1 ADD SWAP1 PUSH2 0x3B1C JUMP JUMPDEST POP PUSH1 0x0 JUMPDEST PUSH1 0x0 DUP7 DUP2 MSTORE PUSH1 0xE PUSH1 0x20 MSTORE PUSH1 0x40 SWAP1 KECCAK256 PUSH2 0x2F82 SWAP1 PUSH1 0x1 ADD PUSH2 0x3B31 JUMP JUMPDEST DUP2 LT ISZERO PUSH2 0x3039 JUMPI DUP7 DUP1 ISZERO PUSH2 0x2FB6 JUMPI POP PUSH1 0x0 DUP7 DUP2 MSTORE PUSH1 0xE PUSH1 0x20 MSTORE PUSH1 0x40 SWAP1 KECCAK256 PUSH2 0x2FB4 SWAP1 DUP15 SWAP1 DUP15 SWAP1 PUSH2 0x250 SWAP1 PUSH1 0x1 ADD DUP6 PUSH2 0x3B3B JUMP JUMPDEST ISZERO JUMPDEST DUP1 PUSH2 0x2FE8 JUMPI POP DUP7 ISZERO DUP1 ISZERO PUSH2 0x2FE8 JUMPI POP PUSH1 0x0 DUP7 DUP2 MSTORE PUSH1 0xE PUSH1 0x20 MSTORE PUSH1 0x40 SWAP1 KECCAK256 PUSH2 0x2FE6 SWAP1 DUP15 SWAP1 PUSH2 0x50C SWAP1 PUSH1 0x1 ADD DUP5 PUSH2 0x3B3B JUMP JUMPDEST ISZERO JUMPDEST ISZERO PUSH2 0x3029 JUMPI PUSH1 0x0 DUP7 DUP2 MSTORE PUSH1 0xE PUSH1 0x20 MSTORE PUSH1 0x40 SWAP1 KECCAK256 PUSH2 0x3023 SWAP1 PUSH2 0x300C SWAP1 PUSH1 0x1 ADD DUP4 PUSH2 0x3B3B JUMP JUMPDEST PUSH1 0x0 DUP9 DUP2 MSTORE PUSH1 0xE PUSH1 0x20 MSTORE PUSH1 0x40 SWAP1 KECCAK256 PUSH1 0x1 ADD SWAP1 PUSH2 0x3B47 JUMP JUMPDEST POP PUSH1 0x0 SWAP1 POP JUMPDEST PUSH2 0x3032 DUP2 PUSH2 0x4A63 JUMP JUMPDEST SWAP1 POP PUSH2 0x2F68 JUMP JUMPDEST POP PUSH1 0x0 DUP6 DUP2 MSTORE PUSH1 0xE PUSH1 0x20 MSTORE PUSH1 0x40 SWAP1 KECCAK256 DUP2 SWAP1 PUSH2 0x3056 SWAP1 PUSH1 0x1 ADD PUSH2 0x3B31 JUMP JUMPDEST LT PUSH2 0x31D8 JUMPI PUSH1 0x0 DUP1 MLOAD PUSH1 0x20 PUSH2 0x4AAB DUP4 CODECOPY DUP2 MLOAD SWAP2 MSTORE DUP11 EQ ISZERO PUSH2 0x308F JUMPI PUSH1 0x0 DUP5 DUP2 MSTORE PUSH1 0x9 PUSH1 0x20 MSTORE PUSH1 0x40 SWAP1 KECCAK256 PUSH2 0x3089 SWAP1 DUP11 PUSH2 0x3B1C JUMP JUMPDEST POP PUSH2 0x31C6 JUMP JUMPDEST PUSH1 0x0 DUP5 DUP2 MSTORE PUSH1 0x9 PUSH1 0x20 MSTORE PUSH1 0x40 SWAP1 KECCAK256 PUSH2 0x30A7 SWAP1 DUP11 PUSH2 0x3B47 JUMP JUMPDEST POP PUSH1 0x0 PUSH2 0x3104 PUSH1 0x9 PUSH1 0x0 DUP16 PUSH1 0x0 DUP1 MLOAD PUSH1 0x20 PUSH2 0x4AEB DUP4 CODECOPY DUP2 MLOAD SWAP2 MSTORE PUSH1 0x40 MLOAD PUSH1 0x20 ADD PUSH2 0x30DB SWAP3 SWAP2 SWAP1 SWAP2 DUP3 MSTORE PUSH1 0x20 DUP3 ADD MSTORE PUSH1 0x40 ADD SWAP1 JUMP JUMPDEST PUSH1 0x40 MLOAD PUSH1 0x20 DUP2 DUP4 SUB SUB DUP2 MSTORE SWAP1 PUSH1 0x40 MSTORE DUP1 MLOAD SWAP1 PUSH1 0x20 ADD KECCAK256 DUP2 MSTORE PUSH1 0x20 ADD SWAP1 DUP2 MSTORE PUSH1 0x20 ADD PUSH1 0x0 KECCAK256 PUSH2 0x3B31 JUMP JUMPDEST SWAP1 POP DUP7 DUP1 ISZERO PUSH2 0x3141 JUMPI POP PUSH1 0x0 DUP6 DUP2 MSTORE PUSH1 0x9 PUSH1 0x20 MSTORE PUSH1 0x40 SWAP1 KECCAK256 DUP3 SWAP1 PUSH1 0x1 SWAP1 PUSH2 0x312A SWAP1 PUSH2 0x3B31 JUMP JUMPDEST PUSH2 0x3134 SWAP1 DUP5 PUSH2 0x4997 JUMP JUMPDEST PUSH2 0x313E SWAP2 SWAP1 PUSH2 0x49CE JUMP JUMPDEST GT ISZERO JUMPDEST ISZERO PUSH2 0x316D JUMPI PUSH1 0x0 DUP5 DUP2 MSTORE PUSH1 0x7 PUSH1 0x20 MSTORE PUSH1 0x40 DUP2 KECCAK256 PUSH1 0x1 ADD DUP1 SLOAD SWAP2 PUSH2 0x3163 DUP4 PUSH2 0x4A11 JUMP JUMPDEST SWAP2 SWAP1 POP SSTORE POP PUSH2 0x31C4 JUMP JUMPDEST DUP7 ISZERO DUP1 ISZERO PUSH2 0x319F JUMPI POP PUSH1 0x0 DUP6 DUP2 MSTORE PUSH1 0x9 PUSH1 0x20 MSTORE PUSH1 0x40 SWAP1 KECCAK256 DUP3 SWAP1 PUSH1 0x1 SWAP1 PUSH2 0x3192 SWAP1 PUSH2 0x3B31 JUMP JUMPDEST PUSH2 0x319C SWAP2 SWAP1 PUSH2 0x49CE JUMP JUMPDEST GT ISZERO JUMPDEST ISZERO PUSH2 0x31C4 JUMPI PUSH1 0x0 DUP14 DUP2 MSTORE PUSH1 0x6 PUSH1 0x20 MSTORE PUSH1 0x40 DUP2 KECCAK256 DUP1 SLOAD SWAP2 PUSH2 0x31BE DUP4 PUSH2 0x4A11 JUMP JUMPDEST SWAP2 SWAP1 POP SSTORE POP JUMPDEST POP JUMPDEST PUSH1 0x0 DUP3 DUP2 MSTORE PUSH1 0xA PUSH1 0x20 MSTORE PUSH1 0x40 SWAP1 KECCAK256 TIMESTAMP SWAP1 SSTORE JUMPDEST DUP9 PUSH1 0x1 PUSH1 0x1 PUSH1 0xA0 SHL SUB AND DUP12 PUSH1 0x40 MLOAD PUSH2 0x31F0 SWAP2 SWAP1 PUSH2 0x4593 JUMP JUMPDEST PUSH1 0x40 MLOAD DUP1 SWAP2 SUB SWAP1 KECCAK256 DUP14 PUSH32 0xA8CEA71B77054741D93AC504E0EE90FA3E815D68104468D65F9EB36924A8D590 PUSH2 0x3222 PUSH2 0x3AE8 JUMP JUMPDEST PUSH1 0x0 DUP11 DUP2 MSTORE PUSH1 0xE PUSH1 0x20 MSTORE PUSH1 0x40 SWAP1 KECCAK256 DUP16 SWAP1 PUSH2 0x323E SWAP1 PUSH1 0x1 ADD PUSH2 0x3B31 JUMP JUMPDEST PUSH1 0x40 DUP1 MLOAD PUSH1 0x1 PUSH1 0x1 PUSH1 0xA0 SHL SUB SWAP1 SWAP5 AND DUP5 MSTORE PUSH1 0x20 DUP5 ADD SWAP3 SWAP1 SWAP3 MSTORE SWAP1 DUP3 ADD MSTORE PUSH1 0x60 DUP2 ADD DUP7 SWAP1 MSTORE PUSH1 0x80 ADD PUSH1 0x40 MLOAD DUP1 SWAP2 SUB SWAP1 LOG4 POP POP POP POP POP POP POP POP POP POP POP POP JUMP JUMPDEST PUSH1 0x60 PUSH1 0x0 DUP3 PUSH2 0x328A DUP6 DUP3 PUSH2 0x49AF JUMP JUMPDEST PUSH2 0x3294 SWAP2 SWAP1 PUSH2 0x49CE JUMP JUMPDEST SWAP1 POP PUSH1 0x0 PUSH2 0x32A2 DUP5 DUP7 PUSH2 0x49AF JUMP JUMPDEST PUSH1 0x0 DUP8 DUP2 MSTORE PUSH1 0x7 PUSH1 0x20 MSTORE PUSH1 0x40 SWAP1 KECCAK256 PUSH1 0x4 ADD SLOAD SWAP1 SWAP2 POP DUP2 GT ISZERO PUSH2 0x32D2 JUMPI POP PUSH1 0x0 DUP6 DUP2 MSTORE PUSH1 0x7 PUSH1 0x20 MSTORE PUSH1 0x40 SWAP1 KECCAK256 PUSH1 0x4 ADD SLOAD JUMPDEST PUSH1 0x0 DUP5 PUSH1 0x1 PUSH1 0x1 PUSH1 0x40 SHL SUB DUP2 GT ISZERO PUSH2 0x32FA JUMPI PUSH4 0x4E487B71 PUSH1 0xE0 SHL PUSH1 0x0 MSTORE PUSH1 0x41 PUSH1 0x4 MSTORE PUSH1 0x24 PUSH1 0x0 REVERT JUMPDEST PUSH1 0x40 MLOAD SWAP1 DUP1 DUP3 MSTORE DUP1 PUSH1 0x20 MUL PUSH1 0x20 ADD DUP3 ADD PUSH1 0x40 MSTORE DUP1 ISZERO PUSH2 0x332D JUMPI DUP2 PUSH1 0x20 ADD JUMPDEST PUSH1 0x60 DUP2 MSTORE PUSH1 0x20 ADD SWAP1 PUSH1 0x1 SWAP1 SUB SWAP1 DUP2 PUSH2 0x3318 JUMPI SWAP1 POP JUMPDEST POP SWAP1 POP JUMPDEST DUP2 DUP4 LT ISZERO PUSH2 0x182D JUMPI PUSH1 0x0 DUP8 DUP2 MSTORE PUSH1 0x7 PUSH1 0x20 MSTORE PUSH1 0x40 SWAP1 KECCAK256 PUSH1 0x4 ADD DUP1 SLOAD DUP5 SWAP1 DUP2 LT PUSH2 0x336A JUMPI PUSH4 0x4E487B71 PUSH1 0xE0 SHL PUSH1 0x0 MSTORE PUSH1 0x32 PUSH1 0x4 MSTORE PUSH1 0x24 PUSH1 0x0 REVERT JUMPDEST SWAP1 PUSH1 0x0 MSTORE PUSH1 0x20 PUSH1 0x0 KECCAK256 ADD DUP1 SLOAD PUSH2 0x337F SWAP1 PUSH2 0x4A28 JUMP JUMPDEST DUP1 PUSH1 0x1F ADD PUSH1 0x20 DUP1 SWAP2 DIV MUL PUSH1 0x20 ADD PUSH1 0x40 MLOAD SWAP1 DUP2 ADD PUSH1 0x40 MSTORE DUP1 SWAP3 SWAP2 SWAP1 DUP2 DUP2 MSTORE PUSH1 0x20 ADD DUP3 DUP1 SLOAD PUSH2 0x33AB SWAP1 PUSH2 0x4A28 JUMP JUMPDEST DUP1 ISZERO PUSH2 0x33F8 JUMPI DUP1 PUSH1 0x1F LT PUSH2 0x33CD JUMPI PUSH2 0x100 DUP1 DUP4 SLOAD DIV MUL DUP4 MSTORE SWAP2 PUSH1 0x20 ADD SWAP2 PUSH2 0x33F8 JUMP JUMPDEST DUP3 ADD SWAP2 SWAP1 PUSH1 0x0 MSTORE PUSH1 0x20 PUSH1 0x0 KECCAK256 SWAP1 JUMPDEST DUP2 SLOAD DUP2 MSTORE SWAP1 PUSH1 0x1 ADD SWAP1 PUSH1 0x20 ADD DUP1 DUP4 GT PUSH2 0x33DB JUMPI DUP3 SWAP1 SUB PUSH1 0x1F AND DUP3 ADD SWAP2 JUMPDEST POP POP POP POP POP DUP2 DUP5 DUP2 MLOAD DUP2 LT PUSH2 0x341D JUMPI PUSH4 0x4E487B71 PUSH1 0xE0 SHL PUSH1 0x0 MSTORE PUSH1 0x32 PUSH1 0x4 MSTORE PUSH1 0x24 PUSH1 0x0 REVERT JUMPDEST PUSH1 0x20 MUL PUSH1 0x20 ADD ADD DUP2 SWAP1 MSTORE POP DUP3 PUSH2 0x3432 SWAP1 PUSH2 0x4A63 JUMP JUMPDEST SWAP3 POP PUSH2 0x3331 JUMP JUMPDEST PUSH1 0x8 PUSH1 0x20 MSTORE PUSH1 0x0 SWAP1 DUP2 MSTORE PUSH1 0x40 SWAP1 KECCAK256 DUP1 SLOAD DUP2 SWAP1 PUSH2 0x3454 SWAP1 PUSH2 0x4A28 JUMP JUMPDEST DUP1 PUSH1 0x1F ADD PUSH1 0x20 DUP1 SWAP2 DIV MUL PUSH1 0x20 ADD PUSH1 0x40 MLOAD SWAP1 DUP2 ADD PUSH1 0x40 MSTORE DUP1 SWAP3 SWAP2 SWAP1 DUP2 DUP2 MSTORE PUSH1 0x20 ADD DUP3 DUP1 SLOAD PUSH2 0x3480 SWAP1 PUSH2 0x4A28 JUMP JUMPDEST DUP1 ISZERO PUSH2 0x34CD JUMPI DUP1 PUSH1 0x1F LT PUSH2 0x34A2 JUMPI PUSH2 0x100 DUP1 DUP4 SLOAD DIV MUL DUP4 MSTORE SWAP2 PUSH1 0x20 ADD SWAP2 PUSH2 0x34CD JUMP JUMPDEST DUP3 ADD SWAP2 SWAP1 PUSH1 0x0 MSTORE PUSH1 0x20 PUSH1 0x0 KECCAK256 SWAP1 JUMPDEST DUP2 SLOAD DUP2 MSTORE SWAP1 PUSH1 0x1 ADD SWAP1 PUSH1 0x20 ADD DUP1 DUP4 GT PUSH2 0x34B0 JUMPI DUP3 SWAP1 SUB PUSH1 0x1F AND DUP3 ADD SWAP2 JUMPDEST POP POP POP POP POP SWAP1 DUP1 PUSH1 0x1 ADD DUP1 SLOAD PUSH2 0x34E2 SWAP1 PUSH2 0x4A28 JUMP JUMPDEST DUP1 PUSH1 0x1F ADD PUSH1 0x20 DUP1 SWAP2 DIV MUL PUSH1 0x20 ADD PUSH1 0x40 MLOAD SWAP1 DUP2 ADD PUSH1 0x40 MSTORE DUP1 SWAP3 SWAP2 SWAP1 DUP2 DUP2 MSTORE PUSH1 0x20 ADD DUP3 DUP1 SLOAD PUSH2 0x350E SWAP1 PUSH2 0x4A28 JUMP JUMPDEST DUP1 ISZERO PUSH2 0x355B JUMPI DUP1 PUSH1 0x1F LT PUSH2 0x3530 JUMPI PUSH2 0x100 DUP1 DUP4 SLOAD DIV MUL DUP4 MSTORE SWAP2 PUSH1 0x20 ADD SWAP2 PUSH2 0x355B JUMP JUMPDEST DUP3 ADD SWAP2 SWAP1 PUSH1 0x0 MSTORE PUSH1 0x20 PUSH1 0x0 KECCAK256 SWAP1 JUMPDEST DUP2 SLOAD DUP2 MSTORE SWAP1 PUSH1 0x1 ADD SWAP1 PUSH1 0x20 ADD DUP1 DUP4 GT PUSH2 0x353E JUMPI DUP3 SWAP1 SUB PUSH1 0x1F AND DUP3 ADD SWAP2 JUMPDEST POP POP POP POP POP SWAP1 POP DUP3 JUMP JUMPDEST DUP3 DUP3 PUSH2 0x3574 DUP3 DUP3 PUSH2 0x250 PUSH2 0x3AE8 JUMP JUMPDEST PUSH2 0x3590 JUMPI PUSH1 0x40 MLOAD PUSH3 0x461BCD PUSH1 0xE5 SHL DUP2 MSTORE PUSH1 0x4 ADD PUSH2 0x6EA SWAP1 PUSH2 0x491E JUMP JUMPDEST PUSH1 0x0 DUP1 DUP6 MLOAD GT SWAP1 POP PUSH1 0x0 DUP7 DUP7 PUSH1 0x40 MLOAD PUSH1 0x20 ADD PUSH2 0x35AD SWAP3 SWAP2 SWAP1 PUSH2 0x44B9 JUMP JUMPDEST PUSH1 0x40 MLOAD PUSH1 0x20 DUP2 DUP4 SUB SUB DUP2 MSTORE SWAP1 PUSH1 0x40 MSTORE DUP1 MLOAD SWAP1 PUSH1 0x20 ADD KECCAK256 SWAP1 POP PUSH1 0x0 DUP1 DUP4 ISZERO PUSH2 0x35E9 JUMPI POP POP PUSH1 0x0 DUP2 DUP2 MSTORE PUSH1 0x7 PUSH1 0x20 MSTORE PUSH1 0x40 SWAP1 KECCAK256 PUSH1 0x1 ADD SLOAD DUP2 SWAP1 PUSH2 0x35FD JUMP JUMPDEST POP POP PUSH1 0x0 DUP8 DUP2 MSTORE PUSH1 0x6 PUSH1 0x20 MSTORE PUSH1 0x40 SWAP1 KECCAK256 SLOAD DUP8 SWAP1 JUMPDEST DUP1 DUP8 EQ ISZERO PUSH2 0x363D JUMPI PUSH1 0x40 MLOAD PUSH3 0x461BCD PUSH1 0xE5 SHL DUP2 MSTORE PUSH1 0x20 PUSH1 0x4 DUP3 ADD MSTORE PUSH1 0xD PUSH1 0x24 DUP3 ADD MSTORE PUSH13 0x151A1C995CDA1BDB19081CD95D PUSH1 0x9A SHL PUSH1 0x44 DUP3 ADD MSTORE PUSH1 0x64 ADD PUSH2 0x6EA JUMP JUMPDEST PUSH1 0x0 DUP10 DUP10 DUP10 PUSH1 0x40 MLOAD PUSH1 0x20 ADD PUSH2 0x3654 SWAP4 SWAP3 SWAP2 SWAP1 PUSH2 0x451E JUMP JUMPDEST PUSH1 0x40 MLOAD PUSH1 0x20 DUP2 DUP4 SUB SUB DUP2 MSTORE SWAP1 PUSH1 0x40 MSTORE DUP1 MLOAD SWAP1 PUSH1 0x20 ADD KECCAK256 SWAP1 POP PUSH2 0x368E PUSH2 0x3677 PUSH2 0x3AE8 JUMP JUMPDEST PUSH1 0x0 DUP4 DUP2 MSTORE PUSH1 0xE PUSH1 0x20 MSTORE PUSH1 0x40 SWAP1 KECCAK256 PUSH1 0x1 ADD SWAP1 PUSH2 0x3AC6 JUMP JUMPDEST ISZERO PUSH2 0x36C8 JUMPI PUSH1 0x40 MLOAD PUSH3 0x461BCD PUSH1 0xE5 SHL DUP2 MSTORE PUSH1 0x20 PUSH1 0x4 DUP3 ADD MSTORE PUSH1 0xA PUSH1 0x24 DUP3 ADD MSTORE PUSH10 0x155CD95C881D9BDD1959 PUSH1 0xB2 SHL PUSH1 0x44 DUP3 ADD MSTORE PUSH1 0x64 ADD PUSH2 0x6EA JUMP JUMPDEST DUP5 DUP1 ISZERO PUSH2 0x3745 JUMPI POP PUSH1 0x1 PUSH2 0x3703 PUSH1 0x9 PUSH1 0x0 DUP14 PUSH1 0x0 DUP1 MLOAD PUSH1 0x20 PUSH2 0x4AEB DUP4 CODECOPY DUP2 MLOAD SWAP2 MSTORE PUSH1 0x40 MLOAD PUSH1 0x20 ADD PUSH2 0x30DB SWAP3 SWAP2 SWAP1 SWAP2 DUP3 MSTORE PUSH1 0x20 DUP3 ADD MSTORE PUSH1 0x40 ADD SWAP1 JUMP JUMPDEST PUSH2 0x372D PUSH1 0x9 PUSH1 0x0 DUP15 DUP15 PUSH1 0x0 DUP1 MLOAD PUSH1 0x20 PUSH2 0x4ACB DUP4 CODECOPY DUP2 MLOAD SWAP2 MSTORE PUSH1 0x40 MLOAD PUSH1 0x20 ADD PUSH2 0x30DB SWAP4 SWAP3 SWAP2 SWAP1 PUSH2 0x451E JUMP JUMPDEST PUSH2 0x3737 SWAP2 SWAP1 PUSH2 0x4997 JUMP JUMPDEST PUSH2 0x3741 SWAP2 SWAP1 PUSH2 0x49CE JUMP JUMPDEST DUP9 GT ISZERO JUMPDEST DUP1 PUSH2 0x3795 JUMPI POP DUP5 ISZERO DUP1 ISZERO PUSH2 0x3795 JUMPI POP PUSH1 0x1 PUSH2 0x3787 PUSH1 0x9 PUSH1 0x0 DUP14 PUSH1 0x0 DUP1 MLOAD PUSH1 0x20 PUSH2 0x4AEB DUP4 CODECOPY DUP2 MLOAD SWAP2 MSTORE PUSH1 0x40 MLOAD PUSH1 0x20 ADD PUSH2 0x30DB SWAP3 SWAP2 SWAP1 SWAP2 DUP3 MSTORE PUSH1 0x20 DUP3 ADD MSTORE PUSH1 0x40 ADD SWAP1 JUMP JUMPDEST PUSH2 0x3791 SWAP2 SWAP1 PUSH2 0x49CE JUMP JUMPDEST DUP9 GT ISZERO JUMPDEST PUSH2 0x37D6 JUMPI PUSH1 0x40 MLOAD PUSH3 0x461BCD PUSH1 0xE5 SHL DUP2 MSTORE PUSH1 0x20 PUSH1 0x4 DUP3 ADD MSTORE PUSH1 0x12 PUSH1 0x24 DUP3 ADD MSTORE PUSH18 0x4E6F7420656E6F756768206D656D62657273 PUSH1 0x70 SHL PUSH1 0x44 DUP3 ADD MSTORE PUSH1 0x64 ADD PUSH2 0x6EA JUMP JUMPDEST PUSH1 0x0 DUP2 DUP2 MSTORE PUSH1 0xE PUSH1 0x20 MSTORE PUSH1 0x40 SWAP1 KECCAK256 SLOAD PUSH2 0x382C JUMPI PUSH2 0x37F6 TIMESTAMP PUSH3 0x93A80 PUSH2 0x4997 JUMP JUMPDEST PUSH1 0x0 DUP3 DUP2 MSTORE PUSH1 0xE PUSH1 0x20 SWAP1 DUP2 MSTORE PUSH1 0x40 DUP1 DUP4 KECCAK256 SWAP4 SWAP1 SWAP4 SSTORE DUP6 DUP3 MSTORE PUSH1 0xD DUP2 MSTORE SWAP2 DUP2 KECCAK256 DUP1 SLOAD PUSH1 0x1 DUP2 ADD DUP3 SSTORE SWAP1 DUP3 MSTORE SWAP2 SWAP1 KECCAK256 ADD DUP9 SWAP1 SSTORE PUSH2 0x38DB JUMP JUMPDEST PUSH1 0x0 DUP2 DUP2 MSTORE PUSH1 0xE PUSH1 0x20 MSTORE PUSH1 0x40 SWAP1 KECCAK256 SLOAD TIMESTAMP GT ISZERO DUP1 PUSH2 0x387E JUMPI POP DUP5 DUP1 ISZERO PUSH2 0x387E JUMPI POP PUSH1 0x0 DUP2 DUP2 MSTORE PUSH1 0xE PUSH1 0x20 MSTORE PUSH1 0x40 SWAP1 KECCAK256 SLOAD PUSH2 0x3869 SWAP1 PUSH3 0x93A80 SWAP1 PUSH2 0x49CE JUMP JUMPDEST PUSH1 0x0 DUP6 DUP2 MSTORE PUSH1 0x7 PUSH1 0x20 MSTORE PUSH1 0x40 SWAP1 KECCAK256 PUSH1 0x2 ADD SLOAD GT ISZERO JUMPDEST DUP1 PUSH2 0x38BF JUMPI POP DUP5 ISZERO DUP1 ISZERO PUSH2 0x38BF JUMPI POP PUSH1 0x0 DUP2 DUP2 MSTORE PUSH1 0xE PUSH1 0x20 MSTORE PUSH1 0x40 SWAP1 KECCAK256 SLOAD PUSH2 0x38AA SWAP1 PUSH3 0x93A80 SWAP1 PUSH2 0x49CE JUMP JUMPDEST PUSH1 0x0 DUP12 DUP2 MSTORE PUSH1 0x6 PUSH1 0x20 MSTORE PUSH1 0x40 SWAP1 KECCAK256 PUSH1 0x1 ADD SLOAD GT ISZERO JUMPDEST PUSH2 0x38DB JUMPI PUSH1 0x40 MLOAD PUSH3 0x461BCD PUSH1 0xE5 SHL DUP2 MSTORE PUSH1 0x4 ADD PUSH2 0x6EA SWAP1 PUSH2 0x493E JUMP JUMPDEST PUSH2 0x38FD PUSH2 0x38E6 PUSH2 0x3AE8 JUMP JUMPDEST PUSH1 0x0 DUP4 DUP2 MSTORE PUSH1 0xE PUSH1 0x20 MSTORE PUSH1 0x40 SWAP1 KECCAK256 PUSH1 0x1 ADD SWAP1 PUSH2 0x3B1C JUMP JUMPDEST POP PUSH1 0x0 JUMPDEST PUSH1 0x0 DUP3 DUP2 MSTORE PUSH1 0xE PUSH1 0x20 MSTORE PUSH1 0x40 SWAP1 KECCAK256 PUSH2 0x391B SWAP1 PUSH1 0x1 ADD PUSH2 0x3B31 JUMP JUMPDEST DUP2 LT ISZERO PUSH2 0x39BB JUMPI DUP6 DUP1 ISZERO PUSH2 0x394F JUMPI POP PUSH1 0x0 DUP3 DUP2 MSTORE PUSH1 0xE PUSH1 0x20 MSTORE PUSH1 0x40 SWAP1 KECCAK256 PUSH2 0x394D SWAP1 DUP13 SWAP1 DUP13 SWAP1 PUSH2 0x250 SWAP1 PUSH1 0x1 ADD DUP6 PUSH2 0x3B3B JUMP JUMPDEST ISZERO JUMPDEST DUP1 PUSH2 0x3981 JUMPI POP DUP6 ISZERO DUP1 ISZERO PUSH2 0x3981 JUMPI POP PUSH1 0x0 DUP3 DUP2 MSTORE PUSH1 0xE PUSH1 0x20 MSTORE PUSH1 0x40 SWAP1 KECCAK256 PUSH2 0x397F SWAP1 DUP13 SWAP1 PUSH2 0x50C SWAP1 PUSH1 0x1 ADD DUP5 PUSH2 0x3B3B JUMP JUMPDEST ISZERO JUMPDEST ISZERO PUSH2 0x39AB JUMPI PUSH1 0x0 DUP3 DUP2 MSTORE PUSH1 0xE PUSH1 0x20 MSTORE PUSH1 0x40 SWAP1 KECCAK256 PUSH2 0x39A5 SWAP1 PUSH2 0x20C1 SWAP1 PUSH1 0x1 ADD DUP4 PUSH2 0x3B3B JUMP JUMPDEST POP PUSH1 0x0 SWAP1 POP JUMPDEST PUSH2 0x39B4 DUP2 PUSH2 0x4A63 JUMP JUMPDEST SWAP1 POP PUSH2 0x3901 JUMP JUMPDEST POP PUSH1 0x0 DUP2 DUP2 MSTORE PUSH1 0xE PUSH1 0x20 MSTORE PUSH1 0x40 SWAP1 KECCAK256 DUP3 SWAP1 PUSH2 0x39D8 SWAP1 PUSH1 0x1 ADD PUSH2 0x3B31 JUMP JUMPDEST LT ISZERO DUP1 ISZERO PUSH2 0x3A00 JUMPI POP PUSH1 0x0 DUP2 DUP2 MSTORE PUSH1 0xE PUSH1 0x20 MSTORE PUSH1 0x40 SWAP1 KECCAK256 DUP9 SWAP1 PUSH2 0x39FD SWAP1 PUSH1 0x1 ADD PUSH2 0x3B31 JUMP JUMPDEST LT ISZERO JUMPDEST ISZERO PUSH2 0x3A45 JUMPI DUP5 ISZERO PUSH2 0x3A2C JUMPI PUSH1 0x0 DUP5 DUP2 MSTORE PUSH1 0x7 PUSH1 0x20 MSTORE PUSH1 0x40 SWAP1 KECCAK256 PUSH1 0x1 DUP2 ADD DUP10 SWAP1 SSTORE TIMESTAMP PUSH1 0x2 SWAP1 SWAP2 ADD SSTORE PUSH2 0x3A45 JUMP JUMPDEST PUSH1 0x0 DUP11 DUP2 MSTORE PUSH1 0x6 PUSH1 0x20 MSTORE PUSH1 0x40 SWAP1 KECCAK256 DUP9 DUP2 SSTORE TIMESTAMP PUSH1 0x1 SWAP1 SWAP2 ADD SSTORE JUMPDEST DUP8 DUP10 PUSH1 0x40 MLOAD PUSH2 0x3A54 SWAP2 SWAP1 PUSH2 0x4593 JUMP JUMPDEST PUSH1 0x40 MLOAD DUP1 SWAP2 SUB SWAP1 KECCAK256 DUP12 PUSH32 0x2DAAD345BBC18B1FA8A7F542403081DF42C546DD841A44507D53E174E761CE89 PUSH2 0x3A86 PUSH2 0x3AE8 JUMP JUMPDEST PUSH1 0x0 DUP7 DUP2 MSTORE PUSH1 0xE PUSH1 0x20 MSTORE PUSH1 0x40 SWAP1 KECCAK256 PUSH2 0x3AA0 SWAP1 PUSH1 0x1 ADD PUSH2 0x3B31 JUMP JUMPDEST PUSH1 0x40 DUP1 MLOAD PUSH1 0x1 PUSH1 0x1 PUSH1 0xA0 SHL SUB SWAP1 SWAP4 AND DUP4 MSTORE PUSH1 0x20 DUP4 ADD SWAP2 SWAP1 SWAP2 MSTORE DUP2 ADD DUP8 SWAP1 MSTORE PUSH1 0x60 ADD PUSH2 0xE94 JUMP JUMPDEST PUSH1 0x1 PUSH1 0x1 PUSH1 0xA0 SHL SUB DUP2 AND PUSH1 0x0 SWAP1 DUP2 MSTORE PUSH1 0x1 DUP4 ADD PUSH1 0x20 MSTORE PUSH1 0x40 DUP2 KECCAK256 SLOAD ISZERO ISZERO PUSH2 0x76E JUMP JUMPDEST PUSH1 0x0 PUSH1 0x14 CALLDATASIZE LT DUP1 ISZERO SWAP1 PUSH2 0x3B05 JUMPI POP PUSH1 0x0 SLOAD PUSH1 0x1 PUSH1 0x1 PUSH1 0xA0 SHL SUB AND CALLER EQ JUMPDEST ISZERO PUSH2 0x3B17 JUMPI POP PUSH1 0x13 NOT CALLDATASIZE ADD CALLDATALOAD PUSH1 0x60 SHR SWAP1 JUMP JUMPDEST POP CALLER SWAP1 JUMP JUMPDEST PUSH1 0x0 PUSH2 0x76E DUP4 PUSH1 0x1 PUSH1 0x1 PUSH1 0xA0 SHL SUB DUP5 AND PUSH2 0x3B5C JUMP JUMPDEST PUSH1 0x0 PUSH2 0x1F30 DUP3 SLOAD SWAP1 JUMP JUMPDEST PUSH1 0x0 PUSH2 0x76E DUP4 DUP4 PUSH2 0x3BAB JUMP JUMPDEST PUSH1 0x0 PUSH2 0x76E DUP4 PUSH1 0x1 PUSH1 0x1 PUSH1 0xA0 SHL SUB DUP5 AND PUSH2 0x3C3F JUMP JUMPDEST PUSH1 0x0 DUP2 DUP2 MSTORE PUSH1 0x1 DUP4 ADD PUSH1 0x20 MSTORE PUSH1 0x40 DUP2 KECCAK256 SLOAD PUSH2 0x3BA3 JUMPI POP DUP2 SLOAD PUSH1 0x1 DUP2 DUP2 ADD DUP5 SSTORE PUSH1 0x0 DUP5 DUP2 MSTORE PUSH1 0x20 DUP1 DUP3 KECCAK256 SWAP1 SWAP4 ADD DUP5 SWAP1 SSTORE DUP5 SLOAD DUP5 DUP3 MSTORE DUP3 DUP7 ADD SWAP1 SWAP4 MSTORE PUSH1 0x40 SWAP1 KECCAK256 SWAP2 SWAP1 SWAP2 SSTORE PUSH2 0x1F30 JUMP JUMPDEST POP PUSH1 0x0 PUSH2 0x1F30 JUMP JUMPDEST DUP2 SLOAD PUSH1 0x0 SWAP1 DUP3 LT PUSH2 0x3C09 JUMPI PUSH1 0x40 MLOAD PUSH3 0x461BCD PUSH1 0xE5 SHL DUP2 MSTORE PUSH1 0x20 PUSH1 0x4 DUP3 ADD MSTORE PUSH1 0x22 PUSH1 0x24 DUP3 ADD MSTORE PUSH32 0x456E756D657261626C655365743A20696E646578206F7574206F6620626F756E PUSH1 0x44 DUP3 ADD MSTORE PUSH2 0x6473 PUSH1 0xF0 SHL PUSH1 0x64 DUP3 ADD MSTORE PUSH1 0x84 ADD PUSH2 0x6EA JUMP JUMPDEST DUP3 PUSH1 0x0 ADD DUP3 DUP2 SLOAD DUP2 LT PUSH2 0x3C2C JUMPI PUSH4 0x4E487B71 PUSH1 0xE0 SHL PUSH1 0x0 MSTORE PUSH1 0x32 PUSH1 0x4 MSTORE PUSH1 0x24 PUSH1 0x0 REVERT JUMPDEST SWAP1 PUSH1 0x0 MSTORE PUSH1 0x20 PUSH1 0x0 KECCAK256 ADD SLOAD SWAP1 POP SWAP3 SWAP2 POP POP JUMP JUMPDEST PUSH1 0x0 DUP2 DUP2 MSTORE PUSH1 0x1 DUP4 ADD PUSH1 0x20 MSTORE PUSH1 0x40 DUP2 KECCAK256 SLOAD DUP1 ISZERO PUSH2 0x3D4C JUMPI PUSH1 0x0 PUSH2 0x3C63 PUSH1 0x1 DUP4 PUSH2 0x49CE JUMP JUMPDEST DUP6 SLOAD SWAP1 SWAP2 POP PUSH1 0x0 SWAP1 PUSH2 0x3C77 SWAP1 PUSH1 0x1 SWAP1 PUSH2 0x49CE JUMP JUMPDEST SWAP1 POP PUSH1 0x0 DUP7 PUSH1 0x0 ADD DUP3 DUP2 SLOAD DUP2 LT PUSH2 0x3C9E JUMPI PUSH4 0x4E487B71 PUSH1 0xE0 SHL PUSH1 0x0 MSTORE PUSH1 0x32 PUSH1 0x4 MSTORE PUSH1 0x24 PUSH1 0x0 REVERT JUMPDEST SWAP1 PUSH1 0x0 MSTORE PUSH1 0x20 PUSH1 0x0 KECCAK256 ADD SLOAD SWAP1 POP DUP1 DUP8 PUSH1 0x0 ADD DUP5 DUP2 SLOAD DUP2 LT PUSH2 0x3CCF JUMPI PUSH4 0x4E487B71 PUSH1 0xE0 SHL PUSH1 0x0 MSTORE PUSH1 0x32 PUSH1 0x4 MSTORE PUSH1 0x24 PUSH1 0x0 REVERT JUMPDEST PUSH1 0x0 SWAP2 DUP3 MSTORE PUSH1 0x20 DUP1 DUP4 KECCAK256 SWAP1 SWAP2 ADD SWAP3 SWAP1 SWAP3 SSTORE DUP3 DUP2 MSTORE PUSH1 0x1 DUP10 ADD SWAP1 SWAP2 MSTORE PUSH1 0x40 SWAP1 KECCAK256 DUP5 SWAP1 SSTORE DUP7 SLOAD DUP8 SWAP1 DUP1 PUSH2 0x3D10 JUMPI PUSH4 0x4E487B71 PUSH1 0xE0 SHL PUSH1 0x0 MSTORE PUSH1 0x31 PUSH1 0x4 MSTORE PUSH1 0x24 PUSH1 0x0 REVERT JUMPDEST PUSH1 0x1 SWAP1 SUB DUP2 DUP2 SWAP1 PUSH1 0x0 MSTORE PUSH1 0x20 PUSH1 0x0 KECCAK256 ADD PUSH1 0x0 SWAP1 SSTORE SWAP1 SSTORE DUP7 PUSH1 0x1 ADD PUSH1 0x0 DUP8 DUP2 MSTORE PUSH1 0x20 ADD SWAP1 DUP2 MSTORE PUSH1 0x20 ADD PUSH1 0x0 KECCAK256 PUSH1 0x0 SWAP1 SSTORE PUSH1 0x1 SWAP5 POP POP POP POP POP PUSH2 0x1F30 JUMP JUMPDEST PUSH1 0x0 SWAP2 POP POP PUSH2 0x1F30 JUMP JUMPDEST DUP3 DUP1 SLOAD PUSH2 0x3D62 SWAP1 PUSH2 0x4A28 JUMP JUMPDEST SWAP1 PUSH1 0x0 MSTORE PUSH1 0x20 PUSH1 0x0 KECCAK256 SWAP1 PUSH1 0x1F ADD PUSH1 0x20 SWAP1 DIV DUP2 ADD SWAP3 DUP3 PUSH2 0x3D84 JUMPI PUSH1 0x0 DUP6 SSTORE PUSH2 0x3DCA JUMP JUMPDEST DUP3 PUSH1 0x1F LT PUSH2 0x3D9D JUMPI DUP1 MLOAD PUSH1 0xFF NOT AND DUP4 DUP1 ADD OR DUP6 SSTORE PUSH2 0x3DCA JUMP JUMPDEST DUP3 DUP1 ADD PUSH1 0x1 ADD DUP6 SSTORE DUP3 ISZERO PUSH2 0x3DCA JUMPI SWAP2 DUP3 ADD JUMPDEST DUP3 DUP2 GT ISZERO PUSH2 0x3DCA JUMPI DUP3 MLOAD DUP3 SSTORE SWAP2 PUSH1 0x20 ADD SWAP2 SWAP1 PUSH1 0x1 ADD SWAP1 PUSH2 0x3DAF JUMP JUMPDEST POP PUSH2 0x3DD6 SWAP3 SWAP2 POP PUSH2 0x3E92 JUMP JUMPDEST POP SWAP1 JUMP JUMPDEST DUP3 DUP1 SLOAD PUSH2 0x3DE6 SWAP1 PUSH2 0x4A28 JUMP JUMPDEST SWAP1 PUSH1 0x0 MSTORE PUSH1 0x20 PUSH1 0x0 KECCAK256 SWAP1 PUSH1 0x1F ADD PUSH1 0x20 SWAP1 DIV DUP2 ADD SWAP3 DUP3 PUSH2 0x3E08 JUMPI PUSH1 0x0 DUP6 SSTORE PUSH2 0x3DCA JUMP JUMPDEST DUP3 PUSH1 0x1F LT PUSH2 0x3E19 JUMPI DUP1 SLOAD DUP6 SSTORE PUSH2 0x3DCA JUMP JUMPDEST DUP3 DUP1 ADD PUSH1 0x1 ADD DUP6 SSTORE DUP3 ISZERO PUSH2 0x3DCA JUMPI PUSH1 0x0 MSTORE PUSH1 0x20 PUSH1 0x0 KECCAK256 SWAP2 PUSH1 0x1F ADD PUSH1 0x20 SWAP1 DIV DUP3 ADD JUMPDEST DUP3 DUP2 GT ISZERO PUSH2 0x3DCA JUMPI DUP3 SLOAD DUP3 SSTORE SWAP2 PUSH1 0x1 ADD SWAP2 SWAP1 PUSH1 0x1 ADD SWAP1 PUSH2 0x3E3A JUMP JUMPDEST POP DUP1 SLOAD PUSH2 0x3E61 SWAP1 PUSH2 0x4A28 JUMP JUMPDEST PUSH1 0x0 DUP3 SSTORE DUP1 PUSH1 0x1F LT PUSH2 0x3E71 JUMPI POP POP JUMP JUMPDEST PUSH1 0x1F ADD PUSH1 0x20 SWAP1 DIV SWAP1 PUSH1 0x0 MSTORE PUSH1 0x20 PUSH1 0x0 KECCAK256 SWAP1 DUP2 ADD SWAP1 PUSH2 0x3E8F SWAP2 SWAP1 PUSH2 0x3E92 JUMP JUMPDEST POP JUMP JUMPDEST JUMPDEST DUP1 DUP3 GT ISZERO PUSH2 0x3DD6 JUMPI PUSH1 0x0 DUP2 SSTORE PUSH1 0x1 ADD PUSH2 0x3E93 JUMP JUMPDEST DUP1 CALLDATALOAD PUSH1 0x1 PUSH1 0x1 PUSH1 0xA0 SHL SUB DUP2 AND DUP2 EQ PUSH2 0x3EBE JUMPI PUSH1 0x0 DUP1 REVERT JUMPDEST SWAP2 SWAP1 POP JUMP JUMPDEST PUSH1 0x0 DUP3 PUSH1 0x1F DUP4 ADD SLT PUSH2 0x3ED3 JUMPI DUP1 DUP2 REVERT JUMPDEST DUP2 CALLDATALOAD PUSH1 0x1 PUSH1 0x1 PUSH1 0x40 SHL SUB DUP1 DUP3 GT ISZERO PUSH2 0x3EED JUMPI PUSH2 0x3EED PUSH2 0x4A94 JUMP JUMPDEST PUSH1 0x40 MLOAD PUSH1 0x1F DUP4 ADD PUSH1 0x1F NOT SWAP1 DUP2 AND PUSH1 0x3F ADD AND DUP2 ADD SWAP1 DUP3 DUP3 GT DUP2 DUP4 LT OR ISZERO PUSH2 0x3F15 JUMPI PUSH2 0x3F15 PUSH2 0x4A94 JUMP JUMPDEST DUP2 PUSH1 0x40 MSTORE DUP4 DUP2 MSTORE DUP7 PUSH1 0x20 DUP6 DUP9 ADD ADD GT ISZERO PUSH2 0x3F2D JUMPI DUP5 DUP6 REVERT JUMPDEST DUP4 PUSH1 0x20 DUP8 ADD PUSH1 0x20 DUP4 ADD CALLDATACOPY SWAP3 DUP4 ADD PUSH1 0x20 ADD SWAP4 SWAP1 SWAP4 MSTORE POP SWAP4 SWAP3 POP POP POP JUMP JUMPDEST PUSH1 0x0 PUSH1 0x20 DUP3 DUP5 SUB SLT ISZERO PUSH2 0x3F5A JUMPI DUP1 DUP2 REVERT JUMPDEST PUSH2 0x76E DUP3 PUSH2 0x3EA7 JUMP JUMPDEST PUSH1 0x0 PUSH1 0x20 DUP3 DUP5 SUB SLT ISZERO PUSH2 0x3F74 JUMPI DUP1 DUP2 REVERT JUMPDEST POP CALLDATALOAD SWAP2 SWAP1 POP JUMP JUMPDEST PUSH1 0x0 DUP1 PUSH1 0x40 DUP4 DUP6 SUB SLT ISZERO PUSH2 0x3F8D JUMPI DUP1 DUP2 REVERT JUMPDEST DUP3 CALLDATALOAD SWAP2 POP PUSH2 0x3F9D PUSH1 0x20 DUP5 ADD PUSH2 0x3EA7 JUMP JUMPDEST SWAP1 POP SWAP3 POP SWAP3 SWAP1 POP JUMP JUMPDEST PUSH1 0x0 DUP1 PUSH1 0x40 DUP4 DUP6 SUB SLT ISZERO PUSH2 0x3FB8 JUMPI DUP2 DUP3 REVERT JUMPDEST DUP3 CALLDATALOAD SWAP2 POP PUSH1 0x20 DUP4 ADD CALLDATALOAD PUSH1 0x1 PUSH1 0x1 PUSH1 0x40 SHL SUB DUP2 GT ISZERO PUSH2 0x3FD4 JUMPI DUP2 DUP3 REVERT JUMPDEST PUSH2 0x3FE0 DUP6 DUP3 DUP7 ADD PUSH2 0x3EC3 JUMP JUMPDEST SWAP2 POP POP SWAP3 POP SWAP3 SWAP1 POP JUMP JUMPDEST PUSH1 0x0 DUP1 PUSH1 0x0 PUSH1 0x60 DUP5 DUP7 SUB SLT ISZERO PUSH2 0x3FFE JUMPI DUP1 DUP2 REVERT JUMPDEST DUP4 CALLDATALOAD SWAP3 POP PUSH1 0x20 DUP5 ADD CALLDATALOAD PUSH1 0x1 PUSH1 0x1 PUSH1 0x40 SHL SUB DUP2 GT ISZERO PUSH2 0x401A JUMPI DUP2 DUP3 REVERT JUMPDEST PUSH2 0x4026 DUP7 DUP3 DUP8 ADD PUSH2 0x3EC3 JUMP JUMPDEST SWAP3 POP POP PUSH2 0x4035 PUSH1 0x40 DUP6 ADD PUSH2 0x3EA7 JUMP JUMPDEST SWAP1 POP SWAP3 POP SWAP3 POP SWAP3 JUMP JUMPDEST PUSH1 0x0 DUP1 PUSH1 0x0 DUP1 PUSH1 0x80 DUP6 DUP8 SUB SLT ISZERO PUSH2 0x4053 JUMPI DUP1 DUP2 REVERT JUMPDEST DUP5 CALLDATALOAD SWAP4 POP PUSH1 0x20 DUP6 ADD CALLDATALOAD PUSH1 0x1 PUSH1 0x1 PUSH1 0x40 SHL SUB DUP2 GT ISZERO PUSH2 0x406F JUMPI DUP2 DUP3 REVERT JUMPDEST PUSH2 0x407B DUP8 DUP3 DUP9 ADD PUSH2 0x3EC3 JUMP JUMPDEST SWAP4 POP POP PUSH1 0x40 DUP6 ADD CALLDATALOAD SWAP2 POP PUSH2 0x4091 PUSH1 0x60 DUP7 ADD PUSH2 0x3EA7 JUMP JUMPDEST SWAP1 POP SWAP3 SWAP6 SWAP2 SWAP5 POP SWAP3 POP JUMP JUMPDEST PUSH1 0x0 DUP1 PUSH1 0x0 DUP1 PUSH1 0x0 PUSH1 0xA0 DUP7 DUP9 SUB SLT ISZERO PUSH2 0x40B3 JUMPI DUP1 DUP2 REVERT JUMPDEST DUP6 CALLDATALOAD SWAP5 POP PUSH1 0x20 DUP7 ADD CALLDATALOAD PUSH1 0x1 PUSH1 0x1 PUSH1 0x40 SHL SUB DUP2 GT ISZERO PUSH2 0x40CF JUMPI DUP2 DUP3 REVERT JUMPDEST PUSH2 0x40DB DUP9 DUP3 DUP10 ADD PUSH2 0x3EC3 JUMP JUMPDEST SWAP5 POP POP PUSH1 0x40 DUP7 ADD CALLDATALOAD SWAP3 POP PUSH2 0x40F1 PUSH1 0x60 DUP8 ADD PUSH2 0x3EA7 JUMP JUMPDEST SWAP5 SWAP8 SWAP4 SWAP7 POP SWAP2 SWAP5 PUSH1 0x80 ADD CALLDATALOAD SWAP3 SWAP2 POP POP JUMP JUMPDEST PUSH1 0x0 DUP1 PUSH1 0x0 PUSH1 0x60 DUP5 DUP7 SUB SLT ISZERO PUSH2 0x4116 JUMPI DUP3 DUP4 REVERT JUMPDEST DUP4 CALLDATALOAD SWAP3 POP PUSH1 0x20 DUP5 ADD CALLDATALOAD PUSH1 0x1 PUSH1 0x1 PUSH1 0x40 SHL SUB DUP1 DUP3 GT ISZERO PUSH2 0x4133 JUMPI DUP4 DUP5 REVERT JUMPDEST PUSH2 0x413F DUP8 DUP4 DUP9 ADD PUSH2 0x3EC3 JUMP JUMPDEST SWAP4 POP PUSH1 0x40 DUP7 ADD CALLDATALOAD SWAP2 POP DUP1 DUP3 GT ISZERO PUSH2 0x4154 JUMPI DUP3 DUP4 REVERT JUMPDEST POP PUSH2 0x4161 DUP7 DUP3 DUP8 ADD PUSH2 0x3EC3 JUMP JUMPDEST SWAP2 POP POP SWAP3 POP SWAP3 POP SWAP3 JUMP JUMPDEST PUSH1 0x0 DUP1 PUSH1 0x0 DUP1 PUSH1 0x0 PUSH1 0xA0 DUP7 DUP9 SUB SLT ISZERO PUSH2 0x4182 JUMPI DUP1 DUP2 REVERT JUMPDEST DUP6 CALLDATALOAD SWAP5 POP PUSH1 0x20 DUP7 ADD CALLDATALOAD PUSH1 0x1 PUSH1 0x1 PUSH1 0x40 SHL SUB DUP1 DUP3 GT ISZERO PUSH2 0x419F JUMPI DUP3 DUP4 REVERT JUMPDEST PUSH2 0x41AB DUP10 DUP4 DUP11 ADD PUSH2 0x3EC3 JUMP JUMPDEST SWAP6 POP PUSH1 0x40 DUP9 ADD CALLDATALOAD SWAP2 POP DUP1 DUP3 GT ISZERO PUSH2 0x41C0 JUMPI DUP3 DUP4 REVERT JUMPDEST PUSH2 0x41CC DUP10 DUP4 DUP11 ADD PUSH2 0x3EC3 JUMP JUMPDEST SWAP5 POP PUSH1 0x60 DUP9 ADD CALLDATALOAD SWAP2 POP DUP1 DUP3 GT ISZERO PUSH2 0x41E1 JUMPI DUP3 DUP4 REVERT JUMPDEST PUSH2 0x41ED DUP10 DUP4 DUP11 ADD PUSH2 0x3EC3 JUMP JUMPDEST SWAP4 POP PUSH1 0x80 DUP9 ADD CALLDATALOAD SWAP2 POP DUP1 DUP3 GT ISZERO PUSH2 0x4202 JUMPI DUP3 DUP4 REVERT JUMPDEST POP PUSH2 0x420F DUP9 DUP3 DUP10 ADD PUSH2 0x3EC3 JUMP JUMPDEST SWAP2 POP POP SWAP3 SWAP6 POP SWAP3 SWAP6 SWAP1 SWAP4 POP JUMP JUMPDEST PUSH1 0x0 DUP1 PUSH1 0x0 DUP1 PUSH1 0x0 DUP1 PUSH1 0xC0 DUP8 DUP10 SUB SLT ISZERO PUSH2 0x4234 JUMPI DUP1 DUP2 REVERT JUMPDEST DUP7 CALLDATALOAD SWAP6 POP PUSH1 0x20 DUP8 ADD CALLDATALOAD PUSH1 0x1 PUSH1 0x1 PUSH1 0x40 SHL SUB DUP1 DUP3 GT ISZERO PUSH2 0x4251 JUMPI DUP3 DUP4 REVERT JUMPDEST PUSH2 0x425D DUP11 DUP4 DUP12 ADD PUSH2 0x3EC3 JUMP JUMPDEST SWAP7 POP PUSH1 0x40 DUP10 ADD CALLDATALOAD SWAP2 POP DUP1 DUP3 GT ISZERO PUSH2 0x4272 JUMPI DUP3 DUP4 REVERT JUMPDEST PUSH2 0x427E DUP11 DUP4 DUP12 ADD PUSH2 0x3EC3 JUMP JUMPDEST SWAP6 POP PUSH1 0x60 DUP10 ADD CALLDATALOAD SWAP2 POP DUP1 DUP3 GT ISZERO PUSH2 0x4293 JUMPI DUP3 DUP4 REVERT JUMPDEST PUSH2 0x429F DUP11 DUP4 DUP12 ADD PUSH2 0x3EC3 JUMP JUMPDEST SWAP5 POP PUSH1 0x80 DUP10 ADD CALLDATALOAD SWAP2 POP DUP1 DUP3 GT ISZERO PUSH2 0x42B4 JUMPI DUP3 DUP4 REVERT JUMPDEST POP PUSH2 0x42C1 DUP10 DUP3 DUP11 ADD PUSH2 0x3EC3 JUMP JUMPDEST SWAP3 POP POP PUSH1 0xA0 DUP8 ADD CALLDATALOAD SWAP1 POP SWAP3 SWAP6 POP SWAP3 SWAP6 POP SWAP3 SWAP6 JUMP JUMPDEST PUSH1 0x0 DUP1 PUSH1 0x0 PUSH1 0x60 DUP5 DUP7 SUB SLT ISZERO PUSH2 0x42E9 JUMPI DUP3 DUP4 REVERT JUMPDEST DUP4 CALLDATALOAD SWAP3 POP PUSH1 0x20 DUP5 ADD CALLDATALOAD PUSH1 0x1 PUSH1 0x1 PUSH1 0x40 SHL SUB DUP2 GT ISZERO PUSH2 0x4305 JUMPI DUP3 DUP4 REVERT JUMPDEST PUSH2 0x4311 DUP7 DUP3 DUP8 ADD PUSH2 0x3EC3 JUMP JUMPDEST SWAP3 POP POP PUSH1 0x40 DUP5 ADD CALLDATALOAD SWAP1 POP SWAP3 POP SWAP3 POP SWAP3 JUMP JUMPDEST PUSH1 0x0 DUP1 PUSH1 0x0 DUP1 PUSH1 0x80 DUP6 DUP8 SUB SLT ISZERO PUSH2 0x4337 JUMPI DUP2 DUP3 REVERT JUMPDEST DUP5 CALLDATALOAD SWAP4 POP PUSH1 0x20 DUP6 ADD CALLDATALOAD PUSH1 0x1 PUSH1 0x1 PUSH1 0x40 SHL SUB DUP2 GT ISZERO PUSH2 0x4353 JUMPI DUP3 DUP4 REVERT JUMPDEST PUSH2 0x435F DUP8 DUP3 DUP9 ADD PUSH2 0x3EC3 JUMP JUMPDEST SWAP5 SWAP8 SWAP5 SWAP7 POP POP POP POP PUSH1 0x40 DUP4 ADD CALLDATALOAD SWAP3 PUSH1 0x60 ADD CALLDATALOAD SWAP2 SWAP1 POP JUMP JUMPDEST PUSH1 0x0 DUP1 PUSH1 0x40 DUP4 DUP6 SUB SLT ISZERO PUSH2 0x4388 JUMPI DUP2 DUP3 REVERT JUMPDEST POP POP DUP1 CALLDATALOAD SWAP3 PUSH1 0x20 SWAP1 SWAP2 ADD CALLDATALOAD SWAP2 POP JUMP JUMPDEST PUSH1 0x0 DUP1 PUSH1 0x0 PUSH1 0x60 DUP5 DUP7 SUB SLT ISZERO PUSH2 0x43AB JUMPI DUP1 DUP2 REVERT JUMPDEST POP POP DUP2 CALLDATALOAD SWAP4 PUSH1 0x20 DUP4 ADD CALLDATALOAD SWAP4 POP PUSH1 0x40 SWAP1 SWAP3 ADD CALLDATALOAD SWAP2 SWAP1 POP JUMP JUMPDEST PUSH1 0x0 PUSH1 0x20 DUP3 DUP5 SUB SLT ISZERO PUSH2 0x43D3 JUMPI DUP1 DUP2 REVERT JUMPDEST DUP2 CALLDATALOAD PUSH1 0x1 PUSH1 0x1 PUSH1 0x40 SHL SUB DUP2 GT ISZERO PUSH2 0x43E8 JUMPI DUP2 DUP3 REVERT JUMPDEST PUSH2 0x2694 DUP5 DUP3 DUP6 ADD PUSH2 0x3EC3 JUMP JUMPDEST PUSH1 0x0 DUP1 PUSH1 0x40 DUP4 DUP6 SUB SLT ISZERO PUSH2 0x4406 JUMPI DUP2 DUP3 REVERT JUMPDEST DUP3 CALLDATALOAD PUSH1 0x1 PUSH1 0x1 PUSH1 0x40 SHL SUB DUP1 DUP3 GT ISZERO PUSH2 0x441C JUMPI DUP4 DUP5 REVERT JUMPDEST PUSH2 0x4428 DUP7 DUP4 DUP8 ADD PUSH2 0x3EC3 JUMP JUMPDEST SWAP4 POP PUSH1 0x20 DUP6 ADD CALLDATALOAD SWAP2 POP DUP1 DUP3 GT ISZERO PUSH2 0x443D JUMPI DUP3 DUP4 REVERT JUMPDEST POP PUSH2 0x3FE0 DUP6 DUP3 DUP7 ADD PUSH2 0x3EC3 JUMP JUMPDEST PUSH1 0x0 DUP2 MLOAD DUP1 DUP5 MSTORE PUSH1 0x20 DUP1 DUP6 ADD SWAP5 POP DUP1 DUP5 ADD DUP4 JUMPDEST DUP4 DUP2 LT ISZERO PUSH2 0x4482 JUMPI DUP2 MLOAD PUSH1 0x1 PUSH1 0x1 PUSH1 0xA0 SHL SUB AND DUP8 MSTORE SWAP6 DUP3 ADD SWAP6 SWAP1 DUP3 ADD SWAP1 PUSH1 0x1 ADD PUSH2 0x445D JUMP JUMPDEST POP SWAP5 SWAP6 SWAP5 POP POP POP POP POP JUMP JUMPDEST PUSH1 0x0 DUP2 MLOAD DUP1 DUP5 MSTORE PUSH2 0x44A5 DUP2 PUSH1 0x20 DUP7 ADD PUSH1 0x20 DUP7 ADD PUSH2 0x49E5 JUMP JUMPDEST PUSH1 0x1F ADD PUSH1 0x1F NOT AND SWAP3 SWAP1 SWAP3 ADD PUSH1 0x20 ADD SWAP3 SWAP2 POP POP JUMP JUMPDEST DUP3 DUP2 MSTORE PUSH1 0x0 DUP3 MLOAD PUSH2 0x44D1 DUP2 PUSH1 0x20 DUP6 ADD PUSH1 0x20 DUP8 ADD PUSH2 0x49E5 JUMP JUMPDEST SWAP2 SWAP1 SWAP2 ADD PUSH1 0x20 ADD SWAP4 SWAP3 POP POP POP JUMP JUMPDEST DUP4 DUP2 MSTORE PUSH1 0x0 DUP4 MLOAD PUSH2 0x44F7 DUP2 PUSH1 0x20 DUP6 ADD PUSH1 0x20 DUP9 ADD PUSH2 0x49E5 JUMP JUMPDEST PUSH1 0x60 SWAP4 SWAP1 SWAP4 SHL PUSH1 0x1 PUSH1 0x1 PUSH1 0x60 SHL SUB NOT AND PUSH1 0x20 SWAP3 SWAP1 SWAP4 ADD SWAP2 DUP3 ADD SWAP3 SWAP1 SWAP3 MSTORE PUSH1 0x34 ADD SWAP4 SWAP3 POP POP POP JUMP JUMPDEST DUP4 DUP2 MSTORE PUSH1 0x0 DUP4 MLOAD PUSH2 0x4536 DUP2 PUSH1 0x20 DUP6 ADD PUSH1 0x20 DUP9 ADD PUSH2 0x49E5 JUMP JUMPDEST PUSH1 0x20 SWAP3 ADD SWAP2 DUP3 ADD SWAP3 SWAP1 SWAP3 MSTORE PUSH1 0x40 ADD SWAP4 SWAP3 POP POP POP JUMP JUMPDEST DUP6 DUP2 MSTORE PUSH1 0x0 DUP6 MLOAD PUSH2 0x4563 DUP2 PUSH1 0x20 DUP6 ADD PUSH1 0x20 DUP11 ADD PUSH2 0x49E5 JUMP JUMPDEST PUSH1 0x20 SWAP3 ADD SWAP2 DUP3 ADD SWAP5 SWAP1 SWAP5 MSTORE PUSH1 0x40 DUP2 ADD SWAP3 SWAP1 SWAP3 MSTORE PUSH1 0x60 SWAP1 DUP2 SHL PUSH1 0x1 PUSH1 0x1 PUSH1 0x60 SHL SUB NOT AND SWAP1 DUP3 ADD MSTORE PUSH1 0x74 ADD SWAP4 SWAP3 POP POP POP JUMP JUMPDEST PUSH1 0x0 DUP3 MLOAD PUSH2 0x45A5 DUP2 DUP5 PUSH1 0x20 DUP8 ADD PUSH2 0x49E5 JUMP JUMPDEST SWAP2 SWAP1 SWAP2 ADD SWAP3 SWAP2 POP POP JUMP JUMPDEST PUSH1 0x0 DUP1 DUP4 SLOAD PUSH2 0x45BD DUP2 PUSH2 0x4A28 JUMP JUMPDEST PUSH1 0x1 DUP3 DUP2 AND DUP1 ISZERO PUSH2 0x45D5 JUMPI PUSH1 0x1 DUP2 EQ PUSH2 0x45E6 JUMPI PUSH2 0x4612 JUMP JUMPDEST PUSH1 0xFF NOT DUP5 AND DUP8 MSTORE DUP3 DUP8 ADD SWAP5 POP PUSH2 0x4612 JUMP JUMPDEST DUP8 DUP7 MSTORE PUSH1 0x20 DUP1 DUP8 KECCAK256 DUP8 JUMPDEST DUP6 DUP2 LT ISZERO PUSH2 0x4609 JUMPI DUP2 SLOAD DUP11 DUP3 ADD MSTORE SWAP1 DUP5 ADD SWAP1 DUP3 ADD PUSH2 0x45F0 JUMP JUMPDEST POP POP POP DUP3 DUP8 ADD SWAP5 POP JUMPDEST POP SWAP3 SWAP7 SWAP6 POP POP POP POP POP POP JUMP JUMPDEST PUSH1 0x20 DUP2 MSTORE PUSH1 0x0 PUSH2 0x76E PUSH1 0x20 DUP4 ADD DUP5 PUSH2 0x444A JUMP JUMPDEST PUSH1 0x0 PUSH1 0x20 DUP1 DUP4 ADD DUP2 DUP5 MSTORE DUP1 DUP6 MLOAD DUP1 DUP4 MSTORE PUSH1 0x40 DUP7 ADD SWAP2 POP PUSH1 0x40 DUP2 PUSH1 0x5 SHL DUP8 ADD ADD SWAP3 POP DUP4 DUP8 ADD DUP6 JUMPDEST DUP3 DUP2 LT ISZERO PUSH2 0x4685 JUMPI PUSH1 0x3F NOT DUP9 DUP7 SUB ADD DUP5 MSTORE PUSH2 0x4673 DUP6 DUP4 MLOAD PUSH2 0x448D JUMP JUMPDEST SWAP5 POP SWAP3 DUP6 ADD SWAP3 SWAP1 DUP6 ADD SWAP1 PUSH1 0x1 ADD PUSH2 0x4657 JUMP JUMPDEST POP SWAP3 SWAP8 SWAP7 POP POP POP POP POP POP POP JUMP JUMPDEST DUP5 ISZERO ISZERO DUP2 MSTORE DUP4 PUSH1 0x20 DUP3 ADD MSTORE DUP3 PUSH1 0x40 DUP3 ADD MSTORE PUSH1 0x80 PUSH1 0x60 DUP3 ADD MSTORE PUSH1 0x0 PUSH2 0x182D PUSH1 0x80 DUP4 ADD DUP5 PUSH2 0x448D JUMP JUMPDEST DUP4 DUP2 MSTORE PUSH1 0x60 PUSH1 0x20 DUP3 ADD MSTORE PUSH1 0x0 PUSH2 0x46D2 PUSH1 0x60 DUP4 ADD DUP6 PUSH2 0x448D JUMP JUMPDEST DUP3 DUP2 SUB PUSH1 0x40 DUP5 ADD MSTORE PUSH2 0x182D DUP2 DUP6 PUSH2 0x448D JUMP JUMPDEST DUP6 DUP2 MSTORE PUSH1 0xA0 PUSH1 0x20 DUP3 ADD MSTORE PUSH1 0x0 PUSH2 0x46FD PUSH1 0xA0 DUP4 ADD DUP8 PUSH2 0x448D JUMP JUMPDEST DUP3 DUP2 SUB PUSH1 0x40 DUP5 ADD MSTORE PUSH2 0x470F DUP2 DUP8 PUSH2 0x448D JUMP JUMPDEST SWAP1 POP DUP3 DUP2 SUB PUSH1 0x60 DUP5 ADD MSTORE PUSH2 0x4723 DUP2 DUP7 PUSH2 0x448D JUMP JUMPDEST SWAP1 POP DUP3 DUP2 SUB PUSH1 0x80 DUP5 ADD MSTORE PUSH2 0x4737 DUP2 DUP6 PUSH2 0x448D JUMP JUMPDEST SWAP9 SWAP8 POP POP POP POP POP POP POP POP JUMP JUMPDEST DUP4 DUP2 MSTORE PUSH1 0x0 PUSH1 0x20 PUSH1 0x60 DUP2 DUP5 ADD MSTORE PUSH2 0x475D PUSH1 0x60 DUP5 ADD DUP7 PUSH2 0x448D JUMP JUMPDEST DUP4 DUP2 SUB PUSH1 0x40 DUP6 ADD MSTORE DUP3 DUP6 SLOAD PUSH2 0x4771 DUP2 PUSH2 0x4A28 JUMP JUMPDEST DUP1 DUP5 MSTORE PUSH1 0x1 DUP3 DUP2 AND DUP1 ISZERO PUSH2 0x478C JUMPI PUSH1 0x1 DUP2 EQ PUSH2 0x47A0 JUMPI PUSH2 0x47CB JUMP JUMPDEST PUSH1 0xFF NOT DUP5 AND DUP7 DUP9 ADD MSTORE PUSH1 0x40 DUP7 ADD SWAP5 POP PUSH2 0x47CB JUMP JUMPDEST DUP10 DUP9 MSTORE DUP7 DUP9 KECCAK256 DUP9 JUMPDEST DUP5 DUP2 LT ISZERO PUSH2 0x47C3 JUMPI DUP2 SLOAD DUP9 DUP3 ADD DUP11 ADD MSTORE SWAP1 DUP4 ADD SWAP1 DUP9 ADD PUSH2 0x47A8 JUMP JUMPDEST DUP8 ADD DUP9 ADD SWAP6 POP POP JUMPDEST POP SWAP3 SWAP11 SWAP10 POP POP POP POP POP POP POP POP POP POP JUMP JUMPDEST PUSH1 0x20 DUP2 MSTORE PUSH1 0x0 PUSH2 0x76E PUSH1 0x20 DUP4 ADD DUP5 PUSH2 0x448D JUMP JUMPDEST PUSH1 0x40 DUP2 MSTORE PUSH1 0x0 PUSH2 0x4801 PUSH1 0x40 DUP4 ADD DUP6 PUSH2 0x448D JUMP JUMPDEST DUP3 DUP2 SUB PUSH1 0x20 DUP5 ADD MSTORE PUSH2 0x4813 DUP2 DUP6 PUSH2 0x448D JUMP JUMPDEST SWAP6 SWAP5 POP POP POP POP POP JUMP JUMPDEST PUSH1 0xA0 DUP2 MSTORE PUSH1 0x0 PUSH2 0x482F PUSH1 0xA0 DUP4 ADD DUP9 PUSH2 0x448D JUMP JUMPDEST DUP3 DUP2 SUB PUSH1 0x20 DUP5 ADD MSTORE PUSH2 0x4841 DUP2 DUP9 PUSH2 0x448D JUMP JUMPDEST PUSH1 0x1 PUSH1 0x1 PUSH1 0xA0 SHL SUB SWAP7 SWAP1 SWAP7 AND PUSH1 0x40 DUP5 ADD MSTORE POP POP PUSH1 0x60 DUP2 ADD SWAP3 SWAP1 SWAP3 MSTORE PUSH1 0x80 SWAP1 SWAP2 ADD MSTORE SWAP3 SWAP2 POP POP JUMP JUMPDEST PUSH1 0x60 DUP2 MSTORE PUSH1 0x0 PUSH2 0x487B PUSH1 0x60 DUP4 ADD DUP7 PUSH2 0x448D JUMP JUMPDEST DUP3 DUP2 SUB PUSH1 0x20 DUP5 ADD MSTORE PUSH2 0x488D DUP2 DUP7 PUSH2 0x448D JUMP JUMPDEST SWAP1 POP DUP3 DUP2 SUB PUSH1 0x40 DUP5 ADD MSTORE PUSH2 0x182D DUP2 DUP6 PUSH2 0x448D JUMP JUMPDEST PUSH1 0x80 DUP2 MSTORE PUSH1 0x0 PUSH2 0x48B4 PUSH1 0x80 DUP4 ADD DUP8 PUSH2 0x448D JUMP JUMPDEST DUP3 DUP2 SUB PUSH1 0x20 DUP5 ADD MSTORE PUSH2 0x48C6 DUP2 DUP8 PUSH2 0x448D JUMP JUMPDEST SWAP1 POP DUP3 DUP2 SUB PUSH1 0x40 DUP5 ADD MSTORE PUSH2 0x48DA DUP2 DUP7 PUSH2 0x448D JUMP JUMPDEST SWAP1 POP DUP3 DUP2 SUB PUSH1 0x60 DUP5 ADD MSTORE PUSH2 0x48EE DUP2 DUP6 PUSH2 0x444A JUMP JUMPDEST SWAP8 SWAP7 POP POP POP POP POP POP POP JUMP JUMPDEST PUSH1 0x20 DUP1 DUP3 MSTORE PUSH1 0xB SWAP1 DUP3 ADD MSTORE PUSH11 0x139BDD08195E1C1A5C9959 PUSH1 0xAA SHL PUSH1 0x40 DUP3 ADD MSTORE PUSH1 0x60 ADD SWAP1 JUMP JUMPDEST PUSH1 0x20 DUP1 DUP3 MSTORE PUSH1 0x6 SWAP1 DUP3 ADD MSTORE PUSH6 0x11195B9A5959 PUSH1 0xD2 SHL PUSH1 0x40 DUP3 ADD MSTORE PUSH1 0x60 ADD SWAP1 JUMP JUMPDEST PUSH1 0x20 DUP1 DUP3 MSTORE PUSH1 0x7 SWAP1 DUP3 ADD MSTORE PUSH7 0x115E1C1A5C9959 PUSH1 0xCA SHL PUSH1 0x40 DUP3 ADD MSTORE PUSH1 0x60 ADD SWAP1 JUMP JUMPDEST DUP3 DUP2 MSTORE PUSH1 0x40 PUSH1 0x20 DUP3 ADD MSTORE PUSH1 0x0 PUSH2 0x2694 PUSH1 0x40 DUP4 ADD DUP5 PUSH2 0x444A JUMP JUMPDEST DUP4 DUP2 MSTORE DUP3 PUSH1 0x20 DUP3 ADD MSTORE PUSH1 0x60 PUSH1 0x40 DUP3 ADD MSTORE PUSH1 0x0 PUSH2 0x4813 PUSH1 0x60 DUP4 ADD DUP5 PUSH2 0x448D JUMP JUMPDEST PUSH1 0x0 DUP3 NOT DUP3 GT ISZERO PUSH2 0x49AA JUMPI PUSH2 0x49AA PUSH2 0x4A7E JUMP JUMPDEST POP ADD SWAP1 JUMP JUMPDEST PUSH1 0x0 DUP2 PUSH1 0x0 NOT DIV DUP4 GT DUP3 ISZERO ISZERO AND ISZERO PUSH2 0x49C9 JUMPI PUSH2 0x49C9 PUSH2 0x4A7E JUMP JUMPDEST POP MUL SWAP1 JUMP JUMPDEST PUSH1 0x0 DUP3 DUP3 LT ISZERO PUSH2 0x49E0 JUMPI PUSH2 0x49E0 PUSH2 0x4A7E JUMP JUMPDEST POP SUB SWAP1 JUMP JUMPDEST PUSH1 0x0 JUMPDEST DUP4 DUP2 LT ISZERO PUSH2 0x4A00 JUMPI DUP2 DUP2 ADD MLOAD DUP4 DUP3 ADD MSTORE PUSH1 0x20 ADD PUSH2 0x49E8 JUMP JUMPDEST DUP4 DUP2 GT ISZERO PUSH2 0x1C39 JUMPI POP POP PUSH1 0x0 SWAP2 ADD MSTORE JUMP JUMPDEST PUSH1 0x0 DUP2 PUSH2 0x4A20 JUMPI PUSH2 0x4A20 PUSH2 0x4A7E JUMP JUMPDEST POP PUSH1 0x0 NOT ADD SWAP1 JUMP JUMPDEST PUSH1 0x1 DUP2 DUP2 SHR SWAP1 DUP3 AND DUP1 PUSH2 0x4A3C JUMPI PUSH1 0x7F DUP3 AND SWAP2 POP JUMPDEST PUSH1 0x20 DUP3 LT DUP2 EQ ISZERO PUSH2 0x4A5D JUMPI PUSH4 0x4E487B71 PUSH1 0xE0 SHL PUSH1 0x0 MSTORE PUSH1 0x22 PUSH1 0x4 MSTORE PUSH1 0x24 PUSH1 0x0 REVERT JUMPDEST POP SWAP2 SWAP1 POP JUMP JUMPDEST PUSH1 0x0 PUSH1 0x0 NOT DUP3 EQ ISZERO PUSH2 0x4A77 JUMPI PUSH2 0x4A77 PUSH2 0x4A7E JUMP JUMPDEST POP PUSH1 0x1 ADD SWAP1 JUMP JUMPDEST PUSH4 0x4E487B71 PUSH1 0xE0 SHL PUSH1 0x0 MSTORE PUSH1 0x11 PUSH1 0x4 MSTORE PUSH1 0x24 PUSH1 0x0 REVERT JUMPDEST PUSH4 0x4E487B71 PUSH1 0xE0 SHL PUSH1 0x0 MSTORE PUSH1 0x41 PUSH1 0x4 MSTORE PUSH1 0x24 PUSH1 0x0 REVERT INVALID 0xDB PUSH28 0xFE957D82520D83F2A439F82C0AB65BBE62C5DA8B7B7AA22924C027EF MLOAD DUP14 MOD SWAP12 CREATE2 PUSH10 0xF27D389F2C7041010786 SIGNEXTEND 0x2E DUP3 SELFDESTRUCT JUMP SLT DUP4 0xB0 SWAP8 0xA8 SWAP15 DUP10 PUSH30 0xAA5E34B1B6123B642491709420C2370BB98C4E7DE2B1BC05C5F9FD95AC41 GT 0xE1 0x26 DUP4 SSTORE EXTCODECOPY PUSH3 0xA26469 PUSH17 0x667358221220E2F075AAFDF62674CDFEB1 STATICCALL 0x26 0xF8 0xB5 0x1F EXTCODESIZE PC 0xB8 SDIV 0xA5 PC CREATE2 SIGNEXTEND KECCAK256 PUSH28 0xECF51733425364736F6C634300080400330000000000000000000000 "
        },
        "methodIdentifiers": {
          "clearPendingKey(bytes32,string,bytes32,address,uint256)": "40fd48a7",
          "clearPendingRelease(bytes32,string,string,string,string,uint256)": "c6c2a0be",
          "clearPendingThreshold(bytes32,string,uint256,uint256)": "b93d1685",
          "createOrganization(string,string)": "a411ef20",
          "createRepository(bytes32,string,string)": "e59dbfa4",
          "getLatestRelease(bytes32,string)": "5cd20d29",
          "getOrgNames(uint256,uint256)": "aa788ebe",
          "getPendingReleaseCount(bytes32)": "924a5443",
          "getPendingVotes(bytes32)": "d565e860",
          "getReleaseTags(bytes32,uint256,uint256)": "f3439d56",
          "getRepoNames(bytes32,uint256,uint256)": "837dc4d0",
          "getRoleMembers(bytes32)": "a3246ad3",
          "getRoleRequestCount(bytes32)": "3e1bf64b",
          "getThresholdRequestCount(bytes32)": "3b0659fd",
          "isOrgAdmin(bytes32,address)": "d96162a1",
          "isRepoDev(bytes32,string,address)": "1fd522a6",
          "isTrustedForwarder(address)": "572b6c05",
          "orgCount()": "d8106690",
          "orgIDByName(string)": "cd20ff77",
          "orgIDs(uint256)": "8775692f",
          "orgNames(uint256)": "5bb44241",
          "orgs(bytes32)": "a3e84beb",
          "pendingReleaseRequests(bytes32,uint256)": "a940abcb",
          "pendingRoleRequests(bytes32,uint256)": "dfec1bb0",
          "pendingThresholdRequests(bytes32,uint256)": "c372be80",
          "releases(bytes32)": "f491a84c",
          "repos(bytes32)": "02b2583a",
          "roleModifiedTimestamps(bytes32)": "8bf67370",
          "setOrgMeta(bytes32,string)": "e253f5e1",
          "setRepoMeta(bytes32,string,string)": "dedc3391",
          "trustedForwarder()": "7da0a877",
          "versionRecipient()": "486ff0cd",
          "voteKey(bytes32,string,bytes32,address)": "f26f3c56",
          "voteRelease(bytes32,string,string,string,string)": "328d3ddf",
          "voteThreshold(bytes32,string,uint256)": "f735b352"
        }
      }
    }
  }
}