{
  "_format": "hh-sol-artifact-1",
  "contractName": "ValistRegistry",
  "sourceName": "contracts/ValistRegistry.sol",
  "abi": [
    {
      "inputs": [
        {
          "internalType": "address",
          "name": "metaTxForwarder",
          "type": "address"
        }
      ],
      "stateMutability": "nonpayable",
      "type": "constructor"
    },
    {
      "anonymous": false,
      "inputs": [
        {
          "indexed": true,
          "internalType": "bytes32",
          "name": "_orgID",
          "type": "bytes32"
        },
        {
          "indexed": true,
          "internalType": "string",
          "name": "_nameHash",
          "type": "string"
        },
        {
          "indexed": false,
          "internalType": "string",
          "name": "_name",
          "type": "string"
        }
      ],
      "name": "MappingEvent",
      "type": "event"
    },
    {
      "anonymous": false,
      "inputs": [
        {
          "indexed": true,
          "internalType": "bytes32",
          "name": "role",
          "type": "bytes32"
        },
        {
          "indexed": true,
          "internalType": "bytes32",
          "name": "previousAdminRole",
          "type": "bytes32"
        },
        {
          "indexed": true,
          "internalType": "bytes32",
          "name": "newAdminRole",
          "type": "bytes32"
        }
      ],
      "name": "RoleAdminChanged",
      "type": "event"
    },
    {
      "anonymous": false,
      "inputs": [
        {
          "indexed": true,
          "internalType": "bytes32",
          "name": "role",
          "type": "bytes32"
        },
        {
          "indexed": true,
          "internalType": "address",
          "name": "account",
          "type": "address"
        },
        {
          "indexed": true,
          "internalType": "address",
          "name": "sender",
          "type": "address"
        }
      ],
      "name": "RoleGranted",
      "type": "event"
    },
    {
      "anonymous": false,
      "inputs": [
        {
          "indexed": true,
          "internalType": "bytes32",
          "name": "role",
          "type": "bytes32"
        },
        {
          "indexed": true,
          "internalType": "address",
          "name": "account",
          "type": "address"
        },
        {
          "indexed": true,
          "internalType": "address",
          "name": "sender",
          "type": "address"
        }
      ],
      "name": "RoleRevoked",
      "type": "event"
    },
    {
      "inputs": [],
      "name": "ADMIN_ROLE",
      "outputs": [
        {
          "internalType": "bytes32",
          "name": "",
          "type": "bytes32"
        }
      ],
      "stateMutability": "view",
      "type": "function"
    },
    {
      "inputs": [],
      "name": "DEFAULT_ADMIN_ROLE",
      "outputs": [
        {
          "internalType": "bytes32",
          "name": "",
          "type": "bytes32"
        }
      ],
      "stateMutability": "view",
      "type": "function"
    },
    {
      "inputs": [],
      "name": "getNameCount",
      "outputs": [
        {
          "internalType": "uint256",
          "name": "",
          "type": "uint256"
        }
      ],
      "stateMutability": "view",
      "type": "function"
    },
    {
      "inputs": [
        {
          "internalType": "uint256",
          "name": "_page",
          "type": "uint256"
        },
        {
          "internalType": "uint256",
          "name": "_resultsPerPage",
          "type": "uint256"
        }
      ],
      "name": "getNames",
      "outputs": [
        {
          "internalType": "string[]",
          "name": "",
          "type": "string[]"
        }
      ],
      "stateMutability": "view",
      "type": "function"
    },
    {
      "inputs": [
        {
          "internalType": "bytes32",
          "name": "role",
          "type": "bytes32"
        }
      ],
      "name": "getRoleAdmin",
      "outputs": [
        {
          "internalType": "bytes32",
          "name": "",
          "type": "bytes32"
        }
      ],
      "stateMutability": "view",
      "type": "function"
    },
    {
      "inputs": [
        {
          "internalType": "bytes32",
          "name": "role",
          "type": "bytes32"
        },
        {
          "internalType": "address",
          "name": "account",
          "type": "address"
        }
      ],
      "name": "grantRole",
      "outputs": [],
      "stateMutability": "nonpayable",
      "type": "function"
    },
    {
      "inputs": [
        {
          "internalType": "bytes32",
          "name": "role",
          "type": "bytes32"
        },
        {
          "internalType": "address",
          "name": "account",
          "type": "address"
        }
      ],
      "name": "hasRole",
      "outputs": [
        {
          "internalType": "bool",
          "name": "",
          "type": "bool"
        }
      ],
      "stateMutability": "view",
      "type": "function"
    },
    {
      "inputs": [],
      "name": "init",
      "outputs": [],
      "stateMutability": "nonpayable",
      "type": "function"
    },
    {
      "inputs": [
        {
          "internalType": "address",
          "name": "forwarder",
          "type": "address"
        }
      ],
      "name": "isTrustedForwarder",
      "outputs": [
        {
          "internalType": "bool",
          "name": "",
          "type": "bool"
        }
      ],
      "stateMutability": "view",
      "type": "function"
    },
    {
      "inputs": [
        {
          "internalType": "bytes32",
          "name": "_orgID",
          "type": "bytes32"
        },
        {
          "internalType": "string",
          "name": "_name",
          "type": "string"
        }
      ],
      "name": "linkNameToID",
      "outputs": [],
      "stateMutability": "nonpayable",
      "type": "function"
    },
    {
      "inputs": [
        {
          "internalType": "string",
          "name": "",
          "type": "string"
        }
      ],
      "name": "nameToID",
      "outputs": [
        {
          "internalType": "bytes32",
          "name": "",
          "type": "bytes32"
        }
      ],
      "stateMutability": "view",
      "type": "function"
    },
    {
      "inputs": [
        {
          "internalType": "uint256",
          "name": "",
          "type": "uint256"
        }
      ],
      "name": "names",
      "outputs": [
        {
          "internalType": "string",
          "name": "",
          "type": "string"
        }
      ],
      "stateMutability": "view",
      "type": "function"
    },
    {
      "inputs": [
        {
          "internalType": "bytes32",
          "name": "_orgID",
          "type": "bytes32"
        },
        {
          "internalType": "string",
          "name": "_name",
          "type": "string"
        }
      ],
      "name": "overrideNameToID",
      "outputs": [],
      "stateMutability": "nonpayable",
      "type": "function"
    },
    {
      "inputs": [
        {
          "internalType": "bytes32",
          "name": "role",
          "type": "bytes32"
        },
        {
          "internalType": "address",
          "name": "account",
          "type": "address"
        }
      ],
      "name": "renounceRole",
      "outputs": [],
      "stateMutability": "nonpayable",
      "type": "function"
    },
    {
      "inputs": [
        {
          "internalType": "bytes32",
          "name": "role",
          "type": "bytes32"
        },
        {
          "internalType": "address",
          "name": "account",
          "type": "address"
        }
      ],
      "name": "revokeRole",
      "outputs": [],
      "stateMutability": "nonpayable",
      "type": "function"
    },
    {
      "inputs": [
        {
          "internalType": "bytes4",
          "name": "interfaceId",
          "type": "bytes4"
        }
      ],
      "name": "supportsInterface",
      "outputs": [
        {
          "internalType": "bool",
          "name": "",
          "type": "bool"
        }
      ],
      "stateMutability": "view",
      "type": "function"
    },
    {
      "inputs": [],
      "name": "versionRecipient",
      "outputs": [
        {
          "internalType": "string",
          "name": "",
          "type": "string"
        }
      ],
      "stateMutability": "view",
      "type": "function"
    }
  ],
  "bytecode": "0x6001805460ff19169055610100604052600560c0819052640322e322e360dc1b60e090815262000033916002919062000082565b503480156200004157600080fd5b50604051620013e3380380620013e3833981016040819052620000649162000128565b6001600160601b0319606091821b1660805233901b60a05262000195565b828054620000909062000158565b90600052602060002090601f016020900481019282620000b45760008555620000ff565b82601f10620000cf57805160ff1916838001178555620000ff565b82800160010185558215620000ff579182015b82811115620000ff578251825591602001919060010190620000e2565b506200010d92915062000111565b5090565b5b808211156200010d576000815560010162000112565b6000602082840312156200013a578081fd5b81516001600160a01b038116811462000151578182fd5b9392505050565b600181811c908216806200016d57607f821691505b602082108114156200018f57634e487b7160e01b600052602260045260246000fd5b50919050565b60805160601c60a05160601c611214620001cf600039600081816108b4015261094f01526000818161021e0152610b0a01526112146000f3fe608060405234801561001057600080fd5b506004361061010b5760003560e01c80634622ab03116100a257806375b238fc1161007157806375b238fc1461026e57806391d1485414610295578063a217fddf146102a8578063d547741f146102b0578063e1c7392a146102c357600080fd5b80634622ab03146101e6578063486ff0cd14610206578063572b6c051461020e5780636270bc741461024e57600080fd5b80632f2ff15d116100de5780632f2ff15d14610182578063339a8fdf1461019557806336568abe146101a8578063399be749146101bb57600080fd5b806301ffc9a7146101105780631adc3fe4146101385780631d4b0c091461014d578063248a9ca31461015f575b600080fd5b61012361011e366004610f12565b6102cb565b60405190151581526020015b60405180910390f35b61014b610146366004610ecd565b610302565b005b6003545b60405190815260200161012f565b61015161016d366004610e8a565b60009081526020819052604090206001015490565b61014b610190366004610ea2565b610421565b61014b6101a3366004610ecd565b610453565b61014b6101b6366004610ea2565b61053f565b6101516101c9366004610f3a565b805160208183018101805160048252928201919093012091525481565b6101f96101f4366004610e8a565b6105cd565b60405161012f91906110b4565b6101f9610679565b61012361021c366004610e70565b7f00000000000000000000000000000000000000000000000000000000000000006001600160a01b0390811691161490565b61026161025c366004610f75565b610686565b60405161012f9190611053565b6101517fa49807205ce4d355092ef5a8a18f56e8913cf4a201fbe287825b095693c2177581565b6101236102a3366004610ea2565b610820565b610151600081565b61014b6102be366004610ea2565b610849565b61014b610871565b60006001600160e01b03198216637965db0b60e01b14806102fc57506301ffc9a760e01b6001600160e01b03198316145b92915050565b6004816040516103129190610fc2565b9081526020016040518091039020546000146103665760405162461bcd60e51b815260206004820152600e60248201526d4d617070696e672065786973747360901b60448201526064015b60405180910390fd5b816004826040516103779190610fc2565b90815260405160209181900382019020919091556003805460018101825560009190915282516103ce927fc2575a0e9e593c00f959f8c92f12db2869c3395a3b0502d05e2516446f71f85b90920191840190610d34565b50806040516103dd9190610fc2565b6040518091039020827f4e2dab399ff448984540873a40159b645c0be5c2a36fee13b4f54eca60f119f98360405161041591906110b4565b60405180910390a35050565b6000828152602081905260409020600101546104448161043f610981565b610990565b61044e83836109f4565b505050565b61047f7fa49807205ce4d355092ef5a8a18f56e8913cf4a201fbe287825b095693c217756102a3610981565b6104b45760405162461bcd60e51b815260206004820152600660248201526511195b9a595960d21b604482015260640161035d565b6004816040516104c49190610fc2565b908152602001604051809103902054600014156105105760405162461bcd60e51b815260206004820152600a6024820152694e6f206d617070696e6760b01b604482015260640161035d565b816004826040516105219190610fc2565b908152604051908190036020018120919091556103dd908290610fc2565b610547610981565b6001600160a01b0316816001600160a01b0316146105bf5760405162461bcd60e51b815260206004820152602f60248201527f416363657373436f6e74726f6c3a2063616e206f6e6c792072656e6f756e636560448201526e103937b632b9903337b91039b2b63360891b606482015260840161035d565b6105c98282610a79565b5050565b600381815481106105dd57600080fd5b9060005260206000200160009150905080546105f89061115c565b80601f01602080910402602001604051908101604052809291908181526020018280546106249061115c565b80156106715780601f1061064657610100808354040283529160200191610671565b820191906000526020600020905b81548152906001019060200180831161065457829003601f168201915b505050505081565b600280546105f89061115c565b606060008261069585826110df565b61069f91906110fe565b905060006106ad84866110df565b6003549091508111156106bf57506003545b60008467ffffffffffffffff8111156106e857634e487b7160e01b600052604160045260246000fd5b60405190808252806020026020018201604052801561071b57816020015b60608152602001906001900390816107065790505b5090505b81831015610817576003838154811061074857634e487b7160e01b600052603260045260246000fd5b90600052602060002001805461075d9061115c565b80601f01602080910402602001604051908101604052809291908181526020018280546107899061115c565b80156107d65780601f106107ab576101008083540402835291602001916107d6565b820191906000526020600020905b8154815290600101906020018083116107b957829003601f168201915b50505050508184815181106107fb57634e487b7160e01b600052603260045260246000fd5b60200260200101819052508261081090611197565b925061071f565b95945050505050565b6000918252602082815260408084206001600160a01b0393909316845291905290205460ff1690565b6000828152602081905260409020600101546108678161043f610981565b61044e8383610a79565b60015460ff16156108b25760405162461bcd60e51b815260206004820152600b60248201526a125b9a5d1a585b1a5e995960aa1b604482015260640161035d565b7f00000000000000000000000000000000000000000000000000000000000000006001600160a01b03166108e4610981565b6001600160a01b0316146109295760405162461bcd60e51b815260206004820152600c60248201526b2737ba103232b83637bcb2b960a11b604482015260640161035d565b6109737fa49807205ce4d355092ef5a8a18f56e8913cf4a201fbe287825b095693c217757f0000000000000000000000000000000000000000000000000000000000000000610afc565b6001805460ff191681179055565b600061098b610b06565b905090565b61099a8282610820565b6105c9576109b2816001600160a01b03166014610b4b565b6109bd836020610b4b565b6040516020016109ce929190610fde565b60408051601f198184030181529082905262461bcd60e51b825261035d916004016110b4565b6109fe8282610820565b6105c9576000828152602081815260408083206001600160a01b03851684529091529020805460ff19166001179055610a35610981565b6001600160a01b0316816001600160a01b0316837f2f8788117e7eff1d82e926ec794901d17c78024a50270940304540a733656f0d60405160405180910390a45050565b610a838282610820565b156105c9576000828152602081815260408083206001600160a01b03851684529091529020805460ff19169055610ab8610981565b6001600160a01b0316816001600160a01b0316837ff6391f5c32d9c69d2a47ea670b442974b53935d1edc7fd64eb21e047a839171b60405160405180910390a45050565b6105c982826109f4565b60007f00000000000000000000000000000000000000000000000000000000000000006001600160a01b0316331415610b46575060131936013560601c90565b503390565b60606000610b5a8360026110df565b610b659060026110c7565b67ffffffffffffffff811115610b8b57634e487b7160e01b600052604160045260246000fd5b6040519080825280601f01601f191660200182016040528015610bb5576020820181803683370190505b509050600360fc1b81600081518110610bde57634e487b7160e01b600052603260045260246000fd5b60200101906001600160f81b031916908160001a905350600f60fb1b81600181518110610c1b57634e487b7160e01b600052603260045260246000fd5b60200101906001600160f81b031916908160001a9053506000610c3f8460026110df565b610c4a9060016110c7565b90505b6001811115610cde576f181899199a1a9b1b9c1cb0b131b232b360811b85600f1660108110610c8c57634e487b7160e01b600052603260045260246000fd5b1a60f81b828281518110610cb057634e487b7160e01b600052603260045260246000fd5b60200101906001600160f81b031916908160001a90535060049490941c93610cd781611145565b9050610c4d565b508315610d2d5760405162461bcd60e51b815260206004820181905260248201527f537472696e67733a20686578206c656e67746820696e73756666696369656e74604482015260640161035d565b9392505050565b828054610d409061115c565b90600052602060002090601f016020900481019282610d625760008555610da8565b82601f10610d7b57805160ff1916838001178555610da8565b82800160010185558215610da8579182015b82811115610da8578251825591602001919060010190610d8d565b50610db4929150610db8565b5090565b5b80821115610db45760008155600101610db9565b80356001600160a01b0381168114610de457600080fd5b919050565b600082601f830112610df9578081fd5b813567ffffffffffffffff80821115610e1457610e146111c8565b604051601f8301601f19908116603f01168101908282118183101715610e3c57610e3c6111c8565b81604052838152866020858801011115610e54578485fd5b8360208701602083013792830160200193909352509392505050565b600060208284031215610e81578081fd5b610d2d82610dcd565b600060208284031215610e9b578081fd5b5035919050565b60008060408385031215610eb4578081fd5b82359150610ec460208401610dcd565b90509250929050565b60008060408385031215610edf578182fd5b82359150602083013567ffffffffffffffff811115610efc578182fd5b610f0885828601610de9565b9150509250929050565b600060208284031215610f23578081fd5b81356001600160e01b031981168114610d2d578182fd5b600060208284031215610f4b578081fd5b813567ffffffffffffffff811115610f61578182fd5b610f6d84828501610de9565b949350505050565b60008060408385031215610f87578182fd5b50508035926020909101359150565b60008151808452610fae816020860160208601611115565b601f01601f19169290920160200192915050565b60008251610fd4818460208701611115565b9190910192915050565b7f416363657373436f6e74726f6c3a206163636f756e7420000000000000000000815260008351611016816017850160208801611115565b7001034b99036b4b9b9b4b733903937b6329607d1b6017918401918201528351611047816028840160208801611115565b01602801949350505050565b6000602080830181845280855180835260408601915060408160051b8701019250838701855b828110156110a757603f19888603018452611095858351610f96565b94509285019290850190600101611079565b5092979650505050505050565b602081526000610d2d6020830184610f96565b600082198211156110da576110da6111b2565b500190565b60008160001904831182151516156110f9576110f96111b2565b500290565b600082821015611110576111106111b2565b500390565b60005b83811015611130578181015183820152602001611118565b8381111561113f576000848401525b50505050565b600081611154576111546111b2565b506000190190565b600181811c9082168061117057607f821691505b6020821081141561119157634e487b7160e01b600052602260045260246000fd5b50919050565b60006000198214156111ab576111ab6111b2565b5060010190565b634e487b7160e01b600052601160045260246000fd5b634e487b7160e01b600052604160045260246000fdfea2646970667358221220a9c578a017ab1c8bd826792f8342cae609c699d5287f095f8ff5836f0cea6c8664736f6c63430008040033",
  "linkReferences": {},
  "deployedLinkReferences": {}
}